{"contracts/HouseVault.sol":{"HouseVault":{"abi":[{"inputs":[],"stateMutability":"nonpayable","type":"constructor"},{"inputs":[],"name":"ReentrancyGuardReentrantCall","type":"error"},{"anonymous":false,"inputs":[{"indexed":true,"internalType":"address","name":"user","type":"address"},{"indexed":false,"internalType":"uint256","name":"amount","type":"uint256"},{"indexed":false,"internalType":"uint256","name":"sharesMinted","type":"uint256"}],"name":"Deposit","type":"event"},{"anonymous":false,"inputs":[{"indexed":false,"internalType":"address","name":"newGameContract","type":"address"}],"name":"GameContractUpdated","type":"event"},{"anonymous":false,"inputs":[{"indexed":false,"internalType":"uint256","name":"amount","type":"uint256"}],"name":"GameLoss","type":"event"},{"anonymous":false,"inputs":[{"indexed":false,"internalType":"uint256","name":"amount","type":"uint256"}],"name":"GameWin","type":"event"},{"anonymous":false,"inputs":[{"indexed":true,"internalType":"address","name":"user","type":"address"},{"indexed":false,"internalType":"uint256","name":"sharesAmount","type":"uint256"},{"indexed":false,"internalType":"uint256","name":"assetsReceived","type":"uint256"}],"name":"Withdraw","type":"event"},{"inputs":[],"name":"DEAD_SHARES","outputs":[{"internalType":"uint256","name":"","type":"uint256"}],"stateMutability":"view","type":"function"},{"inputs":[],"name":"MAX_BET_PERCENT","outputs":[{"internalType":"uint256","name":"","type":"uint256"}],"stateMutability":"view","type":"function"},{"inputs":[],"name":"MAX_DEPOSIT_PERCENT","outputs":[{"internalType":"uint256","name":"","type":"uint256"}],"stateMutability":"view","type":"function"},{"inputs":[],"name":"MIN_DEPOSIT","outputs":[{"internalType":"uint256","name":"","type":"uint256"}],"stateMutability":"view","type":"function"},{"inputs":[],"name":"MIN_POOL_RESERVE","outputs":[{"internalType":"uint256","name":"","type":"uint256"}],"stateMutability":"view","type":"function"},{"inputs":[],"name":"WITHDRAW_DELAY_BLOCKS","outputs":[{"internalType":"uint256","name":"","type":"uint256"}],"stateMutability":"view","type":"function"},{"inputs":[{"internalType":"address","name":"user","type":"address"}],"name":"balanceOf","outputs":[{"internalType":"uint256","name":"","type":"uint256"}],"stateMutability":"view","type":"function"},{"inputs":[{"internalType":"uint256","name":"amount","type":"uint256"}],"name":"canCoverBet","outputs":[{"internalType":"bool","name":"","type":"bool"}],"stateMutability":"view","type":"function"},{"inputs":[],"name":"deposit","outputs":[{"internalType":"uint256","name":"sharesMinted","type":"uint256"}],"stateMutability":"payable","type":"function"},{"inputs":[{"internalType":"address","name":"","type":"address"}],"name":"depositBlock","outputs":[{"internalType":"uint256","name":"","type":"uint256"}],"stateMutability":"view","type":"function"},{"inputs":[],"name":"gameContract","outputs":[{"internalType":"address","name":"","type":"address"}],"stateMutability":"view","type":"function"},{"inputs":[],"name":"maxBet","outputs":[{"internalType":"uint256","name":"","type":"uint256"}],"stateMutability":"view","type":"function"},{"inputs":[],"name":"owner","outputs":[{"internalType":"address","name":"","type":"address"}],"stateMutability":"view","type":"function"},{"inputs":[{"internalType":"uint256","name":"_assets","type":"uint256"}],"name":"previewDeposit","outputs":[{"internalType":"uint256","name":"","type":"uint256"}],"stateMutability":"view","type":"function"},{"inputs":[{"internalType":"uint256","name":"_shares","type":"uint256"}],"name":"previewRedeem","outputs":[{"internalType":"uint256","name":"","type":"uint256"}],"stateMutability":"view","type":"function"},{"inputs":[{"internalType":"uint256","name":"amount","type":"uint256"}],"name":"recordLoss","outputs":[{"internalType":"bool","name":"","type":"bool"}],"stateMutability":"nonpayable","type":"function"},{"inputs":[],"name":"recordWin","outputs":[],"stateMutability":"payable","type":"function"},{"inputs":[{"internalType":"address","name":"_gameContract","type":"address"}],"name":"setGameContract","outputs":[],"stateMutability":"nonpayable","type":"function"},{"inputs":[{"internalType":"address","name":"user","type":"address"}],"name":"sharePercent","outputs":[{"internalType":"uint256","name":"","type":"uint256"}],"stateMutability":"view","type":"function"},{"inputs":[{"internalType":"address","name":"","type":"address"}],"name":"shares","outputs":[{"internalType":"uint256","name":"","type":"uint256"}],"stateMutability":"view","type":"function"},{"inputs":[],"name":"totalAssets","outputs":[{"internalType":"uint256","name":"","type":"uint256"}],"stateMutability":"view","type":"function"},{"inputs":[],"name":"totalShares","outputs":[{"internalType":"uint256","name":"","type":"uint256"}],"stateMutability":"view","type":"function"},{"inputs":[{"internalType":"address","name":"newOwner","type":"address"}],"name":"transferOwnership","outputs":[],"stateMutability":"nonpayable","type":"function"},{"inputs":[{"internalType":"uint256","name":"_shares","type":"uint256"}],"name":"withdraw","outputs":[{"internalType":"uint256","name":"assets","type":"uint256"}],"stateMutability":"nonpayable","type":"function"},{"inputs":[],"name":"withdrawAll","outputs":[{"internalType":"uint256","name":"assets","type":"uint256"}],"stateMutability":"nonpayable","type":"function"},{"stateMutability":"payable","type":"receive"}],"evm":{"bytecode":{"linkReferences":{},"object":"608060405234801561001057600080fd5b50600160008190555033600160006101000a81548173ffffffffffffffffffffffffffffffffffffffff021916908373ffffffffffffffffffffffffffffffffffffffff160217905550611d72806100696000396000f3fe60806040526004361061016a5760003560e01c806370a08231116100d1578063d0e30db01161008a578063e624db8411610064578063e624db841461054b578063e6d24bbd14610576578063ef8b30f7146105b3578063f2fde38b146105f057610171565b8063d0e30db0146104d7578063d3f33009146104f5578063e1e158a51461052057610171565b806370a08231146103b1578063853828b6146103ee5780638da5cb5b146104195780639621a7e4146104445780639bffb7981461046f578063ce7c2ac21461049a57610171565b8063405ebd4d11610123578063405ebd4d1461027b5780634cdad506146102a457806354202411146102e15780636022743e1461030c5780636d4086ba146103495780636e459d481461037457610171565b806301e1d1141461017657806303eff0b8146101a1578063202019a6146101ab5780632e1a7d4d146101e85780632e5b2168146102255780633a98ef391461025057610171565b3661017157005b600080fd5b34801561018257600080fd5b5061018b610619565b6040516101989190611539565b60405180910390f35b6101a961061f565b005b3480156101b757600080fd5b506101d260048036038101906101cd91906115b7565b610744565b6040516101df9190611539565b60405180910390f35b3480156101f457600080fd5b5061020f600480360381019061020a9190611610565b61075c565b60405161021c9190611539565b60405180910390f35b34801561023157600080fd5b5061023a610ac5565b6040516102479190611539565b60405180910390f35b34801561025c57600080fd5b50610265610ae7565b6040516102729190611539565b60405180910390f35b34801561028757600080fd5b506102a2600480360381019061029d91906115b7565b610aed565b005b3480156102b057600080fd5b506102cb60048036038101906102c69190611610565b610c67565b6040516102d89190611539565b60405180910390f35b3480156102ed57600080fd5b506102f6610c9e565b6040516103039190611539565b60405180910390f35b34801561031857600080fd5b50610333600480360381019061032e9190611610565b610ca3565b6040516103409190611658565b60405180910390f35b34801561035557600080fd5b5061035e610eb5565b60405161036b9190611539565b60405180910390f35b34801561038057600080fd5b5061039b60048036038101906103969190611610565b610ec1565b6040516103a89190611658565b60405180910390f35b3480156103bd57600080fd5b506103d860048036038101906103d391906115b7565b610f2a565b6040516103e59190611539565b60405180910390f35b3480156103fa57600080fd5b50610403610f7b565b6040516104109190611539565b60405180910390f35b34801561042557600080fd5b5061042e61103d565b60405161043b9190611682565b60405180910390f35b34801561045057600080fd5b50610459611063565b6040516104669190611539565b60405180910390f35b34801561047b57600080fd5b50610484611068565b6040516104919190611539565b60405180910390f35b3480156104a657600080fd5b506104c160048036038101906104bc91906115b7565b61106e565b6040516104ce9190611539565b60405180910390f35b6104df611086565b6040516104ec9190611539565b60405180910390f35b34801561050157600080fd5b5061050a61128b565b6040516105179190611682565b60405180910390f35b34801561052c57600080fd5b506105356112b1565b6040516105429190611539565b60405180910390f35b34801561055757600080fd5b506105606112bd565b60405161056d9190611539565b60405180910390f35b34801561058257600080fd5b5061059d600480360381019061059891906115b7565b6112c2565b6040516105aa9190611539565b60405180910390f35b3480156105bf57600080fd5b506105da60048036038101906105d59190611610565b61134a565b6040516105e79190611539565b60405180910390f35b3480156105fc57600080fd5b50610617600480360381019061061291906115b7565b61138d565b005b60045481565b600260009054906101000a900473ffffffffffffffffffffffffffffffffffffffff1673ffffffffffffffffffffffffffffffffffffffff163373ffffffffffffffffffffffffffffffffffffffff16146106af576040517f08c379a00000000000000000000000000000000000000000000000000000000081526004016106a6906116fa565b60405180910390fd5b600034116106f2576040517f08c379a00000000000000000000000000000000000000000000000000000000081526004016106e990611766565b60405180910390fd5b346004600082825461070491906117b5565b925050819055507f025911b9734bd99189872dc430ca90014469d827c1da351e3d21f0da926d83dc3460405161073a9190611539565b60405180910390a1565b60066020528060005260406000206000915090505481565b60006107666114d0565b600082116107a9576040517f08c379a00000000000000000000000000000000000000000000000000000000081526004016107a090611835565b60405180910390fd5b81600560003373ffffffffffffffffffffffffffffffffffffffff1673ffffffffffffffffffffffffffffffffffffffff16815260200190815260200160002054101561082b576040517f08c379a0000000000000000000000000000000000000000000000000000000008152600401610822906118a1565b60405180910390fd5b6001600660003373ffffffffffffffffffffffffffffffffffffffff1673ffffffffffffffffffffffffffffffffffffffff1681526020019081526020016000205461087791906117b5565b43116108b8576040517f08c379a00000000000000000000000000000000000000000000000000000000081526004016108af9061190d565b60405180910390fd5b6108c182610c67565b9050678ac7230489e80000816004546108da919061192d565b1015806108f457506000816004546108f2919061192d565b145b610933576040517f08c379a000000000000000000000000000000000000000000000000000000000815260040161092a906119ad565b60405180910390fd5b81600560003373ffffffffffffffffffffffffffffffffffffffff1673ffffffffffffffffffffffffffffffffffffffff1681526020019081526020016000206000828254610982919061192d565b92505081905550816003600082825461099b919061192d565b9250508190555080600460008282546109b4919061192d565b9250508190555060003373ffffffffffffffffffffffffffffffffffffffff16826040516109e1906119fe565b60006040518083038185875af1925050503d8060008114610a1e576040519150601f19603f3d011682016040523d82523d6000602084013e610a23565b606091505b5050905080610a67576040517f08c379a0000000000000000000000000000000000000000000000000000000008152600401610a5e90611a5f565b60405180910390fd5b3373ffffffffffffffffffffffffffffffffffffffff167ff279e6a1f5e320cca91135676d9cb6e44ca8a08c0b88342bcdb1144f6511b5688484604051610aaf929190611a7f565b60405180910390a250610ac0611516565b919050565b60006064600a600454610ad89190611aa8565b610ae29190611b19565b905090565b60035481565b600160009054906101000a900473ffffffffffffffffffffffffffffffffffffffff1673ffffffffffffffffffffffffffffffffffffffff163373ffffffffffffffffffffffffffffffffffffffff1614610b7d576040517f08c379a0000000000000000000000000000000000000000000000000000000008152600401610b7490611b96565b60405180910390fd5b600073ffffffffffffffffffffffffffffffffffffffff168173ffffffffffffffffffffffffffffffffffffffff1603610bec576040517f08c379a0000000000000000000000000000000000000000000000000000000008152600401610be390611c02565b60405180910390fd5b80600260006101000a81548173ffffffffffffffffffffffffffffffffffffffff021916908373ffffffffffffffffffffffffffffffffffffffff1602179055507f94b488ee7f141e60e1c61ff77cc1188dcf8c457486d348a6802e58d765d9844781604051610c5c9190611682565b60405180910390a150565b60008060035403610c7b5760009050610c99565b60035460045483610c8c9190611aa8565b610c969190611b19565b90505b919050565b600a81565b6000600260009054906101000a900473ffffffffffffffffffffffffffffffffffffffff1673ffffffffffffffffffffffffffffffffffffffff163373ffffffffffffffffffffffffffffffffffffffff1614610d35576040517f08c379a0000000000000000000000000000000000000000000000000000000008152600401610d2c906116fa565b60405180910390fd5b678ac7230489e8000082610d4991906117b5565b6004541015610d8d576040517f08c379a0000000000000000000000000000000000000000000000000000000008152600401610d8490611c6e565b60405180910390fd5b8160046000828254610d9f919061192d565b925050819055506000600260009054906101000a900473ffffffffffffffffffffffffffffffffffffffff1673ffffffffffffffffffffffffffffffffffffffff1683604051610dee906119fe565b60006040518083038185875af1925050503d8060008114610e2b576040519150601f19603f3d011682016040523d82523d6000602084013e610e30565b606091505b5050905080610e74576040517f08c379a0000000000000000000000000000000000000000000000000000000008152600401610e6b90611a5f565b60405180910390fd5b7f78388f02d9dc4ba28ce22ed74518d0a3c763d8ae37209ac2b955e69099cc3a5583604051610ea39190611539565b60405180910390a16001915050919050565b678ac7230489e8000081565b6000610ecb610ac5565b821115610edb5760009050610f25565b6000606460be84610eec9190611aa8565b610ef69190611b19565b9050678ac7230489e8000081610f0c91906117b5565b6004541015610f1f576000915050610f25565b60019150505b919050565b6000610f74600560008473ffffffffffffffffffffffffffffffffffffffff1673ffffffffffffffffffffffffffffffffffffffff16815260200190815260200160002054610c67565b9050919050565b60003073ffffffffffffffffffffffffffffffffffffffff16632e1a7d4d600560003373ffffffffffffffffffffffffffffffffffffffff1673ffffffffffffffffffffffffffffffffffffffff168152602001908152602001600020546040518263ffffffff1660e01b8152600401610ff59190611539565b6020604051808303816000875af1158015611014573d6000803e3d6000fd5b505050506040513d601f19601f820116820180604052508101906110389190611ca3565b905090565b600160009054906101000a900473ffffffffffffffffffffffffffffffffffffffff1681565b600181565b6103e881565b60056020528060005260406000206000915090505481565b60006110906114d0565b670de0b6b3a76400003410156110db576040517f08c379a00000000000000000000000000000000000000000000000000000000081526004016110d290611d1c565b60405180910390fd5b600060035403611103576103e8346110f3919061192d565b90506103e8600381905550611121565b600454600354346111149190611aa8565b61111e9190611b19565b90505b60008111611164576040517f08c379a000000000000000000000000000000000000000000000000000000000815260040161115b90611835565b60405180910390fd5b80600560003373ffffffffffffffffffffffffffffffffffffffff1673ffffffffffffffffffffffffffffffffffffffff16815260200190815260200160002060008282546111b391906117b5565b9250508190555080600360008282546111cc91906117b5565b9250508190555034600460008282546111e591906117b5565b9250508190555043600660003373ffffffffffffffffffffffffffffffffffffffff1673ffffffffffffffffffffffffffffffffffffffff168152602001908152602001600020819055503373ffffffffffffffffffffffffffffffffffffffff167f90890809c654f11d6e72a28fa60149770a0d11ec6c92319d6ceb2bb0a4ea1a153483604051611278929190611a7f565b60405180910390a2611288611516565b90565b600260009054906101000a900473ffffffffffffffffffffffffffffffffffffffff1681565b670de0b6b3a764000081565b600a81565b600080600354036112d65760009050611345565b6003546064670de0b6b3a7640000600560008673ffffffffffffffffffffffffffffffffffffffff1673ffffffffffffffffffffffffffffffffffffffff1681526020019081526020016000205461132e9190611aa8565b6113389190611aa8565b6113429190611b19565b90505b919050565b6000806003540361136a576103e882611363919061192d565b9050611388565b6004546003548361137b9190611aa8565b6113859190611b19565b90505b919050565b600160009054906101000a900473ffffffffffffffffffffffffffffffffffffffff1673ffffffffffffffffffffffffffffffffffffffff163373ffffffffffffffffffffffffffffffffffffffff161461141d576040517f08c379a000000000000000000000000000000000000000000000000000000000815260040161141490611b96565b60405180910390fd5b600073ffffffffffffffffffffffffffffffffffffffff168173ffffffffffffffffffffffffffffffffffffffff160361148c576040517f08c379a000000000000000000000000000000000000000000000000000000000815260040161148390611c02565b60405180910390fd5b80600160006101000a81548173ffffffffffffffffffffffffffffffffffffffff021916908373ffffffffffffffffffffffffffffffffffffffff16021790555050565b60026000540361150c576040517f3ee5aeb500000000000000000000000000000000000000000000000000000000815260040160405180910390fd5b6002600081905550565b6001600081905550565b6000819050919050565b61153381611520565b82525050565b600060208201905061154e600083018461152a565b92915050565b600080fd5b600073ffffffffffffffffffffffffffffffffffffffff82169050919050565b600061158482611559565b9050919050565b61159481611579565b811461159f57600080fd5b50565b6000813590506115b18161158b565b92915050565b6000602082840312156115cd576115cc611554565b5b60006115db848285016115a2565b91505092915050565b6115ed81611520565b81146115f857600080fd5b50565b60008135905061160a816115e4565b92915050565b60006020828403121561162657611625611554565b5b6000611634848285016115fb565b91505092915050565b60008115159050919050565b6116528161163d565b82525050565b600060208201905061166d6000830184611649565b92915050565b61167c81611579565b82525050565b60006020820190506116976000830184611673565b92915050565b600082825260208201905092915050565b7f4e6f742067616d6520636f6e7472616374000000000000000000000000000000600082015250565b60006116e460118361169d565b91506116ef826116ae565b602082019050919050565b60006020820190508181036000830152611713816116d7565b9050919050565b7f4e6f2076616c75652073656e7400000000000000000000000000000000000000600082015250565b6000611750600d8361169d565b915061175b8261171a565b602082019050919050565b6000602082019050818103600083015261177f81611743565b9050919050565b7f4e487b7100000000000000000000000000000000000000000000000000000000600052601160045260246000fd5b60006117c082611520565b91506117cb83611520565b92508282019050808211156117e3576117e2611786565b5b92915050565b7f5a65726f20736861726573000000000000000000000000000000000000000000600082015250565b600061181f600b8361169d565b915061182a826117e9565b602082019050919050565b6000602082019050818103600083015261184e81611812565b9050919050565b7f496e73756666696369656e742073686172657300000000000000000000000000600082015250565b600061188b60138361169d565b915061189682611855565b602082019050919050565b600060208201905081810360008301526118ba8161187e565b9050919050565b7f57697468647261772064656c6179206e6f74206d657400000000000000000000600082015250565b60006118f760168361169d565b9150611902826118c1565b602082019050919050565b60006020820190508181036000830152611926816118ea565b9050919050565b600061193882611520565b915061194383611520565b925082820390508181111561195b5761195a611786565b5b92915050565b7f42656c6f77206d696e2072657365727665000000000000000000000000000000600082015250565b600061199760118361169d565b91506119a282611961565b602082019050919050565b600060208201905081810360008301526119c68161198a565b9050919050565b600081905092915050565b50565b60006119e86000836119cd565b91506119f3826119d8565b600082019050919050565b6000611a09826119db565b9150819050919050565b7f5472616e73666572206661696c65640000000000000000000000000000000000600082015250565b6000611a49600f8361169d565b9150611a5482611a13565b602082019050919050565b60006020820190508181036000830152611a7881611a3c565b9050919050565b6000604082019050611a94600083018561152a565b611aa1602083018461152a565b9392505050565b6000611ab382611520565b9150611abe83611520565b9250828202611acc81611520565b91508282048414831517611ae357611ae2611786565b5b5092915050565b7f4e487b7100000000000000000000000000000000000000000000000000000000600052601260045260246000fd5b6000611b2482611520565b9150611b2f83611520565b925082611b3f57611b3e611aea565b5b828204905092915050565b7f4e6f74206f776e65720000000000000000000000000000000000000000000000600082015250565b6000611b8060098361169d565b9150611b8b82611b4a565b602082019050919050565b60006020820190508181036000830152611baf81611b73565b9050919050565b7f496e76616c696420616464726573730000000000000000000000000000000000600082015250565b6000611bec600f8361169d565b9150611bf782611bb6565b602082019050919050565b60006020820190508181036000830152611c1b81611bdf565b9050919050565b7f496e73756666696369656e7420706f6f6c000000000000000000000000000000600082015250565b6000611c5860118361169d565b9150611c6382611c22565b602082019050919050565b60006020820190508181036000830152611c8781611c4b565b9050919050565b600081519050611c9d816115e4565b92915050565b600060208284031215611cb957611cb8611554565b5b6000611cc784828501611c8e565b91505092915050565b7f42656c6f77206d696e206465706f736974000000000000000000000000000000600082015250565b6000611d0660118361169d565b9150611d1182611cd0565b602082019050919050565b60006020820190508181036000830152611d3581611cf9565b905091905056fea264697066735822122045bb44f3073046281041d459d2793f277874787993315b8394cda1b73c011e9764736f6c63430008180033","opcodes":"PUSH1 0x80 PUSH1 0x40 MSTORE CALLVALUE DUP1 ISZERO PUSH2 0x10 JUMPI PUSH1 0x0 DUP1 REVERT JUMPDEST POP PUSH1 0x1 PUSH1 0x0 DUP2 SWAP1 SSTORE POP CALLER PUSH1 0x1 PUSH1 0x0 PUSH2 0x100 EXP DUP2 SLOAD DUP2 PUSH20 0xFFFFFFFFFFFFFFFFFFFFFFFFFFFFFFFFFFFFFFFF MUL NOT AND SWAP1 DUP4 PUSH20 0xFFFFFFFFFFFFFFFFFFFFFFFFFFFFFFFFFFFFFFFF AND MUL OR SWAP1 SSTORE POP PUSH2 0x1D72 DUP1 PUSH2 0x69 PUSH1 0x0 CODECOPY PUSH1 0x0 RETURN INVALID PUSH1 0x80 PUSH1 0x40 MSTORE PUSH1 0x4 CALLDATASIZE LT PUSH2 0x16A JUMPI PUSH1 0x0 CALLDATALOAD PUSH1 0xE0 SHR DUP1 PUSH4 0x70A08231 GT PUSH2 0xD1 JUMPI DUP1 PUSH4 0xD0E30DB0 GT PUSH2 0x8A JUMPI DUP1 PUSH4 0xE624DB84 GT PUSH2 0x64 JUMPI DUP1 PUSH4 0xE624DB84 EQ PUSH2 0x54B JUMPI DUP1 PUSH4 0xE6D24BBD EQ PUSH2 0x576 JUMPI DUP1 PUSH4 0xEF8B30F7 EQ PUSH2 0x5B3 JUMPI DUP1 PUSH4 0xF2FDE38B EQ PUSH2 0x5F0 JUMPI PUSH2 0x171 JUMP JUMPDEST DUP1 PUSH4 0xD0E30DB0 EQ PUSH2 0x4D7 JUMPI DUP1 PUSH4 0xD3F33009 EQ PUSH2 0x4F5 JUMPI DUP1 PUSH4 0xE1E158A5 EQ PUSH2 0x520 JUMPI PUSH2 0x171 JUMP JUMPDEST DUP1 PUSH4 0x70A08231 EQ PUSH2 0x3B1 JUMPI DUP1 PUSH4 0x853828B6 EQ PUSH2 0x3EE JUMPI DUP1 PUSH4 0x8DA5CB5B EQ PUSH2 0x419 JUMPI DUP1 PUSH4 0x9621A7E4 EQ PUSH2 0x444 JUMPI DUP1 PUSH4 0x9BFFB798 EQ PUSH2 0x46F JUMPI DUP1 PUSH4 0xCE7C2AC2 EQ PUSH2 0x49A JUMPI PUSH2 0x171 JUMP JUMPDEST DUP1 PUSH4 0x405EBD4D GT PUSH2 0x123 JUMPI DUP1 PUSH4 0x405EBD4D EQ PUSH2 0x27B JUMPI DUP1 PUSH4 0x4CDAD506 EQ PUSH2 0x2A4 JUMPI DUP1 PUSH4 0x54202411 EQ PUSH2 0x2E1 JUMPI DUP1 PUSH4 0x6022743E EQ PUSH2 0x30C JUMPI DUP1 PUSH4 0x6D4086BA EQ PUSH2 0x349 JUMPI DUP1 PUSH4 0x6E459D48 EQ PUSH2 0x374 JUMPI PUSH2 0x171 JUMP JUMPDEST DUP1 PUSH4 0x1E1D114 EQ PUSH2 0x176 JUMPI DUP1 PUSH4 0x3EFF0B8 EQ PUSH2 0x1A1 JUMPI DUP1 PUSH4 0x202019A6 EQ PUSH2 0x1AB JUMPI DUP1 PUSH4 0x2E1A7D4D EQ PUSH2 0x1E8 JUMPI DUP1 PUSH4 0x2E5B2168 EQ PUSH2 0x225 JUMPI DUP1 PUSH4 0x3A98EF39 EQ PUSH2 0x250 JUMPI PUSH2 0x171 JUMP JUMPDEST CALLDATASIZE PUSH2 0x171 JUMPI STOP JUMPDEST PUSH1 0x0 DUP1 REVERT JUMPDEST CALLVALUE DUP1 ISZERO PUSH2 0x182 JUMPI PUSH1 0x0 DUP1 REVERT JUMPDEST POP PUSH2 0x18B PUSH2 0x619 JUMP JUMPDEST PUSH1 0x40 MLOAD PUSH2 0x198 SWAP2 SWAP1 PUSH2 0x1539 JUMP JUMPDEST PUSH1 0x40 MLOAD DUP1 SWAP2 SUB SWAP1 RETURN JUMPDEST PUSH2 0x1A9 PUSH2 0x61F JUMP JUMPDEST STOP JUMPDEST CALLVALUE DUP1 ISZERO PUSH2 0x1B7 JUMPI PUSH1 0x0 DUP1 REVERT JUMPDEST POP PUSH2 0x1D2 PUSH1 0x4 DUP1 CALLDATASIZE SUB DUP2 ADD SWAP1 PUSH2 0x1CD SWAP2 SWAP1 PUSH2 0x15B7 JUMP JUMPDEST PUSH2 0x744 JUMP JUMPDEST PUSH1 0x40 MLOAD PUSH2 0x1DF SWAP2 SWAP1 PUSH2 0x1539 JUMP JUMPDEST PUSH1 0x40 MLOAD DUP1 SWAP2 SUB SWAP1 RETURN JUMPDEST CALLVALUE DUP1 ISZERO PUSH2 0x1F4 JUMPI PUSH1 0x0 DUP1 REVERT JUMPDEST POP PUSH2 0x20F PUSH1 0x4 DUP1 CALLDATASIZE SUB DUP2 ADD SWAP1 PUSH2 0x20A SWAP2 SWAP1 PUSH2 0x1610 JUMP JUMPDEST PUSH2 0x75C JUMP JUMPDEST PUSH1 0x40 MLOAD PUSH2 0x21C SWAP2 SWAP1 PUSH2 0x1539 JUMP JUMPDEST PUSH1 0x40 MLOAD DUP1 SWAP2 SUB SWAP1 RETURN JUMPDEST CALLVALUE DUP1 ISZERO PUSH2 0x231 JUMPI PUSH1 0x0 DUP1 REVERT JUMPDEST POP PUSH2 0x23A PUSH2 0xAC5 JUMP JUMPDEST PUSH1 0x40 MLOAD PUSH2 0x247 SWAP2 SWAP1 PUSH2 0x1539 JUMP JUMPDEST PUSH1 0x40 MLOAD DUP1 SWAP2 SUB SWAP1 RETURN JUMPDEST CALLVALUE DUP1 ISZERO PUSH2 0x25C JUMPI PUSH1 0x0 DUP1 REVERT JUMPDEST POP PUSH2 0x265 PUSH2 0xAE7 JUMP JUMPDEST PUSH1 0x40 MLOAD PUSH2 0x272 SWAP2 SWAP1 PUSH2 0x1539 JUMP JUMPDEST PUSH1 0x40 MLOAD DUP1 SWAP2 SUB SWAP1 RETURN JUMPDEST CALLVALUE DUP1 ISZERO PUSH2 0x287 JUMPI PUSH1 0x0 DUP1 REVERT JUMPDEST POP PUSH2 0x2A2 PUSH1 0x4 DUP1 CALLDATASIZE SUB DUP2 ADD SWAP1 PUSH2 0x29D SWAP2 SWAP1 PUSH2 0x15B7 JUMP JUMPDEST PUSH2 0xAED JUMP JUMPDEST STOP JUMPDEST CALLVALUE DUP1 ISZERO PUSH2 0x2B0 JUMPI PUSH1 0x0 DUP1 REVERT JUMPDEST POP PUSH2 0x2CB PUSH1 0x4 DUP1 CALLDATASIZE SUB DUP2 ADD SWAP1 PUSH2 0x2C6 SWAP2 SWAP1 PUSH2 0x1610 JUMP JUMPDEST PUSH2 0xC67 JUMP JUMPDEST PUSH1 0x40 MLOAD PUSH2 0x2D8 SWAP2 SWAP1 PUSH2 0x1539 JUMP JUMPDEST PUSH1 0x40 MLOAD DUP1 SWAP2 SUB SWAP1 RETURN JUMPDEST CALLVALUE DUP1 ISZERO PUSH2 0x2ED JUMPI PUSH1 0x0 DUP1 REVERT JUMPDEST POP PUSH2 0x2F6 PUSH2 0xC9E JUMP JUMPDEST PUSH1 0x40 MLOAD PUSH2 0x303 SWAP2 SWAP1 PUSH2 0x1539 JUMP JUMPDEST PUSH1 0x40 MLOAD DUP1 SWAP2 SUB SWAP1 RETURN JUMPDEST CALLVALUE DUP1 ISZERO PUSH2 0x318 JUMPI PUSH1 0x0 DUP1 REVERT JUMPDEST POP PUSH2 0x333 PUSH1 0x4 DUP1 CALLDATASIZE SUB DUP2 ADD SWAP1 PUSH2 0x32E SWAP2 SWAP1 PUSH2 0x1610 JUMP JUMPDEST PUSH2 0xCA3 JUMP JUMPDEST PUSH1 0x40 MLOAD PUSH2 0x340 SWAP2 SWAP1 PUSH2 0x1658 JUMP JUMPDEST PUSH1 0x40 MLOAD DUP1 SWAP2 SUB SWAP1 RETURN JUMPDEST CALLVALUE DUP1 ISZERO PUSH2 0x355 JUMPI PUSH1 0x0 DUP1 REVERT JUMPDEST POP PUSH2 0x35E PUSH2 0xEB5 JUMP JUMPDEST PUSH1 0x40 MLOAD PUSH2 0x36B SWAP2 SWAP1 PUSH2 0x1539 JUMP JUMPDEST PUSH1 0x40 MLOAD DUP1 SWAP2 SUB SWAP1 RETURN JUMPDEST CALLVALUE DUP1 ISZERO PUSH2 0x380 JUMPI PUSH1 0x0 DUP1 REVERT JUMPDEST POP PUSH2 0x39B PUSH1 0x4 DUP1 CALLDATASIZE SUB DUP2 ADD SWAP1 PUSH2 0x396 SWAP2 SWAP1 PUSH2 0x1610 JUMP JUMPDEST PUSH2 0xEC1 JUMP JUMPDEST PUSH1 0x40 MLOAD PUSH2 0x3A8 SWAP2 SWAP1 PUSH2 0x1658 JUMP JUMPDEST PUSH1 0x40 MLOAD DUP1 SWAP2 SUB SWAP1 RETURN JUMPDEST CALLVALUE DUP1 ISZERO PUSH2 0x3BD JUMPI PUSH1 0x0 DUP1 REVERT JUMPDEST POP PUSH2 0x3D8 PUSH1 0x4 DUP1 CALLDATASIZE SUB DUP2 ADD SWAP1 PUSH2 0x3D3 SWAP2 SWAP1 PUSH2 0x15B7 JUMP JUMPDEST PUSH2 0xF2A JUMP JUMPDEST PUSH1 0x40 MLOAD PUSH2 0x3E5 SWAP2 SWAP1 PUSH2 0x1539 JUMP JUMPDEST PUSH1 0x40 MLOAD DUP1 SWAP2 SUB SWAP1 RETURN JUMPDEST CALLVALUE DUP1 ISZERO PUSH2 0x3FA JUMPI PUSH1 0x0 DUP1 REVERT JUMPDEST POP PUSH2 0x403 PUSH2 0xF7B JUMP JUMPDEST PUSH1 0x40 MLOAD PUSH2 0x410 SWAP2 SWAP1 PUSH2 0x1539 JUMP JUMPDEST PUSH1 0x40 MLOAD DUP1 SWAP2 SUB SWAP1 RETURN JUMPDEST CALLVALUE DUP1 ISZERO PUSH2 0x425 JUMPI PUSH1 0x0 DUP1 REVERT JUMPDEST POP PUSH2 0x42E PUSH2 0x103D JUMP JUMPDEST PUSH1 0x40 MLOAD PUSH2 0x43B SWAP2 SWAP1 PUSH2 0x1682 JUMP JUMPDEST PUSH1 0x40 MLOAD DUP1 SWAP2 SUB SWAP1 RETURN JUMPDEST CALLVALUE DUP1 ISZERO PUSH2 0x450 JUMPI PUSH1 0x0 DUP1 REVERT JUMPDEST POP PUSH2 0x459 PUSH2 0x1063 JUMP JUMPDEST PUSH1 0x40 MLOAD PUSH2 0x466 SWAP2 SWAP1 PUSH2 0x1539 JUMP JUMPDEST PUSH1 0x40 MLOAD DUP1 SWAP2 SUB SWAP1 RETURN JUMPDEST CALLVALUE DUP1 ISZERO PUSH2 0x47B JUMPI PUSH1 0x0 DUP1 REVERT JUMPDEST POP PUSH2 0x484 PUSH2 0x1068 JUMP JUMPDEST PUSH1 0x40 MLOAD PUSH2 0x491 SWAP2 SWAP1 PUSH2 0x1539 JUMP JUMPDEST PUSH1 0x40 MLOAD DUP1 SWAP2 SUB SWAP1 RETURN JUMPDEST CALLVALUE DUP1 ISZERO PUSH2 0x4A6 JUMPI PUSH1 0x0 DUP1 REVERT JUMPDEST POP PUSH2 0x4C1 PUSH1 0x4 DUP1 CALLDATASIZE SUB DUP2 ADD SWAP1 PUSH2 0x4BC SWAP2 SWAP1 PUSH2 0x15B7 JUMP JUMPDEST PUSH2 0x106E JUMP JUMPDEST PUSH1 0x40 MLOAD PUSH2 0x4CE SWAP2 SWAP1 PUSH2 0x1539 JUMP JUMPDEST PUSH1 0x40 MLOAD DUP1 SWAP2 SUB SWAP1 RETURN JUMPDEST PUSH2 0x4DF PUSH2 0x1086 JUMP JUMPDEST PUSH1 0x40 MLOAD PUSH2 0x4EC SWAP2 SWAP1 PUSH2 0x1539 JUMP JUMPDEST PUSH1 0x40 MLOAD DUP1 SWAP2 SUB SWAP1 RETURN JUMPDEST CALLVALUE DUP1 ISZERO PUSH2 0x501 JUMPI PUSH1 0x0 DUP1 REVERT JUMPDEST POP PUSH2 0x50A PUSH2 0x128B JUMP JUMPDEST PUSH1 0x40 MLOAD PUSH2 0x517 SWAP2 SWAP1 PUSH2 0x1682 JUMP JUMPDEST PUSH1 0x40 MLOAD DUP1 SWAP2 SUB SWAP1 RETURN JUMPDEST CALLVALUE DUP1 ISZERO PUSH2 0x52C JUMPI PUSH1 0x0 DUP1 REVERT JUMPDEST POP PUSH2 0x535 PUSH2 0x12B1 JUMP JUMPDEST PUSH1 0x40 MLOAD PUSH2 0x542 SWAP2 SWAP1 PUSH2 0x1539 JUMP JUMPDEST PUSH1 0x40 MLOAD DUP1 SWAP2 SUB SWAP1 RETURN JUMPDEST CALLVALUE DUP1 ISZERO PUSH2 0x557 JUMPI PUSH1 0x0 DUP1 REVERT JUMPDEST POP PUSH2 0x560 PUSH2 0x12BD JUMP JUMPDEST PUSH1 0x40 MLOAD PUSH2 0x56D SWAP2 SWAP1 PUSH2 0x1539 JUMP JUMPDEST PUSH1 0x40 MLOAD DUP1 SWAP2 SUB SWAP1 RETURN JUMPDEST CALLVALUE DUP1 ISZERO PUSH2 0x582 JUMPI PUSH1 0x0 DUP1 REVERT JUMPDEST POP PUSH2 0x59D PUSH1 0x4 DUP1 CALLDATASIZE SUB DUP2 ADD SWAP1 PUSH2 0x598 SWAP2 SWAP1 PUSH2 0x15B7 JUMP JUMPDEST PUSH2 0x12C2 JUMP JUMPDEST PUSH1 0x40 MLOAD PUSH2 0x5AA SWAP2 SWAP1 PUSH2 0x1539 JUMP JUMPDEST PUSH1 0x40 MLOAD DUP1 SWAP2 SUB SWAP1 RETURN JUMPDEST CALLVALUE DUP1 ISZERO PUSH2 0x5BF JUMPI PUSH1 0x0 DUP1 REVERT JUMPDEST POP PUSH2 0x5DA PUSH1 0x4 DUP1 CALLDATASIZE SUB DUP2 ADD SWAP1 PUSH2 0x5D5 SWAP2 SWAP1 PUSH2 0x1610 JUMP JUMPDEST PUSH2 0x134A JUMP JUMPDEST PUSH1 0x40 MLOAD PUSH2 0x5E7 SWAP2 SWAP1 PUSH2 0x1539 JUMP JUMPDEST PUSH1 0x40 MLOAD DUP1 SWAP2 SUB SWAP1 RETURN JUMPDEST CALLVALUE DUP1 ISZERO PUSH2 0x5FC JUMPI PUSH1 0x0 DUP1 REVERT JUMPDEST POP PUSH2 0x617 PUSH1 0x4 DUP1 CALLDATASIZE SUB DUP2 ADD SWAP1 PUSH2 0x612 SWAP2 SWAP1 PUSH2 0x15B7 JUMP JUMPDEST PUSH2 0x138D JUMP JUMPDEST STOP JUMPDEST PUSH1 0x4 SLOAD DUP2 JUMP JUMPDEST PUSH1 0x2 PUSH1 0x0 SWAP1 SLOAD SWAP1 PUSH2 0x100 EXP SWAP1 DIV PUSH20 0xFFFFFFFFFFFFFFFFFFFFFFFFFFFFFFFFFFFFFFFF AND PUSH20 0xFFFFFFFFFFFFFFFFFFFFFFFFFFFFFFFFFFFFFFFF AND CALLER PUSH20 0xFFFFFFFFFFFFFFFFFFFFFFFFFFFFFFFFFFFFFFFF AND EQ PUSH2 0x6AF JUMPI PUSH1 0x40 MLOAD PUSH32 0x8C379A000000000000000000000000000000000000000000000000000000000 DUP2 MSTORE PUSH1 0x4 ADD PUSH2 0x6A6 SWAP1 PUSH2 0x16FA JUMP JUMPDEST PUSH1 0x40 MLOAD DUP1 SWAP2 SUB SWAP1 REVERT JUMPDEST PUSH1 0x0 CALLVALUE GT PUSH2 0x6F2 JUMPI PUSH1 0x40 MLOAD PUSH32 0x8C379A000000000000000000000000000000000000000000000000000000000 DUP2 MSTORE PUSH1 0x4 ADD PUSH2 0x6E9 SWAP1 PUSH2 0x1766 JUMP JUMPDEST PUSH1 0x40 MLOAD DUP1 SWAP2 SUB SWAP1 REVERT JUMPDEST CALLVALUE PUSH1 0x4 PUSH1 0x0 DUP3 DUP3 SLOAD PUSH2 0x704 SWAP2 SWAP1 PUSH2 0x17B5 JUMP JUMPDEST SWAP3 POP POP DUP2 SWAP1 SSTORE POP PUSH32 0x25911B9734BD99189872DC430CA90014469D827C1DA351E3D21F0DA926D83DC CALLVALUE PUSH1 0x40 MLOAD PUSH2 0x73A SWAP2 SWAP1 PUSH2 0x1539 JUMP JUMPDEST PUSH1 0x40 MLOAD DUP1 SWAP2 SUB SWAP1 LOG1 JUMP JUMPDEST PUSH1 0x6 PUSH1 0x20 MSTORE DUP1 PUSH1 0x0 MSTORE PUSH1 0x40 PUSH1 0x0 KECCAK256 PUSH1 0x0 SWAP2 POP SWAP1 POP SLOAD DUP2 JUMP JUMPDEST PUSH1 0x0 PUSH2 0x766 PUSH2 0x14D0 JUMP JUMPDEST PUSH1 0x0 DUP3 GT PUSH2 0x7A9 JUMPI PUSH1 0x40 MLOAD PUSH32 0x8C379A000000000000000000000000000000000000000000000000000000000 DUP2 MSTORE PUSH1 0x4 ADD PUSH2 0x7A0 SWAP1 PUSH2 0x1835 JUMP JUMPDEST PUSH1 0x40 MLOAD DUP1 SWAP2 SUB SWAP1 REVERT JUMPDEST DUP2 PUSH1 0x5 PUSH1 0x0 CALLER PUSH20 0xFFFFFFFFFFFFFFFFFFFFFFFFFFFFFFFFFFFFFFFF AND PUSH20 0xFFFFFFFFFFFFFFFFFFFFFFFFFFFFFFFFFFFFFFFF AND DUP2 MSTORE PUSH1 0x20 ADD SWAP1 DUP2 MSTORE PUSH1 0x20 ADD PUSH1 0x0 KECCAK256 SLOAD LT ISZERO PUSH2 0x82B JUMPI PUSH1 0x40 MLOAD PUSH32 0x8C379A000000000000000000000000000000000000000000000000000000000 DUP2 MSTORE PUSH1 0x4 ADD PUSH2 0x822 SWAP1 PUSH2 0x18A1 JUMP JUMPDEST PUSH1 0x40 MLOAD DUP1 SWAP2 SUB SWAP1 REVERT JUMPDEST PUSH1 0x1 PUSH1 0x6 PUSH1 0x0 CALLER PUSH20 0xFFFFFFFFFFFFFFFFFFFFFFFFFFFFFFFFFFFFFFFF AND PUSH20 0xFFFFFFFFFFFFFFFFFFFFFFFFFFFFFFFFFFFFFFFF AND DUP2 MSTORE PUSH1 0x20 ADD SWAP1 DUP2 MSTORE PUSH1 0x20 ADD PUSH1 0x0 KECCAK256 SLOAD PUSH2 0x877 SWAP2 SWAP1 PUSH2 0x17B5 JUMP JUMPDEST NUMBER GT PUSH2 0x8B8 JUMPI PUSH1 0x40 MLOAD PUSH32 0x8C379A000000000000000000000000000000000000000000000000000000000 DUP2 MSTORE PUSH1 0x4 ADD PUSH2 0x8AF SWAP1 PUSH2 0x190D JUMP JUMPDEST PUSH1 0x40 MLOAD DUP1 SWAP2 SUB SWAP1 REVERT JUMPDEST PUSH2 0x8C1 DUP3 PUSH2 0xC67 JUMP JUMPDEST SWAP1 POP PUSH8 0x8AC7230489E80000 DUP2 PUSH1 0x4 SLOAD PUSH2 0x8DA SWAP2 SWAP1 PUSH2 0x192D JUMP JUMPDEST LT ISZERO DUP1 PUSH2 0x8F4 JUMPI POP PUSH1 0x0 DUP2 PUSH1 0x4 SLOAD PUSH2 0x8F2 SWAP2 SWAP1 PUSH2 0x192D JUMP JUMPDEST EQ JUMPDEST PUSH2 0x933 JUMPI PUSH1 0x40 MLOAD PUSH32 0x8C379A000000000000000000000000000000000000000000000000000000000 DUP2 MSTORE PUSH1 0x4 ADD PUSH2 0x92A SWAP1 PUSH2 0x19AD JUMP JUMPDEST PUSH1 0x40 MLOAD DUP1 SWAP2 SUB SWAP1 REVERT JUMPDEST DUP2 PUSH1 0x5 PUSH1 0x0 CALLER PUSH20 0xFFFFFFFFFFFFFFFFFFFFFFFFFFFFFFFFFFFFFFFF AND PUSH20 0xFFFFFFFFFFFFFFFFFFFFFFFFFFFFFFFFFFFFFFFF AND DUP2 MSTORE PUSH1 0x20 ADD SWAP1 DUP2 MSTORE PUSH1 0x20 ADD PUSH1 0x0 KECCAK256 PUSH1 0x0 DUP3 DUP3 SLOAD PUSH2 0x982 SWAP2 SWAP1 PUSH2 0x192D JUMP JUMPDEST SWAP3 POP POP DUP2 SWAP1 SSTORE POP DUP2 PUSH1 0x3 PUSH1 0x0 DUP3 DUP3 SLOAD PUSH2 0x99B SWAP2 SWAP1 PUSH2 0x192D JUMP JUMPDEST SWAP3 POP POP DUP2 SWAP1 SSTORE POP DUP1 PUSH1 0x4 PUSH1 0x0 DUP3 DUP3 SLOAD PUSH2 0x9B4 SWAP2 SWAP1 PUSH2 0x192D JUMP JUMPDEST SWAP3 POP POP DUP2 SWAP1 SSTORE POP PUSH1 0x0 CALLER PUSH20 0xFFFFFFFFFFFFFFFFFFFFFFFFFFFFFFFFFFFFFFFF AND DUP3 PUSH1 0x40 MLOAD PUSH2 0x9E1 SWAP1 PUSH2 0x19FE JUMP JUMPDEST PUSH1 0x0 PUSH1 0x40 MLOAD DUP1 DUP4 SUB DUP2 DUP6 DUP8 GAS CALL SWAP3 POP POP POP RETURNDATASIZE DUP1 PUSH1 0x0 DUP2 EQ PUSH2 0xA1E JUMPI PUSH1 0x40 MLOAD SWAP2 POP PUSH1 0x1F NOT PUSH1 0x3F RETURNDATASIZE ADD AND DUP3 ADD PUSH1 0x40 MSTORE RETURNDATASIZE DUP3 MSTORE RETURNDATASIZE PUSH1 0x0 PUSH1 0x20 DUP5 ADD RETURNDATACOPY PUSH2 0xA23 JUMP JUMPDEST PUSH1 0x60 SWAP2 POP JUMPDEST POP POP SWAP1 POP DUP1 PUSH2 0xA67 JUMPI PUSH1 0x40 MLOAD PUSH32 0x8C379A000000000000000000000000000000000000000000000000000000000 DUP2 MSTORE PUSH1 0x4 ADD PUSH2 0xA5E SWAP1 PUSH2 0x1A5F JUMP JUMPDEST PUSH1 0x40 MLOAD DUP1 SWAP2 SUB SWAP1 REVERT JUMPDEST CALLER PUSH20 0xFFFFFFFFFFFFFFFFFFFFFFFFFFFFFFFFFFFFFFFF AND PUSH32 0xF279E6A1F5E320CCA91135676D9CB6E44CA8A08C0B88342BCDB1144F6511B568 DUP5 DUP5 PUSH1 0x40 MLOAD PUSH2 0xAAF SWAP3 SWAP2 SWAP1 PUSH2 0x1A7F JUMP JUMPDEST PUSH1 0x40 MLOAD DUP1 SWAP2 SUB SWAP1 LOG2 POP PUSH2 0xAC0 PUSH2 0x1516 JUMP JUMPDEST SWAP2 SWAP1 POP JUMP JUMPDEST PUSH1 0x0 PUSH1 0x64 PUSH1 0xA PUSH1 0x4 SLOAD PUSH2 0xAD8 SWAP2 SWAP1 PUSH2 0x1AA8 JUMP JUMPDEST PUSH2 0xAE2 SWAP2 SWAP1 PUSH2 0x1B19 JUMP JUMPDEST SWAP1 POP SWAP1 JUMP JUMPDEST PUSH1 0x3 SLOAD DUP2 JUMP JUMPDEST PUSH1 0x1 PUSH1 0x0 SWAP1 SLOAD SWAP1 PUSH2 0x100 EXP SWAP1 DIV PUSH20 0xFFFFFFFFFFFFFFFFFFFFFFFFFFFFFFFFFFFFFFFF AND PUSH20 0xFFFFFFFFFFFFFFFFFFFFFFFFFFFFFFFFFFFFFFFF AND CALLER PUSH20 0xFFFFFFFFFFFFFFFFFFFFFFFFFFFFFFFFFFFFFFFF AND EQ PUSH2 0xB7D JUMPI PUSH1 0x40 MLOAD PUSH32 0x8C379A000000000000000000000000000000000000000000000000000000000 DUP2 MSTORE PUSH1 0x4 ADD PUSH2 0xB74 SWAP1 PUSH2 0x1B96 JUMP JUMPDEST PUSH1 0x40 MLOAD DUP1 SWAP2 SUB SWAP1 REVERT JUMPDEST PUSH1 0x0 PUSH20 0xFFFFFFFFFFFFFFFFFFFFFFFFFFFFFFFFFFFFFFFF AND DUP2 PUSH20 0xFFFFFFFFFFFFFFFFFFFFFFFFFFFFFFFFFFFFFFFF AND SUB PUSH2 0xBEC JUMPI PUSH1 0x40 MLOAD PUSH32 0x8C379A000000000000000000000000000000000000000000000000000000000 DUP2 MSTORE PUSH1 0x4 ADD PUSH2 0xBE3 SWAP1 PUSH2 0x1C02 JUMP JUMPDEST PUSH1 0x40 MLOAD DUP1 SWAP2 SUB SWAP1 REVERT JUMPDEST DUP1 PUSH1 0x2 PUSH1 0x0 PUSH2 0x100 EXP DUP2 SLOAD DUP2 PUSH20 0xFFFFFFFFFFFFFFFFFFFFFFFFFFFFFFFFFFFFFFFF MUL NOT AND SWAP1 DUP4 PUSH20 0xFFFFFFFFFFFFFFFFFFFFFFFFFFFFFFFFFFFFFFFF AND MUL OR SWAP1 SSTORE POP PUSH32 0x94B488EE7F141E60E1C61FF77CC1188DCF8C457486D348A6802E58D765D98447 DUP2 PUSH1 0x40 MLOAD PUSH2 0xC5C SWAP2 SWAP1 PUSH2 0x1682 JUMP JUMPDEST PUSH1 0x40 MLOAD DUP1 SWAP2 SUB SWAP1 LOG1 POP JUMP JUMPDEST PUSH1 0x0 DUP1 PUSH1 0x3 SLOAD SUB PUSH2 0xC7B JUMPI PUSH1 0x0 SWAP1 POP PUSH2 0xC99 JUMP JUMPDEST PUSH1 0x3 SLOAD PUSH1 0x4 SLOAD DUP4 PUSH2 0xC8C SWAP2 SWAP1 PUSH2 0x1AA8 JUMP JUMPDEST PUSH2 0xC96 SWAP2 SWAP1 PUSH2 0x1B19 JUMP JUMPDEST SWAP1 POP JUMPDEST SWAP2 SWAP1 POP JUMP JUMPDEST PUSH1 0xA DUP2 JUMP JUMPDEST PUSH1 0x0 PUSH1 0x2 PUSH1 0x0 SWAP1 SLOAD SWAP1 PUSH2 0x100 EXP SWAP1 DIV PUSH20 0xFFFFFFFFFFFFFFFFFFFFFFFFFFFFFFFFFFFFFFFF AND PUSH20 0xFFFFFFFFFFFFFFFFFFFFFFFFFFFFFFFFFFFFFFFF AND CALLER PUSH20 0xFFFFFFFFFFFFFFFFFFFFFFFFFFFFFFFFFFFFFFFF AND EQ PUSH2 0xD35 JUMPI PUSH1 0x40 MLOAD PUSH32 0x8C379A000000000000000000000000000000000000000000000000000000000 DUP2 MSTORE PUSH1 0x4 ADD PUSH2 0xD2C SWAP1 PUSH2 0x16FA JUMP JUMPDEST PUSH1 0x40 MLOAD DUP1 SWAP2 SUB SWAP1 REVERT JUMPDEST PUSH8 0x8AC7230489E80000 DUP3 PUSH2 0xD49 SWAP2 SWAP1 PUSH2 0x17B5 JUMP JUMPDEST PUSH1 0x4 SLOAD LT ISZERO PUSH2 0xD8D JUMPI PUSH1 0x40 MLOAD PUSH32 0x8C379A000000000000000000000000000000000000000000000000000000000 DUP2 MSTORE PUSH1 0x4 ADD PUSH2 0xD84 SWAP1 PUSH2 0x1C6E JUMP JUMPDEST PUSH1 0x40 MLOAD DUP1 SWAP2 SUB SWAP1 REVERT JUMPDEST DUP2 PUSH1 0x4 PUSH1 0x0 DUP3 DUP3 SLOAD PUSH2 0xD9F SWAP2 SWAP1 PUSH2 0x192D JUMP JUMPDEST SWAP3 POP POP DUP2 SWAP1 SSTORE POP PUSH1 0x0 PUSH1 0x2 PUSH1 0x0 SWAP1 SLOAD SWAP1 PUSH2 0x100 EXP SWAP1 DIV PUSH20 0xFFFFFFFFFFFFFFFFFFFFFFFFFFFFFFFFFFFFFFFF AND PUSH20 0xFFFFFFFFFFFFFFFFFFFFFFFFFFFFFFFFFFFFFFFF AND DUP4 PUSH1 0x40 MLOAD PUSH2 0xDEE SWAP1 PUSH2 0x19FE JUMP JUMPDEST PUSH1 0x0 PUSH1 0x40 MLOAD DUP1 DUP4 SUB DUP2 DUP6 DUP8 GAS CALL SWAP3 POP POP POP RETURNDATASIZE DUP1 PUSH1 0x0 DUP2 EQ PUSH2 0xE2B JUMPI PUSH1 0x40 MLOAD SWAP2 POP PUSH1 0x1F NOT PUSH1 0x3F RETURNDATASIZE ADD AND DUP3 ADD PUSH1 0x40 MSTORE RETURNDATASIZE DUP3 MSTORE RETURNDATASIZE PUSH1 0x0 PUSH1 0x20 DUP5 ADD RETURNDATACOPY PUSH2 0xE30 JUMP JUMPDEST PUSH1 0x60 SWAP2 POP JUMPDEST POP POP SWAP1 POP DUP1 PUSH2 0xE74 JUMPI PUSH1 0x40 MLOAD PUSH32 0x8C379A000000000000000000000000000000000000000000000000000000000 DUP2 MSTORE PUSH1 0x4 ADD PUSH2 0xE6B SWAP1 PUSH2 0x1A5F JUMP JUMPDEST PUSH1 0x40 MLOAD DUP1 SWAP2 SUB SWAP1 REVERT JUMPDEST PUSH32 0x78388F02D9DC4BA28CE22ED74518D0A3C763D8AE37209AC2B955E69099CC3A55 DUP4 PUSH1 0x40 MLOAD PUSH2 0xEA3 SWAP2 SWAP1 PUSH2 0x1539 JUMP JUMPDEST PUSH1 0x40 MLOAD DUP1 SWAP2 SUB SWAP1 LOG1 PUSH1 0x1 SWAP2 POP POP SWAP2 SWAP1 POP JUMP JUMPDEST PUSH8 0x8AC7230489E80000 DUP2 JUMP JUMPDEST PUSH1 0x0 PUSH2 0xECB PUSH2 0xAC5 JUMP JUMPDEST DUP3 GT ISZERO PUSH2 0xEDB JUMPI PUSH1 0x0 SWAP1 POP PUSH2 0xF25 JUMP JUMPDEST PUSH1 0x0 PUSH1 0x64 PUSH1 0xBE DUP5 PUSH2 0xEEC SWAP2 SWAP1 PUSH2 0x1AA8 JUMP JUMPDEST PUSH2 0xEF6 SWAP2 SWAP1 PUSH2 0x1B19 JUMP JUMPDEST SWAP1 POP PUSH8 0x8AC7230489E80000 DUP2 PUSH2 0xF0C SWAP2 SWAP1 PUSH2 0x17B5 JUMP JUMPDEST PUSH1 0x4 SLOAD LT ISZERO PUSH2 0xF1F JUMPI PUSH1 0x0 SWAP2 POP POP PUSH2 0xF25 JUMP JUMPDEST PUSH1 0x1 SWAP2 POP POP JUMPDEST SWAP2 SWAP1 POP JUMP JUMPDEST PUSH1 0x0 PUSH2 0xF74 PUSH1 0x5 PUSH1 0x0 DUP5 PUSH20 0xFFFFFFFFFFFFFFFFFFFFFFFFFFFFFFFFFFFFFFFF AND PUSH20 0xFFFFFFFFFFFFFFFFFFFFFFFFFFFFFFFFFFFFFFFF AND DUP2 MSTORE PUSH1 0x20 ADD SWAP1 DUP2 MSTORE PUSH1 0x20 ADD PUSH1 0x0 KECCAK256 SLOAD PUSH2 0xC67 JUMP JUMPDEST SWAP1 POP SWAP2 SWAP1 POP JUMP JUMPDEST PUSH1 0x0 ADDRESS PUSH20 0xFFFFFFFFFFFFFFFFFFFFFFFFFFFFFFFFFFFFFFFF AND PUSH4 0x2E1A7D4D PUSH1 0x5 PUSH1 0x0 CALLER PUSH20 0xFFFFFFFFFFFFFFFFFFFFFFFFFFFFFFFFFFFFFFFF AND PUSH20 0xFFFFFFFFFFFFFFFFFFFFFFFFFFFFFFFFFFFFFFFF AND DUP2 MSTORE PUSH1 0x20 ADD SWAP1 DUP2 MSTORE PUSH1 0x20 ADD PUSH1 0x0 KECCAK256 SLOAD PUSH1 0x40 MLOAD DUP3 PUSH4 0xFFFFFFFF AND PUSH1 0xE0 SHL DUP2 MSTORE PUSH1 0x4 ADD PUSH2 0xFF5 SWAP2 SWAP1 PUSH2 0x1539 JUMP JUMPDEST PUSH1 0x20 PUSH1 0x40 MLOAD DUP1 DUP4 SUB DUP2 PUSH1 0x0 DUP8 GAS CALL ISZERO DUP1 ISZERO PUSH2 0x1014 JUMPI RETURNDATASIZE PUSH1 0x0 DUP1 RETURNDATACOPY RETURNDATASIZE PUSH1 0x0 REVERT JUMPDEST POP POP POP POP PUSH1 0x40 MLOAD RETURNDATASIZE PUSH1 0x1F NOT PUSH1 0x1F DUP3 ADD AND DUP3 ADD DUP1 PUSH1 0x40 MSTORE POP DUP2 ADD SWAP1 PUSH2 0x1038 SWAP2 SWAP1 PUSH2 0x1CA3 JUMP JUMPDEST SWAP1 POP SWAP1 JUMP JUMPDEST PUSH1 0x1 PUSH1 0x0 SWAP1 SLOAD SWAP1 PUSH2 0x100 EXP SWAP1 DIV PUSH20 0xFFFFFFFFFFFFFFFFFFFFFFFFFFFFFFFFFFFFFFFF AND DUP2 JUMP JUMPDEST PUSH1 0x1 DUP2 JUMP JUMPDEST PUSH2 0x3E8 DUP2 JUMP JUMPDEST PUSH1 0x5 PUSH1 0x20 MSTORE DUP1 PUSH1 0x0 MSTORE PUSH1 0x40 PUSH1 0x0 KECCAK256 PUSH1 0x0 SWAP2 POP SWAP1 POP SLOAD DUP2 JUMP JUMPDEST PUSH1 0x0 PUSH2 0x1090 PUSH2 0x14D0 JUMP JUMPDEST PUSH8 0xDE0B6B3A7640000 CALLVALUE LT ISZERO PUSH2 0x10DB JUMPI PUSH1 0x40 MLOAD PUSH32 0x8C379A000000000000000000000000000000000000000000000000000000000 DUP2 MSTORE PUSH1 0x4 ADD PUSH2 0x10D2 SWAP1 PUSH2 0x1D1C JUMP JUMPDEST PUSH1 0x40 MLOAD DUP1 SWAP2 SUB SWAP1 REVERT JUMPDEST PUSH1 0x0 PUSH1 0x3 SLOAD SUB PUSH2 0x1103 JUMPI PUSH2 0x3E8 CALLVALUE PUSH2 0x10F3 SWAP2 SWAP1 PUSH2 0x192D JUMP JUMPDEST SWAP1 POP PUSH2 0x3E8 PUSH1 0x3 DUP2 SWAP1 SSTORE POP PUSH2 0x1121 JUMP JUMPDEST PUSH1 0x4 SLOAD PUSH1 0x3 SLOAD CALLVALUE PUSH2 0x1114 SWAP2 SWAP1 PUSH2 0x1AA8 JUMP JUMPDEST PUSH2 0x111E SWAP2 SWAP1 PUSH2 0x1B19 JUMP JUMPDEST SWAP1 POP JUMPDEST PUSH1 0x0 DUP2 GT PUSH2 0x1164 JUMPI PUSH1 0x40 MLOAD PUSH32 0x8C379A000000000000000000000000000000000000000000000000000000000 DUP2 MSTORE PUSH1 0x4 ADD PUSH2 0x115B SWAP1 PUSH2 0x1835 JUMP JUMPDEST PUSH1 0x40 MLOAD DUP1 SWAP2 SUB SWAP1 REVERT JUMPDEST DUP1 PUSH1 0x5 PUSH1 0x0 CALLER PUSH20 0xFFFFFFFFFFFFFFFFFFFFFFFFFFFFFFFFFFFFFFFF AND PUSH20 0xFFFFFFFFFFFFFFFFFFFFFFFFFFFFFFFFFFFFFFFF AND DUP2 MSTORE PUSH1 0x20 ADD SWAP1 DUP2 MSTORE PUSH1 0x20 ADD PUSH1 0x0 KECCAK256 PUSH1 0x0 DUP3 DUP3 SLOAD PUSH2 0x11B3 SWAP2 SWAP1 PUSH2 0x17B5 JUMP JUMPDEST SWAP3 POP POP DUP2 SWAP1 SSTORE POP DUP1 PUSH1 0x3 PUSH1 0x0 DUP3 DUP3 SLOAD PUSH2 0x11CC SWAP2 SWAP1 PUSH2 0x17B5 JUMP JUMPDEST SWAP3 POP POP DUP2 SWAP1 SSTORE POP CALLVALUE PUSH1 0x4 PUSH1 0x0 DUP3 DUP3 SLOAD PUSH2 0x11E5 SWAP2 SWAP1 PUSH2 0x17B5 JUMP JUMPDEST SWAP3 POP POP DUP2 SWAP1 SSTORE POP NUMBER PUSH1 0x6 PUSH1 0x0 CALLER PUSH20 0xFFFFFFFFFFFFFFFFFFFFFFFFFFFFFFFFFFFFFFFF AND PUSH20 0xFFFFFFFFFFFFFFFFFFFFFFFFFFFFFFFFFFFFFFFF AND DUP2 MSTORE PUSH1 0x20 ADD SWAP1 DUP2 MSTORE PUSH1 0x20 ADD PUSH1 0x0 KECCAK256 DUP2 SWAP1 SSTORE POP CALLER PUSH20 0xFFFFFFFFFFFFFFFFFFFFFFFFFFFFFFFFFFFFFFFF AND PUSH32 0x90890809C654F11D6E72A28FA60149770A0D11EC6C92319D6CEB2BB0A4EA1A15 CALLVALUE DUP4 PUSH1 0x40 MLOAD PUSH2 0x1278 SWAP3 SWAP2 SWAP1 PUSH2 0x1A7F JUMP JUMPDEST PUSH1 0x40 MLOAD DUP1 SWAP2 SUB SWAP1 LOG2 PUSH2 0x1288 PUSH2 0x1516 JUMP JUMPDEST SWAP1 JUMP JUMPDEST PUSH1 0x2 PUSH1 0x0 SWAP1 SLOAD SWAP1 PUSH2 0x100 EXP SWAP1 DIV PUSH20 0xFFFFFFFFFFFFFFFFFFFFFFFFFFFFFFFFFFFFFFFF AND DUP2 JUMP JUMPDEST PUSH8 0xDE0B6B3A7640000 DUP2 JUMP JUMPDEST PUSH1 0xA DUP2 JUMP JUMPDEST PUSH1 0x0 DUP1 PUSH1 0x3 SLOAD SUB PUSH2 0x12D6 JUMPI PUSH1 0x0 SWAP1 POP PUSH2 0x1345 JUMP JUMPDEST PUSH1 0x3 SLOAD PUSH1 0x64 PUSH8 0xDE0B6B3A7640000 PUSH1 0x5 PUSH1 0x0 DUP7 PUSH20 0xFFFFFFFFFFFFFFFFFFFFFFFFFFFFFFFFFFFFFFFF AND PUSH20 0xFFFFFFFFFFFFFFFFFFFFFFFFFFFFFFFFFFFFFFFF AND DUP2 MSTORE PUSH1 0x20 ADD SWAP1 DUP2 MSTORE PUSH1 0x20 ADD PUSH1 0x0 KECCAK256 SLOAD PUSH2 0x132E SWAP2 SWAP1 PUSH2 0x1AA8 JUMP JUMPDEST PUSH2 0x1338 SWAP2 SWAP1 PUSH2 0x1AA8 JUMP JUMPDEST PUSH2 0x1342 SWAP2 SWAP1 PUSH2 0x1B19 JUMP JUMPDEST SWAP1 POP JUMPDEST SWAP2 SWAP1 POP JUMP JUMPDEST PUSH1 0x0 DUP1 PUSH1 0x3 SLOAD SUB PUSH2 0x136A JUMPI PUSH2 0x3E8 DUP3 PUSH2 0x1363 SWAP2 SWAP1 PUSH2 0x192D JUMP JUMPDEST SWAP1 POP PUSH2 0x1388 JUMP JUMPDEST PUSH1 0x4 SLOAD PUSH1 0x3 SLOAD DUP4 PUSH2 0x137B SWAP2 SWAP1 PUSH2 0x1AA8 JUMP JUMPDEST PUSH2 0x1385 SWAP2 SWAP1 PUSH2 0x1B19 JUMP JUMPDEST SWAP1 POP JUMPDEST SWAP2 SWAP1 POP JUMP JUMPDEST PUSH1 0x1 PUSH1 0x0 SWAP1 SLOAD SWAP1 PUSH2 0x100 EXP SWAP1 DIV PUSH20 0xFFFFFFFFFFFFFFFFFFFFFFFFFFFFFFFFFFFFFFFF AND PUSH20 0xFFFFFFFFFFFFFFFFFFFFFFFFFFFFFFFFFFFFFFFF AND CALLER PUSH20 0xFFFFFFFFFFFFFFFFFFFFFFFFFFFFFFFFFFFFFFFF AND EQ PUSH2 0x141D JUMPI PUSH1 0x40 MLOAD PUSH32 0x8C379A000000000000000000000000000000000000000000000000000000000 DUP2 MSTORE PUSH1 0x4 ADD PUSH2 0x1414 SWAP1 PUSH2 0x1B96 JUMP JUMPDEST PUSH1 0x40 MLOAD DUP1 SWAP2 SUB SWAP1 REVERT JUMPDEST PUSH1 0x0 PUSH20 0xFFFFFFFFFFFFFFFFFFFFFFFFFFFFFFFFFFFFFFFF AND DUP2 PUSH20 0xFFFFFFFFFFFFFFFFFFFFFFFFFFFFFFFFFFFFFFFF AND SUB PUSH2 0x148C JUMPI PUSH1 0x40 MLOAD PUSH32 0x8C379A000000000000000000000000000000000000000000000000000000000 DUP2 MSTORE PUSH1 0x4 ADD PUSH2 0x1483 SWAP1 PUSH2 0x1C02 JUMP JUMPDEST PUSH1 0x40 MLOAD DUP1 SWAP2 SUB SWAP1 REVERT JUMPDEST DUP1 PUSH1 0x1 PUSH1 0x0 PUSH2 0x100 EXP DUP2 SLOAD DUP2 PUSH20 0xFFFFFFFFFFFFFFFFFFFFFFFFFFFFFFFFFFFFFFFF MUL NOT AND SWAP1 DUP4 PUSH20 0xFFFFFFFFFFFFFFFFFFFFFFFFFFFFFFFFFFFFFFFF AND MUL OR SWAP1 SSTORE POP POP JUMP JUMPDEST PUSH1 0x2 PUSH1 0x0 SLOAD SUB PUSH2 0x150C JUMPI PUSH1 0x40 MLOAD PUSH32 0x3EE5AEB500000000000000000000000000000000000000000000000000000000 DUP2 MSTORE PUSH1 0x4 ADD PUSH1 0x40 MLOAD DUP1 SWAP2 SUB SWAP1 REVERT JUMPDEST PUSH1 0x2 PUSH1 0x0 DUP2 SWAP1 SSTORE POP JUMP JUMPDEST PUSH1 0x1 PUSH1 0x0 DUP2 SWAP1 SSTORE POP JUMP JUMPDEST PUSH1 0x0 DUP2 SWAP1 POP SWAP2 SWAP1 POP JUMP JUMPDEST PUSH2 0x1533 DUP2 PUSH2 0x1520 JUMP JUMPDEST DUP3 MSTORE POP POP JUMP JUMPDEST PUSH1 0x0 PUSH1 0x20 DUP3 ADD SWAP1 POP PUSH2 0x154E PUSH1 0x0 DUP4 ADD DUP5 PUSH2 0x152A JUMP JUMPDEST SWAP3 SWAP2 POP POP JUMP JUMPDEST PUSH1 0x0 DUP1 REVERT JUMPDEST PUSH1 0x0 PUSH20 0xFFFFFFFFFFFFFFFFFFFFFFFFFFFFFFFFFFFFFFFF DUP3 AND SWAP1 POP SWAP2 SWAP1 POP JUMP JUMPDEST PUSH1 0x0 PUSH2 0x1584 DUP3 PUSH2 0x1559 JUMP JUMPDEST SWAP1 POP SWAP2 SWAP1 POP JUMP JUMPDEST PUSH2 0x1594 DUP2 PUSH2 0x1579 JUMP JUMPDEST DUP2 EQ PUSH2 0x159F JUMPI PUSH1 0x0 DUP1 REVERT JUMPDEST POP JUMP JUMPDEST PUSH1 0x0 DUP2 CALLDATALOAD SWAP1 POP PUSH2 0x15B1 DUP2 PUSH2 0x158B JUMP JUMPDEST SWAP3 SWAP2 POP POP JUMP JUMPDEST PUSH1 0x0 PUSH1 0x20 DUP3 DUP5 SUB SLT ISZERO PUSH2 0x15CD JUMPI PUSH2 0x15CC PUSH2 0x1554 JUMP JUMPDEST JUMPDEST PUSH1 0x0 PUSH2 0x15DB DUP5 DUP3 DUP6 ADD PUSH2 0x15A2 JUMP JUMPDEST SWAP2 POP POP SWAP3 SWAP2 POP POP JUMP JUMPDEST PUSH2 0x15ED DUP2 PUSH2 0x1520 JUMP JUMPDEST DUP2 EQ PUSH2 0x15F8 JUMPI PUSH1 0x0 DUP1 REVERT JUMPDEST POP JUMP JUMPDEST PUSH1 0x0 DUP2 CALLDATALOAD SWAP1 POP PUSH2 0x160A DUP2 PUSH2 0x15E4 JUMP JUMPDEST SWAP3 SWAP2 POP POP JUMP JUMPDEST PUSH1 0x0 PUSH1 0x20 DUP3 DUP5 SUB SLT ISZERO PUSH2 0x1626 JUMPI PUSH2 0x1625 PUSH2 0x1554 JUMP JUMPDEST JUMPDEST PUSH1 0x0 PUSH2 0x1634 DUP5 DUP3 DUP6 ADD PUSH2 0x15FB JUMP JUMPDEST SWAP2 POP POP SWAP3 SWAP2 POP POP JUMP JUMPDEST PUSH1 0x0 DUP2 ISZERO ISZERO SWAP1 POP SWAP2 SWAP1 POP JUMP JUMPDEST PUSH2 0x1652 DUP2 PUSH2 0x163D JUMP JUMPDEST DUP3 MSTORE POP POP JUMP JUMPDEST PUSH1 0x0 PUSH1 0x20 DUP3 ADD SWAP1 POP PUSH2 0x166D PUSH1 0x0 DUP4 ADD DUP5 PUSH2 0x1649 JUMP JUMPDEST SWAP3 SWAP2 POP POP JUMP JUMPDEST PUSH2 0x167C DUP2 PUSH2 0x1579 JUMP JUMPDEST DUP3 MSTORE POP POP JUMP JUMPDEST PUSH1 0x0 PUSH1 0x20 DUP3 ADD SWAP1 POP PUSH2 0x1697 PUSH1 0x0 DUP4 ADD DUP5 PUSH2 0x1673 JUMP JUMPDEST SWAP3 SWAP2 POP POP JUMP JUMPDEST PUSH1 0x0 DUP3 DUP3 MSTORE PUSH1 0x20 DUP3 ADD SWAP1 POP SWAP3 SWAP2 POP POP JUMP JUMPDEST PUSH32 0x4E6F742067616D6520636F6E7472616374000000000000000000000000000000 PUSH1 0x0 DUP3 ADD MSTORE POP JUMP JUMPDEST PUSH1 0x0 PUSH2 0x16E4 PUSH1 0x11 DUP4 PUSH2 0x169D JUMP JUMPDEST SWAP2 POP PUSH2 0x16EF DUP3 PUSH2 0x16AE JUMP JUMPDEST PUSH1 0x20 DUP3 ADD SWAP1 POP SWAP2 SWAP1 POP JUMP JUMPDEST PUSH1 0x0 PUSH1 0x20 DUP3 ADD SWAP1 POP DUP2 DUP2 SUB PUSH1 0x0 DUP4 ADD MSTORE PUSH2 0x1713 DUP2 PUSH2 0x16D7 JUMP JUMPDEST SWAP1 POP SWAP2 SWAP1 POP JUMP JUMPDEST PUSH32 0x4E6F2076616C75652073656E7400000000000000000000000000000000000000 PUSH1 0x0 DUP3 ADD MSTORE POP JUMP JUMPDEST PUSH1 0x0 PUSH2 0x1750 PUSH1 0xD DUP4 PUSH2 0x169D JUMP JUMPDEST SWAP2 POP PUSH2 0x175B DUP3 PUSH2 0x171A JUMP JUMPDEST PUSH1 0x20 DUP3 ADD SWAP1 POP SWAP2 SWAP1 POP JUMP JUMPDEST PUSH1 0x0 PUSH1 0x20 DUP3 ADD SWAP1 POP DUP2 DUP2 SUB PUSH1 0x0 DUP4 ADD MSTORE PUSH2 0x177F DUP2 PUSH2 0x1743 JUMP JUMPDEST SWAP1 POP SWAP2 SWAP1 POP JUMP JUMPDEST PUSH32 0x4E487B7100000000000000000000000000000000000000000000000000000000 PUSH1 0x0 MSTORE PUSH1 0x11 PUSH1 0x4 MSTORE PUSH1 0x24 PUSH1 0x0 REVERT JUMPDEST PUSH1 0x0 PUSH2 0x17C0 DUP3 PUSH2 0x1520 JUMP JUMPDEST SWAP2 POP PUSH2 0x17CB DUP4 PUSH2 0x1520 JUMP JUMPDEST SWAP3 POP DUP3 DUP3 ADD SWAP1 POP DUP1 DUP3 GT ISZERO PUSH2 0x17E3 JUMPI PUSH2 0x17E2 PUSH2 0x1786 JUMP JUMPDEST JUMPDEST SWAP3 SWAP2 POP POP JUMP JUMPDEST PUSH32 0x5A65726F20736861726573000000000000000000000000000000000000000000 PUSH1 0x0 DUP3 ADD MSTORE POP JUMP JUMPDEST PUSH1 0x0 PUSH2 0x181F PUSH1 0xB DUP4 PUSH2 0x169D JUMP JUMPDEST SWAP2 POP PUSH2 0x182A DUP3 PUSH2 0x17E9 JUMP JUMPDEST PUSH1 0x20 DUP3 ADD SWAP1 POP SWAP2 SWAP1 POP JUMP JUMPDEST PUSH1 0x0 PUSH1 0x20 DUP3 ADD SWAP1 POP DUP2 DUP2 SUB PUSH1 0x0 DUP4 ADD MSTORE PUSH2 0x184E DUP2 PUSH2 0x1812 JUMP JUMPDEST SWAP1 POP SWAP2 SWAP1 POP JUMP JUMPDEST PUSH32 0x496E73756666696369656E742073686172657300000000000000000000000000 PUSH1 0x0 DUP3 ADD MSTORE POP JUMP JUMPDEST PUSH1 0x0 PUSH2 0x188B PUSH1 0x13 DUP4 PUSH2 0x169D JUMP JUMPDEST SWAP2 POP PUSH2 0x1896 DUP3 PUSH2 0x1855 JUMP JUMPDEST PUSH1 0x20 DUP3 ADD SWAP1 POP SWAP2 SWAP1 POP JUMP JUMPDEST PUSH1 0x0 PUSH1 0x20 DUP3 ADD SWAP1 POP DUP2 DUP2 SUB PUSH1 0x0 DUP4 ADD MSTORE PUSH2 0x18BA DUP2 PUSH2 0x187E JUMP JUMPDEST SWAP1 POP SWAP2 SWAP1 POP JUMP JUMPDEST PUSH32 0x57697468647261772064656C6179206E6F74206D657400000000000000000000 PUSH1 0x0 DUP3 ADD MSTORE POP JUMP JUMPDEST PUSH1 0x0 PUSH2 0x18F7 PUSH1 0x16 DUP4 PUSH2 0x169D JUMP JUMPDEST SWAP2 POP PUSH2 0x1902 DUP3 PUSH2 0x18C1 JUMP JUMPDEST PUSH1 0x20 DUP3 ADD SWAP1 POP SWAP2 SWAP1 POP JUMP JUMPDEST PUSH1 0x0 PUSH1 0x20 DUP3 ADD SWAP1 POP DUP2 DUP2 SUB PUSH1 0x0 DUP4 ADD MSTORE PUSH2 0x1926 DUP2 PUSH2 0x18EA JUMP JUMPDEST SWAP1 POP SWAP2 SWAP1 POP JUMP JUMPDEST PUSH1 0x0 PUSH2 0x1938 DUP3 PUSH2 0x1520 JUMP JUMPDEST SWAP2 POP PUSH2 0x1943 DUP4 PUSH2 0x1520 JUMP JUMPDEST SWAP3 POP DUP3 DUP3 SUB SWAP1 POP DUP2 DUP2 GT ISZERO PUSH2 0x195B JUMPI PUSH2 0x195A PUSH2 0x1786 JUMP JUMPDEST JUMPDEST SWAP3 SWAP2 POP POP JUMP JUMPDEST PUSH32 0x42656C6F77206D696E2072657365727665000000000000000000000000000000 PUSH1 0x0 DUP3 ADD MSTORE POP JUMP JUMPDEST PUSH1 0x0 PUSH2 0x1997 PUSH1 0x11 DUP4 PUSH2 0x169D JUMP JUMPDEST SWAP2 POP PUSH2 0x19A2 DUP3 PUSH2 0x1961 JUMP JUMPDEST PUSH1 0x20 DUP3 ADD SWAP1 POP SWAP2 SWAP1 POP JUMP JUMPDEST PUSH1 0x0 PUSH1 0x20 DUP3 ADD SWAP1 POP DUP2 DUP2 SUB PUSH1 0x0 DUP4 ADD MSTORE PUSH2 0x19C6 DUP2 PUSH2 0x198A JUMP JUMPDEST SWAP1 POP SWAP2 SWAP1 POP JUMP JUMPDEST PUSH1 0x0 DUP2 SWAP1 POP SWAP3 SWAP2 POP POP JUMP JUMPDEST POP JUMP JUMPDEST PUSH1 0x0 PUSH2 0x19E8 PUSH1 0x0 DUP4 PUSH2 0x19CD JUMP JUMPDEST SWAP2 POP PUSH2 0x19F3 DUP3 PUSH2 0x19D8 JUMP JUMPDEST PUSH1 0x0 DUP3 ADD SWAP1 POP SWAP2 SWAP1 POP JUMP JUMPDEST PUSH1 0x0 PUSH2 0x1A09 DUP3 PUSH2 0x19DB JUMP JUMPDEST SWAP2 POP DUP2 SWAP1 POP SWAP2 SWAP1 POP JUMP JUMPDEST PUSH32 0x5472616E73666572206661696C65640000000000000000000000000000000000 PUSH1 0x0 DUP3 ADD MSTORE POP JUMP JUMPDEST PUSH1 0x0 PUSH2 0x1A49 PUSH1 0xF DUP4 PUSH2 0x169D JUMP JUMPDEST SWAP2 POP PUSH2 0x1A54 DUP3 PUSH2 0x1A13 JUMP JUMPDEST PUSH1 0x20 DUP3 ADD SWAP1 POP SWAP2 SWAP1 POP JUMP JUMPDEST PUSH1 0x0 PUSH1 0x20 DUP3 ADD SWAP1 POP DUP2 DUP2 SUB PUSH1 0x0 DUP4 ADD MSTORE PUSH2 0x1A78 DUP2 PUSH2 0x1A3C JUMP JUMPDEST SWAP1 POP SWAP2 SWAP1 POP JUMP JUMPDEST PUSH1 0x0 PUSH1 0x40 DUP3 ADD SWAP1 POP PUSH2 0x1A94 PUSH1 0x0 DUP4 ADD DUP6 PUSH2 0x152A JUMP JUMPDEST PUSH2 0x1AA1 PUSH1 0x20 DUP4 ADD DUP5 PUSH2 0x152A JUMP JUMPDEST SWAP4 SWAP3 POP POP POP JUMP JUMPDEST PUSH1 0x0 PUSH2 0x1AB3 DUP3 PUSH2 0x1520 JUMP JUMPDEST SWAP2 POP PUSH2 0x1ABE DUP4 PUSH2 0x1520 JUMP JUMPDEST SWAP3 POP DUP3 DUP3 MUL PUSH2 0x1ACC DUP2 PUSH2 0x1520 JUMP JUMPDEST SWAP2 POP DUP3 DUP3 DIV DUP5 EQ DUP4 ISZERO OR PUSH2 0x1AE3 JUMPI PUSH2 0x1AE2 PUSH2 0x1786 JUMP JUMPDEST JUMPDEST POP SWAP3 SWAP2 POP POP JUMP JUMPDEST PUSH32 0x4E487B7100000000000000000000000000000000000000000000000000000000 PUSH1 0x0 MSTORE PUSH1 0x12 PUSH1 0x4 MSTORE PUSH1 0x24 PUSH1 0x0 REVERT JUMPDEST PUSH1 0x0 PUSH2 0x1B24 DUP3 PUSH2 0x1520 JUMP JUMPDEST SWAP2 POP PUSH2 0x1B2F DUP4 PUSH2 0x1520 JUMP JUMPDEST SWAP3 POP DUP3 PUSH2 0x1B3F JUMPI PUSH2 0x1B3E PUSH2 0x1AEA JUMP JUMPDEST JUMPDEST DUP3 DUP3 DIV SWAP1 POP SWAP3 SWAP2 POP POP JUMP JUMPDEST PUSH32 0x4E6F74206F776E65720000000000000000000000000000000000000000000000 PUSH1 0x0 DUP3 ADD MSTORE POP JUMP JUMPDEST PUSH1 0x0 PUSH2 0x1B80 PUSH1 0x9 DUP4 PUSH2 0x169D JUMP JUMPDEST SWAP2 POP PUSH2 0x1B8B DUP3 PUSH2 0x1B4A JUMP JUMPDEST PUSH1 0x20 DUP3 ADD SWAP1 POP SWAP2 SWAP1 POP JUMP JUMPDEST PUSH1 0x0 PUSH1 0x20 DUP3 ADD SWAP1 POP DUP2 DUP2 SUB PUSH1 0x0 DUP4 ADD MSTORE PUSH2 0x1BAF DUP2 PUSH2 0x1B73 JUMP JUMPDEST SWAP1 POP SWAP2 SWAP1 POP JUMP JUMPDEST PUSH32 0x496E76616C696420616464726573730000000000000000000000000000000000 PUSH1 0x0 DUP3 ADD MSTORE POP JUMP JUMPDEST PUSH1 0x0 PUSH2 0x1BEC PUSH1 0xF DUP4 PUSH2 0x169D JUMP JUMPDEST SWAP2 POP PUSH2 0x1BF7 DUP3 PUSH2 0x1BB6 JUMP JUMPDEST PUSH1 0x20 DUP3 ADD SWAP1 POP SWAP2 SWAP1 POP JUMP JUMPDEST PUSH1 0x0 PUSH1 0x20 DUP3 ADD SWAP1 POP DUP2 DUP2 SUB PUSH1 0x0 DUP4 ADD MSTORE PUSH2 0x1C1B DUP2 PUSH2 0x1BDF JUMP JUMPDEST SWAP1 POP SWAP2 SWAP1 POP JUMP JUMPDEST PUSH32 0x496E73756666696369656E7420706F6F6C000000000000000000000000000000 PUSH1 0x0 DUP3 ADD MSTORE POP JUMP JUMPDEST PUSH1 0x0 PUSH2 0x1C58 PUSH1 0x11 DUP4 PUSH2 0x169D JUMP JUMPDEST SWAP2 POP PUSH2 0x1C63 DUP3 PUSH2 0x1C22 JUMP JUMPDEST PUSH1 0x20 DUP3 ADD SWAP1 POP SWAP2 SWAP1 POP JUMP JUMPDEST PUSH1 0x0 PUSH1 0x20 DUP3 ADD SWAP1 POP DUP2 DUP2 SUB PUSH1 0x0 DUP4 ADD MSTORE PUSH2 0x1C87 DUP2 PUSH2 0x1C4B JUMP JUMPDEST SWAP1 POP SWAP2 SWAP1 POP JUMP JUMPDEST PUSH1 0x0 DUP2 MLOAD SWAP1 POP PUSH2 0x1C9D DUP2 PUSH2 0x15E4 JUMP JUMPDEST SWAP3 SWAP2 POP POP JUMP JUMPDEST PUSH1 0x0 PUSH1 0x20 DUP3 DUP5 SUB SLT ISZERO PUSH2 0x1CB9 JUMPI PUSH2 0x1CB8 PUSH2 0x1554 JUMP JUMPDEST JUMPDEST PUSH1 0x0 PUSH2 0x1CC7 DUP5 DUP3 DUP6 ADD PUSH2 0x1C8E JUMP JUMPDEST SWAP2 POP POP SWAP3 SWAP2 POP POP JUMP JUMPDEST PUSH32 0x42656C6F77206D696E206465706F736974000000000000000000000000000000 PUSH1 0x0 DUP3 ADD MSTORE POP JUMP JUMPDEST PUSH1 0x0 PUSH2 0x1D06 PUSH1 0x11 DUP4 PUSH2 0x169D JUMP JUMPDEST SWAP2 POP PUSH2 0x1D11 DUP3 PUSH2 0x1CD0 JUMP JUMPDEST PUSH1 0x20 DUP3 ADD SWAP1 POP SWAP2 SWAP1 POP JUMP JUMPDEST PUSH1 0x0 PUSH1 0x20 DUP3 ADD SWAP1 POP DUP2 DUP2 SUB PUSH1 0x0 DUP4 ADD MSTORE PUSH2 0x1D35 DUP2 PUSH2 0x1CF9 JUMP JUMPDEST SWAP1 POP SWAP2 SWAP1 POP JUMP INVALID LOG2 PUSH5 0x6970667358 0x22 SLT KECCAK256 GASLIMIT 0xBB PREVRANDAO RETURN SMOD ADDRESS CHAINID 0x28 LT COINBASE 0xD4 MSIZE 0xD2 PUSH26 0x3F277874787993315B8394CDA1B73C011E9764736F6C63430008 XOR STOP CALLER "},"methodIdentifiers":{"DEAD_SHARES()":"9bffb798","MAX_BET_PERCENT()":"54202411","MAX_DEPOSIT_PERCENT()":"e624db84","MIN_DEPOSIT()":"e1e158a5","MIN_POOL_RESERVE()":"6d4086ba","WITHDRAW_DELAY_BLOCKS()":"9621a7e4","balanceOf(address)":"70a08231","canCoverBet(uint256)":"6e459d48","deposit()":"d0e30db0","depositBlock(address)":"202019a6","gameContract()":"d3f33009","maxBet()":"2e5b2168","owner()":"8da5cb5b","previewDeposit(uint256)":"ef8b30f7","previewRedeem(uint256)":"4cdad506","recordLoss(uint256)":"6022743e","recordWin()":"03eff0b8","setGameContract(address)":"405ebd4d","sharePercent(address)":"e6d24bbd","shares(address)":"ce7c2ac2","totalAssets()":"01e1d114","totalShares()":"3a98ef39","transferOwnership(address)":"f2fde38b","withdraw(uint256)":"2e1a7d4d","withdrawAll()":"853828b6"}}}}}