{"contracts/HouseVault.sol":{"HouseVault":{"abi":[{"inputs":[],"stateMutability":"nonpayable","type":"constructor"},{"inputs":[],"name":"ReentrancyGuardReentrantCall","type":"error"},{"anonymous":false,"inputs":[{"indexed":true,"internalType":"address","name":"user","type":"address"},{"indexed":false,"internalType":"uint256","name":"amount","type":"uint256"},{"indexed":false,"internalType":"uint256","name":"sharesMinted","type":"uint256"}],"name":"Deposit","type":"event"},{"anonymous":false,"inputs":[{"indexed":false,"internalType":"address","name":"newGameContract","type":"address"}],"name":"GameContractUpdated","type":"event"},{"anonymous":false,"inputs":[{"indexed":false,"internalType":"uint256","name":"amount","type":"uint256"}],"name":"GameLoss","type":"event"},{"anonymous":false,"inputs":[{"indexed":false,"internalType":"uint256","name":"amount","type":"uint256"}],"name":"GameWin","type":"event"},{"anonymous":false,"inputs":[{"indexed":true,"internalType":"address","name":"user","type":"address"},{"indexed":false,"internalType":"uint256","name":"sharesAmount","type":"uint256"},{"indexed":false,"internalType":"uint256","name":"assetsReceived","type":"uint256"}],"name":"Withdraw","type":"event"},{"inputs":[],"name":"DEAD_SHARES","outputs":[{"internalType":"uint256","name":"","type":"uint256"}],"stateMutability":"view","type":"function"},{"inputs":[],"name":"MAX_BET_PERCENT","outputs":[{"internalType":"uint256","name":"","type":"uint256"}],"stateMutability":"view","type":"function"},{"inputs":[],"name":"MAX_DEPOSIT_PERCENT","outputs":[{"internalType":"uint256","name":"","type":"uint256"}],"stateMutability":"view","type":"function"},{"inputs":[],"name":"MIN_DEPOSIT","outputs":[{"internalType":"uint256","name":"","type":"uint256"}],"stateMutability":"view","type":"function"},{"inputs":[],"name":"MIN_POOL_RESERVE","outputs":[{"internalType":"uint256","name":"","type":"uint256"}],"stateMutability":"view","type":"function"},{"inputs":[],"name":"WITHDRAW_DELAY_BLOCKS","outputs":[{"internalType":"uint256","name":"","type":"uint256"}],"stateMutability":"view","type":"function"},{"inputs":[{"internalType":"address","name":"user","type":"address"}],"name":"balanceOf","outputs":[{"internalType":"uint256","name":"","type":"uint256"}],"stateMutability":"view","type":"function"},{"inputs":[{"internalType":"uint256","name":"amount","type":"uint256"}],"name":"canCoverBet","outputs":[{"internalType":"bool","name":"","type":"bool"}],"stateMutability":"view","type":"function"},{"inputs":[],"name":"deposit","outputs":[{"internalType":"uint256","name":"sharesMinted","type":"uint256"}],"stateMutability":"payable","type":"function"},{"inputs":[{"internalType":"address","name":"","type":"address"}],"name":"depositBlock","outputs":[{"internalType":"uint256","name":"","type":"uint256"}],"stateMutability":"view","type":"function"},{"inputs":[],"name":"gameContract","outputs":[{"internalType":"address","name":"","type":"address"}],"stateMutability":"view","type":"function"},{"inputs":[],"name":"maxBet","outputs":[{"internalType":"uint256","name":"","type":"uint256"}],"stateMutability":"view","type":"function"},{"inputs":[],"name":"owner","outputs":[{"internalType":"address","name":"","type":"address"}],"stateMutability":"view","type":"function"},{"inputs":[{"internalType":"uint256","name":"_assets","type":"uint256"}],"name":"previewDeposit","outputs":[{"internalType":"uint256","name":"","type":"uint256"}],"stateMutability":"view","type":"function"},{"inputs":[{"internalType":"uint256","name":"_shares","type":"uint256"}],"name":"previewRedeem","outputs":[{"internalType":"uint256","name":"","type":"uint256"}],"stateMutability":"view","type":"function"},{"inputs":[{"internalType":"uint256","name":"amount","type":"uint256"}],"name":"recordLoss","outputs":[{"internalType":"bool","name":"","type":"bool"}],"stateMutability":"nonpayable","type":"function"},{"inputs":[],"name":"recordWin","outputs":[],"stateMutability":"payable","type":"function"},{"inputs":[{"internalType":"address","name":"_gameContract","type":"address"}],"name":"setGameContract","outputs":[],"stateMutability":"nonpayable","type":"function"},{"inputs":[{"internalType":"address","name":"user","type":"address"}],"name":"sharePercent","outputs":[{"internalType":"uint256","name":"","type":"uint256"}],"stateMutability":"view","type":"function"},{"inputs":[{"internalType":"address","name":"","type":"address"}],"name":"shares","outputs":[{"internalType":"uint256","name":"","type":"uint256"}],"stateMutability":"view","type":"function"},{"inputs":[],"name":"totalAssets","outputs":[{"internalType":"uint256","name":"","type":"uint256"}],"stateMutability":"view","type":"function"},{"inputs":[],"name":"totalShares","outputs":[{"internalType":"uint256","name":"","type":"uint256"}],"stateMutability":"view","type":"function"},{"inputs":[{"internalType":"address","name":"newOwner","type":"address"}],"name":"transferOwnership","outputs":[],"stateMutability":"nonpayable","type":"function"},{"inputs":[{"internalType":"uint256","name":"_shares","type":"uint256"}],"name":"withdraw","outputs":[{"internalType":"uint256","name":"assets","type":"uint256"}],"stateMutability":"nonpayable","type":"function"},{"inputs":[],"name":"withdrawAll","outputs":[{"internalType":"uint256","name":"assets","type":"uint256"}],"stateMutability":"nonpayable","type":"function"},{"stateMutability":"payable","type":"receive"}],"evm":{"bytecode":{"linkReferences":{},"object":"6080806040523461002d576001600081905580546001600160a01b03191633179055610d9e90816100338239f35b600080fdfe608060409080825260049081361015610023575b505050361561002157600080fd5b005b600092833560e01c91826301e1d114146109ac5750816303eff0b814610917578163202019a6146108dc5781632e1a7d4d146107015781632e5b2168146106e45781633a98ef39146106c5578163405ebd4d146106405781634cdad5061461061f57816354202411146101fc5781636022743e146105335781636d4086ba146105105781636e459d48146104e657816370a08231146104aa578163853828b61461041c5781638da5cb5b146103f35781639621a7e4146103d75781639bffb798146103ba578163ce7c2ac21461037f578163d0e30db01461024d578163d3f3300914610224578163e1e158a514610201578163e624db84146101fc578163e6d24bbd146101ca578163ef8b30f71461019f575063f2fde38b146101465780610013565b3461019b57602036600319011261019b57356001600160a01b03818116918290036101975761017b6001549182163314610b99565b610186821515610bd1565b6001600160a01b0319161760015580f35b8280fd5b5080fd5b905082346101c75760203660031901126101c757506101c060209235610d15565b9051908152f35b80fd5b919050346101975760203660031901126101975735916001600160a01b03831683036101c757506101c0602092610c86565b6109c8565b83903461019b578160031936011261019b5760209051670de0b6b3a76400008152f35b83903461019b578160031936011261019b5760025490516001600160a01b039091168152602090f35b90508260031936011261019757610262610d45565b670de0b6b3a76400003410610348576003548061032857506103e719340134811161031557602093600191936103e86003555b6102a0851515610a4c565b338252600586528382206102b5868254610a29565b90556102c385600354610a29565b6003556102d1348254610a29565b9055338152600685524383822055825134815284868201527f90890809c654f11d6e72a28fa60149770a0d11ec6c92319d6ceb2bb0a4ea1a15843392a25551908152f35b634e487b7160e01b845260118352602484fd5b60209361034261033a60019334610b49565b855490610b5c565b93610295565b906020606492519162461bcd60e51b8352820152601160248201527010995b1bddc81b5a5b8819195c1bdcda5d607a1b6044820152fd5b9190503461019757602036600319011261019757356001600160a01b0381169081900361019757828291602094526005845220549051908152f35b83903461019b578160031936011261019b57602090516103e88152f35b83903461019b578160031936011261019b576020905160018152f35b83903461019b578160031936011261019b5760015490516001600160a01b039091168152602090f35b8391503461019b578160031936011261019b5733825260056020908152818320548251632e1a7d4d60e01b81529485015292838160248186305af192831561049f57809361046d575b505051908152f35b909192508382813d8311610498575b6104868183610a93565b810103126101c7575051908380610465565b503d61047c565b8251903d90823e3d90fd5b9190503461019757602036600319011261019757356001600160a01b038116908190036101975781836101c09260209552600585522054610c0f565b905082346101c75760203660031901126101c7575061050760209235610c37565b90519015158152f35b83903461019b578160031936011261019b5760209051678ac7230489e800008152f35b905082346101c75760203660031901126101c757600254833591906001600160a01b03166105623382146109e9565b8454678ac7230489e80000840180851161060c5781106105d557828080602098958780968b986105b67f78388f02d9dc4ba28ce22ed74518d0a3c763d8ae37209ac2b955e69099cc3a559b6105c899610a86565b90555af16105c2610acb565b50610b0b565b8351908152a15160018152f35b845162461bcd60e51b81526020818801526011602482015270125b9cdd59999a58da595b9d081c1bdbdb607a1b6044820152606490fd5b634e487b7160e01b845260118752602484fd5b905082346101c75760203660031901126101c757506101c060209235610c0f565b91905034610197576020366003190112610197576001600160a01b039035818116908190036106c1577f94b488ee7f141e60e1c61ff77cc1188dcf8c457486d348a6802e58d765d984479261069c602093600154163314610b99565b6106a7821515610bd1565b600280546001600160a01b0319168317905551908152a180f35b8380fd5b83903461019b578160031936011261019b576020906003549051908152f35b83903461019b578160031936011261019b576020906101c0610b7c565b90503461019757602092836003193601126101c7578235610720610d45565b61072b811515610a4c565b338252600585528083832054106108a357338252600685528282205460018101809111610890574311156108545761076281610c0f565b93805485678ac7230489e800006107798284610a86565b1091821592610842575b50501561080b579060019291338352600587528483206107a4838254610a86565b90556107b282600354610a86565b6003556107c0868254610a86565b90556107d58280808089335af16105c2610acb565b835190815284868201527ff279e6a1f5e320cca91135676d9cb6e44ca8a08c0b88342bcdb1144f6511b568843392a25551908152f35b835162461bcd60e51b8152908101869052601160248201527042656c6f77206d696e207265736572766560781b6044820152606490fd5b61084c9250610a86565b158538610783565b825162461bcd60e51b8152808501869052601660248201527515da5d1a191c985dc819195b185e481b9bdd081b595d60521b6044820152606490fd5b634e487b7160e01b835260118552602483fd5b825162461bcd60e51b81528085018690526013602482015272496e73756666696369656e742073686172657360681b6044820152606490fd5b9190503461019757602036600319011261019757356001600160a01b0381169081900361019757828291602094526006845220549051908152f35b919050826003193601126101975761093a60018060a01b036002541633146109e9565b341561097a577f025911b9734bd99189872dc430ca90014469d827c1da351e3d21f0da926d83dc91602091610970348254610a29565b905551348152a180f35b6020606492519162461bcd60e51b8352820152600d60248201526c139bc81d985b1d59481cd95b9d609a1b6044820152fd5b8490843461019757826003193601126101975760209250548152f35b346109e45760003660031901126109e4576020604051600a8152f35b600080fd5b156109f057565b60405162461bcd60e51b8152602060048201526011602482015270139bdd0819d85b594818dbdb9d1c9858dd607a1b6044820152606490fd5b91908201809211610a3657565b634e487b7160e01b600052601160045260246000fd5b15610a5357565b60405162461bcd60e51b815260206004820152600b60248201526a5a65726f2073686172657360a81b6044820152606490fd5b91908203918211610a3657565b90601f8019910116810190811067ffffffffffffffff821117610ab557604052565b634e487b7160e01b600052604160045260246000fd5b3d15610b06573d9067ffffffffffffffff8211610ab55760405191610afa601f8201601f191660200184610a93565b82523d6000602084013e565b606090565b15610b1257565b60405162461bcd60e51b815260206004820152600f60248201526e151c985b9cd9995c8819985a5b1959608a1b6044820152606490fd5b81810292918115918404141715610a3657565b8115610b66570490565b634e487b7160e01b600052601260045260246000fd5b600454600a810290808204600a1490151715610a36576064900490565b15610ba057565b60405162461bcd60e51b81526020600482015260096024820152682737ba1037bbb732b960b91b6044820152606490fd5b15610bd857565b60405162461bcd60e51b815260206004820152600f60248201526e496e76616c6964206164647265737360881b6044820152606490fd5b6003548015610c3057610c28610c2d9260045490610b49565b610b5c565b90565b5050600090565b610c3f610b7c565b8111610c805760be81029080820460be1490151715610a365760649004600454678ac7230489e800008201809211610a365710610c7b57600190565b600090565b50600090565b906003548015610d0e5760009260018060a01b0316835260056020526040832054670de0b6b3a764000090818102918183041481151715610cfa5768056bc75e2d63100000029080820460641490151715610ce657610c2d929350610b5c565b634e487b7160e01b84526011600452602484fd5b634e487b7160e01b85526011600452602485fd5b5060009150565b6003548015610d3457610d2b90610c2d92610b49565b60045490610b5c565b506103e7198101908111610a365790565b600260005414610d56576002600055565b604051633ee5aeb560e01b8152600490fdfea2646970667358221220cc9dcb36e474cf80c041941282d5ce06804245bbad036cfcdb3b099e1ec8894764736f6c63430008180033","opcodes":"PUSH1 0x80 DUP1 PUSH1 0x40 MSTORE CALLVALUE PUSH2 0x2D JUMPI PUSH1 0x1 PUSH1 0x0 DUP2 SWAP1 SSTORE DUP1 SLOAD PUSH1 0x1 PUSH1 0x1 PUSH1 0xA0 SHL SUB NOT AND CALLER OR SWAP1 SSTORE PUSH2 0xD9E SWAP1 DUP2 PUSH2 0x33 DUP3 CODECOPY RETURN JUMPDEST PUSH1 0x0 DUP1 REVERT INVALID PUSH1 0x80 PUSH1 0x40 SWAP1 DUP1 DUP3 MSTORE PUSH1 0x4 SWAP1 DUP2 CALLDATASIZE LT ISZERO PUSH2 0x23 JUMPI JUMPDEST POP POP POP CALLDATASIZE ISZERO PUSH2 0x21 JUMPI PUSH1 0x0 DUP1 REVERT JUMPDEST STOP JUMPDEST PUSH1 0x0 SWAP3 DUP4 CALLDATALOAD PUSH1 0xE0 SHR SWAP2 DUP3 PUSH4 0x1E1D114 EQ PUSH2 0x9AC JUMPI POP DUP2 PUSH4 0x3EFF0B8 EQ PUSH2 0x917 JUMPI DUP2 PUSH4 0x202019A6 EQ PUSH2 0x8DC JUMPI DUP2 PUSH4 0x2E1A7D4D EQ PUSH2 0x701 JUMPI DUP2 PUSH4 0x2E5B2168 EQ PUSH2 0x6E4 JUMPI DUP2 PUSH4 0x3A98EF39 EQ PUSH2 0x6C5 JUMPI DUP2 PUSH4 0x405EBD4D EQ PUSH2 0x640 JUMPI DUP2 PUSH4 0x4CDAD506 EQ PUSH2 0x61F JUMPI DUP2 PUSH4 0x54202411 EQ PUSH2 0x1FC JUMPI DUP2 PUSH4 0x6022743E EQ PUSH2 0x533 JUMPI DUP2 PUSH4 0x6D4086BA EQ PUSH2 0x510 JUMPI DUP2 PUSH4 0x6E459D48 EQ PUSH2 0x4E6 JUMPI DUP2 PUSH4 0x70A08231 EQ PUSH2 0x4AA JUMPI DUP2 PUSH4 0x853828B6 EQ PUSH2 0x41C JUMPI DUP2 PUSH4 0x8DA5CB5B EQ PUSH2 0x3F3 JUMPI DUP2 PUSH4 0x9621A7E4 EQ PUSH2 0x3D7 JUMPI DUP2 PUSH4 0x9BFFB798 EQ PUSH2 0x3BA JUMPI DUP2 PUSH4 0xCE7C2AC2 EQ PUSH2 0x37F JUMPI DUP2 PUSH4 0xD0E30DB0 EQ PUSH2 0x24D JUMPI DUP2 PUSH4 0xD3F33009 EQ PUSH2 0x224 JUMPI DUP2 PUSH4 0xE1E158A5 EQ PUSH2 0x201 JUMPI DUP2 PUSH4 0xE624DB84 EQ PUSH2 0x1FC JUMPI DUP2 PUSH4 0xE6D24BBD EQ PUSH2 0x1CA JUMPI DUP2 PUSH4 0xEF8B30F7 EQ PUSH2 0x19F JUMPI POP PUSH4 0xF2FDE38B EQ PUSH2 0x146 JUMPI DUP1 PUSH2 0x13 JUMP JUMPDEST CALLVALUE PUSH2 0x19B JUMPI PUSH1 0x20 CALLDATASIZE PUSH1 0x3 NOT ADD SLT PUSH2 0x19B JUMPI CALLDATALOAD PUSH1 0x1 PUSH1 0x1 PUSH1 0xA0 SHL SUB DUP2 DUP2 AND SWAP2 DUP3 SWAP1 SUB PUSH2 0x197 JUMPI PUSH2 0x17B PUSH1 0x1 SLOAD SWAP2 DUP3 AND CALLER EQ PUSH2 0xB99 JUMP JUMPDEST PUSH2 0x186 DUP3 ISZERO ISZERO PUSH2 0xBD1 JUMP JUMPDEST PUSH1 0x1 PUSH1 0x1 PUSH1 0xA0 SHL SUB NOT AND OR PUSH1 0x1 SSTORE DUP1 RETURN JUMPDEST DUP3 DUP1 REVERT JUMPDEST POP DUP1 REVERT JUMPDEST SWAP1 POP DUP3 CALLVALUE PUSH2 0x1C7 JUMPI PUSH1 0x20 CALLDATASIZE PUSH1 0x3 NOT ADD SLT PUSH2 0x1C7 JUMPI POP PUSH2 0x1C0 PUSH1 0x20 SWAP3 CALLDATALOAD PUSH2 0xD15 JUMP JUMPDEST SWAP1 MLOAD SWAP1 DUP2 MSTORE RETURN JUMPDEST DUP1 REVERT JUMPDEST SWAP2 SWAP1 POP CALLVALUE PUSH2 0x197 JUMPI PUSH1 0x20 CALLDATASIZE PUSH1 0x3 NOT ADD SLT PUSH2 0x197 JUMPI CALLDATALOAD SWAP2 PUSH1 0x1 PUSH1 0x1 PUSH1 0xA0 SHL SUB DUP4 AND DUP4 SUB PUSH2 0x1C7 JUMPI POP PUSH2 0x1C0 PUSH1 0x20 SWAP3 PUSH2 0xC86 JUMP JUMPDEST PUSH2 0x9C8 JUMP JUMPDEST DUP4 SWAP1 CALLVALUE PUSH2 0x19B JUMPI DUP2 PUSH1 0x3 NOT CALLDATASIZE ADD SLT PUSH2 0x19B JUMPI PUSH1 0x20 SWAP1 MLOAD PUSH8 0xDE0B6B3A7640000 DUP2 MSTORE RETURN JUMPDEST DUP4 SWAP1 CALLVALUE PUSH2 0x19B JUMPI DUP2 PUSH1 0x3 NOT CALLDATASIZE ADD SLT PUSH2 0x19B JUMPI PUSH1 0x2 SLOAD SWAP1 MLOAD PUSH1 0x1 PUSH1 0x1 PUSH1 0xA0 SHL SUB SWAP1 SWAP2 AND DUP2 MSTORE PUSH1 0x20 SWAP1 RETURN JUMPDEST SWAP1 POP DUP3 PUSH1 0x3 NOT CALLDATASIZE ADD SLT PUSH2 0x197 JUMPI PUSH2 0x262 PUSH2 0xD45 JUMP JUMPDEST PUSH8 0xDE0B6B3A7640000 CALLVALUE LT PUSH2 0x348 JUMPI PUSH1 0x3 SLOAD DUP1 PUSH2 0x328 JUMPI POP PUSH2 0x3E7 NOT CALLVALUE ADD CALLVALUE DUP2 GT PUSH2 0x315 JUMPI PUSH1 0x20 SWAP4 PUSH1 0x1 SWAP2 SWAP4 PUSH2 0x3E8 PUSH1 0x3 SSTORE JUMPDEST PUSH2 0x2A0 DUP6 ISZERO ISZERO PUSH2 0xA4C JUMP JUMPDEST CALLER DUP3 MSTORE PUSH1 0x5 DUP7 MSTORE DUP4 DUP3 KECCAK256 PUSH2 0x2B5 DUP7 DUP3 SLOAD PUSH2 0xA29 JUMP JUMPDEST SWAP1 SSTORE PUSH2 0x2C3 DUP6 PUSH1 0x3 SLOAD PUSH2 0xA29 JUMP JUMPDEST PUSH1 0x3 SSTORE PUSH2 0x2D1 CALLVALUE DUP3 SLOAD PUSH2 0xA29 JUMP JUMPDEST SWAP1 SSTORE CALLER DUP2 MSTORE PUSH1 0x6 DUP6 MSTORE NUMBER DUP4 DUP3 KECCAK256 SSTORE DUP3 MLOAD CALLVALUE DUP2 MSTORE DUP5 DUP7 DUP3 ADD MSTORE PUSH32 0x90890809C654F11D6E72A28FA60149770A0D11EC6C92319D6CEB2BB0A4EA1A15 DUP5 CALLER SWAP3 LOG2 SSTORE MLOAD SWAP1 DUP2 MSTORE RETURN JUMPDEST PUSH4 0x4E487B71 PUSH1 0xE0 SHL DUP5 MSTORE PUSH1 0x11 DUP4 MSTORE PUSH1 0x24 DUP5 REVERT JUMPDEST PUSH1 0x20 SWAP4 PUSH2 0x342 PUSH2 0x33A PUSH1 0x1 SWAP4 CALLVALUE PUSH2 0xB49 JUMP JUMPDEST DUP6 SLOAD SWAP1 PUSH2 0xB5C JUMP JUMPDEST SWAP4 PUSH2 0x295 JUMP JUMPDEST SWAP1 PUSH1 0x20 PUSH1 0x64 SWAP3 MLOAD SWAP2 PUSH3 0x461BCD PUSH1 0xE5 SHL DUP4 MSTORE DUP3 ADD MSTORE PUSH1 0x11 PUSH1 0x24 DUP3 ADD MSTORE PUSH17 0x10995B1BDDC81B5A5B8819195C1BDCDA5D PUSH1 0x7A SHL PUSH1 0x44 DUP3 ADD MSTORE REVERT JUMPDEST SWAP2 SWAP1 POP CALLVALUE PUSH2 0x197 JUMPI PUSH1 0x20 CALLDATASIZE PUSH1 0x3 NOT ADD SLT PUSH2 0x197 JUMPI CALLDATALOAD PUSH1 0x1 PUSH1 0x1 PUSH1 0xA0 SHL SUB DUP2 AND SWAP1 DUP2 SWAP1 SUB PUSH2 0x197 JUMPI DUP3 DUP3 SWAP2 PUSH1 0x20 SWAP5 MSTORE PUSH1 0x5 DUP5 MSTORE KECCAK256 SLOAD SWAP1 MLOAD SWAP1 DUP2 MSTORE RETURN JUMPDEST DUP4 SWAP1 CALLVALUE PUSH2 0x19B JUMPI DUP2 PUSH1 0x3 NOT CALLDATASIZE ADD SLT PUSH2 0x19B JUMPI PUSH1 0x20 SWAP1 MLOAD PUSH2 0x3E8 DUP2 MSTORE RETURN JUMPDEST DUP4 SWAP1 CALLVALUE PUSH2 0x19B JUMPI DUP2 PUSH1 0x3 NOT CALLDATASIZE ADD SLT PUSH2 0x19B JUMPI PUSH1 0x20 SWAP1 MLOAD PUSH1 0x1 DUP2 MSTORE RETURN JUMPDEST DUP4 SWAP1 CALLVALUE PUSH2 0x19B JUMPI DUP2 PUSH1 0x3 NOT CALLDATASIZE ADD SLT PUSH2 0x19B JUMPI PUSH1 0x1 SLOAD SWAP1 MLOAD PUSH1 0x1 PUSH1 0x1 PUSH1 0xA0 SHL SUB SWAP1 SWAP2 AND DUP2 MSTORE PUSH1 0x20 SWAP1 RETURN JUMPDEST DUP4 SWAP2 POP CALLVALUE PUSH2 0x19B JUMPI DUP2 PUSH1 0x3 NOT CALLDATASIZE ADD SLT PUSH2 0x19B JUMPI CALLER DUP3 MSTORE PUSH1 0x5 PUSH1 0x20 SWAP1 DUP2 MSTORE DUP2 DUP4 KECCAK256 SLOAD DUP3 MLOAD PUSH4 0x2E1A7D4D PUSH1 0xE0 SHL DUP2 MSTORE SWAP5 DUP6 ADD MSTORE SWAP3 DUP4 DUP2 PUSH1 0x24 DUP2 DUP7 ADDRESS GAS CALL SWAP3 DUP4 ISZERO PUSH2 0x49F JUMPI DUP1 SWAP4 PUSH2 0x46D JUMPI JUMPDEST POP POP MLOAD SWAP1 DUP2 MSTORE RETURN JUMPDEST SWAP1 SWAP2 SWAP3 POP DUP4 DUP3 DUP2 RETURNDATASIZE DUP4 GT PUSH2 0x498 JUMPI JUMPDEST PUSH2 0x486 DUP2 DUP4 PUSH2 0xA93 JUMP JUMPDEST DUP2 ADD SUB SLT PUSH2 0x1C7 JUMPI POP MLOAD SWAP1 DUP4 DUP1 PUSH2 0x465 JUMP JUMPDEST POP RETURNDATASIZE PUSH2 0x47C JUMP JUMPDEST DUP3 MLOAD SWAP1 RETURNDATASIZE SWAP1 DUP3 RETURNDATACOPY RETURNDATASIZE SWAP1 REVERT JUMPDEST SWAP2 SWAP1 POP CALLVALUE PUSH2 0x197 JUMPI PUSH1 0x20 CALLDATASIZE PUSH1 0x3 NOT ADD SLT PUSH2 0x197 JUMPI CALLDATALOAD PUSH1 0x1 PUSH1 0x1 PUSH1 0xA0 SHL SUB DUP2 AND SWAP1 DUP2 SWAP1 SUB PUSH2 0x197 JUMPI DUP2 DUP4 PUSH2 0x1C0 SWAP3 PUSH1 0x20 SWAP6 MSTORE PUSH1 0x5 DUP6 MSTORE KECCAK256 SLOAD PUSH2 0xC0F JUMP JUMPDEST SWAP1 POP DUP3 CALLVALUE PUSH2 0x1C7 JUMPI PUSH1 0x20 CALLDATASIZE PUSH1 0x3 NOT ADD SLT PUSH2 0x1C7 JUMPI POP PUSH2 0x507 PUSH1 0x20 SWAP3 CALLDATALOAD PUSH2 0xC37 JUMP JUMPDEST SWAP1 MLOAD SWAP1 ISZERO ISZERO DUP2 MSTORE RETURN JUMPDEST DUP4 SWAP1 CALLVALUE PUSH2 0x19B JUMPI DUP2 PUSH1 0x3 NOT CALLDATASIZE ADD SLT PUSH2 0x19B JUMPI PUSH1 0x20 SWAP1 MLOAD PUSH8 0x8AC7230489E80000 DUP2 MSTORE RETURN JUMPDEST SWAP1 POP DUP3 CALLVALUE PUSH2 0x1C7 JUMPI PUSH1 0x20 CALLDATASIZE PUSH1 0x3 NOT ADD SLT PUSH2 0x1C7 JUMPI PUSH1 0x2 SLOAD DUP4 CALLDATALOAD SWAP2 SWAP1 PUSH1 0x1 PUSH1 0x1 PUSH1 0xA0 SHL SUB AND PUSH2 0x562 CALLER DUP3 EQ PUSH2 0x9E9 JUMP JUMPDEST DUP5 SLOAD PUSH8 0x8AC7230489E80000 DUP5 ADD DUP1 DUP6 GT PUSH2 0x60C JUMPI DUP2 LT PUSH2 0x5D5 JUMPI DUP3 DUP1 DUP1 PUSH1 0x20 SWAP9 SWAP6 DUP8 DUP1 SWAP7 DUP12 SWAP9 PUSH2 0x5B6 PUSH32 0x78388F02D9DC4BA28CE22ED74518D0A3C763D8AE37209AC2B955E69099CC3A55 SWAP12 PUSH2 0x5C8 SWAP10 PUSH2 0xA86 JUMP JUMPDEST SWAP1 SSTORE GAS CALL PUSH2 0x5C2 PUSH2 0xACB JUMP JUMPDEST POP PUSH2 0xB0B JUMP JUMPDEST DUP4 MLOAD SWAP1 DUP2 MSTORE LOG1 MLOAD PUSH1 0x1 DUP2 MSTORE RETURN JUMPDEST DUP5 MLOAD PUSH3 0x461BCD PUSH1 0xE5 SHL DUP2 MSTORE PUSH1 0x20 DUP2 DUP9 ADD MSTORE PUSH1 0x11 PUSH1 0x24 DUP3 ADD MSTORE PUSH17 0x125B9CDD59999A58DA595B9D081C1BDBDB PUSH1 0x7A SHL PUSH1 0x44 DUP3 ADD MSTORE PUSH1 0x64 SWAP1 REVERT JUMPDEST PUSH4 0x4E487B71 PUSH1 0xE0 SHL DUP5 MSTORE PUSH1 0x11 DUP8 MSTORE PUSH1 0x24 DUP5 REVERT JUMPDEST SWAP1 POP DUP3 CALLVALUE PUSH2 0x1C7 JUMPI PUSH1 0x20 CALLDATASIZE PUSH1 0x3 NOT ADD SLT PUSH2 0x1C7 JUMPI POP PUSH2 0x1C0 PUSH1 0x20 SWAP3 CALLDATALOAD PUSH2 0xC0F JUMP JUMPDEST SWAP2 SWAP1 POP CALLVALUE PUSH2 0x197 JUMPI PUSH1 0x20 CALLDATASIZE PUSH1 0x3 NOT ADD SLT PUSH2 0x197 JUMPI PUSH1 0x1 PUSH1 0x1 PUSH1 0xA0 SHL SUB SWAP1 CALLDATALOAD DUP2 DUP2 AND SWAP1 DUP2 SWAP1 SUB PUSH2 0x6C1 JUMPI PUSH32 0x94B488EE7F141E60E1C61FF77CC1188DCF8C457486D348A6802E58D765D98447 SWAP3 PUSH2 0x69C PUSH1 0x20 SWAP4 PUSH1 0x1 SLOAD AND CALLER EQ PUSH2 0xB99 JUMP JUMPDEST PUSH2 0x6A7 DUP3 ISZERO ISZERO PUSH2 0xBD1 JUMP JUMPDEST PUSH1 0x2 DUP1 SLOAD PUSH1 0x1 PUSH1 0x1 PUSH1 0xA0 SHL SUB NOT AND DUP4 OR SWAP1 SSTORE MLOAD SWAP1 DUP2 MSTORE LOG1 DUP1 RETURN JUMPDEST DUP4 DUP1 REVERT JUMPDEST DUP4 SWAP1 CALLVALUE PUSH2 0x19B JUMPI DUP2 PUSH1 0x3 NOT CALLDATASIZE ADD SLT PUSH2 0x19B JUMPI PUSH1 0x20 SWAP1 PUSH1 0x3 SLOAD SWAP1 MLOAD SWAP1 DUP2 MSTORE RETURN JUMPDEST DUP4 SWAP1 CALLVALUE PUSH2 0x19B JUMPI DUP2 PUSH1 0x3 NOT CALLDATASIZE ADD SLT PUSH2 0x19B JUMPI PUSH1 0x20 SWAP1 PUSH2 0x1C0 PUSH2 0xB7C JUMP JUMPDEST SWAP1 POP CALLVALUE PUSH2 0x197 JUMPI PUSH1 0x20 SWAP3 DUP4 PUSH1 0x3 NOT CALLDATASIZE ADD SLT PUSH2 0x1C7 JUMPI DUP3 CALLDATALOAD PUSH2 0x720 PUSH2 0xD45 JUMP JUMPDEST PUSH2 0x72B DUP2 ISZERO ISZERO PUSH2 0xA4C JUMP JUMPDEST CALLER DUP3 MSTORE PUSH1 0x5 DUP6 MSTORE DUP1 DUP4 DUP4 KECCAK256 SLOAD LT PUSH2 0x8A3 JUMPI CALLER DUP3 MSTORE PUSH1 0x6 DUP6 MSTORE DUP3 DUP3 KECCAK256 SLOAD PUSH1 0x1 DUP2 ADD DUP1 SWAP2 GT PUSH2 0x890 JUMPI NUMBER GT ISZERO PUSH2 0x854 JUMPI PUSH2 0x762 DUP2 PUSH2 0xC0F JUMP JUMPDEST SWAP4 DUP1 SLOAD DUP6 PUSH8 0x8AC7230489E80000 PUSH2 0x779 DUP3 DUP5 PUSH2 0xA86 JUMP JUMPDEST LT SWAP2 DUP3 ISZERO SWAP3 PUSH2 0x842 JUMPI JUMPDEST POP POP ISZERO PUSH2 0x80B JUMPI SWAP1 PUSH1 0x1 SWAP3 SWAP2 CALLER DUP4 MSTORE PUSH1 0x5 DUP8 MSTORE DUP5 DUP4 KECCAK256 PUSH2 0x7A4 DUP4 DUP3 SLOAD PUSH2 0xA86 JUMP JUMPDEST SWAP1 SSTORE PUSH2 0x7B2 DUP3 PUSH1 0x3 SLOAD PUSH2 0xA86 JUMP JUMPDEST PUSH1 0x3 SSTORE PUSH2 0x7C0 DUP7 DUP3 SLOAD PUSH2 0xA86 JUMP JUMPDEST SWAP1 SSTORE PUSH2 0x7D5 DUP3 DUP1 DUP1 DUP1 DUP10 CALLER GAS CALL PUSH2 0x5C2 PUSH2 0xACB JUMP JUMPDEST DUP4 MLOAD SWAP1 DUP2 MSTORE DUP5 DUP7 DUP3 ADD MSTORE PUSH32 0xF279E6A1F5E320CCA91135676D9CB6E44CA8A08C0B88342BCDB1144F6511B568 DUP5 CALLER SWAP3 LOG2 SSTORE MLOAD SWAP1 DUP2 MSTORE RETURN JUMPDEST DUP4 MLOAD PUSH3 0x461BCD PUSH1 0xE5 SHL DUP2 MSTORE SWAP1 DUP2 ADD DUP7 SWAP1 MSTORE PUSH1 0x11 PUSH1 0x24 DUP3 ADD MSTORE PUSH17 0x42656C6F77206D696E2072657365727665 PUSH1 0x78 SHL PUSH1 0x44 DUP3 ADD MSTORE PUSH1 0x64 SWAP1 REVERT JUMPDEST PUSH2 0x84C SWAP3 POP PUSH2 0xA86 JUMP JUMPDEST ISZERO DUP6 CODESIZE PUSH2 0x783 JUMP JUMPDEST DUP3 MLOAD PUSH3 0x461BCD PUSH1 0xE5 SHL DUP2 MSTORE DUP1 DUP6 ADD DUP7 SWAP1 MSTORE PUSH1 0x16 PUSH1 0x24 DUP3 ADD MSTORE PUSH22 0x15DA5D1A191C985DC819195B185E481B9BDD081B595D PUSH1 0x52 SHL PUSH1 0x44 DUP3 ADD MSTORE PUSH1 0x64 SWAP1 REVERT JUMPDEST PUSH4 0x4E487B71 PUSH1 0xE0 SHL DUP4 MSTORE PUSH1 0x11 DUP6 MSTORE PUSH1 0x24 DUP4 REVERT JUMPDEST DUP3 MLOAD PUSH3 0x461BCD PUSH1 0xE5 SHL DUP2 MSTORE DUP1 DUP6 ADD DUP7 SWAP1 MSTORE PUSH1 0x13 PUSH1 0x24 DUP3 ADD MSTORE PUSH19 0x496E73756666696369656E7420736861726573 PUSH1 0x68 SHL PUSH1 0x44 DUP3 ADD MSTORE PUSH1 0x64 SWAP1 REVERT JUMPDEST SWAP2 SWAP1 POP CALLVALUE PUSH2 0x197 JUMPI PUSH1 0x20 CALLDATASIZE PUSH1 0x3 NOT ADD SLT PUSH2 0x197 JUMPI CALLDATALOAD PUSH1 0x1 PUSH1 0x1 PUSH1 0xA0 SHL SUB DUP2 AND SWAP1 DUP2 SWAP1 SUB PUSH2 0x197 JUMPI DUP3 DUP3 SWAP2 PUSH1 0x20 SWAP5 MSTORE PUSH1 0x6 DUP5 MSTORE KECCAK256 SLOAD SWAP1 MLOAD SWAP1 DUP2 MSTORE RETURN JUMPDEST SWAP2 SWAP1 POP DUP3 PUSH1 0x3 NOT CALLDATASIZE ADD SLT PUSH2 0x197 JUMPI PUSH2 0x93A PUSH1 0x1 DUP1 PUSH1 0xA0 SHL SUB PUSH1 0x2 SLOAD AND CALLER EQ PUSH2 0x9E9 JUMP JUMPDEST CALLVALUE ISZERO PUSH2 0x97A JUMPI PUSH32 0x25911B9734BD99189872DC430CA90014469D827C1DA351E3D21F0DA926D83DC SWAP2 PUSH1 0x20 SWAP2 PUSH2 0x970 CALLVALUE DUP3 SLOAD PUSH2 0xA29 JUMP JUMPDEST SWAP1 SSTORE MLOAD CALLVALUE DUP2 MSTORE LOG1 DUP1 RETURN JUMPDEST PUSH1 0x20 PUSH1 0x64 SWAP3 MLOAD SWAP2 PUSH3 0x461BCD PUSH1 0xE5 SHL DUP4 MSTORE DUP3 ADD MSTORE PUSH1 0xD PUSH1 0x24 DUP3 ADD MSTORE PUSH13 0x139BC81D985B1D59481CD95B9D PUSH1 0x9A SHL PUSH1 0x44 DUP3 ADD MSTORE REVERT JUMPDEST DUP5 SWAP1 DUP5 CALLVALUE PUSH2 0x197 JUMPI DUP3 PUSH1 0x3 NOT CALLDATASIZE ADD SLT PUSH2 0x197 JUMPI PUSH1 0x20 SWAP3 POP SLOAD DUP2 MSTORE RETURN JUMPDEST CALLVALUE PUSH2 0x9E4 JUMPI PUSH1 0x0 CALLDATASIZE PUSH1 0x3 NOT ADD SLT PUSH2 0x9E4 JUMPI PUSH1 0x20 PUSH1 0x40 MLOAD PUSH1 0xA DUP2 MSTORE RETURN JUMPDEST PUSH1 0x0 DUP1 REVERT JUMPDEST ISZERO PUSH2 0x9F0 JUMPI JUMP JUMPDEST PUSH1 0x40 MLOAD PUSH3 0x461BCD PUSH1 0xE5 SHL DUP2 MSTORE PUSH1 0x20 PUSH1 0x4 DUP3 ADD MSTORE PUSH1 0x11 PUSH1 0x24 DUP3 ADD MSTORE PUSH17 0x139BDD0819D85B594818DBDB9D1C9858DD PUSH1 0x7A SHL PUSH1 0x44 DUP3 ADD MSTORE PUSH1 0x64 SWAP1 REVERT JUMPDEST SWAP2 SWAP1 DUP3 ADD DUP1 SWAP3 GT PUSH2 0xA36 JUMPI JUMP JUMPDEST PUSH4 0x4E487B71 PUSH1 0xE0 SHL PUSH1 0x0 MSTORE PUSH1 0x11 PUSH1 0x4 MSTORE PUSH1 0x24 PUSH1 0x0 REVERT JUMPDEST ISZERO PUSH2 0xA53 JUMPI JUMP JUMPDEST PUSH1 0x40 MLOAD PUSH3 0x461BCD PUSH1 0xE5 SHL DUP2 MSTORE PUSH1 0x20 PUSH1 0x4 DUP3 ADD MSTORE PUSH1 0xB PUSH1 0x24 DUP3 ADD MSTORE PUSH11 0x5A65726F20736861726573 PUSH1 0xA8 SHL PUSH1 0x44 DUP3 ADD MSTORE PUSH1 0x64 SWAP1 REVERT JUMPDEST SWAP2 SWAP1 DUP3 SUB SWAP2 DUP3 GT PUSH2 0xA36 JUMPI JUMP JUMPDEST SWAP1 PUSH1 0x1F DUP1 NOT SWAP2 ADD AND DUP2 ADD SWAP1 DUP2 LT PUSH8 0xFFFFFFFFFFFFFFFF DUP3 GT OR PUSH2 0xAB5 JUMPI PUSH1 0x40 MSTORE JUMP JUMPDEST PUSH4 0x4E487B71 PUSH1 0xE0 SHL PUSH1 0x0 MSTORE PUSH1 0x41 PUSH1 0x4 MSTORE PUSH1 0x24 PUSH1 0x0 REVERT JUMPDEST RETURNDATASIZE ISZERO PUSH2 0xB06 JUMPI RETURNDATASIZE SWAP1 PUSH8 0xFFFFFFFFFFFFFFFF DUP3 GT PUSH2 0xAB5 JUMPI PUSH1 0x40 MLOAD SWAP2 PUSH2 0xAFA PUSH1 0x1F DUP3 ADD PUSH1 0x1F NOT AND PUSH1 0x20 ADD DUP5 PUSH2 0xA93 JUMP JUMPDEST DUP3 MSTORE RETURNDATASIZE PUSH1 0x0 PUSH1 0x20 DUP5 ADD RETURNDATACOPY JUMP JUMPDEST PUSH1 0x60 SWAP1 JUMP JUMPDEST ISZERO PUSH2 0xB12 JUMPI JUMP JUMPDEST PUSH1 0x40 MLOAD PUSH3 0x461BCD PUSH1 0xE5 SHL DUP2 MSTORE PUSH1 0x20 PUSH1 0x4 DUP3 ADD MSTORE PUSH1 0xF PUSH1 0x24 DUP3 ADD MSTORE PUSH15 0x151C985B9CD9995C8819985A5B1959 PUSH1 0x8A SHL PUSH1 0x44 DUP3 ADD MSTORE PUSH1 0x64 SWAP1 REVERT JUMPDEST DUP2 DUP2 MUL SWAP3 SWAP2 DUP2 ISZERO SWAP2 DUP5 DIV EQ OR ISZERO PUSH2 0xA36 JUMPI JUMP JUMPDEST DUP2 ISZERO PUSH2 0xB66 JUMPI DIV SWAP1 JUMP JUMPDEST PUSH4 0x4E487B71 PUSH1 0xE0 SHL PUSH1 0x0 MSTORE PUSH1 0x12 PUSH1 0x4 MSTORE PUSH1 0x24 PUSH1 0x0 REVERT JUMPDEST PUSH1 0x4 SLOAD PUSH1 0xA DUP2 MUL SWAP1 DUP1 DUP3 DIV PUSH1 0xA EQ SWAP1 ISZERO OR ISZERO PUSH2 0xA36 JUMPI PUSH1 0x64 SWAP1 DIV SWAP1 JUMP JUMPDEST ISZERO PUSH2 0xBA0 JUMPI JUMP JUMPDEST PUSH1 0x40 MLOAD PUSH3 0x461BCD PUSH1 0xE5 SHL DUP2 MSTORE PUSH1 0x20 PUSH1 0x4 DUP3 ADD MSTORE PUSH1 0x9 PUSH1 0x24 DUP3 ADD MSTORE PUSH9 0x2737BA1037BBB732B9 PUSH1 0xB9 SHL PUSH1 0x44 DUP3 ADD MSTORE PUSH1 0x64 SWAP1 REVERT JUMPDEST ISZERO PUSH2 0xBD8 JUMPI JUMP JUMPDEST PUSH1 0x40 MLOAD PUSH3 0x461BCD PUSH1 0xE5 SHL DUP2 MSTORE PUSH1 0x20 PUSH1 0x4 DUP3 ADD MSTORE PUSH1 0xF PUSH1 0x24 DUP3 ADD MSTORE PUSH15 0x496E76616C69642061646472657373 PUSH1 0x88 SHL PUSH1 0x44 DUP3 ADD MSTORE PUSH1 0x64 SWAP1 REVERT JUMPDEST PUSH1 0x3 SLOAD DUP1 ISZERO PUSH2 0xC30 JUMPI PUSH2 0xC28 PUSH2 0xC2D SWAP3 PUSH1 0x4 SLOAD SWAP1 PUSH2 0xB49 JUMP JUMPDEST PUSH2 0xB5C JUMP JUMPDEST SWAP1 JUMP JUMPDEST POP POP PUSH1 0x0 SWAP1 JUMP JUMPDEST PUSH2 0xC3F PUSH2 0xB7C JUMP JUMPDEST DUP2 GT PUSH2 0xC80 JUMPI PUSH1 0xBE DUP2 MUL SWAP1 DUP1 DUP3 DIV PUSH1 0xBE EQ SWAP1 ISZERO OR ISZERO PUSH2 0xA36 JUMPI PUSH1 0x64 SWAP1 DIV PUSH1 0x4 SLOAD PUSH8 0x8AC7230489E80000 DUP3 ADD DUP1 SWAP3 GT PUSH2 0xA36 JUMPI LT PUSH2 0xC7B JUMPI PUSH1 0x1 SWAP1 JUMP JUMPDEST PUSH1 0x0 SWAP1 JUMP JUMPDEST POP PUSH1 0x0 SWAP1 JUMP JUMPDEST SWAP1 PUSH1 0x3 SLOAD DUP1 ISZERO PUSH2 0xD0E JUMPI PUSH1 0x0 SWAP3 PUSH1 0x1 DUP1 PUSH1 0xA0 SHL SUB AND DUP4 MSTORE PUSH1 0x5 PUSH1 0x20 MSTORE PUSH1 0x40 DUP4 KECCAK256 SLOAD PUSH8 0xDE0B6B3A7640000 SWAP1 DUP2 DUP2 MUL SWAP2 DUP2 DUP4 DIV EQ DUP2 ISZERO OR ISZERO PUSH2 0xCFA JUMPI PUSH9 0x56BC75E2D63100000 MUL SWAP1 DUP1 DUP3 DIV PUSH1 0x64 EQ SWAP1 ISZERO OR ISZERO PUSH2 0xCE6 JUMPI PUSH2 0xC2D SWAP3 SWAP4 POP PUSH2 0xB5C JUMP JUMPDEST PUSH4 0x4E487B71 PUSH1 0xE0 SHL DUP5 MSTORE PUSH1 0x11 PUSH1 0x4 MSTORE PUSH1 0x24 DUP5 REVERT JUMPDEST PUSH4 0x4E487B71 PUSH1 0xE0 SHL DUP6 MSTORE PUSH1 0x11 PUSH1 0x4 MSTORE PUSH1 0x24 DUP6 REVERT JUMPDEST POP PUSH1 0x0 SWAP2 POP JUMP JUMPDEST PUSH1 0x3 SLOAD DUP1 ISZERO PUSH2 0xD34 JUMPI PUSH2 0xD2B SWAP1 PUSH2 0xC2D SWAP3 PUSH2 0xB49 JUMP JUMPDEST PUSH1 0x4 SLOAD SWAP1 PUSH2 0xB5C JUMP JUMPDEST POP PUSH2 0x3E7 NOT DUP2 ADD SWAP1 DUP2 GT PUSH2 0xA36 JUMPI SWAP1 JUMP JUMPDEST PUSH1 0x2 PUSH1 0x0 SLOAD EQ PUSH2 0xD56 JUMPI PUSH1 0x2 PUSH1 0x0 SSTORE JUMP JUMPDEST PUSH1 0x40 MLOAD PUSH4 0x3EE5AEB5 PUSH1 0xE0 SHL DUP2 MSTORE PUSH1 0x4 SWAP1 REVERT INVALID LOG2 PUSH5 0x6970667358 0x22 SLT KECCAK256 0xCC SWAP14 0xCB CALLDATASIZE 0xE4 PUSH21 0xCF80C041941282D5CE06804245BBAD036CFCDB3B09 SWAP15 0x1E 0xC8 DUP10 SELFBALANCE PUSH5 0x736F6C6343 STOP ADDMOD XOR STOP CALLER "},"methodIdentifiers":{"DEAD_SHARES()":"9bffb798","MAX_BET_PERCENT()":"54202411","MAX_DEPOSIT_PERCENT()":"e624db84","MIN_DEPOSIT()":"e1e158a5","MIN_POOL_RESERVE()":"6d4086ba","WITHDRAW_DELAY_BLOCKS()":"9621a7e4","balanceOf(address)":"70a08231","canCoverBet(uint256)":"6e459d48","deposit()":"d0e30db0","depositBlock(address)":"202019a6","gameContract()":"d3f33009","maxBet()":"2e5b2168","owner()":"8da5cb5b","previewDeposit(uint256)":"ef8b30f7","previewRedeem(uint256)":"4cdad506","recordLoss(uint256)":"6022743e","recordWin()":"03eff0b8","setGameContract(address)":"405ebd4d","sharePercent(address)":"e6d24bbd","shares(address)":"ce7c2ac2","totalAssets()":"01e1d114","totalShares()":"3a98ef39","transferOwnership(address)":"f2fde38b","withdraw(uint256)":"2e1a7d4d","withdrawAll()":"853828b6"}}}}}