{"contracts/BotINFT.sol":{"BotINFT":{"abi":[{"inputs":[],"stateMutability":"nonpayable","type":"constructor"},{"inputs":[],"name":"AlreadyVerified","type":"error"},{"inputs":[{"internalType":"address","name":"sender","type":"address"},{"internalType":"uint256","name":"tokenId","type":"uint256"},{"internalType":"address","name":"owner","type":"address"}],"name":"ERC721IncorrectOwner","type":"error"},{"inputs":[{"internalType":"address","name":"operator","type":"address"},{"internalType":"uint256","name":"tokenId","type":"uint256"}],"name":"ERC721InsufficientApproval","type":"error"},{"inputs":[{"internalType":"address","name":"approver","type":"address"}],"name":"ERC721InvalidApprover","type":"error"},{"inputs":[{"internalType":"address","name":"operator","type":"address"}],"name":"ERC721InvalidOperator","type":"error"},{"inputs":[{"internalType":"address","name":"owner","type":"address"}],"name":"ERC721InvalidOwner","type":"error"},{"inputs":[{"internalType":"address","name":"receiver","type":"address"}],"name":"ERC721InvalidReceiver","type":"error"},{"inputs":[{"internalType":"address","name":"sender","type":"address"}],"name":"ERC721InvalidSender","type":"error"},{"inputs":[{"internalType":"uint256","name":"tokenId","type":"uint256"}],"name":"ERC721NonexistentToken","type":"error"},{"inputs":[],"name":"InsufficientVault","type":"error"},{"inputs":[],"name":"NotAdmin","type":"error"},{"inputs":[],"name":"NotEligibleForAutoPromote","type":"error"},{"inputs":[],"name":"NotGameContract","type":"error"},{"inputs":[],"name":"NotResolver","type":"error"},{"inputs":[],"name":"NotTokenOwnerOrAuthorized","type":"error"},{"inputs":[],"name":"ReentrancyGuardReentrantCall","type":"error"},{"inputs":[],"name":"SlotAlreadyOwned","type":"error"},{"inputs":[],"name":"SlotInvalid","type":"error"},{"inputs":[],"name":"SlotsExceeded","type":"error"},{"inputs":[],"name":"TokenNotFound","type":"error"},{"inputs":[],"name":"VaultUnderMin","type":"error"},{"inputs":[],"name":"WithdrawDelayNotMet","type":"error"},{"inputs":[],"name":"WrongFee","type":"error"},{"anonymous":false,"inputs":[{"indexed":true,"internalType":"address","name":"owner","type":"address"},{"indexed":true,"internalType":"address","name":"approved","type":"address"},{"indexed":true,"internalType":"uint256","name":"tokenId","type":"uint256"}],"name":"Approval","type":"event"},{"anonymous":false,"inputs":[{"indexed":true,"internalType":"address","name":"owner","type":"address"},{"indexed":true,"internalType":"address","name":"operator","type":"address"},{"indexed":false,"internalType":"bool","name":"approved","type":"bool"}],"name":"ApprovalForAll","type":"event"},{"anonymous":false,"inputs":[{"indexed":true,"internalType":"uint256","name":"tokenId","type":"uint256"},{"indexed":true,"internalType":"address","name":"owner","type":"address"},{"indexed":false,"internalType":"uint256","name":"refunded","type":"uint256"}],"name":"BotBurned","type":"event"},{"anonymous":false,"inputs":[{"indexed":true,"internalType":"uint256","name":"tokenId","type":"uint256"},{"indexed":true,"internalType":"address","name":"owner","type":"address"},{"indexed":false,"internalType":"uint8","name":"slot","type":"uint8"},{"indexed":false,"internalType":"string","name":"personalityURI","type":"string"},{"indexed":false,"internalType":"bytes32","name":"personalityHash","type":"bytes32"}],"name":"BotMinted","type":"event"},{"anonymous":false,"inputs":[{"indexed":true,"internalType":"uint256","name":"tokenId","type":"uint256"},{"indexed":false,"internalType":"uint256","name":"amount","type":"uint256"},{"indexed":false,"internalType":"bool","name":"botWon","type":"bool"},{"indexed":true,"internalType":"uint256","name":"matchId","type":"uint256"}],"name":"MatchCredited","type":"event"},{"anonymous":false,"inputs":[{"indexed":true,"internalType":"uint256","name":"tokenId","type":"uint256"},{"indexed":false,"internalType":"uint256","name":"amount","type":"uint256"},{"indexed":true,"internalType":"uint256","name":"matchId","type":"uint256"}],"name":"MatchLocked","type":"event"},{"anonymous":false,"inputs":[{"indexed":true,"internalType":"uint256","name":"tokenId","type":"uint256"},{"indexed":false,"internalType":"string","name":"memoryURI","type":"string"},{"indexed":false,"internalType":"bytes32","name":"memoryHash","type":"bytes32"}],"name":"MemoryUpdated","type":"event"},{"anonymous":false,"inputs":[{"indexed":true,"internalType":"uint256","name":"tokenId","type":"uint256"},{"indexed":false,"internalType":"enum BotINFT.Tier","name":"oldTier","type":"uint8"},{"indexed":false,"internalType":"enum BotINFT.Tier","name":"newTier","type":"uint8"}],"name":"TierChanged","type":"event"},{"anonymous":false,"inputs":[{"indexed":true,"internalType":"address","name":"from","type":"address"},{"indexed":true,"internalType":"address","name":"to","type":"address"},{"indexed":true,"internalType":"uint256","name":"tokenId","type":"uint256"}],"name":"Transfer","type":"event"},{"anonymous":false,"inputs":[{"indexed":true,"internalType":"uint256","name":"tokenId","type":"uint256"},{"indexed":true,"internalType":"address","name":"from","type":"address"},{"indexed":true,"internalType":"address","name":"to","type":"address"},{"indexed":false,"internalType":"string","name":"newPersonalityURI","type":"string"}],"name":"TransferWithNewURI","type":"event"},{"anonymous":false,"inputs":[{"indexed":true,"internalType":"uint256","name":"tokenId","type":"uint256"},{"indexed":true,"internalType":"address","name":"user","type":"address"},{"indexed":false,"internalType":"bool","name":"authorized","type":"bool"}],"name":"UsageAuthorized","type":"event"},{"anonymous":false,"inputs":[{"indexed":true,"internalType":"uint256","name":"tokenId","type":"uint256"},{"indexed":false,"internalType":"uint256","name":"amount","type":"uint256"},{"indexed":false,"internalType":"uint256","name":"newBalance","type":"uint256"}],"name":"VaultDeposited","type":"event"},{"anonymous":false,"inputs":[{"indexed":true,"internalType":"uint256","name":"tokenId","type":"uint256"},{"indexed":false,"internalType":"uint256","name":"amount","type":"uint256"},{"indexed":false,"internalType":"uint256","name":"newBalance","type":"uint256"}],"name":"VaultWithdrawn","type":"event"},{"inputs":[],"name":"AUTO_DEMOTE_MAX_WIN_RATE_BP","outputs":[{"internalType":"uint256","name":"","type":"uint256"}],"stateMutability":"view","type":"function"},{"inputs":[],"name":"AUTO_DEMOTE_MIN_MATCHES","outputs":[{"internalType":"uint256","name":"","type":"uint256"}],"stateMutability":"view","type":"function"},{"inputs":[],"name":"AUTO_PROMOTE_MIN_MATCHES","outputs":[{"internalType":"uint256","name":"","type":"uint256"}],"stateMutability":"view","type":"function"},{"inputs":[],"name":"AUTO_PROMOTE_MIN_WIN_RATE_BP","outputs":[{"internalType":"uint256","name":"","type":"uint256"}],"stateMutability":"view","type":"function"},{"inputs":[],"name":"MAX_BOTS_PER_WALLET","outputs":[{"internalType":"uint8","name":"","type":"uint8"}],"stateMutability":"view","type":"function"},{"inputs":[],"name":"MAX_STAKE_PERCENT","outputs":[{"internalType":"uint256","name":"","type":"uint256"}],"stateMutability":"view","type":"function"},{"inputs":[],"name":"MINT_PAID_SLOT_2_FEE","outputs":[{"internalType":"uint256","name":"","type":"uint256"}],"stateMutability":"view","type":"function"},{"inputs":[],"name":"MINT_PAID_SLOT_3_FEE","outputs":[{"internalType":"uint256","name":"","type":"uint256"}],"stateMutability":"view","type":"function"},{"inputs":[],"name":"MIN_INITIAL_VAULT_FREE","outputs":[{"internalType":"uint256","name":"","type":"uint256"}],"stateMutability":"view","type":"function"},{"inputs":[],"name":"MIN_INITIAL_VAULT_PAID_2","outputs":[{"internalType":"uint256","name":"","type":"uint256"}],"stateMutability":"view","type":"function"},{"inputs":[],"name":"MIN_INITIAL_VAULT_PAID_3","outputs":[{"internalType":"uint256","name":"","type":"uint256"}],"stateMutability":"view","type":"function"},{"inputs":[],"name":"PROMOTE_FEE","outputs":[{"internalType":"uint256","name":"","type":"uint256"}],"stateMutability":"view","type":"function"},{"inputs":[],"name":"WITHDRAW_DELAY_BLOCKS","outputs":[{"internalType":"uint256","name":"","type":"uint256"}],"stateMutability":"view","type":"function"},{"inputs":[],"name":"admin","outputs":[{"internalType":"address","name":"","type":"address"}],"stateMutability":"view","type":"function"},{"inputs":[{"internalType":"address","name":"to","type":"address"},{"internalType":"uint256","name":"tokenId","type":"uint256"}],"name":"approve","outputs":[],"stateMutability":"nonpayable","type":"function"},{"inputs":[{"internalType":"uint256","name":"tokenId","type":"uint256"},{"internalType":"address","name":"user","type":"address"},{"internalType":"bool","name":"allowed","type":"bool"}],"name":"authorizeUsage","outputs":[],"stateMutability":"nonpayable","type":"function"},{"inputs":[{"internalType":"uint256","name":"tokenId","type":"uint256"}],"name":"autoDemote","outputs":[],"stateMutability":"nonpayable","type":"function"},{"inputs":[{"internalType":"uint256","name":"tokenId","type":"uint256"}],"name":"autoPromote","outputs":[],"stateMutability":"nonpayable","type":"function"},{"inputs":[{"internalType":"address","name":"owner","type":"address"}],"name":"balanceOf","outputs":[{"internalType":"uint256","name":"","type":"uint256"}],"stateMutability":"view","type":"function"},{"inputs":[{"internalType":"uint256","name":"","type":"uint256"}],"name":"bots","outputs":[{"internalType":"bytes32","name":"personalityHash","type":"bytes32"},{"internalType":"string","name":"personalityURI","type":"string"},{"internalType":"bytes32","name":"memoryHash","type":"bytes32"},{"internalType":"string","name":"memoryURI","type":"string"},{"internalType":"uint256","name":"vaultBalance","type":"uint256"},{"internalType":"uint256","name":"lastDepositBlock","type":"uint256"},{"internalType":"uint64","name":"wins","type":"uint64"},{"internalType":"uint64","name":"losses","type":"uint64"},{"internalType":"uint8","name":"slot","type":"uint8"},{"internalType":"enum BotINFT.Tier","name":"tier","type":"uint8"}],"stateMutability":"view","type":"function"},{"inputs":[{"internalType":"uint256","name":"tokenId","type":"uint256"}],"name":"burnBot","outputs":[],"stateMutability":"nonpayable","type":"function"},{"inputs":[{"internalType":"uint256","name":"tokenId","type":"uint256"},{"internalType":"uint256","name":"amount","type":"uint256"}],"name":"canCoverStake","outputs":[{"internalType":"bool","name":"","type":"bool"}],"stateMutability":"view","type":"function"},{"inputs":[{"internalType":"uint256","name":"tokenId","type":"uint256"},{"internalType":"bool","name":"botWon","type":"bool"},{"internalType":"uint256","name":"matchId","type":"uint256"}],"name":"creditFromMatch","outputs":[],"stateMutability":"payable","type":"function"},{"inputs":[{"internalType":"uint256","name":"tokenId","type":"uint256"}],"name":"depositToVault","outputs":[],"stateMutability":"payable","type":"function"},{"inputs":[{"internalType":"uint256","name":"tokenId","type":"uint256"},{"internalType":"enum BotINFT.Tier","name":"required","type":"uint8"}],"name":"eligibleTier","outputs":[{"internalType":"bool","name":"","type":"bool"}],"stateMutability":"view","type":"function"},{"inputs":[],"name":"gameContract","outputs":[{"internalType":"address","name":"","type":"address"}],"stateMutability":"view","type":"function"},{"inputs":[{"internalType":"uint256","name":"tokenId","type":"uint256"}],"name":"getApproved","outputs":[{"internalType":"address","name":"","type":"address"}],"stateMutability":"view","type":"function"},{"inputs":[{"internalType":"address","name":"owner","type":"address"},{"internalType":"address","name":"operator","type":"address"}],"name":"isApprovedForAll","outputs":[{"internalType":"bool","name":"","type":"bool"}],"stateMutability":"view","type":"function"},{"inputs":[{"internalType":"uint256","name":"tokenId","type":"uint256"},{"internalType":"address","name":"user","type":"address"}],"name":"isUsageAuthorized","outputs":[{"internalType":"bool","name":"","type":"bool"}],"stateMutability":"view","type":"function"},{"inputs":[{"internalType":"uint256","name":"tokenId","type":"uint256"},{"internalType":"uint256","name":"amount","type":"uint256"},{"internalType":"uint256","name":"matchId","type":"uint256"}],"name":"lockForMatch","outputs":[],"stateMutability":"nonpayable","type":"function"},{"inputs":[{"internalType":"uint256","name":"tokenId","type":"uint256"}],"name":"maxStakeOf","outputs":[{"internalType":"uint256","name":"","type":"uint256"}],"stateMutability":"view","type":"function"},{"inputs":[{"internalType":"string","name":"personalityURI","type":"string"},{"internalType":"bytes32","name":"personalityHash","type":"bytes32"}],"name":"mintFreeSlot","outputs":[{"internalType":"uint256","name":"tokenId","type":"uint256"}],"stateMutability":"payable","type":"function"},{"inputs":[{"internalType":"uint8","name":"slot","type":"uint8"},{"internalType":"string","name":"personalityURI","type":"string"},{"internalType":"bytes32","name":"personalityHash","type":"bytes32"}],"name":"mintPaidSlot","outputs":[{"internalType":"uint256","name":"tokenId","type":"uint256"}],"stateMutability":"payable","type":"function"},{"inputs":[],"name":"name","outputs":[{"internalType":"string","name":"","type":"string"}],"stateMutability":"view","type":"function"},{"inputs":[],"name":"nextTokenId","outputs":[{"internalType":"uint256","name":"","type":"uint256"}],"stateMutability":"view","type":"function"},{"inputs":[{"internalType":"uint256","name":"tokenId","type":"uint256"}],"name":"ownerOf","outputs":[{"internalType":"address","name":"","type":"address"}],"stateMutability":"view","type":"function"},{"inputs":[{"internalType":"uint256","name":"tokenId","type":"uint256"}],"name":"promoteToVerified","outputs":[],"stateMutability":"payable","type":"function"},{"inputs":[],"name":"resolver","outputs":[{"internalType":"address","name":"","type":"address"}],"stateMutability":"view","type":"function"},{"inputs":[{"internalType":"address","name":"from","type":"address"},{"internalType":"address","name":"to","type":"address"},{"internalType":"uint256","name":"tokenId","type":"uint256"}],"name":"safeTransferFrom","outputs":[],"stateMutability":"nonpayable","type":"function"},{"inputs":[{"internalType":"address","name":"from","type":"address"},{"internalType":"address","name":"to","type":"address"},{"internalType":"uint256","name":"tokenId","type":"uint256"},{"internalType":"bytes","name":"data","type":"bytes"}],"name":"safeTransferFrom","outputs":[],"stateMutability":"nonpayable","type":"function"},{"inputs":[{"internalType":"address","name":"operator","type":"address"},{"internalType":"bool","name":"approved","type":"bool"}],"name":"setApprovalForAll","outputs":[],"stateMutability":"nonpayable","type":"function"},{"inputs":[{"internalType":"address","name":"_gameContract","type":"address"}],"name":"setGameContract","outputs":[],"stateMutability":"nonpayable","type":"function"},{"inputs":[{"internalType":"address","name":"_resolver","type":"address"}],"name":"setResolver","outputs":[],"stateMutability":"nonpayable","type":"function"},{"inputs":[{"internalType":"address","name":"","type":"address"}],"name":"slotsOwned","outputs":[{"internalType":"uint8","name":"","type":"uint8"}],"stateMutability":"view","type":"function"},{"inputs":[{"internalType":"uint256","name":"tokenId","type":"uint256"}],"name":"statsOf","outputs":[{"internalType":"uint64","name":"wins","type":"uint64"},{"internalType":"uint64","name":"losses","type":"uint64"},{"internalType":"uint256","name":"winRateBp","type":"uint256"}],"stateMutability":"view","type":"function"},{"inputs":[{"internalType":"bytes4","name":"interfaceId","type":"bytes4"}],"name":"supportsInterface","outputs":[{"internalType":"bool","name":"","type":"bool"}],"stateMutability":"view","type":"function"},{"inputs":[],"name":"symbol","outputs":[{"internalType":"string","name":"","type":"string"}],"stateMutability":"view","type":"function"},{"inputs":[{"internalType":"uint256","name":"tokenId","type":"uint256"}],"name":"tokenURI","outputs":[{"internalType":"string","name":"","type":"string"}],"stateMutability":"view","type":"function"},{"inputs":[],"name":"totalVaultLocked","outputs":[{"internalType":"uint256","name":"","type":"uint256"}],"stateMutability":"view","type":"function"},{"inputs":[{"internalType":"address","name":"newAdmin","type":"address"}],"name":"transferAdmin","outputs":[],"stateMutability":"nonpayable","type":"function"},{"inputs":[{"internalType":"address","name":"from","type":"address"},{"internalType":"address","name":"to","type":"address"},{"internalType":"uint256","name":"tokenId","type":"uint256"}],"name":"transferFrom","outputs":[],"stateMutability":"nonpayable","type":"function"},{"inputs":[{"internalType":"address","name":"to","type":"address"},{"internalType":"uint256","name":"tokenId","type":"uint256"},{"internalType":"string","name":"newPersonalityURI","type":"string"},{"internalType":"bytes32","name":"newPersonalityHash","type":"bytes32"}],"name":"transferWithNewURI","outputs":[],"stateMutability":"nonpayable","type":"function"},{"inputs":[{"internalType":"uint256","name":"tokenId","type":"uint256"},{"internalType":"string","name":"memoryURI","type":"string"},{"internalType":"bytes32","name":"memoryHash","type":"bytes32"}],"name":"updateMemory","outputs":[],"stateMutability":"nonpayable","type":"function"},{"inputs":[{"internalType":"uint256","name":"","type":"uint256"},{"internalType":"address","name":"","type":"address"}],"name":"usageAuthorized","outputs":[{"internalType":"bool","name":"","type":"bool"}],"stateMutability":"view","type":"function"},{"inputs":[{"internalType":"uint256","name":"tokenId","type":"uint256"},{"internalType":"uint256","name":"amount","type":"uint256"}],"name":"withdrawFromVault","outputs":[],"stateMutability":"nonpayable","type":"function"},{"stateMutability":"payable","type":"receive"}],"evm":{"bytecode":{"linkReferences":{},"object":"60803462000345576001600160401b0390604090808201838111828210176200032f578252601381526020927f307848756d616e20426f7420506572736f6e6100000000000000000000000000848301528251838101818110838211176200032f57845260058152640c1e1093d560da1b858201528251908282116200032f5760008054926001958685811c9516801562000324575b8986101462000310578190601f95868111620002bd575b508990868311600114620002595784926200024d575b5050600019600383901b1c191690861b1781555b8151938411620002395784548581811c911680156200022e575b888210146200021a57838111620001d2575b50869284116001146200016c5783949596509262000160575b5050600019600383901b1c191690821b1781555b80600655600d5560018060a01b031933816007541617600755339060095416176009555161309490816200034b8239f35b0151905038806200011b565b9190601f1984169685845280842093905b888210620001ba5750508385969710620001a0575b505050811b0181556200012f565b015160001960f88460031b161c1916905538808062000192565b8087859682949686015181550195019301906200017d565b8582528782208480870160051c8201928a881062000210575b0160051c019086905b8281106200020457505062000102565b838155018690620001f4565b92508192620001eb565b634e487b7160e01b82526022600452602482fd5b90607f1690620000f0565b634e487b7160e01b81526041600452602490fd5b015190503880620000c2565b8480528a85208994509190601f198416865b8d828210620002a657505084116200028c575b505050811b018155620000d6565b015160001960f88460031b161c191690553880806200027e565b8385015186558c979095019493840193016200026b565b9091508380528984208680850160051c8201928c861062000306575b918a91869594930160051c01915b828110620002f7575050620000ac565b8681558594508a9101620002e7565b92508192620002d9565b634e487b7160e01b83526022600452602483fd5b94607f169462000095565b634e487b7160e01b600052604160045260246000fd5b600080fdfe608080604052600436101561001d575b50361561001b57600080fd5b005b60003560e01c90816289e5671461260b5750806301ffc9a71461259d57806304f3bcec1461257457806306fdde03146124c9578063081812fc1461248b578063095ea7b3146123a45780631fe029591461222c57806323b872dd146122155780633473323e146121f857806335e6d236146121bb578063405ebd4d146121645780634273f68d1461213e57806342842e0e146121105780634e543b26146120b957806350308ee014611c4557806352fb520414611c29578063536647fb14611b39578063562918e514611b1b57806358958f961461042b5780635ddf909614611ace5780635f3b24b01461156f5780636352211e1461153f578063709748181461142a57806370a08231146113d157806375794a3c146113b357806375829def146113555780637b1e10c8146113315780637bc5d64d14611296578063859c900f146110a8578063865150ef14610f895780638be3aae714610f5e57806395d89b4114610e7b5780639621a7e414610e5f5780639d43692114610d1f578063a22cb46514610c74578063a7cbb1bb1461042b578063aac0c0f414610b76578063b046229614610ab1578063b2fca45014610a8e578063b4e2225314610a71578063b74078ee146109cd578063b88d4fde14610962578063c87b56dd14610912578063cd1f6206146108f6578063cd6e0818146108d2578063d3bb65b0146108a2578063d3f3300914610879578063e39e0d77146105f5578063e4151eaf14610430578063e723949e1461042b578063e87773901461040f578063e985e9c5146103b9578063ec3830591461039d578063f221ddb9146102b45763f851a44014610286573861000f565b346102af5760003660031901126102af576007546040516001600160a01b039091168152602090f35b600080fd5b346102af5760203660031901126102af57600435600052600a60205260406000208054906102e460018201612826565b9060ff60028201546102f860038401612826565b60048401549361034b60066005830154920154936001600160401b0393610338878760881c1699604051809c6020610140928392815201528c019061262c565b9160408b015289820360608b015261262c565b94608088015260a087015280821660c08701528160401c1660e086015260801c1661010084015260028210156103875782916101208301520390f35b634e487b7160e01b600052602160045260246000fd5b346102af5760003660031901126102af57602060405160038152f35b346102af5760403660031901126102af576103d261266c565b6103da612682565b9060018060a01b03809116600052600560205260406000209116600052602052602060ff604060002054166040519015158152f35b346102af5760003660031901126102af57602060405160328152f35b6126fa565b346102af5760603660031901126102af576001600160401b036004356024358281116102af576104649036906004016126cd565b600954604435906001600160a01b031633036105e35761048384612e2f565b83600052602094600a602052604060002095600387019184116105cd576104b4846104ae84546127ec565b84612c9d565b600090601f851160011461053e57507f7ba10c6d05ab46e36b02c9901910bf7cec4f658832c2fad449cde5702b0f6b0e9596839261050c8680600295600091610533575b508160011b916000199060031b1c19161790565b90555b0155610528604051938493604085526040850191612cf4565b9060208301520390a2005b90508901358c6104f8565b90601f198516836000526020600020926000905b8282106105b5575050926002927f7ba10c6d05ab46e36b02c9901910bf7cec4f658832c2fad449cde5702b0f6b0e9899928787961061059b575b5050600186811b01905561050f565b880135600019600389901b60f8161c19169055898061058c565b80600185968294968c01358155019501930190610552565b634e487b7160e01b600052604160045260246000fd5b604051635d154fe160e11b8152600490fd5b346102af5760803660031901126102af5761060e61266c565b6024356001600160401b036044358181116102af576106319036906004016126cd565b61063a84612d15565b6001600160a01b03903390821603610867578086169586600052602094600b8652600360ff6040600020541610156108555786600052600a865260406000209060018083019186116105cd57859061069c8261069685546127ec565b85612c9d565b600090601f83116001146107ec575090806106cc926000916107e157508160011b916000199060031b1c19161790565b90555b606435905533600052600b8552604060002080549060ff6106f1818416612b8e565b1660ff1980931617905587600052600b865260406000209081549060ff610719818416612ce2565b16911617905586156107c8578561072f91612d50565b9081168061075057604051637e27328960e01b815260048101879052602490fd5b94939433036107985750907f8bab0794a724d9c4f3be7b573c4007661fa2ea4eff46fb0f9238dc462f66631f916107936040519283928784523397840191612cf4565b0390a4005b6040516364283d7b60e01b8152336004820152602481018590526001600160a01b03919091166044820152606490fd5b604051633250574960e11b815260006004820152602490fd5b90508801358c6104f8565b91601f198116846000528a600020936000905b8c8c84841061083b575050505010610821575b5050600185811b0190556106cf565b870135600019600388901b60f8161c191690558980610812565b860135875595810195948501948b945091909101906107ff565b60405163b25671d960e01b8152600490fd5b60405163b6ed3dd160e01b8152600490fd5b346102af5760003660031901126102af576008546040516001600160a01b039091168152602090f35b346102af5760403660031901126102af5760206108c86108c0612682565b600435612c54565b6040519015158152f35b346102af5760206108ec6108e53661271d565b9190612ae4565b1015604051908152f35b346102af5760003660031901126102af576020604051600a8152f35b346102af5760203660031901126102af5760043561092f81612e2f565b600052600a60205261095e61094a6001604060002001612826565b60405191829160208352602083019061262c565b0390f35b346102af5760803660031901126102af5761097b61266c565b610983612682565b90604435606435926001600160401b0384116102af57366023850112156102af576109bb61001b9436906024816004013591016127b5565b926109c783838361291c565b33612f82565b346102af5760603660031901126102af576004356109e9612682565b90604435801515908181036102af57610a0183612d15565b6001600160a01b039290339084160361086757610a686020927f2f694cefa9aec79e3b654a0847a5210267e409af05ea4369920badbe45ad76a39486600052600c8552604060002097169687600052845260406000209060ff801983541691151516179055565b604051908152a3005b346102af5760003660031901126102af576020604051610bb88152f35b346102af5760003660031901126102af576020604051671bc16d674ec800008152f35b60203660031901126102af57600435610ac8612e0c565b610ad181612e2f565b3415610b425780600052600a6020527fa856b8326ae48d64cf8805ae5bb6e2b8532a4f4d3cc1d81dbc0a5ff00626120c6040806000206004810190610b173483546128cb565b8255600543910155610b2b34600e546128cb565b600e55548151903482526020820152a26001600655005b60405162461bcd60e51b815260206004820152600c60248201526b1e995c9bc819195c1bdcda5d60a21b6044820152606490fd5b60203660031901126102af57600435610b8d612e0c565b610b9681612d15565b6001600160a01b039033908216036108675781600052600a60205260066040600020019081549060ff8260881c16600281101561038757600114610c6257678ac7230489e800003403610c505760ff60881b19909116600160881b17909155600754610c18916000918291829182913491165af1610c12612b1c565b50612b4c565b7fe4617657d9254e34fea36fd76ef71aea57ff771484a00d5a0874fcdb7641b489604080516000815260016020820152a26001600655005b604051634d0419db60e11b8152600490fd5b604051630231faf760e31b8152600490fd5b346102af5760403660031901126102af57610c8d61266c565b610c95612733565b6001600160a01b03909116908115610d0657336000526005602052604060002082600052602052610cd68160406000209060ff801983541691151516179055565b60405190151581527f17307eab39ab6107e8899845ad3d59bd9653f200f220920489ca2b5937696c3160203392a3005b604051630b61174360e31b815260048101839052602490fd5b346102af5760603660031901126102af5760085460243590600435906001600160a01b039081163303610e4d57610d54612e0c565b610d5d82612e2f565b81600052600a6020526040600020610d7483612ae4565b8411610e3b5760040190815490848210610e3b57600085819492829493610d9c838596612b0f565b9055610daa82600e54612b0f565b600e55600854165af1610dbb612b1c565b5015610df6576040519182527f450c37277c5a326e3d7e9585031f9824a61b9dc624e511552a5fda309399be19602060443593a36001600655005b60405162461bcd60e51b815260206004820152601760248201527f7472616e7366657220746f2067616d65206661696c65640000000000000000006044820152606490fd5b604051631b74457560e31b8152600490fd5b604051636aff438160e11b8152600490fd5b346102af5760003660031901126102af57602060405160018152f35b346102af5760003660031901126102af57604051600060018260015492610ea1846127ec565b9283835260209485600182169182600014610f3e575050600114610ee1575b50610ecd92500383612779565b61095e60405192828493845283019061262c565b84915060016000527fb10e2d527612073b26eecdfd717e6a320cf44b4afac2b0732d9fcbe2b7fa0cf6906000915b858310610f26575050610ecd935082010185610ec0565b80548389018501528794508693909201918101610f0f565b60ff191685820152610ecd95151560051b8501019250879150610ec09050565b346102af5760403660031901126102af5760243560028110156102af576108c8602091600435612c19565b60603660031901126102af57600435610fa0612733565b6008549091906001600160a01b03163303610e4d57610fbd612e0c565b610fc681612e2f565b80600052600a602052604060002060048101610fe33482546128cb565b9055610ff134600e546128cb565b600e55821561105f5760060180546001600160401b03611012818316612c01565b16906001600160401b0319161790555b60405191348352151560208301527fcd011e056055108f001ebd1b7add28ab5457b3d1269b0d35bc7fdaed47519e33604060443593a36001600655005b60066110a3910161107c6001600160401b03825460401c16612c01565b67ffffffffffffffff60401b82549160401b169067ffffffffffffffff60401b1916179055565b611022565b346102af576020806003193601126102af576004356110c5612e0c565b6110ce81612d15565b6001600160a01b03929033908416036108675781600052600a815260046040600020019260008454945561110484600e54612b0f565b600e5533600052600b82526040600020805460ff611123818316612b8e565b169060ff19161790558260005260028252604060002054168260008215928315611263575b828252600285526040822080546001600160a01b03191690557fddf252ad1be2c89b69c2b068fc378daa952ba7f163c4a11628f55a4df523b3ef8280a461124a5781600052600a815260006006604082208281556111a860018201612bb8565b8260028201556111ba60038201612bb8565b826004820155826005820155015582611200575b7fe5941ee4c8ae8889d214b63760ad89ffea64442d448de76e7d668340afce7766906040519384523393a36001600655005b600080808086335af1611211612b1c565b506111ce576064906040519062461bcd60e51b82526004820152600d60248201526c1c99599d5b990819985a5b1959609a1b6044820152fd5b604051637e27328960e01b815260048101839052602490fd5b600083815260046020526040902080546001600160a01b0319169055808252600385526040822082198154019055611148565b346102af5760203660031901126102af57600435600052600a6020526006604060002001546001600160401b038082169160401c16906112d682826128cb565b91826112f657606092506000905b60405192835260208301526040820152f35b61271080830290838204148315171561131b57606093611315916128d8565b906112e4565b634e487b7160e01b600052601160045260246000fd5b346102af5760003660031901126102af57602060405168015af1d78b58c400008152f35b346102af5760203660031901126102af5761136e61266c565b600754906001600160a01b039081831633036113a1571690611391821515612aac565b6001600160a01b03191617600755005b604051637bfa4b9f60e01b8152600490fd5b346102af5760003660031901126102af576020600d54604051908152f35b346102af5760203660031901126102af576001600160a01b036113f261266c565b1680156114115760005260036020526020604060002054604051908152f35b6040516322718ad960e21b815260006004820152602490fd5b346102af576114383661271d565b611440612e0c565b61144982612d15565b336001600160a01b03909116036108675781600052600a60205260406000206004810190815490838210610e3b57600501546001810180911161131b57431061152d578261149691612b0f565b81556114a482600e54612b0f565b600e55600080808085335af16114b8612b1c565b50156114f6577f7434c12d21449f894663bb2f836086990b5b596d77951749f7aa97f5b250b930916040915482519182526020820152a26001600655005b60405162461bcd60e51b815260206004820152600f60248201526e1d1c985b9cd9995c8819985a5b1959608a1b6044820152606490fd5b6040516324c40f9b60e21b8152600490fd5b346102af5760203660031901126102af57602061155d600435612d15565b6040516001600160a01b039091168152f35b60603660031901126102af5760043560ff811681036102af576024356001600160401b0381116102af576115a79036906004016126cd565b906115b0612e0c565b600260ff84161491821580611ac0575b611aae578215611a9e57678ac7230489e80000925b15611a8d576115ed674563918244f400005b846128cb565b3410610c505761161e60008080806116058834612b0f565b6007549098906001600160a01b03165af1610c12612b1c565b33600052600b602052600360ff6040600020541610156108555733600052600b60205260ff6116538160406000205416612ce2565b1660ff851603611a7b57600d5492600019841461131b5760018401600d5533600052600b6020526040600020805460ff61168e818316612ce2565b169060ff19161790556040516116a381612742565b60443581526116b33684866127b5565b6020820152600060408201526040516116cb8161275e565b6000815260608201528160808201524360a0820152600060c0820152600060e082015260ff8616610100820152600161012082015284600052600a60205260406000208151815560208201518051906001600160401b0382116105cd576117428261173960018601546127ec565b60018601612c9d565b602090601f8311600114611a09576117739291600091836119fe575b50508160011b916000199060031b1c19161790565b60018201555b6040820151600282015560608201518051906001600160401b0382116105cd576117b3826117aa60038601546127ec565b60038601612c9d565b602090601f8311600114611988578260069361012095936117ea9360009261197d5750508160011b916000199060031b1c19161790565b60038201555b6080840151600482015560a0840151600582015501916001600160401b0360c0820151166001600160401b031984541617835561185d6001600160401b0360e083015116849067ffffffffffffffff60401b82549160401b169067ffffffffffffffff60401b1916179055565b610100810151835460ff60801b191660809190911b60ff60801b16178355015160028110156103875761188f916128f8565b61189b81600e546128cb565b600e55604051906118ab8261275e565b6000825233156107c8576001600160a01b036118c78633612d50565b1661196457602095857f5fdc95668fe0219791a913ebe485156a5541c3d0aa7fc537c72f7e9881620ec361193e82977fa856b8326ae48d64cf8805ae5bb6e2b8532a4f4d3cc1d81dbc0a5ff00626120c97611926604098863333612e60565b60ff88519616865260608c8701526060860191612cf4565b92604435868201528033940390a381519080825286820152a26001600655604051908152f35b6040516339e3563760e11b815260006004820152602490fd5b015190508c8061175e565b906003840160005260206000209160005b601f19851681106119e6575092610120949260019260069583601f198116106119cd575b505050811b0160038201556117f0565b015160001960f88460031b161c191690558b80806119bd565b91926020600181928685015181550194019201611999565b015190508a8061175e565b9190600184016000526020600020906000935b601f1984168510611a60576001945083601f19811610611a47575b505050811b016001820155611779565b015160001960f88460031b161c19169055898080611a37565b81810151835560209485019460019093019290910190611a1c565b6040516368e66e5760e11b8152600490fd5b6115ed678ac7230489e800006115e7565b68015af1d78b58c40000926115d5565b60405163237fa0a960e21b8152600490fd5b50600360ff851614156115c0565b346102af5760403660031901126102af57611ae7612682565b600435600052600c60205260406000209060018060a01b0316600052602052602060ff604060002054166040519015158152f35b346102af5760003660031901126102af576020600e54604051908152f35b346102af5760203660031901126102af57600954600435906001600160a01b031633036105e35780600052600a6020526006604060002001805460ff8160881c16600281101561038757600114610c62576001600160401b03611ba4818316918360401c16826128cb565b90601e8210611c17576127109081810291818304149015171561131b5761119491611bce916128d8565b10611c175760ff60881b1916600160881b1790556040805160008152600160208201527fe4617657d9254e34fea36fd76ef71aea57ff771484a00d5a0874fcdb7641b4899190a2005b60405163ee627a5b60e01b8152600490fd5b346102af5760003660031901126102af576020604051601e8152f35b60403660031901126102af576004356001600160401b0381116102af57611c709036906004016126cd565b611c78612e0c565b671bc16d674ec8000034106120a75733600052600b602052600360ff6040600020541610156108555733600052600b60205260ff611cbc8160406000205416612ce2565b16600103611a7b57600d5490600019821461131b5760018201600d5533600052600b6020526040600020805460ff611cf5818316612ce2565b169060ff1916179055604051611d0a81612742565b6024358152611d1a3683866127b5565b602082015260006040820152604051611d328161275e565b6000815260608201523460808201524360a0820152600060c0820152600060e08201526001610100820152600061012082015282600052600a60205260406000208151815560208201518051906001600160401b0382116105cd57611d9e8261173960018601546127ec565b602090601f831160011461203557611dce92916000918361202a5750508160011b916000199060031b1c19161790565b60018201555b6040820151600282015560608201518051906001600160401b0382116105cd57611e05826117aa60038601546127ec565b602090601f8311600114611fb457826006936101209593611e3c936000926119fe5750508160011b916000199060031b1c19161790565b60038201555b6080840151600482015560a0840151600582015501916001600160401b0360c0820151166001600160401b0319845416178355611eaf6001600160401b0360e083015116849067ffffffffffffffff60401b82549160401b169067ffffffffffffffff60401b1916179055565b610100810151835460ff60801b191660809190911b60ff60801b161783550151600281101561038757611ee1916128f8565b611eed34600e546128cb565b600e55604051611efc8161275e565b6000815233156107c8576001600160a01b03611f188433612d50565b16611964577f5fdc95668fe0219791a913ebe485156a5541c3d0aa7fc537c72f7e9881620ec3611f69602095611f518694853333612e60565b60405194600186526060888701526060860191612cf4565b9260243560408201528033940390a3807fa856b8326ae48d64cf8805ae5bb6e2b8532a4f4d3cc1d81dbc0a5ff00626120c604080513481523486820152a26001600655604051908152f35b906003840160005260206000209160005b601f1985168110612012575092610120949260019260069583601f19811610611ff9575b505050811b016003820155611e42565b015160001960f88460031b161c19169055898080611fe9565b91926020600181928685015181550194019201611fc5565b01519050888061175e565b9190600184016000526020600020906000935b601f198416851061208c576001945083601f19811610612073575b505050811b016001820155611dd4565b015160001960f88460031b161c19169055878080612063565b81810151835560209485019460019093019290910190612048565b604051633afc5b4360e11b8152600490fd5b346102af5760203660031901126102af576120d261266c565b6007546001600160a01b039190821633036113a157166120f3811515612aac565b6bffffffffffffffffffffffff60a01b6009541617600955600080f35b346102af5761001b61212136612698565b906040519261212f8461275e565b600084526109c783838361291c565b346102af5760203660031901126102af57602061215c600435612ae4565b604051908152f35b346102af5760203660031901126102af5761217d61266c565b6007546001600160a01b039190821633036113a1571661219e811515612aac565b6bffffffffffffffffffffffff60a01b6008541617600855600080f35b346102af5760203660031901126102af576001600160a01b036121dc61266c565b16600052600b602052602060ff60406000205416604051908152f35b346102af5760003660031901126102af5760206040516111948152f35b346102af5761001b61222636612698565b9161291c565b346102af576020806003193601126102af5760095460043591906001600160a01b031633036105e35781600052600a81526006604060002001805460ff8160881c16600281101561038757600103612370576001600160401b03612298818316918360401c16826128cb565b9060328210612339576127109081810291818304149015171561131b57610bb8916122c2916128d8565b116123065760ff60881b1916905560408051600181526000928101929092527fe4617657d9254e34fea36fd76ef71aea57ff771484a00d5a0874fcdb7641b48991a2005b60405162461bcd60e51b815260048101849052600b60248201526a77696e2072617465206f6b60a81b6044820152606490fd5b60405162461bcd60e51b815260048101869052600f60248201526e746f6f20666577206d61746368657360881b6044820152606490fd5b60405162461bcd60e51b815260048101849052600c60248201526b1b9bdd081d995c9a599a595960a21b6044820152606490fd5b346102af5760403660031901126102af576123bd61266c565b6024356123c981612d15565b33151580612478575b8061244b575b612433576001600160a01b039283169282918491167f8c5be1e5ebec7d5bd14f71427d1e84f3dd0314c0f7b2291e5b200ac8c7c3b925600080a4600090815260046020526040902080546001600160a01b0319169091179055005b60405163a9fbf51f60e01b8152336004820152602490fd5b5060018060a01b038116600052600560205260406000203360005260205260ff60406000205416156123d8565b506001600160a01b0381163314156123d2565b346102af5760203660031901126102af576004356124a881612d15565b506000526004602052602060018060a01b0360406000205416604051908152f35b346102af5760003660031901126102af576040516000805490826124ec836127ec565b9182825260209360019085600182169182600014610f3e57505060011461251a5750610ecd92500383612779565b6000808052859250907f290decd9548b62a8d60345a988386fc84ba6bc95484008f6362f93160ef3e5635b85831061255c575050610ecd935082010185610ec0565b80548389018501528794508693909201918101612545565b346102af5760003660031901126102af576009546040516001600160a01b039091168152602090f35b346102af5760203660031901126102af5760043563ffffffff60e01b81168091036102af576020906380ac58cd60e01b81149081156125fa575b81156125e9575b506040519015158152f35b6301ffc9a760e01b149050826125de565b635b5e139f60e01b811491506125d7565b346102af5760003660031901126102af5780674563918244f4000060209252f35b919082519283825260005b848110612658575050826000602080949584010152601f8019910116010190565b602081830181015184830182015201612637565b600435906001600160a01b03821682036102af57565b602435906001600160a01b03821682036102af57565b60609060031901126102af576001600160a01b039060043582811681036102af579160243590811681036102af579060443590565b9181601f840112156102af578235916001600160401b0383116102af57602083818601950101116102af57565b346102af5760003660031901126102af576020604051678ac7230489e800008152f35b60409060031901126102af576004359060243590565b6024359081151582036102af57565b61014081019081106001600160401b038211176105cd57604052565b602081019081106001600160401b038211176105cd57604052565b90601f801991011681019081106001600160401b038211176105cd57604052565b6001600160401b0381116105cd57601f01601f191660200190565b9291926127c18261279a565b916127cf6040519384612779565b8294818452818301116102af578281602093846000960137010152565b90600182811c9216801561281c575b602083101461280657565b634e487b7160e01b600052602260045260246000fd5b91607f16916127fb565b90604051918260008254612839816127ec565b908184526020946001916001811690816000146128a9575060011461286a575b50505061286892500383612779565b565b600090815285812095935091905b8183106128915750506128689350820101388080612859565b85548884018501529485019487945091830191612878565b9250505061286894925060ff191682840152151560051b820101388080612859565b9190820180921161131b57565b81156128e2570490565b634e487b7160e01b600052601260045260246000fd5b90600281101561038757815460ff60881b191660889190911b60ff60881b16179055565b906001600160a01b0390811680156107c857600091848352846020926002845260409383858720541695869133151580612a16575b509060027fddf252ad1be2c89b69c2b068fc378daa952ba7f163c4a11628f55a4df523b3ef92846129e3575b85835260038152888320805460010190558683525286812080546001600160a01b0319168517905580a4831682036129b55750505050565b516364283d7b60e01b81526001600160a01b0392831660048201526024810193909352166044820152606490fd5b600087815260046020526040902080546001600160a01b031916905584835260038152888320805460001901905561297d565b91939450915080612a6b575b15612a3257879291869138612951565b848887612a4f576024915190637e27328960e01b82526004820152fd5b604491519063177e802f60e01b82523360048301526024820152fd5b503386148015612a90575b80612a225750878252600481523384868420541614612a22565b5085825260058152848220338352815260ff8583205416612a76565b15612ab357565b60405162461bcd60e51b81526020600482015260096024820152683d32b9379030b2323960b91b6044820152606490fd5b600052600a602052600460406000200154600a810290808204600a149015171561131b576064900490565b9190820391821161131b57565b3d15612b47573d90612b2d8261279a565b91612b3b6040519384612779565b82523d6000602084013e565b606090565b15612b5357565b60405162461bcd60e51b8152602060048201526013602482015272199959481d1c985b9cd9995c8819985a5b1959606a1b6044820152606490fd5b60ff6000199116019060ff821161131b57565b818110612bac575050565b60008155600101612ba1565b612bc281546127ec565b9081612bcc575050565b81601f60009311600114612bde575055565b908083918252612bfd601f60208420940160051c840160018501612ba1565b5555565b9060016001600160401b038093160191821161131b57565b9060028110156103875715612c4e57600052600a60205260ff60066040600020015460881c1660028110156103875760011490565b50600190565b6000818152600260205260409020546001600160a01b0392831692168214612c9657600052600c60205260406000209060005260205260ff6040600020541690565b5050600190565b9190601f8111612cac57505050565b612868926000526020600020906020601f840160051c83019310612cd8575b601f0160051c0190612ba1565b9091508190612ccb565b60ff60019116019060ff821161131b57565b908060209392818452848401376000828201840152601f01601f1916010190565b6000818152600260205260409020546001600160a01b0316908115612d38575090565b60249060405190637e27328960e01b82526004820152fd5b6000828152600260205260408120546001600160a01b03908116939284917fddf252ad1be2c89b69c2b068fc378daa952ba7f163c4a11628f55a4df523b3ef9183612dd7575b169283612dbf575b84815260026020526040812080546001600160a01b0319168517905580a490565b83815260036020526040812060018154019055612d9e565b600086815260046020526040902080546001600160a01b03191690558385526003602052604085208054600019019055612d96565b600260065414612e1d576002600655565b604051633ee5aeb560e01b8152600490fd5b6000908152600260205260409020546001600160a01b031615612e4e57565b604051630cbdb7b360e41b8152600490fd5b919092833b612e70575b50505050565b6020612eba9160018060a01b03809616956040519384928392630a85bd0160e11b98898552166004840152600096876024850152604484015260806064840152608483019061262c565b038185885af190829082612f32575b5050612f015782612ed8612b1c565b8051919082612efa57604051633250574960e11b815260048101839052602490fd5b6020915001fd5b6001600160e01b03191603612f1a575038808080612e6a565b60249060405190633250574960e11b82526004820152fd5b909192506020813d602011612f7a575b81612f4f60209383612779565b81010312612f765751906001600160e01b031982168203612f735750903880612ec9565b80fd5b5080fd5b3d9150612f42565b9293823b612f92575b5050505050565b612fd69060018060a01b038094169560405194859481630a85bd0160e11b98898852166004870152166024850152604484015260806064840152608483019061262c565b03906020816000938185885af190829082613015575b5050612ffb5782612ed8612b1c565b6001600160e01b03191603612f1a57503880808080612f8b565b909192506020813d602011613056575b8161303260209383612779565b81010312612f765751906001600160e01b031982168203612f735750903880612fec565b3d915061302556fea2646970667358221220f831ed9f115ae879e65ebfd5d2a287b70614144044b17cfaf3453ddba94400fc64736f6c63430008180033","opcodes":"PUSH1 0x80 CALLVALUE PUSH3 0x345 JUMPI PUSH1 0x1 PUSH1 0x1 PUSH1 0x40 SHL SUB SWAP1 PUSH1 0x40 SWAP1 DUP1 DUP3 ADD DUP4 DUP2 GT DUP3 DUP3 LT OR PUSH3 0x32F JUMPI DUP3 MSTORE PUSH1 0x13 DUP2 MSTORE PUSH1 0x20 SWAP3 PUSH32 0x307848756D616E20426F7420506572736F6E6100000000000000000000000000 DUP5 DUP4 ADD MSTORE DUP3 MLOAD DUP4 DUP2 ADD DUP2 DUP2 LT DUP4 DUP3 GT OR PUSH3 0x32F JUMPI DUP5 MSTORE PUSH1 0x5 DUP2 MSTORE PUSH5 0xC1E1093D5 PUSH1 0xDA SHL DUP6 DUP3 ADD MSTORE DUP3 MLOAD SWAP1 DUP3 DUP3 GT PUSH3 0x32F JUMPI PUSH1 0x0 DUP1 SLOAD SWAP3 PUSH1 0x1 SWAP6 DUP7 DUP6 DUP2 SHR SWAP6 AND DUP1 ISZERO PUSH3 0x324 JUMPI JUMPDEST DUP10 DUP7 LT EQ PUSH3 0x310 JUMPI DUP2 SWAP1 PUSH1 0x1F SWAP6 DUP7 DUP2 GT PUSH3 0x2BD JUMPI JUMPDEST POP DUP10 SWAP1 DUP7 DUP4 GT PUSH1 0x1 EQ PUSH3 0x259 JUMPI DUP5 SWAP3 PUSH3 0x24D JUMPI JUMPDEST POP POP PUSH1 0x0 NOT PUSH1 0x3 DUP4 SWAP1 SHL SHR NOT AND SWAP1 DUP7 SHL OR DUP2 SSTORE JUMPDEST DUP2 MLOAD SWAP4 DUP5 GT PUSH3 0x239 JUMPI DUP5 SLOAD DUP6 DUP2 DUP2 SHR SWAP2 AND DUP1 ISZERO PUSH3 0x22E JUMPI JUMPDEST DUP9 DUP3 LT EQ PUSH3 0x21A JUMPI DUP4 DUP2 GT PUSH3 0x1D2 JUMPI JUMPDEST POP DUP7 SWAP3 DUP5 GT PUSH1 0x1 EQ PUSH3 0x16C JUMPI DUP4 SWAP5 SWAP6 SWAP7 POP SWAP3 PUSH3 0x160 JUMPI JUMPDEST POP POP PUSH1 0x0 NOT PUSH1 0x3 DUP4 SWAP1 SHL SHR NOT AND SWAP1 DUP3 SHL OR DUP2 SSTORE JUMPDEST DUP1 PUSH1 0x6 SSTORE PUSH1 0xD SSTORE PUSH1 0x1 DUP1 PUSH1 0xA0 SHL SUB NOT CALLER DUP2 PUSH1 0x7 SLOAD AND OR PUSH1 0x7 SSTORE CALLER SWAP1 PUSH1 0x9 SLOAD AND OR PUSH1 0x9 SSTORE MLOAD PUSH2 0x3094 SWAP1 DUP2 PUSH3 0x34B DUP3 CODECOPY RETURN JUMPDEST ADD MLOAD SWAP1 POP CODESIZE DUP1 PUSH3 0x11B JUMP JUMPDEST SWAP2 SWAP1 PUSH1 0x1F NOT DUP5 AND SWAP7 DUP6 DUP5 MSTORE DUP1 DUP5 KECCAK256 SWAP4 SWAP1 JUMPDEST DUP9 DUP3 LT PUSH3 0x1BA JUMPI POP POP DUP4 DUP6 SWAP7 SWAP8 LT PUSH3 0x1A0 JUMPI JUMPDEST POP POP POP DUP2 SHL ADD DUP2 SSTORE PUSH3 0x12F JUMP JUMPDEST ADD MLOAD PUSH1 0x0 NOT PUSH1 0xF8 DUP5 PUSH1 0x3 SHL AND SHR NOT AND SWAP1 SSTORE CODESIZE DUP1 DUP1 PUSH3 0x192 JUMP JUMPDEST DUP1 DUP8 DUP6 SWAP7 DUP3 SWAP5 SWAP7 DUP7 ADD MLOAD DUP2 SSTORE ADD SWAP6 ADD SWAP4 ADD SWAP1 PUSH3 0x17D JUMP JUMPDEST DUP6 DUP3 MSTORE DUP8 DUP3 KECCAK256 DUP5 DUP1 DUP8 ADD PUSH1 0x5 SHR DUP3 ADD SWAP3 DUP11 DUP9 LT PUSH3 0x210 JUMPI JUMPDEST ADD PUSH1 0x5 SHR ADD SWAP1 DUP7 SWAP1 JUMPDEST DUP3 DUP2 LT PUSH3 0x204 JUMPI POP POP PUSH3 0x102 JUMP JUMPDEST DUP4 DUP2 SSTORE ADD DUP7 SWAP1 PUSH3 0x1F4 JUMP JUMPDEST SWAP3 POP DUP2 SWAP3 PUSH3 0x1EB JUMP JUMPDEST PUSH4 0x4E487B71 PUSH1 0xE0 SHL DUP3 MSTORE PUSH1 0x22 PUSH1 0x4 MSTORE PUSH1 0x24 DUP3 REVERT JUMPDEST SWAP1 PUSH1 0x7F AND SWAP1 PUSH3 0xF0 JUMP JUMPDEST PUSH4 0x4E487B71 PUSH1 0xE0 SHL DUP2 MSTORE PUSH1 0x41 PUSH1 0x4 MSTORE PUSH1 0x24 SWAP1 REVERT JUMPDEST ADD MLOAD SWAP1 POP CODESIZE DUP1 PUSH3 0xC2 JUMP JUMPDEST DUP5 DUP1 MSTORE DUP11 DUP6 KECCAK256 DUP10 SWAP5 POP SWAP2 SWAP1 PUSH1 0x1F NOT DUP5 AND DUP7 JUMPDEST DUP14 DUP3 DUP3 LT PUSH3 0x2A6 JUMPI POP POP DUP5 GT PUSH3 0x28C JUMPI JUMPDEST POP POP POP DUP2 SHL ADD DUP2 SSTORE PUSH3 0xD6 JUMP JUMPDEST ADD MLOAD PUSH1 0x0 NOT PUSH1 0xF8 DUP5 PUSH1 0x3 SHL AND SHR NOT AND SWAP1 SSTORE CODESIZE DUP1 DUP1 PUSH3 0x27E JUMP JUMPDEST DUP4 DUP6 ADD MLOAD DUP7 SSTORE DUP13 SWAP8 SWAP1 SWAP6 ADD SWAP5 SWAP4 DUP5 ADD SWAP4 ADD PUSH3 0x26B JUMP JUMPDEST SWAP1 SWAP2 POP DUP4 DUP1 MSTORE DUP10 DUP5 KECCAK256 DUP7 DUP1 DUP6 ADD PUSH1 0x5 SHR DUP3 ADD SWAP3 DUP13 DUP7 LT PUSH3 0x306 JUMPI JUMPDEST SWAP2 DUP11 SWAP2 DUP7 SWAP6 SWAP5 SWAP4 ADD PUSH1 0x5 SHR ADD SWAP2 JUMPDEST DUP3 DUP2 LT PUSH3 0x2F7 JUMPI POP POP PUSH3 0xAC JUMP JUMPDEST DUP7 DUP2 SSTORE DUP6 SWAP5 POP DUP11 SWAP2 ADD PUSH3 0x2E7 JUMP JUMPDEST SWAP3 POP DUP2 SWAP3 PUSH3 0x2D9 JUMP JUMPDEST PUSH4 0x4E487B71 PUSH1 0xE0 SHL DUP4 MSTORE PUSH1 0x22 PUSH1 0x4 MSTORE PUSH1 0x24 DUP4 REVERT JUMPDEST SWAP5 PUSH1 0x7F AND SWAP5 PUSH3 0x95 JUMP JUMPDEST PUSH4 0x4E487B71 PUSH1 0xE0 SHL PUSH1 0x0 MSTORE PUSH1 0x41 PUSH1 0x4 MSTORE PUSH1 0x24 PUSH1 0x0 REVERT JUMPDEST PUSH1 0x0 DUP1 REVERT INVALID PUSH1 0x80 DUP1 PUSH1 0x40 MSTORE PUSH1 0x4 CALLDATASIZE LT ISZERO PUSH2 0x1D JUMPI JUMPDEST POP CALLDATASIZE ISZERO PUSH2 0x1B JUMPI PUSH1 0x0 DUP1 REVERT JUMPDEST STOP JUMPDEST PUSH1 0x0 CALLDATALOAD PUSH1 0xE0 SHR SWAP1 DUP2 PUSH3 0x89E567 EQ PUSH2 0x260B JUMPI POP DUP1 PUSH4 0x1FFC9A7 EQ PUSH2 0x259D JUMPI DUP1 PUSH4 0x4F3BCEC EQ PUSH2 0x2574 JUMPI DUP1 PUSH4 0x6FDDE03 EQ PUSH2 0x24C9 JUMPI DUP1 PUSH4 0x81812FC EQ PUSH2 0x248B JUMPI DUP1 PUSH4 0x95EA7B3 EQ PUSH2 0x23A4 JUMPI DUP1 PUSH4 0x1FE02959 EQ PUSH2 0x222C JUMPI DUP1 PUSH4 0x23B872DD EQ PUSH2 0x2215 JUMPI DUP1 PUSH4 0x3473323E EQ PUSH2 0x21F8 JUMPI DUP1 PUSH4 0x35E6D236 EQ PUSH2 0x21BB JUMPI DUP1 PUSH4 0x405EBD4D EQ PUSH2 0x2164 JUMPI DUP1 PUSH4 0x4273F68D EQ PUSH2 0x213E JUMPI DUP1 PUSH4 0x42842E0E EQ PUSH2 0x2110 JUMPI DUP1 PUSH4 0x4E543B26 EQ PUSH2 0x20B9 JUMPI DUP1 PUSH4 0x50308EE0 EQ PUSH2 0x1C45 JUMPI DUP1 PUSH4 0x52FB5204 EQ PUSH2 0x1C29 JUMPI DUP1 PUSH4 0x536647FB EQ PUSH2 0x1B39 JUMPI DUP1 PUSH4 0x562918E5 EQ PUSH2 0x1B1B JUMPI DUP1 PUSH4 0x58958F96 EQ PUSH2 0x42B JUMPI DUP1 PUSH4 0x5DDF9096 EQ PUSH2 0x1ACE JUMPI DUP1 PUSH4 0x5F3B24B0 EQ PUSH2 0x156F JUMPI DUP1 PUSH4 0x6352211E EQ PUSH2 0x153F JUMPI DUP1 PUSH4 0x70974818 EQ PUSH2 0x142A JUMPI DUP1 PUSH4 0x70A08231 EQ PUSH2 0x13D1 JUMPI DUP1 PUSH4 0x75794A3C EQ PUSH2 0x13B3 JUMPI DUP1 PUSH4 0x75829DEF EQ PUSH2 0x1355 JUMPI DUP1 PUSH4 0x7B1E10C8 EQ PUSH2 0x1331 JUMPI DUP1 PUSH4 0x7BC5D64D EQ PUSH2 0x1296 JUMPI DUP1 PUSH4 0x859C900F EQ PUSH2 0x10A8 JUMPI DUP1 PUSH4 0x865150EF EQ PUSH2 0xF89 JUMPI DUP1 PUSH4 0x8BE3AAE7 EQ PUSH2 0xF5E JUMPI DUP1 PUSH4 0x95D89B41 EQ PUSH2 0xE7B JUMPI DUP1 PUSH4 0x9621A7E4 EQ PUSH2 0xE5F JUMPI DUP1 PUSH4 0x9D436921 EQ PUSH2 0xD1F JUMPI DUP1 PUSH4 0xA22CB465 EQ PUSH2 0xC74 JUMPI DUP1 PUSH4 0xA7CBB1BB EQ PUSH2 0x42B JUMPI DUP1 PUSH4 0xAAC0C0F4 EQ PUSH2 0xB76 JUMPI DUP1 PUSH4 0xB0462296 EQ PUSH2 0xAB1 JUMPI DUP1 PUSH4 0xB2FCA450 EQ PUSH2 0xA8E JUMPI DUP1 PUSH4 0xB4E22253 EQ PUSH2 0xA71 JUMPI DUP1 PUSH4 0xB74078EE EQ PUSH2 0x9CD JUMPI DUP1 PUSH4 0xB88D4FDE EQ PUSH2 0x962 JUMPI DUP1 PUSH4 0xC87B56DD EQ PUSH2 0x912 JUMPI DUP1 PUSH4 0xCD1F6206 EQ PUSH2 0x8F6 JUMPI DUP1 PUSH4 0xCD6E0818 EQ PUSH2 0x8D2 JUMPI DUP1 PUSH4 0xD3BB65B0 EQ PUSH2 0x8A2 JUMPI DUP1 PUSH4 0xD3F33009 EQ PUSH2 0x879 JUMPI DUP1 PUSH4 0xE39E0D77 EQ PUSH2 0x5F5 JUMPI DUP1 PUSH4 0xE4151EAF EQ PUSH2 0x430 JUMPI DUP1 PUSH4 0xE723949E EQ PUSH2 0x42B JUMPI DUP1 PUSH4 0xE8777390 EQ PUSH2 0x40F JUMPI DUP1 PUSH4 0xE985E9C5 EQ PUSH2 0x3B9 JUMPI DUP1 PUSH4 0xEC383059 EQ PUSH2 0x39D JUMPI DUP1 PUSH4 0xF221DDB9 EQ PUSH2 0x2B4 JUMPI PUSH4 0xF851A440 EQ PUSH2 0x286 JUMPI CODESIZE PUSH2 0xF JUMP JUMPDEST CALLVALUE PUSH2 0x2AF JUMPI PUSH1 0x0 CALLDATASIZE PUSH1 0x3 NOT ADD SLT PUSH2 0x2AF JUMPI PUSH1 0x7 SLOAD PUSH1 0x40 MLOAD PUSH1 0x1 PUSH1 0x1 PUSH1 0xA0 SHL SUB SWAP1 SWAP2 AND DUP2 MSTORE PUSH1 0x20 SWAP1 RETURN JUMPDEST PUSH1 0x0 DUP1 REVERT JUMPDEST CALLVALUE PUSH2 0x2AF JUMPI PUSH1 0x20 CALLDATASIZE PUSH1 0x3 NOT ADD SLT PUSH2 0x2AF JUMPI PUSH1 0x4 CALLDATALOAD PUSH1 0x0 MSTORE PUSH1 0xA PUSH1 0x20 MSTORE PUSH1 0x40 PUSH1 0x0 KECCAK256 DUP1 SLOAD SWAP1 PUSH2 0x2E4 PUSH1 0x1 DUP3 ADD PUSH2 0x2826 JUMP JUMPDEST SWAP1 PUSH1 0xFF PUSH1 0x2 DUP3 ADD SLOAD PUSH2 0x2F8 PUSH1 0x3 DUP5 ADD PUSH2 0x2826 JUMP JUMPDEST PUSH1 0x4 DUP5 ADD SLOAD SWAP4 PUSH2 0x34B PUSH1 0x6 PUSH1 0x5 DUP4 ADD SLOAD SWAP3 ADD SLOAD SWAP4 PUSH1 0x1 PUSH1 0x1 PUSH1 0x40 SHL SUB SWAP4 PUSH2 0x338 DUP8 DUP8 PUSH1 0x88 SHR AND SWAP10 PUSH1 0x40 MLOAD DUP1 SWAP13 PUSH1 0x20 PUSH2 0x140 SWAP3 DUP4 SWAP3 DUP2 MSTORE ADD MSTORE DUP13 ADD SWAP1 PUSH2 0x262C JUMP JUMPDEST SWAP2 PUSH1 0x40 DUP12 ADD MSTORE DUP10 DUP3 SUB PUSH1 0x60 DUP12 ADD MSTORE PUSH2 0x262C JUMP JUMPDEST SWAP5 PUSH1 0x80 DUP9 ADD MSTORE PUSH1 0xA0 DUP8 ADD MSTORE DUP1 DUP3 AND PUSH1 0xC0 DUP8 ADD MSTORE DUP2 PUSH1 0x40 SHR AND PUSH1 0xE0 DUP7 ADD MSTORE PUSH1 0x80 SHR AND PUSH2 0x100 DUP5 ADD MSTORE PUSH1 0x2 DUP3 LT ISZERO PUSH2 0x387 JUMPI DUP3 SWAP2 PUSH2 0x120 DUP4 ADD MSTORE SUB SWAP1 RETURN JUMPDEST PUSH4 0x4E487B71 PUSH1 0xE0 SHL PUSH1 0x0 MSTORE PUSH1 0x21 PUSH1 0x4 MSTORE PUSH1 0x24 PUSH1 0x0 REVERT JUMPDEST CALLVALUE PUSH2 0x2AF JUMPI PUSH1 0x0 CALLDATASIZE PUSH1 0x3 NOT ADD SLT PUSH2 0x2AF JUMPI PUSH1 0x20 PUSH1 0x40 MLOAD PUSH1 0x3 DUP2 MSTORE RETURN JUMPDEST CALLVALUE PUSH2 0x2AF JUMPI PUSH1 0x40 CALLDATASIZE PUSH1 0x3 NOT ADD SLT PUSH2 0x2AF JUMPI PUSH2 0x3D2 PUSH2 0x266C JUMP JUMPDEST PUSH2 0x3DA PUSH2 0x2682 JUMP JUMPDEST SWAP1 PUSH1 0x1 DUP1 PUSH1 0xA0 SHL SUB DUP1 SWAP2 AND PUSH1 0x0 MSTORE PUSH1 0x5 PUSH1 0x20 MSTORE PUSH1 0x40 PUSH1 0x0 KECCAK256 SWAP2 AND PUSH1 0x0 MSTORE PUSH1 0x20 MSTORE PUSH1 0x20 PUSH1 0xFF PUSH1 0x40 PUSH1 0x0 KECCAK256 SLOAD AND PUSH1 0x40 MLOAD SWAP1 ISZERO ISZERO DUP2 MSTORE RETURN JUMPDEST CALLVALUE PUSH2 0x2AF JUMPI PUSH1 0x0 CALLDATASIZE PUSH1 0x3 NOT ADD SLT PUSH2 0x2AF JUMPI PUSH1 0x20 PUSH1 0x40 MLOAD PUSH1 0x32 DUP2 MSTORE RETURN JUMPDEST PUSH2 0x26FA JUMP JUMPDEST CALLVALUE PUSH2 0x2AF JUMPI PUSH1 0x60 CALLDATASIZE PUSH1 0x3 NOT ADD SLT PUSH2 0x2AF JUMPI PUSH1 0x1 PUSH1 0x1 PUSH1 0x40 SHL SUB PUSH1 0x4 CALLDATALOAD PUSH1 0x24 CALLDATALOAD DUP3 DUP2 GT PUSH2 0x2AF JUMPI PUSH2 0x464 SWAP1 CALLDATASIZE SWAP1 PUSH1 0x4 ADD PUSH2 0x26CD JUMP JUMPDEST PUSH1 0x9 SLOAD PUSH1 0x44 CALLDATALOAD SWAP1 PUSH1 0x1 PUSH1 0x1 PUSH1 0xA0 SHL SUB AND CALLER SUB PUSH2 0x5E3 JUMPI PUSH2 0x483 DUP5 PUSH2 0x2E2F JUMP JUMPDEST DUP4 PUSH1 0x0 MSTORE PUSH1 0x20 SWAP5 PUSH1 0xA PUSH1 0x20 MSTORE PUSH1 0x40 PUSH1 0x0 KECCAK256 SWAP6 PUSH1 0x3 DUP8 ADD SWAP2 DUP5 GT PUSH2 0x5CD JUMPI PUSH2 0x4B4 DUP5 PUSH2 0x4AE DUP5 SLOAD PUSH2 0x27EC JUMP JUMPDEST DUP5 PUSH2 0x2C9D JUMP JUMPDEST PUSH1 0x0 SWAP1 PUSH1 0x1F DUP6 GT PUSH1 0x1 EQ PUSH2 0x53E JUMPI POP PUSH32 0x7BA10C6D05AB46E36B02C9901910BF7CEC4F658832C2FAD449CDE5702B0F6B0E SWAP6 SWAP7 DUP4 SWAP3 PUSH2 0x50C DUP7 DUP1 PUSH1 0x2 SWAP6 PUSH1 0x0 SWAP2 PUSH2 0x533 JUMPI JUMPDEST POP DUP2 PUSH1 0x1 SHL SWAP2 PUSH1 0x0 NOT SWAP1 PUSH1 0x3 SHL SHR NOT AND OR SWAP1 JUMP JUMPDEST SWAP1 SSTORE JUMPDEST ADD SSTORE PUSH2 0x528 PUSH1 0x40 MLOAD SWAP4 DUP5 SWAP4 PUSH1 0x40 DUP6 MSTORE PUSH1 0x40 DUP6 ADD SWAP2 PUSH2 0x2CF4 JUMP JUMPDEST SWAP1 PUSH1 0x20 DUP4 ADD MSTORE SUB SWAP1 LOG2 STOP JUMPDEST SWAP1 POP DUP10 ADD CALLDATALOAD DUP13 PUSH2 0x4F8 JUMP JUMPDEST SWAP1 PUSH1 0x1F NOT DUP6 AND DUP4 PUSH1 0x0 MSTORE PUSH1 0x20 PUSH1 0x0 KECCAK256 SWAP3 PUSH1 0x0 SWAP1 JUMPDEST DUP3 DUP3 LT PUSH2 0x5B5 JUMPI POP POP SWAP3 PUSH1 0x2 SWAP3 PUSH32 0x7BA10C6D05AB46E36B02C9901910BF7CEC4F658832C2FAD449CDE5702B0F6B0E SWAP9 SWAP10 SWAP3 DUP8 DUP8 SWAP7 LT PUSH2 0x59B JUMPI JUMPDEST POP POP PUSH1 0x1 DUP7 DUP2 SHL ADD SWAP1 SSTORE PUSH2 0x50F JUMP JUMPDEST DUP9 ADD CALLDATALOAD PUSH1 0x0 NOT PUSH1 0x3 DUP10 SWAP1 SHL PUSH1 0xF8 AND SHR NOT AND SWAP1 SSTORE DUP10 DUP1 PUSH2 0x58C JUMP JUMPDEST DUP1 PUSH1 0x1 DUP6 SWAP7 DUP3 SWAP5 SWAP7 DUP13 ADD CALLDATALOAD DUP2 SSTORE ADD SWAP6 ADD SWAP4 ADD SWAP1 PUSH2 0x552 JUMP JUMPDEST PUSH4 0x4E487B71 PUSH1 0xE0 SHL PUSH1 0x0 MSTORE PUSH1 0x41 PUSH1 0x4 MSTORE PUSH1 0x24 PUSH1 0x0 REVERT JUMPDEST PUSH1 0x40 MLOAD PUSH4 0x5D154FE1 PUSH1 0xE1 SHL DUP2 MSTORE PUSH1 0x4 SWAP1 REVERT JUMPDEST CALLVALUE PUSH2 0x2AF JUMPI PUSH1 0x80 CALLDATASIZE PUSH1 0x3 NOT ADD SLT PUSH2 0x2AF JUMPI PUSH2 0x60E PUSH2 0x266C JUMP JUMPDEST PUSH1 0x24 CALLDATALOAD PUSH1 0x1 PUSH1 0x1 PUSH1 0x40 SHL SUB PUSH1 0x44 CALLDATALOAD DUP2 DUP2 GT PUSH2 0x2AF JUMPI PUSH2 0x631 SWAP1 CALLDATASIZE SWAP1 PUSH1 0x4 ADD PUSH2 0x26CD JUMP JUMPDEST PUSH2 0x63A DUP5 PUSH2 0x2D15 JUMP JUMPDEST PUSH1 0x1 PUSH1 0x1 PUSH1 0xA0 SHL SUB SWAP1 CALLER SWAP1 DUP3 AND SUB PUSH2 0x867 JUMPI DUP1 DUP7 AND SWAP6 DUP7 PUSH1 0x0 MSTORE PUSH1 0x20 SWAP5 PUSH1 0xB DUP7 MSTORE PUSH1 0x3 PUSH1 0xFF PUSH1 0x40 PUSH1 0x0 KECCAK256 SLOAD AND LT ISZERO PUSH2 0x855 JUMPI DUP7 PUSH1 0x0 MSTORE PUSH1 0xA DUP7 MSTORE PUSH1 0x40 PUSH1 0x0 KECCAK256 SWAP1 PUSH1 0x1 DUP1 DUP4 ADD SWAP2 DUP7 GT PUSH2 0x5CD JUMPI DUP6 SWAP1 PUSH2 0x69C DUP3 PUSH2 0x696 DUP6 SLOAD PUSH2 0x27EC JUMP JUMPDEST DUP6 PUSH2 0x2C9D JUMP JUMPDEST PUSH1 0x0 SWAP1 PUSH1 0x1F DUP4 GT PUSH1 0x1 EQ PUSH2 0x7EC JUMPI POP SWAP1 DUP1 PUSH2 0x6CC SWAP3 PUSH1 0x0 SWAP2 PUSH2 0x7E1 JUMPI POP DUP2 PUSH1 0x1 SHL SWAP2 PUSH1 0x0 NOT SWAP1 PUSH1 0x3 SHL SHR NOT AND OR SWAP1 JUMP JUMPDEST SWAP1 SSTORE JUMPDEST PUSH1 0x64 CALLDATALOAD SWAP1 SSTORE CALLER PUSH1 0x0 MSTORE PUSH1 0xB DUP6 MSTORE PUSH1 0x40 PUSH1 0x0 KECCAK256 DUP1 SLOAD SWAP1 PUSH1 0xFF PUSH2 0x6F1 DUP2 DUP5 AND PUSH2 0x2B8E JUMP JUMPDEST AND PUSH1 0xFF NOT DUP1 SWAP4 AND OR SWAP1 SSTORE DUP8 PUSH1 0x0 MSTORE PUSH1 0xB DUP7 MSTORE PUSH1 0x40 PUSH1 0x0 KECCAK256 SWAP1 DUP2 SLOAD SWAP1 PUSH1 0xFF PUSH2 0x719 DUP2 DUP5 AND PUSH2 0x2CE2 JUMP JUMPDEST AND SWAP2 AND OR SWAP1 SSTORE DUP7 ISZERO PUSH2 0x7C8 JUMPI DUP6 PUSH2 0x72F SWAP2 PUSH2 0x2D50 JUMP JUMPDEST SWAP1 DUP2 AND DUP1 PUSH2 0x750 JUMPI PUSH1 0x40 MLOAD PUSH4 0x7E273289 PUSH1 0xE0 SHL DUP2 MSTORE PUSH1 0x4 DUP2 ADD DUP8 SWAP1 MSTORE PUSH1 0x24 SWAP1 REVERT JUMPDEST SWAP5 SWAP4 SWAP5 CALLER SUB PUSH2 0x798 JUMPI POP SWAP1 PUSH32 0x8BAB0794A724D9C4F3BE7B573C4007661FA2EA4EFF46FB0F9238DC462F66631F SWAP2 PUSH2 0x793 PUSH1 0x40 MLOAD SWAP3 DUP4 SWAP3 DUP8 DUP5 MSTORE CALLER SWAP8 DUP5 ADD SWAP2 PUSH2 0x2CF4 JUMP JUMPDEST SUB SWAP1 LOG4 STOP JUMPDEST PUSH1 0x40 MLOAD PUSH4 0x64283D7B PUSH1 0xE0 SHL DUP2 MSTORE CALLER PUSH1 0x4 DUP3 ADD MSTORE PUSH1 0x24 DUP2 ADD DUP6 SWAP1 MSTORE PUSH1 0x1 PUSH1 0x1 PUSH1 0xA0 SHL SUB SWAP2 SWAP1 SWAP2 AND PUSH1 0x44 DUP3 ADD MSTORE PUSH1 0x64 SWAP1 REVERT JUMPDEST PUSH1 0x40 MLOAD PUSH4 0x32505749 PUSH1 0xE1 SHL DUP2 MSTORE PUSH1 0x0 PUSH1 0x4 DUP3 ADD MSTORE PUSH1 0x24 SWAP1 REVERT JUMPDEST SWAP1 POP DUP9 ADD CALLDATALOAD DUP13 PUSH2 0x4F8 JUMP JUMPDEST SWAP2 PUSH1 0x1F NOT DUP2 AND DUP5 PUSH1 0x0 MSTORE DUP11 PUSH1 0x0 KECCAK256 SWAP4 PUSH1 0x0 SWAP1 JUMPDEST DUP13 DUP13 DUP5 DUP5 LT PUSH2 0x83B JUMPI POP POP POP POP LT PUSH2 0x821 JUMPI JUMPDEST POP POP PUSH1 0x1 DUP6 DUP2 SHL ADD SWAP1 SSTORE PUSH2 0x6CF JUMP JUMPDEST DUP8 ADD CALLDATALOAD PUSH1 0x0 NOT PUSH1 0x3 DUP9 SWAP1 SHL PUSH1 0xF8 AND SHR NOT AND SWAP1 SSTORE DUP10 DUP1 PUSH2 0x812 JUMP JUMPDEST DUP7 ADD CALLDATALOAD DUP8 SSTORE SWAP6 DUP2 ADD SWAP6 SWAP5 DUP6 ADD SWAP5 DUP12 SWAP5 POP SWAP2 SWAP1 SWAP2 ADD SWAP1 PUSH2 0x7FF JUMP JUMPDEST PUSH1 0x40 MLOAD PUSH4 0xB25671D9 PUSH1 0xE0 SHL DUP2 MSTORE PUSH1 0x4 SWAP1 REVERT JUMPDEST PUSH1 0x40 MLOAD PUSH4 0xB6ED3DD1 PUSH1 0xE0 SHL DUP2 MSTORE PUSH1 0x4 SWAP1 REVERT JUMPDEST CALLVALUE PUSH2 0x2AF JUMPI PUSH1 0x0 CALLDATASIZE PUSH1 0x3 NOT ADD SLT PUSH2 0x2AF JUMPI PUSH1 0x8 SLOAD PUSH1 0x40 MLOAD PUSH1 0x1 PUSH1 0x1 PUSH1 0xA0 SHL SUB SWAP1 SWAP2 AND DUP2 MSTORE PUSH1 0x20 SWAP1 RETURN JUMPDEST CALLVALUE PUSH2 0x2AF JUMPI PUSH1 0x40 CALLDATASIZE PUSH1 0x3 NOT ADD SLT PUSH2 0x2AF JUMPI PUSH1 0x20 PUSH2 0x8C8 PUSH2 0x8C0 PUSH2 0x2682 JUMP JUMPDEST PUSH1 0x4 CALLDATALOAD PUSH2 0x2C54 JUMP JUMPDEST PUSH1 0x40 MLOAD SWAP1 ISZERO ISZERO DUP2 MSTORE RETURN JUMPDEST CALLVALUE PUSH2 0x2AF JUMPI PUSH1 0x20 PUSH2 0x8EC PUSH2 0x8E5 CALLDATASIZE PUSH2 0x271D JUMP JUMPDEST SWAP2 SWAP1 PUSH2 0x2AE4 JUMP JUMPDEST LT ISZERO PUSH1 0x40 MLOAD SWAP1 DUP2 MSTORE RETURN JUMPDEST CALLVALUE PUSH2 0x2AF JUMPI PUSH1 0x0 CALLDATASIZE PUSH1 0x3 NOT ADD SLT PUSH2 0x2AF JUMPI PUSH1 0x20 PUSH1 0x40 MLOAD PUSH1 0xA DUP2 MSTORE RETURN JUMPDEST CALLVALUE PUSH2 0x2AF JUMPI PUSH1 0x20 CALLDATASIZE PUSH1 0x3 NOT ADD SLT PUSH2 0x2AF JUMPI PUSH1 0x4 CALLDATALOAD PUSH2 0x92F DUP2 PUSH2 0x2E2F JUMP JUMPDEST PUSH1 0x0 MSTORE PUSH1 0xA PUSH1 0x20 MSTORE PUSH2 0x95E PUSH2 0x94A PUSH1 0x1 PUSH1 0x40 PUSH1 0x0 KECCAK256 ADD PUSH2 0x2826 JUMP JUMPDEST PUSH1 0x40 MLOAD SWAP2 DUP3 SWAP2 PUSH1 0x20 DUP4 MSTORE PUSH1 0x20 DUP4 ADD SWAP1 PUSH2 0x262C JUMP JUMPDEST SUB SWAP1 RETURN JUMPDEST CALLVALUE PUSH2 0x2AF JUMPI PUSH1 0x80 CALLDATASIZE PUSH1 0x3 NOT ADD SLT PUSH2 0x2AF JUMPI PUSH2 0x97B PUSH2 0x266C JUMP JUMPDEST PUSH2 0x983 PUSH2 0x2682 JUMP JUMPDEST SWAP1 PUSH1 0x44 CALLDATALOAD PUSH1 0x64 CALLDATALOAD SWAP3 PUSH1 0x1 PUSH1 0x1 PUSH1 0x40 SHL SUB DUP5 GT PUSH2 0x2AF JUMPI CALLDATASIZE PUSH1 0x23 DUP6 ADD SLT ISZERO PUSH2 0x2AF JUMPI PUSH2 0x9BB PUSH2 0x1B SWAP5 CALLDATASIZE SWAP1 PUSH1 0x24 DUP2 PUSH1 0x4 ADD CALLDATALOAD SWAP2 ADD PUSH2 0x27B5 JUMP JUMPDEST SWAP3 PUSH2 0x9C7 DUP4 DUP4 DUP4 PUSH2 0x291C JUMP JUMPDEST CALLER PUSH2 0x2F82 JUMP JUMPDEST CALLVALUE PUSH2 0x2AF JUMPI PUSH1 0x60 CALLDATASIZE PUSH1 0x3 NOT ADD SLT PUSH2 0x2AF JUMPI PUSH1 0x4 CALLDATALOAD PUSH2 0x9E9 PUSH2 0x2682 JUMP JUMPDEST SWAP1 PUSH1 0x44 CALLDATALOAD DUP1 ISZERO ISZERO SWAP1 DUP2 DUP2 SUB PUSH2 0x2AF JUMPI PUSH2 0xA01 DUP4 PUSH2 0x2D15 JUMP JUMPDEST PUSH1 0x1 PUSH1 0x1 PUSH1 0xA0 SHL SUB SWAP3 SWAP1 CALLER SWAP1 DUP5 AND SUB PUSH2 0x867 JUMPI PUSH2 0xA68 PUSH1 0x20 SWAP3 PUSH32 0x2F694CEFA9AEC79E3B654A0847A5210267E409AF05EA4369920BADBE45AD76A3 SWAP5 DUP7 PUSH1 0x0 MSTORE PUSH1 0xC DUP6 MSTORE PUSH1 0x40 PUSH1 0x0 KECCAK256 SWAP8 AND SWAP7 DUP8 PUSH1 0x0 MSTORE DUP5 MSTORE PUSH1 0x40 PUSH1 0x0 KECCAK256 SWAP1 PUSH1 0xFF DUP1 NOT DUP4 SLOAD AND SWAP2 ISZERO ISZERO AND OR SWAP1 SSTORE JUMP JUMPDEST PUSH1 0x40 MLOAD SWAP1 DUP2 MSTORE LOG3 STOP JUMPDEST CALLVALUE PUSH2 0x2AF JUMPI PUSH1 0x0 CALLDATASIZE PUSH1 0x3 NOT ADD SLT PUSH2 0x2AF JUMPI PUSH1 0x20 PUSH1 0x40 MLOAD PUSH2 0xBB8 DUP2 MSTORE RETURN JUMPDEST CALLVALUE PUSH2 0x2AF JUMPI PUSH1 0x0 CALLDATASIZE PUSH1 0x3 NOT ADD SLT PUSH2 0x2AF JUMPI PUSH1 0x20 PUSH1 0x40 MLOAD PUSH8 0x1BC16D674EC80000 DUP2 MSTORE RETURN JUMPDEST PUSH1 0x20 CALLDATASIZE PUSH1 0x3 NOT ADD SLT PUSH2 0x2AF JUMPI PUSH1 0x4 CALLDATALOAD PUSH2 0xAC8 PUSH2 0x2E0C JUMP JUMPDEST PUSH2 0xAD1 DUP2 PUSH2 0x2E2F JUMP JUMPDEST CALLVALUE ISZERO PUSH2 0xB42 JUMPI DUP1 PUSH1 0x0 MSTORE PUSH1 0xA PUSH1 0x20 MSTORE PUSH32 0xA856B8326AE48D64CF8805AE5BB6E2B8532A4F4D3CC1D81DBC0A5FF00626120C PUSH1 0x40 DUP1 PUSH1 0x0 KECCAK256 PUSH1 0x4 DUP2 ADD SWAP1 PUSH2 0xB17 CALLVALUE DUP4 SLOAD PUSH2 0x28CB JUMP JUMPDEST DUP3 SSTORE PUSH1 0x5 NUMBER SWAP2 ADD SSTORE PUSH2 0xB2B CALLVALUE PUSH1 0xE SLOAD PUSH2 0x28CB JUMP JUMPDEST PUSH1 0xE SSTORE SLOAD DUP2 MLOAD SWAP1 CALLVALUE DUP3 MSTORE PUSH1 0x20 DUP3 ADD MSTORE LOG2 PUSH1 0x1 PUSH1 0x6 SSTORE STOP JUMPDEST PUSH1 0x40 MLOAD PUSH3 0x461BCD PUSH1 0xE5 SHL DUP2 MSTORE PUSH1 0x20 PUSH1 0x4 DUP3 ADD MSTORE PUSH1 0xC PUSH1 0x24 DUP3 ADD MSTORE PUSH12 0x1E995C9BC819195C1BDCDA5D PUSH1 0xA2 SHL PUSH1 0x44 DUP3 ADD MSTORE PUSH1 0x64 SWAP1 REVERT JUMPDEST PUSH1 0x20 CALLDATASIZE PUSH1 0x3 NOT ADD SLT PUSH2 0x2AF JUMPI PUSH1 0x4 CALLDATALOAD PUSH2 0xB8D PUSH2 0x2E0C JUMP JUMPDEST PUSH2 0xB96 DUP2 PUSH2 0x2D15 JUMP JUMPDEST PUSH1 0x1 PUSH1 0x1 PUSH1 0xA0 SHL SUB SWAP1 CALLER SWAP1 DUP3 AND SUB PUSH2 0x867 JUMPI DUP2 PUSH1 0x0 MSTORE PUSH1 0xA PUSH1 0x20 MSTORE PUSH1 0x6 PUSH1 0x40 PUSH1 0x0 KECCAK256 ADD SWAP1 DUP2 SLOAD SWAP1 PUSH1 0xFF DUP3 PUSH1 0x88 SHR AND PUSH1 0x2 DUP2 LT ISZERO PUSH2 0x387 JUMPI PUSH1 0x1 EQ PUSH2 0xC62 JUMPI PUSH8 0x8AC7230489E80000 CALLVALUE SUB PUSH2 0xC50 JUMPI PUSH1 0xFF PUSH1 0x88 SHL NOT SWAP1 SWAP2 AND PUSH1 0x1 PUSH1 0x88 SHL OR SWAP1 SWAP2 SSTORE PUSH1 0x7 SLOAD PUSH2 0xC18 SWAP2 PUSH1 0x0 SWAP2 DUP3 SWAP2 DUP3 SWAP2 DUP3 SWAP2 CALLVALUE SWAP2 AND GAS CALL PUSH2 0xC12 PUSH2 0x2B1C JUMP JUMPDEST POP PUSH2 0x2B4C JUMP JUMPDEST PUSH32 0xE4617657D9254E34FEA36FD76EF71AEA57FF771484A00D5A0874FCDB7641B489 PUSH1 0x40 DUP1 MLOAD PUSH1 0x0 DUP2 MSTORE PUSH1 0x1 PUSH1 0x20 DUP3 ADD MSTORE LOG2 PUSH1 0x1 PUSH1 0x6 SSTORE STOP JUMPDEST PUSH1 0x40 MLOAD PUSH4 0x4D0419DB PUSH1 0xE1 SHL DUP2 MSTORE PUSH1 0x4 SWAP1 REVERT JUMPDEST PUSH1 0x40 MLOAD PUSH4 0x231FAF7 PUSH1 0xE3 SHL DUP2 MSTORE PUSH1 0x4 SWAP1 REVERT JUMPDEST CALLVALUE PUSH2 0x2AF JUMPI PUSH1 0x40 CALLDATASIZE PUSH1 0x3 NOT ADD SLT PUSH2 0x2AF JUMPI PUSH2 0xC8D PUSH2 0x266C JUMP JUMPDEST PUSH2 0xC95 PUSH2 0x2733 JUMP JUMPDEST PUSH1 0x1 PUSH1 0x1 PUSH1 0xA0 SHL SUB SWAP1 SWAP2 AND SWAP1 DUP2 ISZERO PUSH2 0xD06 JUMPI CALLER PUSH1 0x0 MSTORE PUSH1 0x5 PUSH1 0x20 MSTORE PUSH1 0x40 PUSH1 0x0 KECCAK256 DUP3 PUSH1 0x0 MSTORE PUSH1 0x20 MSTORE PUSH2 0xCD6 DUP2 PUSH1 0x40 PUSH1 0x0 KECCAK256 SWAP1 PUSH1 0xFF DUP1 NOT DUP4 SLOAD AND SWAP2 ISZERO ISZERO AND OR SWAP1 SSTORE JUMP JUMPDEST PUSH1 0x40 MLOAD SWAP1 ISZERO ISZERO DUP2 MSTORE PUSH32 0x17307EAB39AB6107E8899845AD3D59BD9653F200F220920489CA2B5937696C31 PUSH1 0x20 CALLER SWAP3 LOG3 STOP JUMPDEST PUSH1 0x40 MLOAD PUSH4 0xB611743 PUSH1 0xE3 SHL DUP2 MSTORE PUSH1 0x4 DUP2 ADD DUP4 SWAP1 MSTORE PUSH1 0x24 SWAP1 REVERT JUMPDEST CALLVALUE PUSH2 0x2AF JUMPI PUSH1 0x60 CALLDATASIZE PUSH1 0x3 NOT ADD SLT PUSH2 0x2AF JUMPI PUSH1 0x8 SLOAD PUSH1 0x24 CALLDATALOAD SWAP1 PUSH1 0x4 CALLDATALOAD SWAP1 PUSH1 0x1 PUSH1 0x1 PUSH1 0xA0 SHL SUB SWAP1 DUP2 AND CALLER SUB PUSH2 0xE4D JUMPI PUSH2 0xD54 PUSH2 0x2E0C JUMP JUMPDEST PUSH2 0xD5D DUP3 PUSH2 0x2E2F JUMP JUMPDEST DUP2 PUSH1 0x0 MSTORE PUSH1 0xA PUSH1 0x20 MSTORE PUSH1 0x40 PUSH1 0x0 KECCAK256 PUSH2 0xD74 DUP4 PUSH2 0x2AE4 JUMP JUMPDEST DUP5 GT PUSH2 0xE3B JUMPI PUSH1 0x4 ADD SWAP1 DUP2 SLOAD SWAP1 DUP5 DUP3 LT PUSH2 0xE3B JUMPI PUSH1 0x0 DUP6 DUP2 SWAP5 SWAP3 DUP3 SWAP5 SWAP4 PUSH2 0xD9C DUP4 DUP6 SWAP7 PUSH2 0x2B0F JUMP JUMPDEST SWAP1 SSTORE PUSH2 0xDAA DUP3 PUSH1 0xE SLOAD PUSH2 0x2B0F JUMP JUMPDEST PUSH1 0xE SSTORE PUSH1 0x8 SLOAD AND GAS CALL PUSH2 0xDBB PUSH2 0x2B1C JUMP JUMPDEST POP ISZERO PUSH2 0xDF6 JUMPI PUSH1 0x40 MLOAD SWAP2 DUP3 MSTORE PUSH32 0x450C37277C5A326E3D7E9585031F9824A61B9DC624E511552A5FDA309399BE19 PUSH1 0x20 PUSH1 0x44 CALLDATALOAD SWAP4 LOG3 PUSH1 0x1 PUSH1 0x6 SSTORE STOP JUMPDEST PUSH1 0x40 MLOAD PUSH3 0x461BCD PUSH1 0xE5 SHL DUP2 MSTORE PUSH1 0x20 PUSH1 0x4 DUP3 ADD MSTORE PUSH1 0x17 PUSH1 0x24 DUP3 ADD MSTORE PUSH32 0x7472616E7366657220746F2067616D65206661696C6564000000000000000000 PUSH1 0x44 DUP3 ADD MSTORE PUSH1 0x64 SWAP1 REVERT JUMPDEST PUSH1 0x40 MLOAD PUSH4 0x1B744575 PUSH1 0xE3 SHL DUP2 MSTORE PUSH1 0x4 SWAP1 REVERT JUMPDEST PUSH1 0x40 MLOAD PUSH4 0x6AFF4381 PUSH1 0xE1 SHL DUP2 MSTORE PUSH1 0x4 SWAP1 REVERT JUMPDEST CALLVALUE PUSH2 0x2AF JUMPI PUSH1 0x0 CALLDATASIZE PUSH1 0x3 NOT ADD SLT PUSH2 0x2AF JUMPI PUSH1 0x20 PUSH1 0x40 MLOAD PUSH1 0x1 DUP2 MSTORE RETURN JUMPDEST CALLVALUE PUSH2 0x2AF JUMPI PUSH1 0x0 CALLDATASIZE PUSH1 0x3 NOT ADD SLT PUSH2 0x2AF JUMPI PUSH1 0x40 MLOAD PUSH1 0x0 PUSH1 0x1 DUP3 PUSH1 0x1 SLOAD SWAP3 PUSH2 0xEA1 DUP5 PUSH2 0x27EC JUMP JUMPDEST SWAP3 DUP4 DUP4 MSTORE PUSH1 0x20 SWAP5 DUP6 PUSH1 0x1 DUP3 AND SWAP2 DUP3 PUSH1 0x0 EQ PUSH2 0xF3E JUMPI POP POP PUSH1 0x1 EQ PUSH2 0xEE1 JUMPI JUMPDEST POP PUSH2 0xECD SWAP3 POP SUB DUP4 PUSH2 0x2779 JUMP JUMPDEST PUSH2 0x95E PUSH1 0x40 MLOAD SWAP3 DUP3 DUP5 SWAP4 DUP5 MSTORE DUP4 ADD SWAP1 PUSH2 0x262C JUMP JUMPDEST DUP5 SWAP2 POP PUSH1 0x1 PUSH1 0x0 MSTORE PUSH32 0xB10E2D527612073B26EECDFD717E6A320CF44B4AFAC2B0732D9FCBE2B7FA0CF6 SWAP1 PUSH1 0x0 SWAP2 JUMPDEST DUP6 DUP4 LT PUSH2 0xF26 JUMPI POP POP PUSH2 0xECD SWAP4 POP DUP3 ADD ADD DUP6 PUSH2 0xEC0 JUMP JUMPDEST DUP1 SLOAD DUP4 DUP10 ADD DUP6 ADD MSTORE DUP8 SWAP5 POP DUP7 SWAP4 SWAP1 SWAP3 ADD SWAP2 DUP2 ADD PUSH2 0xF0F JUMP JUMPDEST PUSH1 0xFF NOT AND DUP6 DUP3 ADD MSTORE PUSH2 0xECD SWAP6 ISZERO ISZERO PUSH1 0x5 SHL DUP6 ADD ADD SWAP3 POP DUP8 SWAP2 POP PUSH2 0xEC0 SWAP1 POP JUMP JUMPDEST CALLVALUE PUSH2 0x2AF JUMPI PUSH1 0x40 CALLDATASIZE PUSH1 0x3 NOT ADD SLT PUSH2 0x2AF JUMPI PUSH1 0x24 CALLDATALOAD PUSH1 0x2 DUP2 LT ISZERO PUSH2 0x2AF JUMPI PUSH2 0x8C8 PUSH1 0x20 SWAP2 PUSH1 0x4 CALLDATALOAD PUSH2 0x2C19 JUMP JUMPDEST PUSH1 0x60 CALLDATASIZE PUSH1 0x3 NOT ADD SLT PUSH2 0x2AF JUMPI PUSH1 0x4 CALLDATALOAD PUSH2 0xFA0 PUSH2 0x2733 JUMP JUMPDEST PUSH1 0x8 SLOAD SWAP1 SWAP2 SWAP1 PUSH1 0x1 PUSH1 0x1 PUSH1 0xA0 SHL SUB AND CALLER SUB PUSH2 0xE4D JUMPI PUSH2 0xFBD PUSH2 0x2E0C JUMP JUMPDEST PUSH2 0xFC6 DUP2 PUSH2 0x2E2F JUMP JUMPDEST DUP1 PUSH1 0x0 MSTORE PUSH1 0xA PUSH1 0x20 MSTORE PUSH1 0x40 PUSH1 0x0 KECCAK256 PUSH1 0x4 DUP2 ADD PUSH2 0xFE3 CALLVALUE DUP3 SLOAD PUSH2 0x28CB JUMP JUMPDEST SWAP1 SSTORE PUSH2 0xFF1 CALLVALUE PUSH1 0xE SLOAD PUSH2 0x28CB JUMP JUMPDEST PUSH1 0xE SSTORE DUP3 ISZERO PUSH2 0x105F JUMPI PUSH1 0x6 ADD DUP1 SLOAD PUSH1 0x1 PUSH1 0x1 PUSH1 0x40 SHL SUB PUSH2 0x1012 DUP2 DUP4 AND PUSH2 0x2C01 JUMP JUMPDEST AND SWAP1 PUSH1 0x1 PUSH1 0x1 PUSH1 0x40 SHL SUB NOT AND OR SWAP1 SSTORE JUMPDEST PUSH1 0x40 MLOAD SWAP2 CALLVALUE DUP4 MSTORE ISZERO ISZERO PUSH1 0x20 DUP4 ADD MSTORE PUSH32 0xCD011E056055108F001EBD1B7ADD28AB5457B3D1269B0D35BC7FDAED47519E33 PUSH1 0x40 PUSH1 0x44 CALLDATALOAD SWAP4 LOG3 PUSH1 0x1 PUSH1 0x6 SSTORE STOP JUMPDEST PUSH1 0x6 PUSH2 0x10A3 SWAP2 ADD PUSH2 0x107C PUSH1 0x1 PUSH1 0x1 PUSH1 0x40 SHL SUB DUP3 SLOAD PUSH1 0x40 SHR AND PUSH2 0x2C01 JUMP JUMPDEST PUSH8 0xFFFFFFFFFFFFFFFF PUSH1 0x40 SHL DUP3 SLOAD SWAP2 PUSH1 0x40 SHL AND SWAP1 PUSH8 0xFFFFFFFFFFFFFFFF PUSH1 0x40 SHL NOT AND OR SWAP1 SSTORE JUMP JUMPDEST PUSH2 0x1022 JUMP JUMPDEST CALLVALUE PUSH2 0x2AF JUMPI PUSH1 0x20 DUP1 PUSH1 0x3 NOT CALLDATASIZE ADD SLT PUSH2 0x2AF JUMPI PUSH1 0x4 CALLDATALOAD PUSH2 0x10C5 PUSH2 0x2E0C JUMP JUMPDEST PUSH2 0x10CE DUP2 PUSH2 0x2D15 JUMP JUMPDEST PUSH1 0x1 PUSH1 0x1 PUSH1 0xA0 SHL SUB SWAP3 SWAP1 CALLER SWAP1 DUP5 AND SUB PUSH2 0x867 JUMPI DUP2 PUSH1 0x0 MSTORE PUSH1 0xA DUP2 MSTORE PUSH1 0x4 PUSH1 0x40 PUSH1 0x0 KECCAK256 ADD SWAP3 PUSH1 0x0 DUP5 SLOAD SWAP5 SSTORE PUSH2 0x1104 DUP5 PUSH1 0xE SLOAD PUSH2 0x2B0F JUMP JUMPDEST PUSH1 0xE SSTORE CALLER PUSH1 0x0 MSTORE PUSH1 0xB DUP3 MSTORE PUSH1 0x40 PUSH1 0x0 KECCAK256 DUP1 SLOAD PUSH1 0xFF PUSH2 0x1123 DUP2 DUP4 AND PUSH2 0x2B8E JUMP JUMPDEST AND SWAP1 PUSH1 0xFF NOT AND OR SWAP1 SSTORE DUP3 PUSH1 0x0 MSTORE PUSH1 0x2 DUP3 MSTORE PUSH1 0x40 PUSH1 0x0 KECCAK256 SLOAD AND DUP3 PUSH1 0x0 DUP3 ISZERO SWAP3 DUP4 ISZERO PUSH2 0x1263 JUMPI JUMPDEST DUP3 DUP3 MSTORE PUSH1 0x2 DUP6 MSTORE PUSH1 0x40 DUP3 KECCAK256 DUP1 SLOAD PUSH1 0x1 PUSH1 0x1 PUSH1 0xA0 SHL SUB NOT AND SWAP1 SSTORE PUSH32 0xDDF252AD1BE2C89B69C2B068FC378DAA952BA7F163C4A11628F55A4DF523B3EF DUP3 DUP1 LOG4 PUSH2 0x124A JUMPI DUP2 PUSH1 0x0 MSTORE PUSH1 0xA DUP2 MSTORE PUSH1 0x0 PUSH1 0x6 PUSH1 0x40 DUP3 KECCAK256 DUP3 DUP2 SSTORE PUSH2 0x11A8 PUSH1 0x1 DUP3 ADD PUSH2 0x2BB8 JUMP JUMPDEST DUP3 PUSH1 0x2 DUP3 ADD SSTORE PUSH2 0x11BA PUSH1 0x3 DUP3 ADD PUSH2 0x2BB8 JUMP JUMPDEST DUP3 PUSH1 0x4 DUP3 ADD SSTORE DUP3 PUSH1 0x5 DUP3 ADD SSTORE ADD SSTORE DUP3 PUSH2 0x1200 JUMPI JUMPDEST PUSH32 0xE5941EE4C8AE8889D214B63760AD89FFEA64442D448DE76E7D668340AFCE7766 SWAP1 PUSH1 0x40 MLOAD SWAP4 DUP5 MSTORE CALLER SWAP4 LOG3 PUSH1 0x1 PUSH1 0x6 SSTORE STOP JUMPDEST PUSH1 0x0 DUP1 DUP1 DUP1 DUP7 CALLER GAS CALL PUSH2 0x1211 PUSH2 0x2B1C JUMP JUMPDEST POP PUSH2 0x11CE JUMPI PUSH1 0x64 SWAP1 PUSH1 0x40 MLOAD SWAP1 PUSH3 0x461BCD PUSH1 0xE5 SHL DUP3 MSTORE PUSH1 0x4 DUP3 ADD MSTORE PUSH1 0xD PUSH1 0x24 DUP3 ADD MSTORE PUSH13 0x1C99599D5B990819985A5B1959 PUSH1 0x9A SHL PUSH1 0x44 DUP3 ADD MSTORE REVERT JUMPDEST PUSH1 0x40 MLOAD PUSH4 0x7E273289 PUSH1 0xE0 SHL DUP2 MSTORE PUSH1 0x4 DUP2 ADD DUP4 SWAP1 MSTORE PUSH1 0x24 SWAP1 REVERT JUMPDEST PUSH1 0x0 DUP4 DUP2 MSTORE PUSH1 0x4 PUSH1 0x20 MSTORE PUSH1 0x40 SWAP1 KECCAK256 DUP1 SLOAD PUSH1 0x1 PUSH1 0x1 PUSH1 0xA0 SHL SUB NOT AND SWAP1 SSTORE DUP1 DUP3 MSTORE PUSH1 0x3 DUP6 MSTORE PUSH1 0x40 DUP3 KECCAK256 DUP3 NOT DUP2 SLOAD ADD SWAP1 SSTORE PUSH2 0x1148 JUMP JUMPDEST CALLVALUE PUSH2 0x2AF JUMPI PUSH1 0x20 CALLDATASIZE PUSH1 0x3 NOT ADD SLT PUSH2 0x2AF JUMPI PUSH1 0x4 CALLDATALOAD PUSH1 0x0 MSTORE PUSH1 0xA PUSH1 0x20 MSTORE PUSH1 0x6 PUSH1 0x40 PUSH1 0x0 KECCAK256 ADD SLOAD PUSH1 0x1 PUSH1 0x1 PUSH1 0x40 SHL SUB DUP1 DUP3 AND SWAP2 PUSH1 0x40 SHR AND SWAP1 PUSH2 0x12D6 DUP3 DUP3 PUSH2 0x28CB JUMP JUMPDEST SWAP2 DUP3 PUSH2 0x12F6 JUMPI PUSH1 0x60 SWAP3 POP PUSH1 0x0 SWAP1 JUMPDEST PUSH1 0x40 MLOAD SWAP3 DUP4 MSTORE PUSH1 0x20 DUP4 ADD MSTORE PUSH1 0x40 DUP3 ADD MSTORE RETURN JUMPDEST PUSH2 0x2710 DUP1 DUP4 MUL SWAP1 DUP4 DUP3 DIV EQ DUP4 ISZERO OR ISZERO PUSH2 0x131B JUMPI PUSH1 0x60 SWAP4 PUSH2 0x1315 SWAP2 PUSH2 0x28D8 JUMP JUMPDEST SWAP1 PUSH2 0x12E4 JUMP JUMPDEST PUSH4 0x4E487B71 PUSH1 0xE0 SHL PUSH1 0x0 MSTORE PUSH1 0x11 PUSH1 0x4 MSTORE PUSH1 0x24 PUSH1 0x0 REVERT JUMPDEST CALLVALUE PUSH2 0x2AF JUMPI PUSH1 0x0 CALLDATASIZE PUSH1 0x3 NOT ADD SLT PUSH2 0x2AF JUMPI PUSH1 0x20 PUSH1 0x40 MLOAD PUSH9 0x15AF1D78B58C40000 DUP2 MSTORE RETURN JUMPDEST CALLVALUE PUSH2 0x2AF JUMPI PUSH1 0x20 CALLDATASIZE PUSH1 0x3 NOT ADD SLT PUSH2 0x2AF JUMPI PUSH2 0x136E PUSH2 0x266C JUMP JUMPDEST PUSH1 0x7 SLOAD SWAP1 PUSH1 0x1 PUSH1 0x1 PUSH1 0xA0 SHL SUB SWAP1 DUP2 DUP4 AND CALLER SUB PUSH2 0x13A1 JUMPI AND SWAP1 PUSH2 0x1391 DUP3 ISZERO ISZERO PUSH2 0x2AAC JUMP JUMPDEST PUSH1 0x1 PUSH1 0x1 PUSH1 0xA0 SHL SUB NOT AND OR PUSH1 0x7 SSTORE STOP JUMPDEST PUSH1 0x40 MLOAD PUSH4 0x7BFA4B9F PUSH1 0xE0 SHL DUP2 MSTORE PUSH1 0x4 SWAP1 REVERT JUMPDEST CALLVALUE PUSH2 0x2AF JUMPI PUSH1 0x0 CALLDATASIZE PUSH1 0x3 NOT ADD SLT PUSH2 0x2AF JUMPI PUSH1 0x20 PUSH1 0xD SLOAD PUSH1 0x40 MLOAD SWAP1 DUP2 MSTORE RETURN JUMPDEST CALLVALUE PUSH2 0x2AF JUMPI PUSH1 0x20 CALLDATASIZE PUSH1 0x3 NOT ADD SLT PUSH2 0x2AF JUMPI PUSH1 0x1 PUSH1 0x1 PUSH1 0xA0 SHL SUB PUSH2 0x13F2 PUSH2 0x266C JUMP JUMPDEST AND DUP1 ISZERO PUSH2 0x1411 JUMPI PUSH1 0x0 MSTORE PUSH1 0x3 PUSH1 0x20 MSTORE PUSH1 0x20 PUSH1 0x40 PUSH1 0x0 KECCAK256 SLOAD PUSH1 0x40 MLOAD SWAP1 DUP2 MSTORE RETURN JUMPDEST PUSH1 0x40 MLOAD PUSH4 0x22718AD9 PUSH1 0xE2 SHL DUP2 MSTORE PUSH1 0x0 PUSH1 0x4 DUP3 ADD MSTORE PUSH1 0x24 SWAP1 REVERT JUMPDEST CALLVALUE PUSH2 0x2AF JUMPI PUSH2 0x1438 CALLDATASIZE PUSH2 0x271D JUMP JUMPDEST PUSH2 0x1440 PUSH2 0x2E0C JUMP JUMPDEST PUSH2 0x1449 DUP3 PUSH2 0x2D15 JUMP JUMPDEST CALLER PUSH1 0x1 PUSH1 0x1 PUSH1 0xA0 SHL SUB SWAP1 SWAP2 AND SUB PUSH2 0x867 JUMPI DUP2 PUSH1 0x0 MSTORE PUSH1 0xA PUSH1 0x20 MSTORE PUSH1 0x40 PUSH1 0x0 KECCAK256 PUSH1 0x4 DUP2 ADD SWAP1 DUP2 SLOAD SWAP1 DUP4 DUP3 LT PUSH2 0xE3B JUMPI PUSH1 0x5 ADD SLOAD PUSH1 0x1 DUP2 ADD DUP1 SWAP2 GT PUSH2 0x131B JUMPI NUMBER LT PUSH2 0x152D JUMPI DUP3 PUSH2 0x1496 SWAP2 PUSH2 0x2B0F JUMP JUMPDEST DUP2 SSTORE PUSH2 0x14A4 DUP3 PUSH1 0xE SLOAD PUSH2 0x2B0F JUMP JUMPDEST PUSH1 0xE SSTORE PUSH1 0x0 DUP1 DUP1 DUP1 DUP6 CALLER GAS CALL PUSH2 0x14B8 PUSH2 0x2B1C JUMP JUMPDEST POP ISZERO PUSH2 0x14F6 JUMPI PUSH32 0x7434C12D21449F894663BB2F836086990B5B596D77951749F7AA97F5B250B930 SWAP2 PUSH1 0x40 SWAP2 SLOAD DUP3 MLOAD SWAP2 DUP3 MSTORE PUSH1 0x20 DUP3 ADD MSTORE LOG2 PUSH1 0x1 PUSH1 0x6 SSTORE STOP JUMPDEST PUSH1 0x40 MLOAD PUSH3 0x461BCD PUSH1 0xE5 SHL DUP2 MSTORE PUSH1 0x20 PUSH1 0x4 DUP3 ADD MSTORE PUSH1 0xF PUSH1 0x24 DUP3 ADD MSTORE PUSH15 0x1D1C985B9CD9995C8819985A5B1959 PUSH1 0x8A SHL PUSH1 0x44 DUP3 ADD MSTORE PUSH1 0x64 SWAP1 REVERT JUMPDEST PUSH1 0x40 MLOAD PUSH4 0x24C40F9B PUSH1 0xE2 SHL DUP2 MSTORE PUSH1 0x4 SWAP1 REVERT JUMPDEST CALLVALUE PUSH2 0x2AF JUMPI PUSH1 0x20 CALLDATASIZE PUSH1 0x3 NOT ADD SLT PUSH2 0x2AF JUMPI PUSH1 0x20 PUSH2 0x155D PUSH1 0x4 CALLDATALOAD PUSH2 0x2D15 JUMP JUMPDEST PUSH1 0x40 MLOAD PUSH1 0x1 PUSH1 0x1 PUSH1 0xA0 SHL SUB SWAP1 SWAP2 AND DUP2 MSTORE RETURN JUMPDEST PUSH1 0x60 CALLDATASIZE PUSH1 0x3 NOT ADD SLT PUSH2 0x2AF JUMPI PUSH1 0x4 CALLDATALOAD PUSH1 0xFF DUP2 AND DUP2 SUB PUSH2 0x2AF JUMPI PUSH1 0x24 CALLDATALOAD PUSH1 0x1 PUSH1 0x1 PUSH1 0x40 SHL SUB DUP2 GT PUSH2 0x2AF JUMPI PUSH2 0x15A7 SWAP1 CALLDATASIZE SWAP1 PUSH1 0x4 ADD PUSH2 0x26CD JUMP JUMPDEST SWAP1 PUSH2 0x15B0 PUSH2 0x2E0C JUMP JUMPDEST PUSH1 0x2 PUSH1 0xFF DUP5 AND EQ SWAP2 DUP3 ISZERO DUP1 PUSH2 0x1AC0 JUMPI JUMPDEST PUSH2 0x1AAE JUMPI DUP3 ISZERO PUSH2 0x1A9E JUMPI PUSH8 0x8AC7230489E80000 SWAP3 JUMPDEST ISZERO PUSH2 0x1A8D JUMPI PUSH2 0x15ED PUSH8 0x4563918244F40000 JUMPDEST DUP5 PUSH2 0x28CB JUMP JUMPDEST CALLVALUE LT PUSH2 0xC50 JUMPI PUSH2 0x161E PUSH1 0x0 DUP1 DUP1 DUP1 PUSH2 0x1605 DUP9 CALLVALUE PUSH2 0x2B0F JUMP JUMPDEST PUSH1 0x7 SLOAD SWAP1 SWAP9 SWAP1 PUSH1 0x1 PUSH1 0x1 PUSH1 0xA0 SHL SUB AND GAS CALL PUSH2 0xC12 PUSH2 0x2B1C JUMP JUMPDEST CALLER PUSH1 0x0 MSTORE PUSH1 0xB PUSH1 0x20 MSTORE PUSH1 0x3 PUSH1 0xFF PUSH1 0x40 PUSH1 0x0 KECCAK256 SLOAD AND LT ISZERO PUSH2 0x855 JUMPI CALLER PUSH1 0x0 MSTORE PUSH1 0xB PUSH1 0x20 MSTORE PUSH1 0xFF PUSH2 0x1653 DUP2 PUSH1 0x40 PUSH1 0x0 KECCAK256 SLOAD AND PUSH2 0x2CE2 JUMP JUMPDEST AND PUSH1 0xFF DUP6 AND SUB PUSH2 0x1A7B JUMPI PUSH1 0xD SLOAD SWAP3 PUSH1 0x0 NOT DUP5 EQ PUSH2 0x131B JUMPI PUSH1 0x1 DUP5 ADD PUSH1 0xD SSTORE CALLER PUSH1 0x0 MSTORE PUSH1 0xB PUSH1 0x20 MSTORE PUSH1 0x40 PUSH1 0x0 KECCAK256 DUP1 SLOAD PUSH1 0xFF PUSH2 0x168E DUP2 DUP4 AND PUSH2 0x2CE2 JUMP JUMPDEST AND SWAP1 PUSH1 0xFF NOT AND OR SWAP1 SSTORE PUSH1 0x40 MLOAD PUSH2 0x16A3 DUP2 PUSH2 0x2742 JUMP JUMPDEST PUSH1 0x44 CALLDATALOAD DUP2 MSTORE PUSH2 0x16B3 CALLDATASIZE DUP5 DUP7 PUSH2 0x27B5 JUMP JUMPDEST PUSH1 0x20 DUP3 ADD MSTORE PUSH1 0x0 PUSH1 0x40 DUP3 ADD MSTORE PUSH1 0x40 MLOAD PUSH2 0x16CB DUP2 PUSH2 0x275E JUMP JUMPDEST PUSH1 0x0 DUP2 MSTORE PUSH1 0x60 DUP3 ADD MSTORE DUP2 PUSH1 0x80 DUP3 ADD MSTORE NUMBER PUSH1 0xA0 DUP3 ADD MSTORE PUSH1 0x0 PUSH1 0xC0 DUP3 ADD MSTORE PUSH1 0x0 PUSH1 0xE0 DUP3 ADD MSTORE PUSH1 0xFF DUP7 AND PUSH2 0x100 DUP3 ADD MSTORE PUSH1 0x1 PUSH2 0x120 DUP3 ADD MSTORE DUP5 PUSH1 0x0 MSTORE PUSH1 0xA PUSH1 0x20 MSTORE PUSH1 0x40 PUSH1 0x0 KECCAK256 DUP2 MLOAD DUP2 SSTORE PUSH1 0x20 DUP3 ADD MLOAD DUP1 MLOAD SWAP1 PUSH1 0x1 PUSH1 0x1 PUSH1 0x40 SHL SUB DUP3 GT PUSH2 0x5CD JUMPI PUSH2 0x1742 DUP3 PUSH2 0x1739 PUSH1 0x1 DUP7 ADD SLOAD PUSH2 0x27EC JUMP JUMPDEST PUSH1 0x1 DUP7 ADD PUSH2 0x2C9D JUMP JUMPDEST PUSH1 0x20 SWAP1 PUSH1 0x1F DUP4 GT PUSH1 0x1 EQ PUSH2 0x1A09 JUMPI PUSH2 0x1773 SWAP3 SWAP2 PUSH1 0x0 SWAP2 DUP4 PUSH2 0x19FE JUMPI JUMPDEST POP POP DUP2 PUSH1 0x1 SHL SWAP2 PUSH1 0x0 NOT SWAP1 PUSH1 0x3 SHL SHR NOT AND OR SWAP1 JUMP JUMPDEST PUSH1 0x1 DUP3 ADD SSTORE JUMPDEST PUSH1 0x40 DUP3 ADD MLOAD PUSH1 0x2 DUP3 ADD SSTORE PUSH1 0x60 DUP3 ADD MLOAD DUP1 MLOAD SWAP1 PUSH1 0x1 PUSH1 0x1 PUSH1 0x40 SHL SUB DUP3 GT PUSH2 0x5CD JUMPI PUSH2 0x17B3 DUP3 PUSH2 0x17AA PUSH1 0x3 DUP7 ADD SLOAD PUSH2 0x27EC JUMP JUMPDEST PUSH1 0x3 DUP7 ADD PUSH2 0x2C9D JUMP JUMPDEST PUSH1 0x20 SWAP1 PUSH1 0x1F DUP4 GT PUSH1 0x1 EQ PUSH2 0x1988 JUMPI DUP3 PUSH1 0x6 SWAP4 PUSH2 0x120 SWAP6 SWAP4 PUSH2 0x17EA SWAP4 PUSH1 0x0 SWAP3 PUSH2 0x197D JUMPI POP POP DUP2 PUSH1 0x1 SHL SWAP2 PUSH1 0x0 NOT SWAP1 PUSH1 0x3 SHL SHR NOT AND OR SWAP1 JUMP JUMPDEST PUSH1 0x3 DUP3 ADD SSTORE JUMPDEST PUSH1 0x80 DUP5 ADD MLOAD PUSH1 0x4 DUP3 ADD SSTORE PUSH1 0xA0 DUP5 ADD MLOAD PUSH1 0x5 DUP3 ADD SSTORE ADD SWAP2 PUSH1 0x1 PUSH1 0x1 PUSH1 0x40 SHL SUB PUSH1 0xC0 DUP3 ADD MLOAD AND PUSH1 0x1 PUSH1 0x1 PUSH1 0x40 SHL SUB NOT DUP5 SLOAD AND OR DUP4 SSTORE PUSH2 0x185D PUSH1 0x1 PUSH1 0x1 PUSH1 0x40 SHL SUB PUSH1 0xE0 DUP4 ADD MLOAD AND DUP5 SWAP1 PUSH8 0xFFFFFFFFFFFFFFFF PUSH1 0x40 SHL DUP3 SLOAD SWAP2 PUSH1 0x40 SHL AND SWAP1 PUSH8 0xFFFFFFFFFFFFFFFF PUSH1 0x40 SHL NOT AND OR SWAP1 SSTORE JUMP JUMPDEST PUSH2 0x100 DUP2 ADD MLOAD DUP4 SLOAD PUSH1 0xFF PUSH1 0x80 SHL NOT AND PUSH1 0x80 SWAP2 SWAP1 SWAP2 SHL PUSH1 0xFF PUSH1 0x80 SHL AND OR DUP4 SSTORE ADD MLOAD PUSH1 0x2 DUP2 LT ISZERO PUSH2 0x387 JUMPI PUSH2 0x188F SWAP2 PUSH2 0x28F8 JUMP JUMPDEST PUSH2 0x189B DUP2 PUSH1 0xE SLOAD PUSH2 0x28CB JUMP JUMPDEST PUSH1 0xE SSTORE PUSH1 0x40 MLOAD SWAP1 PUSH2 0x18AB DUP3 PUSH2 0x275E JUMP JUMPDEST PUSH1 0x0 DUP3 MSTORE CALLER ISZERO PUSH2 0x7C8 JUMPI PUSH1 0x1 PUSH1 0x1 PUSH1 0xA0 SHL SUB PUSH2 0x18C7 DUP7 CALLER PUSH2 0x2D50 JUMP JUMPDEST AND PUSH2 0x1964 JUMPI PUSH1 0x20 SWAP6 DUP6 PUSH32 0x5FDC95668FE0219791A913EBE485156A5541C3D0AA7FC537C72F7E9881620EC3 PUSH2 0x193E DUP3 SWAP8 PUSH32 0xA856B8326AE48D64CF8805AE5BB6E2B8532A4F4D3CC1D81DBC0A5FF00626120C SWAP8 PUSH2 0x1926 PUSH1 0x40 SWAP9 DUP7 CALLER CALLER PUSH2 0x2E60 JUMP JUMPDEST PUSH1 0xFF DUP9 MLOAD SWAP7 AND DUP7 MSTORE PUSH1 0x60 DUP13 DUP8 ADD MSTORE PUSH1 0x60 DUP7 ADD SWAP2 PUSH2 0x2CF4 JUMP JUMPDEST SWAP3 PUSH1 0x44 CALLDATALOAD DUP7 DUP3 ADD MSTORE DUP1 CALLER SWAP5 SUB SWAP1 LOG3 DUP2 MLOAD SWAP1 DUP1 DUP3 MSTORE DUP7 DUP3 ADD MSTORE LOG2 PUSH1 0x1 PUSH1 0x6 SSTORE PUSH1 0x40 MLOAD SWAP1 DUP2 MSTORE RETURN JUMPDEST PUSH1 0x40 MLOAD PUSH4 0x39E35637 PUSH1 0xE1 SHL DUP2 MSTORE PUSH1 0x0 PUSH1 0x4 DUP3 ADD MSTORE PUSH1 0x24 SWAP1 REVERT JUMPDEST ADD MLOAD SWAP1 POP DUP13 DUP1 PUSH2 0x175E JUMP JUMPDEST SWAP1 PUSH1 0x3 DUP5 ADD PUSH1 0x0 MSTORE PUSH1 0x20 PUSH1 0x0 KECCAK256 SWAP2 PUSH1 0x0 JUMPDEST PUSH1 0x1F NOT DUP6 AND DUP2 LT PUSH2 0x19E6 JUMPI POP SWAP3 PUSH2 0x120 SWAP5 SWAP3 PUSH1 0x1 SWAP3 PUSH1 0x6 SWAP6 DUP4 PUSH1 0x1F NOT DUP2 AND LT PUSH2 0x19CD JUMPI JUMPDEST POP POP POP DUP2 SHL ADD PUSH1 0x3 DUP3 ADD SSTORE PUSH2 0x17F0 JUMP JUMPDEST ADD MLOAD PUSH1 0x0 NOT PUSH1 0xF8 DUP5 PUSH1 0x3 SHL AND SHR NOT AND SWAP1 SSTORE DUP12 DUP1 DUP1 PUSH2 0x19BD JUMP JUMPDEST SWAP2 SWAP3 PUSH1 0x20 PUSH1 0x1 DUP2 SWAP3 DUP7 DUP6 ADD MLOAD DUP2 SSTORE ADD SWAP5 ADD SWAP3 ADD PUSH2 0x1999 JUMP JUMPDEST ADD MLOAD SWAP1 POP DUP11 DUP1 PUSH2 0x175E JUMP JUMPDEST SWAP2 SWAP1 PUSH1 0x1 DUP5 ADD PUSH1 0x0 MSTORE PUSH1 0x20 PUSH1 0x0 KECCAK256 SWAP1 PUSH1 0x0 SWAP4 JUMPDEST PUSH1 0x1F NOT DUP5 AND DUP6 LT PUSH2 0x1A60 JUMPI PUSH1 0x1 SWAP5 POP DUP4 PUSH1 0x1F NOT DUP2 AND LT PUSH2 0x1A47 JUMPI JUMPDEST POP POP POP DUP2 SHL ADD PUSH1 0x1 DUP3 ADD SSTORE PUSH2 0x1779 JUMP JUMPDEST ADD MLOAD PUSH1 0x0 NOT PUSH1 0xF8 DUP5 PUSH1 0x3 SHL AND SHR NOT AND SWAP1 SSTORE DUP10 DUP1 DUP1 PUSH2 0x1A37 JUMP JUMPDEST DUP2 DUP2 ADD MLOAD DUP4 SSTORE PUSH1 0x20 SWAP5 DUP6 ADD SWAP5 PUSH1 0x1 SWAP1 SWAP4 ADD SWAP3 SWAP1 SWAP2 ADD SWAP1 PUSH2 0x1A1C JUMP JUMPDEST PUSH1 0x40 MLOAD PUSH4 0x68E66E57 PUSH1 0xE1 SHL DUP2 MSTORE PUSH1 0x4 SWAP1 REVERT JUMPDEST PUSH2 0x15ED PUSH8 0x8AC7230489E80000 PUSH2 0x15E7 JUMP JUMPDEST PUSH9 0x15AF1D78B58C40000 SWAP3 PUSH2 0x15D5 JUMP JUMPDEST PUSH1 0x40 MLOAD PUSH4 0x237FA0A9 PUSH1 0xE2 SHL DUP2 MSTORE PUSH1 0x4 SWAP1 REVERT JUMPDEST POP PUSH1 0x3 PUSH1 0xFF DUP6 AND EQ ISZERO PUSH2 0x15C0 JUMP JUMPDEST CALLVALUE PUSH2 0x2AF JUMPI PUSH1 0x40 CALLDATASIZE PUSH1 0x3 NOT ADD SLT PUSH2 0x2AF JUMPI PUSH2 0x1AE7 PUSH2 0x2682 JUMP JUMPDEST PUSH1 0x4 CALLDATALOAD PUSH1 0x0 MSTORE PUSH1 0xC PUSH1 0x20 MSTORE PUSH1 0x40 PUSH1 0x0 KECCAK256 SWAP1 PUSH1 0x1 DUP1 PUSH1 0xA0 SHL SUB AND PUSH1 0x0 MSTORE PUSH1 0x20 MSTORE PUSH1 0x20 PUSH1 0xFF PUSH1 0x40 PUSH1 0x0 KECCAK256 SLOAD AND PUSH1 0x40 MLOAD SWAP1 ISZERO ISZERO DUP2 MSTORE RETURN JUMPDEST CALLVALUE PUSH2 0x2AF JUMPI PUSH1 0x0 CALLDATASIZE PUSH1 0x3 NOT ADD SLT PUSH2 0x2AF JUMPI PUSH1 0x20 PUSH1 0xE SLOAD PUSH1 0x40 MLOAD SWAP1 DUP2 MSTORE RETURN JUMPDEST CALLVALUE PUSH2 0x2AF JUMPI PUSH1 0x20 CALLDATASIZE PUSH1 0x3 NOT ADD SLT PUSH2 0x2AF JUMPI PUSH1 0x9 SLOAD PUSH1 0x4 CALLDATALOAD SWAP1 PUSH1 0x1 PUSH1 0x1 PUSH1 0xA0 SHL SUB AND CALLER SUB PUSH2 0x5E3 JUMPI DUP1 PUSH1 0x0 MSTORE PUSH1 0xA PUSH1 0x20 MSTORE PUSH1 0x6 PUSH1 0x40 PUSH1 0x0 KECCAK256 ADD DUP1 SLOAD PUSH1 0xFF DUP2 PUSH1 0x88 SHR AND PUSH1 0x2 DUP2 LT ISZERO PUSH2 0x387 JUMPI PUSH1 0x1 EQ PUSH2 0xC62 JUMPI PUSH1 0x1 PUSH1 0x1 PUSH1 0x40 SHL SUB PUSH2 0x1BA4 DUP2 DUP4 AND SWAP2 DUP4 PUSH1 0x40 SHR AND DUP3 PUSH2 0x28CB JUMP JUMPDEST SWAP1 PUSH1 0x1E DUP3 LT PUSH2 0x1C17 JUMPI PUSH2 0x2710 SWAP1 DUP2 DUP2 MUL SWAP2 DUP2 DUP4 DIV EQ SWAP1 ISZERO OR ISZERO PUSH2 0x131B JUMPI PUSH2 0x1194 SWAP2 PUSH2 0x1BCE SWAP2 PUSH2 0x28D8 JUMP JUMPDEST LT PUSH2 0x1C17 JUMPI PUSH1 0xFF PUSH1 0x88 SHL NOT AND PUSH1 0x1 PUSH1 0x88 SHL OR SWAP1 SSTORE PUSH1 0x40 DUP1 MLOAD PUSH1 0x0 DUP2 MSTORE PUSH1 0x1 PUSH1 0x20 DUP3 ADD MSTORE PUSH32 0xE4617657D9254E34FEA36FD76EF71AEA57FF771484A00D5A0874FCDB7641B489 SWAP2 SWAP1 LOG2 STOP JUMPDEST PUSH1 0x40 MLOAD PUSH4 0xEE627A5B PUSH1 0xE0 SHL DUP2 MSTORE PUSH1 0x4 SWAP1 REVERT JUMPDEST CALLVALUE PUSH2 0x2AF JUMPI PUSH1 0x0 CALLDATASIZE PUSH1 0x3 NOT ADD SLT PUSH2 0x2AF JUMPI PUSH1 0x20 PUSH1 0x40 MLOAD PUSH1 0x1E DUP2 MSTORE RETURN JUMPDEST PUSH1 0x40 CALLDATASIZE PUSH1 0x3 NOT ADD SLT PUSH2 0x2AF JUMPI PUSH1 0x4 CALLDATALOAD PUSH1 0x1 PUSH1 0x1 PUSH1 0x40 SHL SUB DUP2 GT PUSH2 0x2AF JUMPI PUSH2 0x1C70 SWAP1 CALLDATASIZE SWAP1 PUSH1 0x4 ADD PUSH2 0x26CD JUMP JUMPDEST PUSH2 0x1C78 PUSH2 0x2E0C JUMP JUMPDEST PUSH8 0x1BC16D674EC80000 CALLVALUE LT PUSH2 0x20A7 JUMPI CALLER PUSH1 0x0 MSTORE PUSH1 0xB PUSH1 0x20 MSTORE PUSH1 0x3 PUSH1 0xFF PUSH1 0x40 PUSH1 0x0 KECCAK256 SLOAD AND LT ISZERO PUSH2 0x855 JUMPI CALLER PUSH1 0x0 MSTORE PUSH1 0xB PUSH1 0x20 MSTORE PUSH1 0xFF PUSH2 0x1CBC DUP2 PUSH1 0x40 PUSH1 0x0 KECCAK256 SLOAD AND PUSH2 0x2CE2 JUMP JUMPDEST AND PUSH1 0x1 SUB PUSH2 0x1A7B JUMPI PUSH1 0xD SLOAD SWAP1 PUSH1 0x0 NOT DUP3 EQ PUSH2 0x131B JUMPI PUSH1 0x1 DUP3 ADD PUSH1 0xD SSTORE CALLER PUSH1 0x0 MSTORE PUSH1 0xB PUSH1 0x20 MSTORE PUSH1 0x40 PUSH1 0x0 KECCAK256 DUP1 SLOAD PUSH1 0xFF PUSH2 0x1CF5 DUP2 DUP4 AND PUSH2 0x2CE2 JUMP JUMPDEST AND SWAP1 PUSH1 0xFF NOT AND OR SWAP1 SSTORE PUSH1 0x40 MLOAD PUSH2 0x1D0A DUP2 PUSH2 0x2742 JUMP JUMPDEST PUSH1 0x24 CALLDATALOAD DUP2 MSTORE PUSH2 0x1D1A CALLDATASIZE DUP4 DUP7 PUSH2 0x27B5 JUMP JUMPDEST PUSH1 0x20 DUP3 ADD MSTORE PUSH1 0x0 PUSH1 0x40 DUP3 ADD MSTORE PUSH1 0x40 MLOAD PUSH2 0x1D32 DUP2 PUSH2 0x275E JUMP JUMPDEST PUSH1 0x0 DUP2 MSTORE PUSH1 0x60 DUP3 ADD MSTORE CALLVALUE PUSH1 0x80 DUP3 ADD MSTORE NUMBER PUSH1 0xA0 DUP3 ADD MSTORE PUSH1 0x0 PUSH1 0xC0 DUP3 ADD MSTORE PUSH1 0x0 PUSH1 0xE0 DUP3 ADD MSTORE PUSH1 0x1 PUSH2 0x100 DUP3 ADD MSTORE PUSH1 0x0 PUSH2 0x120 DUP3 ADD MSTORE DUP3 PUSH1 0x0 MSTORE PUSH1 0xA PUSH1 0x20 MSTORE PUSH1 0x40 PUSH1 0x0 KECCAK256 DUP2 MLOAD DUP2 SSTORE PUSH1 0x20 DUP3 ADD MLOAD DUP1 MLOAD SWAP1 PUSH1 0x1 PUSH1 0x1 PUSH1 0x40 SHL SUB DUP3 GT PUSH2 0x5CD JUMPI PUSH2 0x1D9E DUP3 PUSH2 0x1739 PUSH1 0x1 DUP7 ADD SLOAD PUSH2 0x27EC JUMP JUMPDEST PUSH1 0x20 SWAP1 PUSH1 0x1F DUP4 GT PUSH1 0x1 EQ PUSH2 0x2035 JUMPI PUSH2 0x1DCE SWAP3 SWAP2 PUSH1 0x0 SWAP2 DUP4 PUSH2 0x202A JUMPI POP POP DUP2 PUSH1 0x1 SHL SWAP2 PUSH1 0x0 NOT SWAP1 PUSH1 0x3 SHL SHR NOT AND OR SWAP1 JUMP JUMPDEST PUSH1 0x1 DUP3 ADD SSTORE JUMPDEST PUSH1 0x40 DUP3 ADD MLOAD PUSH1 0x2 DUP3 ADD SSTORE PUSH1 0x60 DUP3 ADD MLOAD DUP1 MLOAD SWAP1 PUSH1 0x1 PUSH1 0x1 PUSH1 0x40 SHL SUB DUP3 GT PUSH2 0x5CD JUMPI PUSH2 0x1E05 DUP3 PUSH2 0x17AA PUSH1 0x3 DUP7 ADD SLOAD PUSH2 0x27EC JUMP JUMPDEST PUSH1 0x20 SWAP1 PUSH1 0x1F DUP4 GT PUSH1 0x1 EQ PUSH2 0x1FB4 JUMPI DUP3 PUSH1 0x6 SWAP4 PUSH2 0x120 SWAP6 SWAP4 PUSH2 0x1E3C SWAP4 PUSH1 0x0 SWAP3 PUSH2 0x19FE JUMPI POP POP DUP2 PUSH1 0x1 SHL SWAP2 PUSH1 0x0 NOT SWAP1 PUSH1 0x3 SHL SHR NOT AND OR SWAP1 JUMP JUMPDEST PUSH1 0x3 DUP3 ADD SSTORE JUMPDEST PUSH1 0x80 DUP5 ADD MLOAD PUSH1 0x4 DUP3 ADD SSTORE PUSH1 0xA0 DUP5 ADD MLOAD PUSH1 0x5 DUP3 ADD SSTORE ADD SWAP2 PUSH1 0x1 PUSH1 0x1 PUSH1 0x40 SHL SUB PUSH1 0xC0 DUP3 ADD MLOAD AND PUSH1 0x1 PUSH1 0x1 PUSH1 0x40 SHL SUB NOT DUP5 SLOAD AND OR DUP4 SSTORE PUSH2 0x1EAF PUSH1 0x1 PUSH1 0x1 PUSH1 0x40 SHL SUB PUSH1 0xE0 DUP4 ADD MLOAD AND DUP5 SWAP1 PUSH8 0xFFFFFFFFFFFFFFFF PUSH1 0x40 SHL DUP3 SLOAD SWAP2 PUSH1 0x40 SHL AND SWAP1 PUSH8 0xFFFFFFFFFFFFFFFF PUSH1 0x40 SHL NOT AND OR SWAP1 SSTORE JUMP JUMPDEST PUSH2 0x100 DUP2 ADD MLOAD DUP4 SLOAD PUSH1 0xFF PUSH1 0x80 SHL NOT AND PUSH1 0x80 SWAP2 SWAP1 SWAP2 SHL PUSH1 0xFF PUSH1 0x80 SHL AND OR DUP4 SSTORE ADD MLOAD PUSH1 0x2 DUP2 LT ISZERO PUSH2 0x387 JUMPI PUSH2 0x1EE1 SWAP2 PUSH2 0x28F8 JUMP JUMPDEST PUSH2 0x1EED CALLVALUE PUSH1 0xE SLOAD PUSH2 0x28CB JUMP JUMPDEST PUSH1 0xE SSTORE PUSH1 0x40 MLOAD PUSH2 0x1EFC DUP2 PUSH2 0x275E JUMP JUMPDEST PUSH1 0x0 DUP2 MSTORE CALLER ISZERO PUSH2 0x7C8 JUMPI PUSH1 0x1 PUSH1 0x1 PUSH1 0xA0 SHL SUB PUSH2 0x1F18 DUP5 CALLER PUSH2 0x2D50 JUMP JUMPDEST AND PUSH2 0x1964 JUMPI PUSH32 0x5FDC95668FE0219791A913EBE485156A5541C3D0AA7FC537C72F7E9881620EC3 PUSH2 0x1F69 PUSH1 0x20 SWAP6 PUSH2 0x1F51 DUP7 SWAP5 DUP6 CALLER CALLER PUSH2 0x2E60 JUMP JUMPDEST PUSH1 0x40 MLOAD SWAP5 PUSH1 0x1 DUP7 MSTORE PUSH1 0x60 DUP9 DUP8 ADD MSTORE PUSH1 0x60 DUP7 ADD SWAP2 PUSH2 0x2CF4 JUMP JUMPDEST SWAP3 PUSH1 0x24 CALLDATALOAD PUSH1 0x40 DUP3 ADD MSTORE DUP1 CALLER SWAP5 SUB SWAP1 LOG3 DUP1 PUSH32 0xA856B8326AE48D64CF8805AE5BB6E2B8532A4F4D3CC1D81DBC0A5FF00626120C PUSH1 0x40 DUP1 MLOAD CALLVALUE DUP2 MSTORE CALLVALUE DUP7 DUP3 ADD MSTORE LOG2 PUSH1 0x1 PUSH1 0x6 SSTORE PUSH1 0x40 MLOAD SWAP1 DUP2 MSTORE RETURN JUMPDEST SWAP1 PUSH1 0x3 DUP5 ADD PUSH1 0x0 MSTORE PUSH1 0x20 PUSH1 0x0 KECCAK256 SWAP2 PUSH1 0x0 JUMPDEST PUSH1 0x1F NOT DUP6 AND DUP2 LT PUSH2 0x2012 JUMPI POP SWAP3 PUSH2 0x120 SWAP5 SWAP3 PUSH1 0x1 SWAP3 PUSH1 0x6 SWAP6 DUP4 PUSH1 0x1F NOT DUP2 AND LT PUSH2 0x1FF9 JUMPI JUMPDEST POP POP POP DUP2 SHL ADD PUSH1 0x3 DUP3 ADD SSTORE PUSH2 0x1E42 JUMP JUMPDEST ADD MLOAD PUSH1 0x0 NOT PUSH1 0xF8 DUP5 PUSH1 0x3 SHL AND SHR NOT AND SWAP1 SSTORE DUP10 DUP1 DUP1 PUSH2 0x1FE9 JUMP JUMPDEST SWAP2 SWAP3 PUSH1 0x20 PUSH1 0x1 DUP2 SWAP3 DUP7 DUP6 ADD MLOAD DUP2 SSTORE ADD SWAP5 ADD SWAP3 ADD PUSH2 0x1FC5 JUMP JUMPDEST ADD MLOAD SWAP1 POP DUP9 DUP1 PUSH2 0x175E JUMP JUMPDEST SWAP2 SWAP1 PUSH1 0x1 DUP5 ADD PUSH1 0x0 MSTORE PUSH1 0x20 PUSH1 0x0 KECCAK256 SWAP1 PUSH1 0x0 SWAP4 JUMPDEST PUSH1 0x1F NOT DUP5 AND DUP6 LT PUSH2 0x208C JUMPI PUSH1 0x1 SWAP5 POP DUP4 PUSH1 0x1F NOT DUP2 AND LT PUSH2 0x2073 JUMPI JUMPDEST POP POP POP DUP2 SHL ADD PUSH1 0x1 DUP3 ADD SSTORE PUSH2 0x1DD4 JUMP JUMPDEST ADD MLOAD PUSH1 0x0 NOT PUSH1 0xF8 DUP5 PUSH1 0x3 SHL AND SHR NOT AND SWAP1 SSTORE DUP8 DUP1 DUP1 PUSH2 0x2063 JUMP JUMPDEST DUP2 DUP2 ADD MLOAD DUP4 SSTORE PUSH1 0x20 SWAP5 DUP6 ADD SWAP5 PUSH1 0x1 SWAP1 SWAP4 ADD SWAP3 SWAP1 SWAP2 ADD SWAP1 PUSH2 0x2048 JUMP JUMPDEST PUSH1 0x40 MLOAD PUSH4 0x3AFC5B43 PUSH1 0xE1 SHL DUP2 MSTORE PUSH1 0x4 SWAP1 REVERT JUMPDEST CALLVALUE PUSH2 0x2AF JUMPI PUSH1 0x20 CALLDATASIZE PUSH1 0x3 NOT ADD SLT PUSH2 0x2AF JUMPI PUSH2 0x20D2 PUSH2 0x266C JUMP JUMPDEST PUSH1 0x7 SLOAD PUSH1 0x1 PUSH1 0x1 PUSH1 0xA0 SHL SUB SWAP2 SWAP1 DUP3 AND CALLER SUB PUSH2 0x13A1 JUMPI AND PUSH2 0x20F3 DUP2 ISZERO ISZERO PUSH2 0x2AAC JUMP JUMPDEST PUSH12 0xFFFFFFFFFFFFFFFFFFFFFFFF PUSH1 0xA0 SHL PUSH1 0x9 SLOAD AND OR PUSH1 0x9 SSTORE PUSH1 0x0 DUP1 RETURN JUMPDEST CALLVALUE PUSH2 0x2AF JUMPI PUSH2 0x1B PUSH2 0x2121 CALLDATASIZE PUSH2 0x2698 JUMP JUMPDEST SWAP1 PUSH1 0x40 MLOAD SWAP3 PUSH2 0x212F DUP5 PUSH2 0x275E JUMP JUMPDEST PUSH1 0x0 DUP5 MSTORE PUSH2 0x9C7 DUP4 DUP4 DUP4 PUSH2 0x291C JUMP JUMPDEST CALLVALUE PUSH2 0x2AF JUMPI PUSH1 0x20 CALLDATASIZE PUSH1 0x3 NOT ADD SLT PUSH2 0x2AF JUMPI PUSH1 0x20 PUSH2 0x215C PUSH1 0x4 CALLDATALOAD PUSH2 0x2AE4 JUMP JUMPDEST PUSH1 0x40 MLOAD SWAP1 DUP2 MSTORE RETURN JUMPDEST CALLVALUE PUSH2 0x2AF JUMPI PUSH1 0x20 CALLDATASIZE PUSH1 0x3 NOT ADD SLT PUSH2 0x2AF JUMPI PUSH2 0x217D PUSH2 0x266C JUMP JUMPDEST PUSH1 0x7 SLOAD PUSH1 0x1 PUSH1 0x1 PUSH1 0xA0 SHL SUB SWAP2 SWAP1 DUP3 AND CALLER SUB PUSH2 0x13A1 JUMPI AND PUSH2 0x219E DUP2 ISZERO ISZERO PUSH2 0x2AAC JUMP JUMPDEST PUSH12 0xFFFFFFFFFFFFFFFFFFFFFFFF PUSH1 0xA0 SHL PUSH1 0x8 SLOAD AND OR PUSH1 0x8 SSTORE PUSH1 0x0 DUP1 RETURN JUMPDEST CALLVALUE PUSH2 0x2AF JUMPI PUSH1 0x20 CALLDATASIZE PUSH1 0x3 NOT ADD SLT PUSH2 0x2AF JUMPI PUSH1 0x1 PUSH1 0x1 PUSH1 0xA0 SHL SUB PUSH2 0x21DC PUSH2 0x266C JUMP JUMPDEST AND PUSH1 0x0 MSTORE PUSH1 0xB PUSH1 0x20 MSTORE PUSH1 0x20 PUSH1 0xFF PUSH1 0x40 PUSH1 0x0 KECCAK256 SLOAD AND PUSH1 0x40 MLOAD SWAP1 DUP2 MSTORE RETURN JUMPDEST CALLVALUE PUSH2 0x2AF JUMPI PUSH1 0x0 CALLDATASIZE PUSH1 0x3 NOT ADD SLT PUSH2 0x2AF JUMPI PUSH1 0x20 PUSH1 0x40 MLOAD PUSH2 0x1194 DUP2 MSTORE RETURN JUMPDEST CALLVALUE PUSH2 0x2AF JUMPI PUSH2 0x1B PUSH2 0x2226 CALLDATASIZE PUSH2 0x2698 JUMP JUMPDEST SWAP2 PUSH2 0x291C JUMP JUMPDEST CALLVALUE PUSH2 0x2AF JUMPI PUSH1 0x20 DUP1 PUSH1 0x3 NOT CALLDATASIZE ADD SLT PUSH2 0x2AF JUMPI PUSH1 0x9 SLOAD PUSH1 0x4 CALLDATALOAD SWAP2 SWAP1 PUSH1 0x1 PUSH1 0x1 PUSH1 0xA0 SHL SUB AND CALLER SUB PUSH2 0x5E3 JUMPI DUP2 PUSH1 0x0 MSTORE PUSH1 0xA DUP2 MSTORE PUSH1 0x6 PUSH1 0x40 PUSH1 0x0 KECCAK256 ADD DUP1 SLOAD PUSH1 0xFF DUP2 PUSH1 0x88 SHR AND PUSH1 0x2 DUP2 LT ISZERO PUSH2 0x387 JUMPI PUSH1 0x1 SUB PUSH2 0x2370 JUMPI PUSH1 0x1 PUSH1 0x1 PUSH1 0x40 SHL SUB PUSH2 0x2298 DUP2 DUP4 AND SWAP2 DUP4 PUSH1 0x40 SHR AND DUP3 PUSH2 0x28CB JUMP JUMPDEST SWAP1 PUSH1 0x32 DUP3 LT PUSH2 0x2339 JUMPI PUSH2 0x2710 SWAP1 DUP2 DUP2 MUL SWAP2 DUP2 DUP4 DIV EQ SWAP1 ISZERO OR ISZERO PUSH2 0x131B JUMPI PUSH2 0xBB8 SWAP2 PUSH2 0x22C2 SWAP2 PUSH2 0x28D8 JUMP JUMPDEST GT PUSH2 0x2306 JUMPI PUSH1 0xFF PUSH1 0x88 SHL NOT AND SWAP1 SSTORE PUSH1 0x40 DUP1 MLOAD PUSH1 0x1 DUP2 MSTORE PUSH1 0x0 SWAP3 DUP2 ADD SWAP3 SWAP1 SWAP3 MSTORE PUSH32 0xE4617657D9254E34FEA36FD76EF71AEA57FF771484A00D5A0874FCDB7641B489 SWAP2 LOG2 STOP JUMPDEST PUSH1 0x40 MLOAD PUSH3 0x461BCD PUSH1 0xE5 SHL DUP2 MSTORE PUSH1 0x4 DUP2 ADD DUP5 SWAP1 MSTORE PUSH1 0xB PUSH1 0x24 DUP3 ADD MSTORE PUSH11 0x77696E2072617465206F6B PUSH1 0xA8 SHL PUSH1 0x44 DUP3 ADD MSTORE PUSH1 0x64 SWAP1 REVERT JUMPDEST PUSH1 0x40 MLOAD PUSH3 0x461BCD PUSH1 0xE5 SHL DUP2 MSTORE PUSH1 0x4 DUP2 ADD DUP7 SWAP1 MSTORE PUSH1 0xF PUSH1 0x24 DUP3 ADD MSTORE PUSH15 0x746F6F20666577206D617463686573 PUSH1 0x88 SHL PUSH1 0x44 DUP3 ADD MSTORE PUSH1 0x64 SWAP1 REVERT JUMPDEST PUSH1 0x40 MLOAD PUSH3 0x461BCD PUSH1 0xE5 SHL DUP2 MSTORE PUSH1 0x4 DUP2 ADD DUP5 SWAP1 MSTORE PUSH1 0xC PUSH1 0x24 DUP3 ADD MSTORE PUSH12 0x1B9BDD081D995C9A599A5959 PUSH1 0xA2 SHL PUSH1 0x44 DUP3 ADD MSTORE PUSH1 0x64 SWAP1 REVERT JUMPDEST CALLVALUE PUSH2 0x2AF JUMPI PUSH1 0x40 CALLDATASIZE PUSH1 0x3 NOT ADD SLT PUSH2 0x2AF JUMPI PUSH2 0x23BD PUSH2 0x266C JUMP JUMPDEST PUSH1 0x24 CALLDATALOAD PUSH2 0x23C9 DUP2 PUSH2 0x2D15 JUMP JUMPDEST CALLER ISZERO ISZERO DUP1 PUSH2 0x2478 JUMPI JUMPDEST DUP1 PUSH2 0x244B JUMPI JUMPDEST PUSH2 0x2433 JUMPI PUSH1 0x1 PUSH1 0x1 PUSH1 0xA0 SHL SUB SWAP3 DUP4 AND SWAP3 DUP3 SWAP2 DUP5 SWAP2 AND PUSH32 0x8C5BE1E5EBEC7D5BD14F71427D1E84F3DD0314C0F7B2291E5B200AC8C7C3B925 PUSH1 0x0 DUP1 LOG4 PUSH1 0x0 SWAP1 DUP2 MSTORE PUSH1 0x4 PUSH1 0x20 MSTORE PUSH1 0x40 SWAP1 KECCAK256 DUP1 SLOAD PUSH1 0x1 PUSH1 0x1 PUSH1 0xA0 SHL SUB NOT AND SWAP1 SWAP2 OR SWAP1 SSTORE STOP JUMPDEST PUSH1 0x40 MLOAD PUSH4 0xA9FBF51F PUSH1 0xE0 SHL DUP2 MSTORE CALLER PUSH1 0x4 DUP3 ADD MSTORE PUSH1 0x24 SWAP1 REVERT JUMPDEST POP PUSH1 0x1 DUP1 PUSH1 0xA0 SHL SUB DUP2 AND PUSH1 0x0 MSTORE PUSH1 0x5 PUSH1 0x20 MSTORE PUSH1 0x40 PUSH1 0x0 KECCAK256 CALLER PUSH1 0x0 MSTORE PUSH1 0x20 MSTORE PUSH1 0xFF PUSH1 0x40 PUSH1 0x0 KECCAK256 SLOAD AND ISZERO PUSH2 0x23D8 JUMP JUMPDEST POP PUSH1 0x1 PUSH1 0x1 PUSH1 0xA0 SHL SUB DUP2 AND CALLER EQ ISZERO PUSH2 0x23D2 JUMP JUMPDEST CALLVALUE PUSH2 0x2AF JUMPI PUSH1 0x20 CALLDATASIZE PUSH1 0x3 NOT ADD SLT PUSH2 0x2AF JUMPI PUSH1 0x4 CALLDATALOAD PUSH2 0x24A8 DUP2 PUSH2 0x2D15 JUMP JUMPDEST POP PUSH1 0x0 MSTORE PUSH1 0x4 PUSH1 0x20 MSTORE PUSH1 0x20 PUSH1 0x1 DUP1 PUSH1 0xA0 SHL SUB PUSH1 0x40 PUSH1 0x0 KECCAK256 SLOAD AND PUSH1 0x40 MLOAD SWAP1 DUP2 MSTORE RETURN JUMPDEST CALLVALUE PUSH2 0x2AF JUMPI PUSH1 0x0 CALLDATASIZE PUSH1 0x3 NOT ADD SLT PUSH2 0x2AF JUMPI PUSH1 0x40 MLOAD PUSH1 0x0 DUP1 SLOAD SWAP1 DUP3 PUSH2 0x24EC DUP4 PUSH2 0x27EC JUMP JUMPDEST SWAP2 DUP3 DUP3 MSTORE PUSH1 0x20 SWAP4 PUSH1 0x1 SWAP1 DUP6 PUSH1 0x1 DUP3 AND SWAP2 DUP3 PUSH1 0x0 EQ PUSH2 0xF3E JUMPI POP POP PUSH1 0x1 EQ PUSH2 0x251A JUMPI POP PUSH2 0xECD SWAP3 POP SUB DUP4 PUSH2 0x2779 JUMP JUMPDEST PUSH1 0x0 DUP1 DUP1 MSTORE DUP6 SWAP3 POP SWAP1 PUSH32 0x290DECD9548B62A8D60345A988386FC84BA6BC95484008F6362F93160EF3E563 JUMPDEST DUP6 DUP4 LT PUSH2 0x255C JUMPI POP POP PUSH2 0xECD SWAP4 POP DUP3 ADD ADD DUP6 PUSH2 0xEC0 JUMP JUMPDEST DUP1 SLOAD DUP4 DUP10 ADD DUP6 ADD MSTORE DUP8 SWAP5 POP DUP7 SWAP4 SWAP1 SWAP3 ADD SWAP2 DUP2 ADD PUSH2 0x2545 JUMP JUMPDEST CALLVALUE PUSH2 0x2AF JUMPI PUSH1 0x0 CALLDATASIZE PUSH1 0x3 NOT ADD SLT PUSH2 0x2AF JUMPI PUSH1 0x9 SLOAD PUSH1 0x40 MLOAD PUSH1 0x1 PUSH1 0x1 PUSH1 0xA0 SHL SUB SWAP1 SWAP2 AND DUP2 MSTORE PUSH1 0x20 SWAP1 RETURN JUMPDEST CALLVALUE PUSH2 0x2AF JUMPI PUSH1 0x20 CALLDATASIZE PUSH1 0x3 NOT ADD SLT PUSH2 0x2AF JUMPI PUSH1 0x4 CALLDATALOAD PUSH4 0xFFFFFFFF PUSH1 0xE0 SHL DUP2 AND DUP1 SWAP2 SUB PUSH2 0x2AF JUMPI PUSH1 0x20 SWAP1 PUSH4 0x80AC58CD PUSH1 0xE0 SHL DUP2 EQ SWAP1 DUP2 ISZERO PUSH2 0x25FA JUMPI JUMPDEST DUP2 ISZERO PUSH2 0x25E9 JUMPI JUMPDEST POP PUSH1 0x40 MLOAD SWAP1 ISZERO ISZERO DUP2 MSTORE RETURN JUMPDEST PUSH4 0x1FFC9A7 PUSH1 0xE0 SHL EQ SWAP1 POP DUP3 PUSH2 0x25DE JUMP JUMPDEST PUSH4 0x5B5E139F PUSH1 0xE0 SHL DUP2 EQ SWAP2 POP PUSH2 0x25D7 JUMP JUMPDEST CALLVALUE PUSH2 0x2AF JUMPI PUSH1 0x0 CALLDATASIZE PUSH1 0x3 NOT ADD SLT PUSH2 0x2AF JUMPI DUP1 PUSH8 0x4563918244F40000 PUSH1 0x20 SWAP3 MSTORE RETURN JUMPDEST SWAP2 SWAP1 DUP3 MLOAD SWAP3 DUP4 DUP3 MSTORE PUSH1 0x0 JUMPDEST DUP5 DUP2 LT PUSH2 0x2658 JUMPI POP POP DUP3 PUSH1 0x0 PUSH1 0x20 DUP1 SWAP5 SWAP6 DUP5 ADD ADD MSTORE PUSH1 0x1F DUP1 NOT SWAP2 ADD AND ADD ADD SWAP1 JUMP JUMPDEST PUSH1 0x20 DUP2 DUP4 ADD DUP2 ADD MLOAD DUP5 DUP4 ADD DUP3 ADD MSTORE ADD PUSH2 0x2637 JUMP JUMPDEST PUSH1 0x4 CALLDATALOAD SWAP1 PUSH1 0x1 PUSH1 0x1 PUSH1 0xA0 SHL SUB DUP3 AND DUP3 SUB PUSH2 0x2AF JUMPI JUMP JUMPDEST PUSH1 0x24 CALLDATALOAD SWAP1 PUSH1 0x1 PUSH1 0x1 PUSH1 0xA0 SHL SUB DUP3 AND DUP3 SUB PUSH2 0x2AF JUMPI JUMP JUMPDEST PUSH1 0x60 SWAP1 PUSH1 0x3 NOT ADD SLT PUSH2 0x2AF JUMPI PUSH1 0x1 PUSH1 0x1 PUSH1 0xA0 SHL SUB SWAP1 PUSH1 0x4 CALLDATALOAD DUP3 DUP2 AND DUP2 SUB PUSH2 0x2AF JUMPI SWAP2 PUSH1 0x24 CALLDATALOAD SWAP1 DUP2 AND DUP2 SUB PUSH2 0x2AF JUMPI SWAP1 PUSH1 0x44 CALLDATALOAD SWAP1 JUMP JUMPDEST SWAP2 DUP2 PUSH1 0x1F DUP5 ADD SLT ISZERO PUSH2 0x2AF JUMPI DUP3 CALLDATALOAD SWAP2 PUSH1 0x1 PUSH1 0x1 PUSH1 0x40 SHL SUB DUP4 GT PUSH2 0x2AF JUMPI PUSH1 0x20 DUP4 DUP2 DUP7 ADD SWAP6 ADD ADD GT PUSH2 0x2AF JUMPI JUMP JUMPDEST CALLVALUE PUSH2 0x2AF JUMPI PUSH1 0x0 CALLDATASIZE PUSH1 0x3 NOT ADD SLT PUSH2 0x2AF JUMPI PUSH1 0x20 PUSH1 0x40 MLOAD PUSH8 0x8AC7230489E80000 DUP2 MSTORE RETURN JUMPDEST PUSH1 0x40 SWAP1 PUSH1 0x3 NOT ADD SLT PUSH2 0x2AF JUMPI PUSH1 0x4 CALLDATALOAD SWAP1 PUSH1 0x24 CALLDATALOAD SWAP1 JUMP JUMPDEST PUSH1 0x24 CALLDATALOAD SWAP1 DUP2 ISZERO ISZERO DUP3 SUB PUSH2 0x2AF JUMPI JUMP JUMPDEST PUSH2 0x140 DUP2 ADD SWAP1 DUP2 LT PUSH1 0x1 PUSH1 0x1 PUSH1 0x40 SHL SUB DUP3 GT OR PUSH2 0x5CD JUMPI PUSH1 0x40 MSTORE JUMP JUMPDEST PUSH1 0x20 DUP2 ADD SWAP1 DUP2 LT PUSH1 0x1 PUSH1 0x1 PUSH1 0x40 SHL SUB DUP3 GT OR PUSH2 0x5CD JUMPI PUSH1 0x40 MSTORE JUMP JUMPDEST SWAP1 PUSH1 0x1F DUP1 NOT SWAP2 ADD AND DUP2 ADD SWAP1 DUP2 LT PUSH1 0x1 PUSH1 0x1 PUSH1 0x40 SHL SUB DUP3 GT OR PUSH2 0x5CD JUMPI PUSH1 0x40 MSTORE JUMP JUMPDEST PUSH1 0x1 PUSH1 0x1 PUSH1 0x40 SHL SUB DUP2 GT PUSH2 0x5CD JUMPI PUSH1 0x1F ADD PUSH1 0x1F NOT AND PUSH1 0x20 ADD SWAP1 JUMP JUMPDEST SWAP3 SWAP2 SWAP3 PUSH2 0x27C1 DUP3 PUSH2 0x279A JUMP JUMPDEST SWAP2 PUSH2 0x27CF PUSH1 0x40 MLOAD SWAP4 DUP5 PUSH2 0x2779 JUMP JUMPDEST DUP3 SWAP5 DUP2 DUP5 MSTORE DUP2 DUP4 ADD GT PUSH2 0x2AF JUMPI DUP3 DUP2 PUSH1 0x20 SWAP4 DUP5 PUSH1 0x0 SWAP7 ADD CALLDATACOPY ADD ADD MSTORE JUMP JUMPDEST SWAP1 PUSH1 0x1 DUP3 DUP2 SHR SWAP3 AND DUP1 ISZERO PUSH2 0x281C JUMPI JUMPDEST PUSH1 0x20 DUP4 LT EQ PUSH2 0x2806 JUMPI JUMP JUMPDEST PUSH4 0x4E487B71 PUSH1 0xE0 SHL PUSH1 0x0 MSTORE PUSH1 0x22 PUSH1 0x4 MSTORE PUSH1 0x24 PUSH1 0x0 REVERT JUMPDEST SWAP2 PUSH1 0x7F AND SWAP2 PUSH2 0x27FB JUMP JUMPDEST SWAP1 PUSH1 0x40 MLOAD SWAP2 DUP3 PUSH1 0x0 DUP3 SLOAD PUSH2 0x2839 DUP2 PUSH2 0x27EC JUMP JUMPDEST SWAP1 DUP2 DUP5 MSTORE PUSH1 0x20 SWAP5 PUSH1 0x1 SWAP2 PUSH1 0x1 DUP2 AND SWAP1 DUP2 PUSH1 0x0 EQ PUSH2 0x28A9 JUMPI POP PUSH1 0x1 EQ PUSH2 0x286A JUMPI JUMPDEST POP POP POP PUSH2 0x2868 SWAP3 POP SUB DUP4 PUSH2 0x2779 JUMP JUMPDEST JUMP JUMPDEST PUSH1 0x0 SWAP1 DUP2 MSTORE DUP6 DUP2 KECCAK256 SWAP6 SWAP4 POP SWAP2 SWAP1 JUMPDEST DUP2 DUP4 LT PUSH2 0x2891 JUMPI POP POP PUSH2 0x2868 SWAP4 POP DUP3 ADD ADD CODESIZE DUP1 DUP1 PUSH2 0x2859 JUMP JUMPDEST DUP6 SLOAD DUP9 DUP5 ADD DUP6 ADD MSTORE SWAP5 DUP6 ADD SWAP5 DUP8 SWAP5 POP SWAP2 DUP4 ADD SWAP2 PUSH2 0x2878 JUMP JUMPDEST SWAP3 POP POP POP PUSH2 0x2868 SWAP5 SWAP3 POP PUSH1 0xFF NOT AND DUP3 DUP5 ADD MSTORE ISZERO ISZERO PUSH1 0x5 SHL DUP3 ADD ADD CODESIZE DUP1 DUP1 PUSH2 0x2859 JUMP JUMPDEST SWAP2 SWAP1 DUP3 ADD DUP1 SWAP3 GT PUSH2 0x131B JUMPI JUMP JUMPDEST DUP2 ISZERO PUSH2 0x28E2 JUMPI DIV SWAP1 JUMP JUMPDEST PUSH4 0x4E487B71 PUSH1 0xE0 SHL PUSH1 0x0 MSTORE PUSH1 0x12 PUSH1 0x4 MSTORE PUSH1 0x24 PUSH1 0x0 REVERT JUMPDEST SWAP1 PUSH1 0x2 DUP2 LT ISZERO PUSH2 0x387 JUMPI DUP2 SLOAD PUSH1 0xFF PUSH1 0x88 SHL NOT AND PUSH1 0x88 SWAP2 SWAP1 SWAP2 SHL PUSH1 0xFF PUSH1 0x88 SHL AND OR SWAP1 SSTORE JUMP JUMPDEST SWAP1 PUSH1 0x1 PUSH1 0x1 PUSH1 0xA0 SHL SUB SWAP1 DUP2 AND DUP1 ISZERO PUSH2 0x7C8 JUMPI PUSH1 0x0 SWAP2 DUP5 DUP4 MSTORE DUP5 PUSH1 0x20 SWAP3 PUSH1 0x2 DUP5 MSTORE PUSH1 0x40 SWAP4 DUP4 DUP6 DUP8 KECCAK256 SLOAD AND SWAP6 DUP7 SWAP2 CALLER ISZERO ISZERO DUP1 PUSH2 0x2A16 JUMPI JUMPDEST POP SWAP1 PUSH1 0x2 PUSH32 0xDDF252AD1BE2C89B69C2B068FC378DAA952BA7F163C4A11628F55A4DF523B3EF SWAP3 DUP5 PUSH2 0x29E3 JUMPI JUMPDEST DUP6 DUP4 MSTORE PUSH1 0x3 DUP2 MSTORE DUP9 DUP4 KECCAK256 DUP1 SLOAD PUSH1 0x1 ADD SWAP1 SSTORE DUP7 DUP4 MSTORE MSTORE DUP7 DUP2 KECCAK256 DUP1 SLOAD PUSH1 0x1 PUSH1 0x1 PUSH1 0xA0 SHL SUB NOT AND DUP6 OR SWAP1 SSTORE DUP1 LOG4 DUP4 AND DUP3 SUB PUSH2 0x29B5 JUMPI POP POP POP POP JUMP JUMPDEST MLOAD PUSH4 0x64283D7B PUSH1 0xE0 SHL DUP2 MSTORE PUSH1 0x1 PUSH1 0x1 PUSH1 0xA0 SHL SUB SWAP3 DUP4 AND PUSH1 0x4 DUP3 ADD MSTORE PUSH1 0x24 DUP2 ADD SWAP4 SWAP1 SWAP4 MSTORE AND PUSH1 0x44 DUP3 ADD MSTORE PUSH1 0x64 SWAP1 REVERT JUMPDEST PUSH1 0x0 DUP8 DUP2 MSTORE PUSH1 0x4 PUSH1 0x20 MSTORE PUSH1 0x40 SWAP1 KECCAK256 DUP1 SLOAD PUSH1 0x1 PUSH1 0x1 PUSH1 0xA0 SHL SUB NOT AND SWAP1 SSTORE DUP5 DUP4 MSTORE PUSH1 0x3 DUP2 MSTORE DUP9 DUP4 KECCAK256 DUP1 SLOAD PUSH1 0x0 NOT ADD SWAP1 SSTORE PUSH2 0x297D JUMP JUMPDEST SWAP2 SWAP4 SWAP5 POP SWAP2 POP DUP1 PUSH2 0x2A6B JUMPI JUMPDEST ISZERO PUSH2 0x2A32 JUMPI DUP8 SWAP3 SWAP2 DUP7 SWAP2 CODESIZE PUSH2 0x2951 JUMP JUMPDEST DUP5 DUP9 DUP8 PUSH2 0x2A4F JUMPI PUSH1 0x24 SWAP2 MLOAD SWAP1 PUSH4 0x7E273289 PUSH1 0xE0 SHL DUP3 MSTORE PUSH1 0x4 DUP3 ADD MSTORE REVERT JUMPDEST PUSH1 0x44 SWAP2 MLOAD SWAP1 PUSH4 0x177E802F PUSH1 0xE0 SHL DUP3 MSTORE CALLER PUSH1 0x4 DUP4 ADD MSTORE PUSH1 0x24 DUP3 ADD MSTORE REVERT JUMPDEST POP CALLER DUP7 EQ DUP1 ISZERO PUSH2 0x2A90 JUMPI JUMPDEST DUP1 PUSH2 0x2A22 JUMPI POP DUP8 DUP3 MSTORE PUSH1 0x4 DUP2 MSTORE CALLER DUP5 DUP7 DUP5 KECCAK256 SLOAD AND EQ PUSH2 0x2A22 JUMP JUMPDEST POP DUP6 DUP3 MSTORE PUSH1 0x5 DUP2 MSTORE DUP5 DUP3 KECCAK256 CALLER DUP4 MSTORE DUP2 MSTORE PUSH1 0xFF DUP6 DUP4 KECCAK256 SLOAD AND PUSH2 0x2A76 JUMP JUMPDEST ISZERO PUSH2 0x2AB3 JUMPI JUMP JUMPDEST PUSH1 0x40 MLOAD PUSH3 0x461BCD PUSH1 0xE5 SHL DUP2 MSTORE PUSH1 0x20 PUSH1 0x4 DUP3 ADD MSTORE PUSH1 0x9 PUSH1 0x24 DUP3 ADD MSTORE PUSH9 0x3D32B9379030B23239 PUSH1 0xB9 SHL PUSH1 0x44 DUP3 ADD MSTORE PUSH1 0x64 SWAP1 REVERT JUMPDEST PUSH1 0x0 MSTORE PUSH1 0xA PUSH1 0x20 MSTORE PUSH1 0x4 PUSH1 0x40 PUSH1 0x0 KECCAK256 ADD SLOAD PUSH1 0xA DUP2 MUL SWAP1 DUP1 DUP3 DIV PUSH1 0xA EQ SWAP1 ISZERO OR ISZERO PUSH2 0x131B JUMPI PUSH1 0x64 SWAP1 DIV SWAP1 JUMP JUMPDEST SWAP2 SWAP1 DUP3 SUB SWAP2 DUP3 GT PUSH2 0x131B JUMPI JUMP JUMPDEST RETURNDATASIZE ISZERO PUSH2 0x2B47 JUMPI RETURNDATASIZE SWAP1 PUSH2 0x2B2D DUP3 PUSH2 0x279A JUMP JUMPDEST SWAP2 PUSH2 0x2B3B PUSH1 0x40 MLOAD SWAP4 DUP5 PUSH2 0x2779 JUMP JUMPDEST DUP3 MSTORE RETURNDATASIZE PUSH1 0x0 PUSH1 0x20 DUP5 ADD RETURNDATACOPY JUMP JUMPDEST PUSH1 0x60 SWAP1 JUMP JUMPDEST ISZERO PUSH2 0x2B53 JUMPI JUMP JUMPDEST PUSH1 0x40 MLOAD PUSH3 0x461BCD PUSH1 0xE5 SHL DUP2 MSTORE PUSH1 0x20 PUSH1 0x4 DUP3 ADD MSTORE PUSH1 0x13 PUSH1 0x24 DUP3 ADD MSTORE PUSH19 0x199959481D1C985B9CD9995C8819985A5B1959 PUSH1 0x6A SHL PUSH1 0x44 DUP3 ADD MSTORE PUSH1 0x64 SWAP1 REVERT JUMPDEST PUSH1 0xFF PUSH1 0x0 NOT SWAP2 AND ADD SWAP1 PUSH1 0xFF DUP3 GT PUSH2 0x131B JUMPI JUMP JUMPDEST DUP2 DUP2 LT PUSH2 0x2BAC JUMPI POP POP JUMP JUMPDEST PUSH1 0x0 DUP2 SSTORE PUSH1 0x1 ADD PUSH2 0x2BA1 JUMP JUMPDEST PUSH2 0x2BC2 DUP2 SLOAD PUSH2 0x27EC JUMP JUMPDEST SWAP1 DUP2 PUSH2 0x2BCC JUMPI POP POP JUMP JUMPDEST DUP2 PUSH1 0x1F PUSH1 0x0 SWAP4 GT PUSH1 0x1 EQ PUSH2 0x2BDE JUMPI POP SSTORE JUMP JUMPDEST SWAP1 DUP1 DUP4 SWAP2 DUP3 MSTORE PUSH2 0x2BFD PUSH1 0x1F PUSH1 0x20 DUP5 KECCAK256 SWAP5 ADD PUSH1 0x5 SHR DUP5 ADD PUSH1 0x1 DUP6 ADD PUSH2 0x2BA1 JUMP JUMPDEST SSTORE SSTORE JUMP JUMPDEST SWAP1 PUSH1 0x1 PUSH1 0x1 PUSH1 0x1 PUSH1 0x40 SHL SUB DUP1 SWAP4 AND ADD SWAP2 DUP3 GT PUSH2 0x131B JUMPI JUMP JUMPDEST SWAP1 PUSH1 0x2 DUP2 LT ISZERO PUSH2 0x387 JUMPI ISZERO PUSH2 0x2C4E JUMPI PUSH1 0x0 MSTORE PUSH1 0xA PUSH1 0x20 MSTORE PUSH1 0xFF PUSH1 0x6 PUSH1 0x40 PUSH1 0x0 KECCAK256 ADD SLOAD PUSH1 0x88 SHR AND PUSH1 0x2 DUP2 LT ISZERO PUSH2 0x387 JUMPI PUSH1 0x1 EQ SWAP1 JUMP JUMPDEST POP PUSH1 0x1 SWAP1 JUMP JUMPDEST PUSH1 0x0 DUP2 DUP2 MSTORE PUSH1 0x2 PUSH1 0x20 MSTORE PUSH1 0x40 SWAP1 KECCAK256 SLOAD PUSH1 0x1 PUSH1 0x1 PUSH1 0xA0 SHL SUB SWAP3 DUP4 AND SWAP3 AND DUP3 EQ PUSH2 0x2C96 JUMPI PUSH1 0x0 MSTORE PUSH1 0xC PUSH1 0x20 MSTORE PUSH1 0x40 PUSH1 0x0 KECCAK256 SWAP1 PUSH1 0x0 MSTORE PUSH1 0x20 MSTORE PUSH1 0xFF PUSH1 0x40 PUSH1 0x0 KECCAK256 SLOAD AND SWAP1 JUMP JUMPDEST POP POP PUSH1 0x1 SWAP1 JUMP JUMPDEST SWAP2 SWAP1 PUSH1 0x1F DUP2 GT PUSH2 0x2CAC JUMPI POP POP POP JUMP JUMPDEST PUSH2 0x2868 SWAP3 PUSH1 0x0 MSTORE PUSH1 0x20 PUSH1 0x0 KECCAK256 SWAP1 PUSH1 0x20 PUSH1 0x1F DUP5 ADD PUSH1 0x5 SHR DUP4 ADD SWAP4 LT PUSH2 0x2CD8 JUMPI JUMPDEST PUSH1 0x1F ADD PUSH1 0x5 SHR ADD SWAP1 PUSH2 0x2BA1 JUMP JUMPDEST SWAP1 SWAP2 POP DUP2 SWAP1 PUSH2 0x2CCB JUMP JUMPDEST PUSH1 0xFF PUSH1 0x1 SWAP2 AND ADD SWAP1 PUSH1 0xFF DUP3 GT PUSH2 0x131B JUMPI JUMP JUMPDEST SWAP1 DUP1 PUSH1 0x20 SWAP4 SWAP3 DUP2 DUP5 MSTORE DUP5 DUP5 ADD CALLDATACOPY PUSH1 0x0 DUP3 DUP3 ADD DUP5 ADD MSTORE PUSH1 0x1F ADD PUSH1 0x1F NOT AND ADD ADD SWAP1 JUMP JUMPDEST PUSH1 0x0 DUP2 DUP2 MSTORE PUSH1 0x2 PUSH1 0x20 MSTORE PUSH1 0x40 SWAP1 KECCAK256 SLOAD PUSH1 0x1 PUSH1 0x1 PUSH1 0xA0 SHL SUB AND SWAP1 DUP2 ISZERO PUSH2 0x2D38 JUMPI POP SWAP1 JUMP JUMPDEST PUSH1 0x24 SWAP1 PUSH1 0x40 MLOAD SWAP1 PUSH4 0x7E273289 PUSH1 0xE0 SHL DUP3 MSTORE PUSH1 0x4 DUP3 ADD MSTORE REVERT JUMPDEST PUSH1 0x0 DUP3 DUP2 MSTORE PUSH1 0x2 PUSH1 0x20 MSTORE PUSH1 0x40 DUP2 KECCAK256 SLOAD PUSH1 0x1 PUSH1 0x1 PUSH1 0xA0 SHL SUB SWAP1 DUP2 AND SWAP4 SWAP3 DUP5 SWAP2 PUSH32 0xDDF252AD1BE2C89B69C2B068FC378DAA952BA7F163C4A11628F55A4DF523B3EF SWAP2 DUP4 PUSH2 0x2DD7 JUMPI JUMPDEST AND SWAP3 DUP4 PUSH2 0x2DBF JUMPI JUMPDEST DUP5 DUP2 MSTORE PUSH1 0x2 PUSH1 0x20 MSTORE PUSH1 0x40 DUP2 KECCAK256 DUP1 SLOAD PUSH1 0x1 PUSH1 0x1 PUSH1 0xA0 SHL SUB NOT AND DUP6 OR SWAP1 SSTORE DUP1 LOG4 SWAP1 JUMP JUMPDEST DUP4 DUP2 MSTORE PUSH1 0x3 PUSH1 0x20 MSTORE PUSH1 0x40 DUP2 KECCAK256 PUSH1 0x1 DUP2 SLOAD ADD SWAP1 SSTORE PUSH2 0x2D9E JUMP JUMPDEST PUSH1 0x0 DUP7 DUP2 MSTORE PUSH1 0x4 PUSH1 0x20 MSTORE PUSH1 0x40 SWAP1 KECCAK256 DUP1 SLOAD PUSH1 0x1 PUSH1 0x1 PUSH1 0xA0 SHL SUB NOT AND SWAP1 SSTORE DUP4 DUP6 MSTORE PUSH1 0x3 PUSH1 0x20 MSTORE PUSH1 0x40 DUP6 KECCAK256 DUP1 SLOAD PUSH1 0x0 NOT ADD SWAP1 SSTORE PUSH2 0x2D96 JUMP JUMPDEST PUSH1 0x2 PUSH1 0x6 SLOAD EQ PUSH2 0x2E1D JUMPI PUSH1 0x2 PUSH1 0x6 SSTORE JUMP JUMPDEST PUSH1 0x40 MLOAD PUSH4 0x3EE5AEB5 PUSH1 0xE0 SHL DUP2 MSTORE PUSH1 0x4 SWAP1 REVERT JUMPDEST PUSH1 0x0 SWAP1 DUP2 MSTORE PUSH1 0x2 PUSH1 0x20 MSTORE PUSH1 0x40 SWAP1 KECCAK256 SLOAD PUSH1 0x1 PUSH1 0x1 PUSH1 0xA0 SHL SUB AND ISZERO PUSH2 0x2E4E JUMPI JUMP JUMPDEST PUSH1 0x40 MLOAD PUSH4 0xCBDB7B3 PUSH1 0xE4 SHL DUP2 MSTORE PUSH1 0x4 SWAP1 REVERT JUMPDEST SWAP2 SWAP1 SWAP3 DUP4 EXTCODESIZE PUSH2 0x2E70 JUMPI JUMPDEST POP POP POP POP JUMP JUMPDEST PUSH1 0x20 PUSH2 0x2EBA SWAP2 PUSH1 0x1 DUP1 PUSH1 0xA0 SHL SUB DUP1 SWAP7 AND SWAP6 PUSH1 0x40 MLOAD SWAP4 DUP5 SWAP3 DUP4 SWAP3 PUSH4 0xA85BD01 PUSH1 0xE1 SHL SWAP9 DUP10 DUP6 MSTORE AND PUSH1 0x4 DUP5 ADD MSTORE PUSH1 0x0 SWAP7 DUP8 PUSH1 0x24 DUP6 ADD MSTORE PUSH1 0x44 DUP5 ADD MSTORE PUSH1 0x80 PUSH1 0x64 DUP5 ADD MSTORE PUSH1 0x84 DUP4 ADD SWAP1 PUSH2 0x262C JUMP JUMPDEST SUB DUP2 DUP6 DUP9 GAS CALL SWAP1 DUP3 SWAP1 DUP3 PUSH2 0x2F32 JUMPI JUMPDEST POP POP PUSH2 0x2F01 JUMPI DUP3 PUSH2 0x2ED8 PUSH2 0x2B1C JUMP JUMPDEST DUP1 MLOAD SWAP2 SWAP1 DUP3 PUSH2 0x2EFA JUMPI PUSH1 0x40 MLOAD PUSH4 0x32505749 PUSH1 0xE1 SHL DUP2 MSTORE PUSH1 0x4 DUP2 ADD DUP4 SWAP1 MSTORE PUSH1 0x24 SWAP1 REVERT JUMPDEST PUSH1 0x20 SWAP2 POP ADD REVERT JUMPDEST PUSH1 0x1 PUSH1 0x1 PUSH1 0xE0 SHL SUB NOT AND SUB PUSH2 0x2F1A JUMPI POP CODESIZE DUP1 DUP1 DUP1 PUSH2 0x2E6A JUMP JUMPDEST PUSH1 0x24 SWAP1 PUSH1 0x40 MLOAD SWAP1 PUSH4 0x32505749 PUSH1 0xE1 SHL DUP3 MSTORE PUSH1 0x4 DUP3 ADD MSTORE REVERT JUMPDEST SWAP1 SWAP2 SWAP3 POP PUSH1 0x20 DUP2 RETURNDATASIZE PUSH1 0x20 GT PUSH2 0x2F7A JUMPI JUMPDEST DUP2 PUSH2 0x2F4F PUSH1 0x20 SWAP4 DUP4 PUSH2 0x2779 JUMP JUMPDEST DUP2 ADD SUB SLT PUSH2 0x2F76 JUMPI MLOAD SWAP1 PUSH1 0x1 PUSH1 0x1 PUSH1 0xE0 SHL SUB NOT DUP3 AND DUP3 SUB PUSH2 0x2F73 JUMPI POP SWAP1 CODESIZE DUP1 PUSH2 0x2EC9 JUMP JUMPDEST DUP1 REVERT JUMPDEST POP DUP1 REVERT JUMPDEST RETURNDATASIZE SWAP2 POP PUSH2 0x2F42 JUMP JUMPDEST SWAP3 SWAP4 DUP3 EXTCODESIZE PUSH2 0x2F92 JUMPI JUMPDEST POP POP POP POP POP JUMP JUMPDEST PUSH2 0x2FD6 SWAP1 PUSH1 0x1 DUP1 PUSH1 0xA0 SHL SUB DUP1 SWAP5 AND SWAP6 PUSH1 0x40 MLOAD SWAP5 DUP6 SWAP5 DUP2 PUSH4 0xA85BD01 PUSH1 0xE1 SHL SWAP9 DUP10 DUP9 MSTORE AND PUSH1 0x4 DUP8 ADD MSTORE AND PUSH1 0x24 DUP6 ADD MSTORE PUSH1 0x44 DUP5 ADD MSTORE PUSH1 0x80 PUSH1 0x64 DUP5 ADD MSTORE PUSH1 0x84 DUP4 ADD SWAP1 PUSH2 0x262C JUMP JUMPDEST SUB SWAP1 PUSH1 0x20 DUP2 PUSH1 0x0 SWAP4 DUP2 DUP6 DUP9 GAS CALL SWAP1 DUP3 SWAP1 DUP3 PUSH2 0x3015 JUMPI JUMPDEST POP POP PUSH2 0x2FFB JUMPI DUP3 PUSH2 0x2ED8 PUSH2 0x2B1C JUMP JUMPDEST PUSH1 0x1 PUSH1 0x1 PUSH1 0xE0 SHL SUB NOT AND SUB PUSH2 0x2F1A JUMPI POP CODESIZE DUP1 DUP1 DUP1 DUP1 PUSH2 0x2F8B JUMP JUMPDEST SWAP1 SWAP2 SWAP3 POP PUSH1 0x20 DUP2 RETURNDATASIZE PUSH1 0x20 GT PUSH2 0x3056 JUMPI JUMPDEST DUP2 PUSH2 0x3032 PUSH1 0x20 SWAP4 DUP4 PUSH2 0x2779 JUMP JUMPDEST DUP2 ADD SUB SLT PUSH2 0x2F76 JUMPI MLOAD SWAP1 PUSH1 0x1 PUSH1 0x1 PUSH1 0xE0 SHL SUB NOT DUP3 AND DUP3 SUB PUSH2 0x2F73 JUMPI POP SWAP1 CODESIZE DUP1 PUSH2 0x2FEC JUMP JUMPDEST RETURNDATASIZE SWAP2 POP PUSH2 0x3025 JUMP INVALID LOG2 PUSH5 0x6970667358 0x22 SLT KECCAK256 0xF8 BALANCE 0xED SWAP16 GT GAS 0xE8 PUSH26 0xE65EBFD5D2A287B70614144044B17CFAF3453DDBA94400FC6473 PUSH16 0x6C634300081800330000000000000000 "},"methodIdentifiers":{"AUTO_DEMOTE_MAX_WIN_RATE_BP()":"b4e22253","AUTO_DEMOTE_MIN_MATCHES()":"e8777390","AUTO_PROMOTE_MIN_MATCHES()":"52fb5204","AUTO_PROMOTE_MIN_WIN_RATE_BP()":"3473323e","MAX_BOTS_PER_WALLET()":"ec383059","MAX_STAKE_PERCENT()":"cd1f6206","MINT_PAID_SLOT_2_FEE()":"58958f96","MINT_PAID_SLOT_3_FEE()":"7b1e10c8","MIN_INITIAL_VAULT_FREE()":"b2fca450","MIN_INITIAL_VAULT_PAID_2()":"0089e567","MIN_INITIAL_VAULT_PAID_3()":"a7cbb1bb","PROMOTE_FEE()":"e723949e","WITHDRAW_DELAY_BLOCKS()":"9621a7e4","admin()":"f851a440","approve(address,uint256)":"095ea7b3","authorizeUsage(uint256,address,bool)":"b74078ee","autoDemote(uint256)":"1fe02959","autoPromote(uint256)":"536647fb","balanceOf(address)":"70a08231","bots(uint256)":"f221ddb9","burnBot(uint256)":"859c900f","canCoverStake(uint256,uint256)":"cd6e0818","creditFromMatch(uint256,bool,uint256)":"865150ef","depositToVault(uint256)":"b0462296","eligibleTier(uint256,uint8)":"8be3aae7","gameContract()":"d3f33009","getApproved(uint256)":"081812fc","isApprovedForAll(address,address)":"e985e9c5","isUsageAuthorized(uint256,address)":"d3bb65b0","lockForMatch(uint256,uint256,uint256)":"9d436921","maxStakeOf(uint256)":"4273f68d","mintFreeSlot(string,bytes32)":"50308ee0","mintPaidSlot(uint8,string,bytes32)":"5f3b24b0","name()":"06fdde03","nextTokenId()":"75794a3c","ownerOf(uint256)":"6352211e","promoteToVerified(uint256)":"aac0c0f4","resolver()":"04f3bcec","safeTransferFrom(address,address,uint256)":"42842e0e","safeTransferFrom(address,address,uint256,bytes)":"b88d4fde","setApprovalForAll(address,bool)":"a22cb465","setGameContract(address)":"405ebd4d","setResolver(address)":"4e543b26","slotsOwned(address)":"35e6d236","statsOf(uint256)":"7bc5d64d","supportsInterface(bytes4)":"01ffc9a7","symbol()":"95d89b41","tokenURI(uint256)":"c87b56dd","totalVaultLocked()":"562918e5","transferAdmin(address)":"75829def","transferFrom(address,address,uint256)":"23b872dd","transferWithNewURI(address,uint256,string,bytes32)":"e39e0d77","updateMemory(uint256,string,bytes32)":"e4151eaf","usageAuthorized(uint256,address)":"5ddf9096","withdrawFromVault(uint256,uint256)":"70974818"}}}}}