{"contracts/OxHuman.sol":{"OxHuman":{"abi":[{"inputs":[],"stateMutability":"nonpayable","type":"constructor"},{"inputs":[],"name":"ECDSAInvalidSignature","type":"error"},{"inputs":[{"internalType":"uint256","name":"length","type":"uint256"}],"name":"ECDSAInvalidSignatureLength","type":"error"},{"inputs":[{"internalType":"bytes32","name":"s","type":"bytes32"}],"name":"ECDSAInvalidSignatureS","type":"error"},{"anonymous":false,"inputs":[{"indexed":true,"internalType":"uint256","name":"gameId","type":"uint256"},{"indexed":false,"internalType":"bytes32","name":"chatLogHash","type":"bytes32"},{"indexed":false,"internalType":"string","name":"chatLogURI","type":"string"}],"name":"ChatLogAnchored","type":"event"},{"anonymous":false,"inputs":[{"indexed":true,"internalType":"uint256","name":"gameId","type":"uint256"},{"indexed":true,"internalType":"address","name":"player1","type":"address"},{"indexed":false,"internalType":"uint256","name":"stake","type":"uint256"},{"indexed":false,"internalType":"enum OxHuman.GameMode","name":"mode","type":"uint8"}],"name":"GameCreated","type":"event"},{"anonymous":false,"inputs":[{"indexed":true,"internalType":"uint256","name":"gameId","type":"uint256"},{"indexed":false,"internalType":"uint256","name":"refundAmount","type":"uint256"}],"name":"GameDraw","type":"event"},{"anonymous":false,"inputs":[{"indexed":true,"internalType":"uint256","name":"gameId","type":"uint256"},{"indexed":true,"internalType":"address","name":"player2","type":"address"},{"indexed":false,"internalType":"uint256","name":"botTokenId","type":"uint256"}],"name":"GameJoined","type":"event"},{"anonymous":false,"inputs":[{"indexed":true,"internalType":"uint256","name":"gameId","type":"uint256"},{"indexed":true,"internalType":"address","name":"winner","type":"address"},{"indexed":false,"internalType":"uint256","name":"payout","type":"uint256"}],"name":"GameResolved","type":"event"},{"anonymous":false,"inputs":[{"indexed":true,"internalType":"uint256","name":"gameId","type":"uint256"},{"indexed":true,"internalType":"address","name":"player","type":"address"},{"indexed":false,"internalType":"bool","name":"guessedBot","type":"bool"}],"name":"VerdictSubmitted","type":"event"},{"anonymous":false,"inputs":[{"indexed":true,"internalType":"address","name":"player","type":"address"},{"indexed":false,"internalType":"uint256","name":"amount","type":"uint256"}],"name":"WinningsClaimed","type":"event"},{"inputs":[],"name":"BOT_OWNER_SHARE_PERCENT","outputs":[{"internalType":"uint256","name":"","type":"uint256"}],"stateMutability":"view","type":"function"},{"inputs":[],"name":"PAYOUT_DENOMINATOR","outputs":[{"internalType":"uint256","name":"","type":"uint256"}],"stateMutability":"view","type":"function"},{"inputs":[],"name":"PAYOUT_NUMERATOR","outputs":[{"internalType":"uint256","name":"","type":"uint256"}],"stateMutability":"view","type":"function"},{"inputs":[],"name":"PERFORMANCE_FEE_PERCENT","outputs":[{"internalType":"uint256","name":"","type":"uint256"}],"stateMutability":"view","type":"function"},{"inputs":[],"name":"PROTOCOL_FEE_PERCENT","outputs":[{"internalType":"uint256","name":"","type":"uint256"}],"stateMutability":"view","type":"function"},{"inputs":[{"internalType":"uint256","name":"gameId","type":"uint256"},{"internalType":"bytes32","name":"hash","type":"bytes32"},{"internalType":"string","name":"uri","type":"string"}],"name":"anchorChatLog","outputs":[],"stateMutability":"nonpayable","type":"function"},{"inputs":[],"name":"botINFT","outputs":[{"internalType":"contract IBotINFT","name":"","type":"address"}],"stateMutability":"view","type":"function"},{"inputs":[],"name":"claimWinnings","outputs":[],"stateMutability":"nonpayable","type":"function"},{"inputs":[],"name":"createGame","outputs":[],"stateMutability":"payable","type":"function"},{"inputs":[{"internalType":"uint256","name":"botTokenId","type":"uint256"}],"name":"createGamePvE","outputs":[],"stateMutability":"payable","type":"function"},{"inputs":[],"name":"gameCount","outputs":[{"internalType":"uint256","name":"","type":"uint256"}],"stateMutability":"view","type":"function"},{"inputs":[{"internalType":"uint256","name":"","type":"uint256"}],"name":"games","outputs":[{"internalType":"address","name":"player1","type":"address"},{"internalType":"address","name":"player2","type":"address"},{"internalType":"uint256","name":"botTokenId","type":"uint256"},{"internalType":"uint256","name":"stake","type":"uint256"},{"internalType":"enum OxHuman.GameStatus","name":"status","type":"uint8"},{"internalType":"enum OxHuman.GameMode","name":"mode","type":"uint8"},{"internalType":"address","name":"winner","type":"address"},{"internalType":"uint256","name":"timestamp","type":"uint256"},{"internalType":"bool","name":"isPlayer2Bot","type":"bool"},{"internalType":"bool","name":"player1GuessedBot","type":"bool"},{"internalType":"bool","name":"player1Submitted","type":"bool"},{"internalType":"bool","name":"player2GuessedBot","type":"bool"},{"internalType":"bool","name":"player2Submitted","type":"bool"},{"internalType":"bytes32","name":"chatLogHash","type":"bytes32"},{"internalType":"string","name":"chatLogURI","type":"string"}],"stateMutability":"view","type":"function"},{"inputs":[{"internalType":"uint256","name":"gameId","type":"uint256"}],"name":"joinGame","outputs":[],"stateMutability":"payable","type":"function"},{"inputs":[],"name":"oracle","outputs":[{"internalType":"address","name":"","type":"address"}],"stateMutability":"view","type":"function"},{"inputs":[{"internalType":"uint256","name":"gameId","type":"uint256"},{"internalType":"bool","name":"p1GuessedBot","type":"bool"},{"internalType":"bytes","name":"p1Signature","type":"bytes"},{"internalType":"bool","name":"p2GuessedBot","type":"bool"},{"internalType":"bytes","name":"p2Signature","type":"bytes"}],"name":"resolveWithSignatures","outputs":[],"stateMutability":"nonpayable","type":"function"},{"inputs":[],"name":"resolver","outputs":[{"internalType":"address","name":"","type":"address"}],"stateMutability":"view","type":"function"},{"inputs":[{"internalType":"address","name":"_botINFT","type":"address"}],"name":"setBotINFT","outputs":[],"stateMutability":"nonpayable","type":"function"},{"inputs":[{"internalType":"address","name":"_resolver","type":"address"}],"name":"setResolver","outputs":[],"stateMutability":"nonpayable","type":"function"},{"inputs":[{"internalType":"uint256","name":"gameId","type":"uint256"},{"internalType":"bool","name":"guessedBot","type":"bool"}],"name":"submitVerdict","outputs":[],"stateMutability":"nonpayable","type":"function"},{"inputs":[{"internalType":"address","name":"newOracle","type":"address"}],"name":"transferOracle","outputs":[],"stateMutability":"nonpayable","type":"function"},{"inputs":[{"internalType":"address","name":"","type":"address"}],"name":"winnings","outputs":[{"internalType":"uint256","name":"","type":"uint256"}],"stateMutability":"view","type":"function"},{"stateMutability":"payable","type":"receive"}],"evm":{"bytecode":{"linkReferences":{},"object":"608080604052346100325760018060a01b0319338160035416176003553390600454161760045561221590816100388239f35b600080fdfe608080604052600436101561001d575b50361561001b57600080fd5b005b600090813560e01c90816304f3bcec146117a8575080630660dfd91461178c57806310ad960e14611734578063117a5b90146115455780632982de0d146115295780633a438f5a146110cf578063446c05a9146110a65780634d1975b4146110885780634e543b261461103057806356b499751461101457806361d8645114610c205780637255d729146108f75780637dc0d1d0146108ce57806390282be5146108b2578063b06941fa14610896578063b401faf1146107b0578063c1f0c04b14610500578063e7326806146104a8578063ea3a14991461046b578063efaa55a0146103245763fa7b6cd10361000f57346103215760603660031901126103215760043567ffffffffffffffff60243560443582811161031d5761014590369060040161189b565b9061015b60018060a01b03600454163314611a3c565b8486526020938685526040872060ff6004820154166003811015610309576002036102d557808560076008930155019083116102c1576101a58361019f83546117cd565b836119c1565b86601f841160011461023757927fd5481a923f70ffcc54fac6af637145d2c7d9a126e624d71b593978d52c9fd8de95949281926101fb83806060988d9161022c575b508160011b916000199060031b1c19161790565b90555b604080519687958652850152816040850152848401378181018301879052601f01601f19168101030190a280f35b9050840135386101e7565b81885285882090601f198516895b8181106102aa5750928593927fd5481a923f70ffcc54fac6af637145d2c7d9a126e624d71b593978d52c9fd8de98979592856060989510610290575b5050600183811b0190556101fe565b830135600019600386901b60f8161c191690553880610281565b919288600181928689013581550194019201610245565b634e487b7160e01b87526041600452602487fd5b60405162461bcd60e51b815260048101879052600c60248201526b139bdd081c995cdbdb1d995960a21b6044820152606490fd5b634e487b7160e01b89526021600452602489fd5b8480fd5b80fd5b50602080600319360112610467576004358083528282526040832060048101805460ff811660038110156104535761042357600383015434036103f05782546001600160a01b031633146103c557600190818401336001600160601b0360a01b82541617905560ff19161790556005429101557f48bba6a72d4a9fae48e2469ce99518c38afec785fa4f3df38a1a76b03a979537604051928484523393a380f35b60405162461bcd60e51b8152600480820187905260248201526329b2b63360e11b6044820152606490fd5b60405162461bcd60e51b815260048101869052600b60248201526a57726f6e67207374616b6560a81b6044820152606490fd5b60405162461bcd60e51b81526004810186905260086024820152672737ba1037b832b760c11b6044820152606490fd5b634e487b7160e01b87526021600452602487fd5b5080fd5b5034610321576020366003190112610321576004356001600160a01b03811690819003610467578160409160209352600183522054604051908152f35b5034610321576020366003190112610321576004356001600160a01b03818116918290036104fc576104e060035491821633146118c9565b6104eb821515611902565b6001600160a01b0319161760035580f35b8280fd5b50346103215760403660031901126103215760043561051d61188c565b818352602090838252604084209060048201549160ff92838116600381101561079c57600161054c9114611a77565b81546001600160a01b03918591339084160361069f5750505060060182815460101c1661066757805462ffff00191661ff00921515600881901b939093161762010000179055604051908152339084907fa116a5d3aae66533a57997d2090970991738695337a83a0b490d3a7ea043113c908590a35b828452838252604084209181600484015460081c166002811015610653576001811480610643575b156105ff57505050506105fc90611dc5565b80f35b159283610632575b83610621575b505050610618575080f35b6105fc90611b73565b60060154901c16905038808061060d565b600681015460101c83169350610607565b5082600685015460101c166105ea565b634e487b7160e01b86526021600452602486fd5b60405162461bcd60e51b815260048101859052601060248201526f140c48185b1c9958591e481d9bdd195960821b6044820152606490fd5b60081c16600281101561079c5715908161078c575b501561075857600601828154851c1661072057805464ffff000000191663ff000000921515601881901b9390931617640100000000179055604051908152339084907fa116a5d3aae66533a57997d2090970991738695337a83a0b490d3a7ea043113c908590a36105c2565b60405162461bcd60e51b815260048101859052601060248201526f140c88185b1c9958591e481d9bdd195960821b6044820152606490fd5b60405162461bcd60e51b815260048101859052600c60248201526b2737ba103090383630bcb2b960a11b6044820152606490fd5b90506001820154163314386106b4565b634e487b7160e01b88526021600452602488fd5b503461032157806003193601126103215733815260016020526040812054801561085e5733825260016020528160408120558180808084335af16107f2611ae7565b5015610827576040519081527f1a31e733a172afcf46074b3106c17f0c298e226442682a03c1e99ce256139ec260203392a280f35b60405162461bcd60e51b815260206004820152600f60248201526e1d1c985b9cd9995c8819985a5b1959608a1b6044820152606490fd5b60405162461bcd60e51b815260206004820152601060248201526f4e6f7468696e6720746f20636c61696d60801b6044820152606490fd5b50346103215780600319360112610321576020604051600a8152f35b5034610321578060031936011261032157602060405160648152f35b50346103215780600319360112610321576003546040516001600160a01b039091168152602090f35b50806003193601126103215761090e34151561193a565b600254906040519161091f83611807565b3383528160208401528160408401523460608401528160808401528160a08401528160c08401524260e08401528161010084015281610120840152816101408401528161016084015281610180840152816101a08401526040516109828161184e565b8281526101c084015280825260208281526040808420855181546001600160a01b03199081166001600160a01b03928316178355938701516001830180549095169116179092558401516002820155606084015160038083019190915560808501516004830191811015610c0c576109fa9082611993565b60a08501516002811015610c0c57815460c0870151610100600160b01b0319909116600892831b61ff00161760109190911b62010000600160b01b0316179091556101c09160e0860151600582015561010086015160068201805461012089015161ff0090151560081b1692151560ff1661ffff1990911617919091178155610ada905b610140880151815462ff0000191690151560101b62ff000016178155610160880151815463ff000000191690151560181b63ff00000016178155610180880151815464ff00000000191690151560201b64ff0000000016179055565b6101a086015160078201550193015192835167ffffffffffffffff8111610bf857610b0f81610b0984546117cd565b846119c1565b602094601f8211600114610b955784958291610b4294959692610b8a575b50508160011b916000199060031b1c19161790565b90555b60405190348252600060208301527f79cfcf64ee95f2f8fbda0bd025831724360c020432615f28aac21f03081e3db760403393a3610b84600254611a17565b60025580f35b015190503880610b2d565b601f198216958386526020862091865b888110610be057508360019596979810610bc7575b505050811b019055610b45565b015160001960f88460031b161c19169055388080610bba565b91926020600181928685015181550194019201610ba5565b634e487b7160e01b84526041600452602484fd5b634e487b7160e01b85526021600452602485fd5b50346103215760a036600319011261032157610c3a61188c565b67ffffffffffffffff60443581811161101057610c5b90369060040161189b565b909160643515156064350361100b5760843590811161031d57610c8290369060040161189b565b6004546001600160a01b03169391610c9b338614611a3c565b600435875286602052604087209360048501549360ff85166003811015610ff7576001610cc89114611a77565b600686015460ff8160101c16159081610fe8575b5015610fb357610d7591610d66610d6c928a604051610d3181610d2360208201946004358690916025928252151560f81b602082015263564f544560e01b60218201520190565b03601f19810183528261186a565b5190207f19457468657265756d205369676e6564204d6573736167653a0a3332000000008d52601c52603c8c20923691611ab0565b906120a4565b909291926120e0565b84546001600160a01b03908116911603610f7d57610e0191610d66610d6c926040516020810190610dcc81610d236064356004358690916025928252151560f81b602082015263564f544560e01b60218201520190565b5190207f19457468657265756d205369676e6564204d6573736167653a0a3332000000008b52601c52603c8a20923691611ab0565b60018301805490946001600160a01b03928316929091168214928315610f4c575b50505015610f1657600681018054640100000000941515600881901b61ff001663ffffff001990921691909117606435151560181b63ff0000001617620100001764ff000000001916949094179055805460405193845260ff936004937fa116a5d3aae66533a57997d2090970991738695337a83a0b490d3a7ea043113c9290916001600160a01b03909116908535908490602090a354604051606435151581526001600160a01b0390911691843591602090a3015460081c166002811015610f0257600103610ef7576105fc600435611dc5565b6105fc600435611b73565b634e487b7160e01b82526021600452602482fd5b60405162461bcd60e51b815260206004820152600e60248201526d496e76616c69642050322073696760901b6044820152606490fd5b60ff9192935060081c166002811015610453576001149182610f73575b5050388080610e22565b1490503880610f69565b60405162461bcd60e51b815260206004820152600e60248201526d496e76616c69642050312073696760901b6044820152606490fd5b60405162461bcd60e51b815260206004820152600d60248201526c105b1c9958591e481d9bdd1959609a1b6044820152606490fd5b60ff915060201c161538610cdc565b634e487b7160e01b8a52602160045260248afd5b600080fd5b8380fd5b5034610321578060031936011261032157602060405160be8152f35b5034610321576020366003190112610321576004356001600160a01b03818116918290036104fc57611067906003541633146118c9565b611072811515611902565b6001600160601b0360a01b600454161760045580f35b50346103215780600319360112610321576020600254604051908152f35b50346103215780600319360112610321576005546040516001600160a01b039091168152602090f35b506020366003190112610321576110e734151561193a565b6005546001600160a01b03169081156114f2576040516319adc10360e31b81526004803590820152346024820152602081604481865afa9081156113e65782916114b7575b501561147c57600254906040519261114384611807565b3384526020840152600435604084015234606084015260016080840152600160a08401528060c08401524260e0840152600161010084015280610120840152806101408401528061016084015280610180840152806101a08401526040516111aa8161184e565b8181526101c084015281815260208181526040808320855181546001600160a01b03199081166001600160a01b03928316178355938701516001830180549095169116179092558401516002820155606084015160038083019190915560808501516004830191811015611468576112229082611993565b60a0850151600281101561146857815460c0870151610100600160b01b0319909116600892831b61ff00161760109190911b62010000600160b01b0316179091556101c09160e0860151600582015561010086015160068201805461012089015161ff0090151560081b1692151560ff1661ffff19909116179190911781556112aa90610a7e565b6101a086015160078201550193015192835167ffffffffffffffff8111611454576112d981610b0984546117cd565b602094601f82116001146113f157839495829161130b949592610b8a5750508160011b916000199060031b1c19161790565b90555b611319600254611a17565b6002556005546001600160a01b0316803b1561046757818091606460405180948193639d43692160e01b835260043560048401523460248401528860448401525af180156113e6576113d7575b509060405134815260016020820152817f79cfcf64ee95f2f8fbda0bd025831724360c020432615f28aac21f03081e3db760403393a360018060a01b0360055416907f48bba6a72d4a9fae48e2469ce99518c38afec785fa4f3df38a1a76b03a97953760206040516004358152a380f35b6113e09061183a565b38611366565b6040513d84823e3d90fd5b601f198216958385526020852091855b88811061143c57508360019596979810611423575b505050811b01905561130e565b015160001960f88460031b161c19169055388080611416565b91926020600181928685015181550194019201611401565b634e487b7160e01b83526041600452602483fd5b634e487b7160e01b84526021600452602484fd5b60405162461bcd60e51b8152602060048201526013602482015272109bdd081d985d5b1d081d1bdbc81cdb585b1b606a1b6044820152606490fd5b90506020813d6020116114ea575b816114d26020938361186a565b8101031261046757518015158103610467573861112c565b3d91506114c5565b60405162461bcd60e51b815260206004820152600f60248201526e109bdd12539195081b9bdd081cd95d608a1b6044820152606490fd5b5034610321578060031936011261032157602060405160058152f35b503461032157602036600319011261032157600435815280602052604081209060018060a01b038254169160018060a01b03600182015416906002810154600382015460048301546005840154916006850154936008600787015496019660405197888a8254926115b5846117cd565b808452936001811690811561171257506001146116d2575b506115da9250038961186a565b604051998a5260208a015260408901526060880152600360ff821610156106535760ff81166080880152600260ff8260081c161015610653579160ff9183838997969560081c1660a088015260018060a01b039060101c1660c087015260e08601528181161515610100860152818160081c161515610120860152818160101c161515610140860152818160181c16151561016086015260201c1615156101808401526101a08301526101e06101c0830152805190816101e0840152835b8281106116b957505061020092838284010152601f80199101168101030190f35b6020828201810151610200888401015286945001611698565b8c525060208b2090918b915b8183106116f75750509060206115da92820101386115cd565b80602092948385600194549201015201910190918a926116de565b9050602092506115da94915060ff191682840152151560051b820101386115cd565b5034610321576020366003190112610321576004356001600160a01b03818116918290036104fc5761176b906003541633146118c9565b611776811515611902565b6001600160601b0360a01b600554161760055580f35b5034610321578060031936011261032157602090604051908152f35b9050346104675781600319360112610467576004546001600160a01b03168152602090f35b90600182811c921680156117fd575b60208310146117e757565b634e487b7160e01b600052602260045260246000fd5b91607f16916117dc565b6101e0810190811067ffffffffffffffff82111761182457604052565b634e487b7160e01b600052604160045260246000fd5b67ffffffffffffffff811161182457604052565b6020810190811067ffffffffffffffff82111761182457604052565b90601f8019910116810190811067ffffffffffffffff82111761182457604052565b60243590811515820361100b57565b9181601f8401121561100b5782359167ffffffffffffffff831161100b576020838186019501011161100b57565b156118d057565b60405162461bcd60e51b815260206004820152600a6024820152694e6f74206f7261636c6560b01b6044820152606490fd5b1561190957565b60405162461bcd60e51b81526020600482015260096024820152683d32b9379030b2323960b91b6044820152606490fd5b1561194157565b60405162461bcd60e51b815260206004820152600e60248201526d14dd185ad9481c995c5d5a5c995960921b6044820152606490fd5b67ffffffffffffffff811161182457601f01601f191660200190565b9060038110156119ab5760ff80198354169116179055565b634e487b7160e01b600052602160045260246000fd5b90601f81116119cf57505050565b6000916000526020600020906020601f850160051c83019410611a0d575b601f0160051c01915b828110611a0257505050565b8181556001016119f6565b90925082906119ed565b6000198114611a265760010190565b634e487b7160e01b600052601160045260246000fd5b15611a4357565b60405162461bcd60e51b815260206004820152600c60248201526b2737ba103932b9b7b63b32b960a11b6044820152606490fd5b15611a7e57565b60405162461bcd60e51b815260206004820152600a6024820152694e6f742061637469766560b01b6044820152606490fd5b929192611abc82611977565b91611aca604051938461186a565b82948184528183011161100b578281602093846000960137010152565b3d15611b12573d90611af882611977565b91611b06604051938461186a565b82523d6000602084013e565b606090565b91908203918211611a2657565b91908201809211611a2657565b15611b3857565b60405162461bcd60e51b8152602060048201526013602482015272199959481d1c985b9cd9995c8819985a5b1959606a1b6044820152606490fd5b600090808252602082815260408084209060038201549460019086821b9680880460021490151715611db1576005870287810460051488151715611d9d5760649004611bbf8189611b17565b600686015460ff808260081c16159160181c16158114600014611c8b57505090808080846004611c14611c79977fc01911861ae5a7a5b004fda8b4a52b25ecdc8a78ad869354e16b75aedfa4be849d9e611b17565b881c9960018060a01b0398898254168552808d528a8520611c368d8254611b24565b905589818301541685528c52898420611c508c8254611b24565b905501805462010000600160b01b03191681556003549097165af1611c73611ae7565b50611b31565b805460ff1916600217905551908152a2565b818897959694929a507f36e33eea5df2e6c873949c5c856feb597f250ea8a329ed5ac38c39ab969053599891600014611d3d575050808080611d259460018060a01b03988989541683528a528c611ce6888420918254611b24565b90558754600498909801805462010000600160b01b031916988a1660101b62010000600160b01b03169890981788555b88600354165af1611c73611ae7565b600260ff19835416178092555195865260101c1693a3565b82611d2594611d166004839584958c8c019060018060a01b039d8e9384845416895252611d6e8c8820918254611b24565b90555491909a01805462010000600160b01b0319169a90911660101b62010000600160b01b0316999099178955565b634e487b7160e01b82526011600452602482fd5b634e487b7160e01b81526011600452602490fd5b600090808252816020526040808320906003820154906005820294821595838104600514871715611d9d57606490049260ff600686015460081c16600014611f6a5760be810281810460be14881715611f5657846064611e259204611b17565b968160011b9182046002141715611d9d5783611e4488611e4993611b17565b611b17565b9060018060a01b03948581541682526001602052838220611e6b898254611b24565b9055805460048201805462010000600160b01b03191691881660101b62010000600160b01b031691909117815594611eb49083908190819081908b600354165af1611c73611ae7565b60028660055416910154813b156104fc5790606483928651958693849263865150ef60e01b845260048401528560248401528b60448401525af1908115611f4b575091602093917f36e33eea5df2e6c873949c5c856feb597f250ea8a329ed5ac38c39ab969053599593611f3c575b50600260ff19835416178092555195865260101c1693a3565b611f459061183a565b38611f23565b8351903d90823e3d90fd5b634e487b7160e01b83526011600452602483fd5b90959392600a8202828104600a1486171561209057906064611f8d920490611b24565b938160011b918204600214171561207c5783611fa891611b17565b94611fc78180808060018060a01b039889600354165af1611c73611ae7565b83600554166002840154813b156104fc57918091606489948651958693849263865150ef60e01b84526004840152600160248401528b60448401525af1908115611f4b575091602093917f36e33eea5df2e6c873949c5c856feb597f250ea8a329ed5ac38c39ab96905359959361206d575b50600554600492909201805462010000600160b01b03191692841660101b62010000600160b01b0316929092178255611d25565b6120769061183a565b38612039565b634e487b7160e01b86526011600452602486fd5b634e487b7160e01b88526011600452602488fd5b81519190604183036120d5576120ce92506020820151906060604084015193015160001a9061214f565b9192909190565b505060009160029190565b60048110156119ab57806120f2575050565b6001810361210c5760405163f645eedf60e01b8152600490fd5b6002810361212d5760405163fce698f760e01b815260048101839052602490fd5b6003146121375750565b602490604051906335e2f38360e21b82526004820152fd5b91907f7fffffffffffffffffffffffffffffff5d576e7357a4501ddfe92f46681b20a084116121d357926020929160ff608095604051948552168484015260408301526060820152600092839182805260015afa156121c75780516001600160a01b038116156121be57918190565b50809160019190565b604051903d90823e3d90fd5b5050506000916003919056fea26469706673582212206d34adc70dde6d932ee2069b1ca177b578eea8ab0f573b7ee458a5498817448564736f6c63430008180033","opcodes":"PUSH1 0x80 DUP1 PUSH1 0x40 MSTORE CALLVALUE PUSH2 0x32 JUMPI PUSH1 0x1 DUP1 PUSH1 0xA0 SHL SUB NOT CALLER DUP2 PUSH1 0x3 SLOAD AND OR PUSH1 0x3 SSTORE CALLER SWAP1 PUSH1 0x4 SLOAD AND OR PUSH1 0x4 SSTORE PUSH2 0x2215 SWAP1 DUP2 PUSH2 0x38 DUP3 CODECOPY RETURN JUMPDEST PUSH1 0x0 DUP1 REVERT INVALID PUSH1 0x80 DUP1 PUSH1 0x40 MSTORE PUSH1 0x4 CALLDATASIZE LT ISZERO PUSH2 0x1D JUMPI JUMPDEST POP CALLDATASIZE ISZERO PUSH2 0x1B JUMPI PUSH1 0x0 DUP1 REVERT JUMPDEST STOP JUMPDEST PUSH1 0x0 SWAP1 DUP2 CALLDATALOAD PUSH1 0xE0 SHR SWAP1 DUP2 PUSH4 0x4F3BCEC EQ PUSH2 0x17A8 JUMPI POP DUP1 PUSH4 0x660DFD9 EQ PUSH2 0x178C JUMPI DUP1 PUSH4 0x10AD960E EQ PUSH2 0x1734 JUMPI DUP1 PUSH4 0x117A5B90 EQ PUSH2 0x1545 JUMPI DUP1 PUSH4 0x2982DE0D EQ PUSH2 0x1529 JUMPI DUP1 PUSH4 0x3A438F5A EQ PUSH2 0x10CF JUMPI DUP1 PUSH4 0x446C05A9 EQ PUSH2 0x10A6 JUMPI DUP1 PUSH4 0x4D1975B4 EQ PUSH2 0x1088 JUMPI DUP1 PUSH4 0x4E543B26 EQ PUSH2 0x1030 JUMPI DUP1 PUSH4 0x56B49975 EQ PUSH2 0x1014 JUMPI DUP1 PUSH4 0x61D86451 EQ PUSH2 0xC20 JUMPI DUP1 PUSH4 0x7255D729 EQ PUSH2 0x8F7 JUMPI DUP1 PUSH4 0x7DC0D1D0 EQ PUSH2 0x8CE JUMPI DUP1 PUSH4 0x90282BE5 EQ PUSH2 0x8B2 JUMPI DUP1 PUSH4 0xB06941FA EQ PUSH2 0x896 JUMPI DUP1 PUSH4 0xB401FAF1 EQ PUSH2 0x7B0 JUMPI DUP1 PUSH4 0xC1F0C04B EQ PUSH2 0x500 JUMPI DUP1 PUSH4 0xE7326806 EQ PUSH2 0x4A8 JUMPI DUP1 PUSH4 0xEA3A1499 EQ PUSH2 0x46B JUMPI DUP1 PUSH4 0xEFAA55A0 EQ PUSH2 0x324 JUMPI PUSH4 0xFA7B6CD1 SUB PUSH2 0xF JUMPI CALLVALUE PUSH2 0x321 JUMPI PUSH1 0x60 CALLDATASIZE PUSH1 0x3 NOT ADD SLT PUSH2 0x321 JUMPI PUSH1 0x4 CALLDATALOAD PUSH8 0xFFFFFFFFFFFFFFFF PUSH1 0x24 CALLDATALOAD PUSH1 0x44 CALLDATALOAD DUP3 DUP2 GT PUSH2 0x31D JUMPI PUSH2 0x145 SWAP1 CALLDATASIZE SWAP1 PUSH1 0x4 ADD PUSH2 0x189B JUMP JUMPDEST SWAP1 PUSH2 0x15B PUSH1 0x1 DUP1 PUSH1 0xA0 SHL SUB PUSH1 0x4 SLOAD AND CALLER EQ PUSH2 0x1A3C JUMP JUMPDEST DUP5 DUP7 MSTORE PUSH1 0x20 SWAP4 DUP7 DUP6 MSTORE PUSH1 0x40 DUP8 KECCAK256 PUSH1 0xFF PUSH1 0x4 DUP3 ADD SLOAD AND PUSH1 0x3 DUP2 LT ISZERO PUSH2 0x309 JUMPI PUSH1 0x2 SUB PUSH2 0x2D5 JUMPI DUP1 DUP6 PUSH1 0x7 PUSH1 0x8 SWAP4 ADD SSTORE ADD SWAP1 DUP4 GT PUSH2 0x2C1 JUMPI PUSH2 0x1A5 DUP4 PUSH2 0x19F DUP4 SLOAD PUSH2 0x17CD JUMP JUMPDEST DUP4 PUSH2 0x19C1 JUMP JUMPDEST DUP7 PUSH1 0x1F DUP5 GT PUSH1 0x1 EQ PUSH2 0x237 JUMPI SWAP3 PUSH32 0xD5481A923F70FFCC54FAC6AF637145D2C7D9A126E624D71B593978D52C9FD8DE SWAP6 SWAP5 SWAP3 DUP2 SWAP3 PUSH2 0x1FB DUP4 DUP1 PUSH1 0x60 SWAP9 DUP14 SWAP2 PUSH2 0x22C JUMPI JUMPDEST POP DUP2 PUSH1 0x1 SHL SWAP2 PUSH1 0x0 NOT SWAP1 PUSH1 0x3 SHL SHR NOT AND OR SWAP1 JUMP JUMPDEST SWAP1 SSTORE JUMPDEST PUSH1 0x40 DUP1 MLOAD SWAP7 DUP8 SWAP6 DUP7 MSTORE DUP6 ADD MSTORE DUP2 PUSH1 0x40 DUP6 ADD MSTORE DUP5 DUP5 ADD CALLDATACOPY DUP2 DUP2 ADD DUP4 ADD DUP8 SWAP1 MSTORE PUSH1 0x1F ADD PUSH1 0x1F NOT AND DUP2 ADD SUB ADD SWAP1 LOG2 DUP1 RETURN JUMPDEST SWAP1 POP DUP5 ADD CALLDATALOAD CODESIZE PUSH2 0x1E7 JUMP JUMPDEST DUP2 DUP9 MSTORE DUP6 DUP9 KECCAK256 SWAP1 PUSH1 0x1F NOT DUP6 AND DUP10 JUMPDEST DUP2 DUP2 LT PUSH2 0x2AA JUMPI POP SWAP3 DUP6 SWAP4 SWAP3 PUSH32 0xD5481A923F70FFCC54FAC6AF637145D2C7D9A126E624D71B593978D52C9FD8DE SWAP9 SWAP8 SWAP6 SWAP3 DUP6 PUSH1 0x60 SWAP9 SWAP6 LT PUSH2 0x290 JUMPI JUMPDEST POP POP PUSH1 0x1 DUP4 DUP2 SHL ADD SWAP1 SSTORE PUSH2 0x1FE JUMP JUMPDEST DUP4 ADD CALLDATALOAD PUSH1 0x0 NOT PUSH1 0x3 DUP7 SWAP1 SHL PUSH1 0xF8 AND SHR NOT AND SWAP1 SSTORE CODESIZE DUP1 PUSH2 0x281 JUMP JUMPDEST SWAP2 SWAP3 DUP9 PUSH1 0x1 DUP2 SWAP3 DUP7 DUP10 ADD CALLDATALOAD DUP2 SSTORE ADD SWAP5 ADD SWAP3 ADD PUSH2 0x245 JUMP JUMPDEST PUSH4 0x4E487B71 PUSH1 0xE0 SHL DUP8 MSTORE PUSH1 0x41 PUSH1 0x4 MSTORE PUSH1 0x24 DUP8 REVERT JUMPDEST PUSH1 0x40 MLOAD PUSH3 0x461BCD PUSH1 0xE5 SHL DUP2 MSTORE PUSH1 0x4 DUP2 ADD DUP8 SWAP1 MSTORE PUSH1 0xC PUSH1 0x24 DUP3 ADD MSTORE PUSH12 0x139BDD081C995CDBDB1D9959 PUSH1 0xA2 SHL PUSH1 0x44 DUP3 ADD MSTORE PUSH1 0x64 SWAP1 REVERT JUMPDEST PUSH4 0x4E487B71 PUSH1 0xE0 SHL DUP10 MSTORE PUSH1 0x21 PUSH1 0x4 MSTORE PUSH1 0x24 DUP10 REVERT JUMPDEST DUP5 DUP1 REVERT JUMPDEST DUP1 REVERT JUMPDEST POP PUSH1 0x20 DUP1 PUSH1 0x3 NOT CALLDATASIZE ADD SLT PUSH2 0x467 JUMPI PUSH1 0x4 CALLDATALOAD DUP1 DUP4 MSTORE DUP3 DUP3 MSTORE PUSH1 0x40 DUP4 KECCAK256 PUSH1 0x4 DUP2 ADD DUP1 SLOAD PUSH1 0xFF DUP2 AND PUSH1 0x3 DUP2 LT ISZERO PUSH2 0x453 JUMPI PUSH2 0x423 JUMPI PUSH1 0x3 DUP4 ADD SLOAD CALLVALUE SUB PUSH2 0x3F0 JUMPI DUP3 SLOAD PUSH1 0x1 PUSH1 0x1 PUSH1 0xA0 SHL SUB AND CALLER EQ PUSH2 0x3C5 JUMPI PUSH1 0x1 SWAP1 DUP2 DUP5 ADD CALLER PUSH1 0x1 PUSH1 0x1 PUSH1 0x60 SHL SUB PUSH1 0xA0 SHL DUP3 SLOAD AND OR SWAP1 SSTORE PUSH1 0xFF NOT AND OR SWAP1 SSTORE PUSH1 0x5 TIMESTAMP SWAP2 ADD SSTORE PUSH32 0x48BBA6A72D4A9FAE48E2469CE99518C38AFEC785FA4F3DF38A1A76B03A979537 PUSH1 0x40 MLOAD SWAP3 DUP5 DUP5 MSTORE CALLER SWAP4 LOG3 DUP1 RETURN JUMPDEST PUSH1 0x40 MLOAD PUSH3 0x461BCD PUSH1 0xE5 SHL DUP2 MSTORE PUSH1 0x4 DUP1 DUP3 ADD DUP8 SWAP1 MSTORE PUSH1 0x24 DUP3 ADD MSTORE PUSH4 0x29B2B633 PUSH1 0xE1 SHL PUSH1 0x44 DUP3 ADD MSTORE PUSH1 0x64 SWAP1 REVERT JUMPDEST PUSH1 0x40 MLOAD PUSH3 0x461BCD PUSH1 0xE5 SHL DUP2 MSTORE PUSH1 0x4 DUP2 ADD DUP7 SWAP1 MSTORE PUSH1 0xB PUSH1 0x24 DUP3 ADD MSTORE PUSH11 0x57726F6E67207374616B65 PUSH1 0xA8 SHL PUSH1 0x44 DUP3 ADD MSTORE PUSH1 0x64 SWAP1 REVERT JUMPDEST PUSH1 0x40 MLOAD PUSH3 0x461BCD PUSH1 0xE5 SHL DUP2 MSTORE PUSH1 0x4 DUP2 ADD DUP7 SWAP1 MSTORE PUSH1 0x8 PUSH1 0x24 DUP3 ADD MSTORE PUSH8 0x2737BA1037B832B7 PUSH1 0xC1 SHL PUSH1 0x44 DUP3 ADD MSTORE PUSH1 0x64 SWAP1 REVERT JUMPDEST PUSH4 0x4E487B71 PUSH1 0xE0 SHL DUP8 MSTORE PUSH1 0x21 PUSH1 0x4 MSTORE PUSH1 0x24 DUP8 REVERT JUMPDEST POP DUP1 REVERT JUMPDEST POP CALLVALUE PUSH2 0x321 JUMPI PUSH1 0x20 CALLDATASIZE PUSH1 0x3 NOT ADD SLT PUSH2 0x321 JUMPI PUSH1 0x4 CALLDATALOAD PUSH1 0x1 PUSH1 0x1 PUSH1 0xA0 SHL SUB DUP2 AND SWAP1 DUP2 SWAP1 SUB PUSH2 0x467 JUMPI DUP2 PUSH1 0x40 SWAP2 PUSH1 0x20 SWAP4 MSTORE PUSH1 0x1 DUP4 MSTORE KECCAK256 SLOAD PUSH1 0x40 MLOAD SWAP1 DUP2 MSTORE RETURN JUMPDEST POP CALLVALUE PUSH2 0x321 JUMPI PUSH1 0x20 CALLDATASIZE PUSH1 0x3 NOT ADD SLT PUSH2 0x321 JUMPI PUSH1 0x4 CALLDATALOAD PUSH1 0x1 PUSH1 0x1 PUSH1 0xA0 SHL SUB DUP2 DUP2 AND SWAP2 DUP3 SWAP1 SUB PUSH2 0x4FC JUMPI PUSH2 0x4E0 PUSH1 0x3 SLOAD SWAP2 DUP3 AND CALLER EQ PUSH2 0x18C9 JUMP JUMPDEST PUSH2 0x4EB DUP3 ISZERO ISZERO PUSH2 0x1902 JUMP JUMPDEST PUSH1 0x1 PUSH1 0x1 PUSH1 0xA0 SHL SUB NOT AND OR PUSH1 0x3 SSTORE DUP1 RETURN JUMPDEST DUP3 DUP1 REVERT JUMPDEST POP CALLVALUE PUSH2 0x321 JUMPI PUSH1 0x40 CALLDATASIZE PUSH1 0x3 NOT ADD SLT PUSH2 0x321 JUMPI PUSH1 0x4 CALLDATALOAD PUSH2 0x51D PUSH2 0x188C JUMP JUMPDEST DUP2 DUP4 MSTORE PUSH1 0x20 SWAP1 DUP4 DUP3 MSTORE PUSH1 0x40 DUP5 KECCAK256 SWAP1 PUSH1 0x4 DUP3 ADD SLOAD SWAP2 PUSH1 0xFF SWAP3 DUP4 DUP2 AND PUSH1 0x3 DUP2 LT ISZERO PUSH2 0x79C JUMPI PUSH1 0x1 PUSH2 0x54C SWAP2 EQ PUSH2 0x1A77 JUMP JUMPDEST DUP2 SLOAD PUSH1 0x1 PUSH1 0x1 PUSH1 0xA0 SHL SUB SWAP2 DUP6 SWAP2 CALLER SWAP1 DUP5 AND SUB PUSH2 0x69F JUMPI POP POP POP PUSH1 0x6 ADD DUP3 DUP2 SLOAD PUSH1 0x10 SHR AND PUSH2 0x667 JUMPI DUP1 SLOAD PUSH3 0xFFFF00 NOT AND PUSH2 0xFF00 SWAP3 ISZERO ISZERO PUSH1 0x8 DUP2 SWAP1 SHL SWAP4 SWAP1 SWAP4 AND OR PUSH3 0x10000 OR SWAP1 SSTORE PUSH1 0x40 MLOAD SWAP1 DUP2 MSTORE CALLER SWAP1 DUP5 SWAP1 PUSH32 0xA116A5D3AAE66533A57997D2090970991738695337A83A0B490D3A7EA043113C SWAP1 DUP6 SWAP1 LOG3 JUMPDEST DUP3 DUP5 MSTORE DUP4 DUP3 MSTORE PUSH1 0x40 DUP5 KECCAK256 SWAP2 DUP2 PUSH1 0x4 DUP5 ADD SLOAD PUSH1 0x8 SHR AND PUSH1 0x2 DUP2 LT ISZERO PUSH2 0x653 JUMPI PUSH1 0x1 DUP2 EQ DUP1 PUSH2 0x643 JUMPI JUMPDEST ISZERO PUSH2 0x5FF JUMPI POP POP POP POP PUSH2 0x5FC SWAP1 PUSH2 0x1DC5 JUMP JUMPDEST DUP1 RETURN JUMPDEST ISZERO SWAP3 DUP4 PUSH2 0x632 JUMPI JUMPDEST DUP4 PUSH2 0x621 JUMPI JUMPDEST POP POP POP PUSH2 0x618 JUMPI POP DUP1 RETURN JUMPDEST PUSH2 0x5FC SWAP1 PUSH2 0x1B73 JUMP JUMPDEST PUSH1 0x6 ADD SLOAD SWAP1 SHR AND SWAP1 POP CODESIZE DUP1 DUP1 PUSH2 0x60D JUMP JUMPDEST PUSH1 0x6 DUP2 ADD SLOAD PUSH1 0x10 SHR DUP4 AND SWAP4 POP PUSH2 0x607 JUMP JUMPDEST POP DUP3 PUSH1 0x6 DUP6 ADD SLOAD PUSH1 0x10 SHR AND PUSH2 0x5EA JUMP JUMPDEST PUSH4 0x4E487B71 PUSH1 0xE0 SHL DUP7 MSTORE PUSH1 0x21 PUSH1 0x4 MSTORE PUSH1 0x24 DUP7 REVERT JUMPDEST PUSH1 0x40 MLOAD PUSH3 0x461BCD PUSH1 0xE5 SHL DUP2 MSTORE PUSH1 0x4 DUP2 ADD DUP6 SWAP1 MSTORE PUSH1 0x10 PUSH1 0x24 DUP3 ADD MSTORE PUSH16 0x140C48185B1C9958591E481D9BDD1959 PUSH1 0x82 SHL PUSH1 0x44 DUP3 ADD MSTORE PUSH1 0x64 SWAP1 REVERT JUMPDEST PUSH1 0x8 SHR AND PUSH1 0x2 DUP2 LT ISZERO PUSH2 0x79C JUMPI ISZERO SWAP1 DUP2 PUSH2 0x78C JUMPI JUMPDEST POP ISZERO PUSH2 0x758 JUMPI PUSH1 0x6 ADD DUP3 DUP2 SLOAD DUP6 SHR AND PUSH2 0x720 JUMPI DUP1 SLOAD PUSH5 0xFFFF000000 NOT AND PUSH4 0xFF000000 SWAP3 ISZERO ISZERO PUSH1 0x18 DUP2 SWAP1 SHL SWAP4 SWAP1 SWAP4 AND OR PUSH5 0x100000000 OR SWAP1 SSTORE PUSH1 0x40 MLOAD SWAP1 DUP2 MSTORE CALLER SWAP1 DUP5 SWAP1 PUSH32 0xA116A5D3AAE66533A57997D2090970991738695337A83A0B490D3A7EA043113C SWAP1 DUP6 SWAP1 LOG3 PUSH2 0x5C2 JUMP JUMPDEST PUSH1 0x40 MLOAD PUSH3 0x461BCD PUSH1 0xE5 SHL DUP2 MSTORE PUSH1 0x4 DUP2 ADD DUP6 SWAP1 MSTORE PUSH1 0x10 PUSH1 0x24 DUP3 ADD MSTORE PUSH16 0x140C88185B1C9958591E481D9BDD1959 PUSH1 0x82 SHL PUSH1 0x44 DUP3 ADD MSTORE PUSH1 0x64 SWAP1 REVERT JUMPDEST PUSH1 0x40 MLOAD PUSH3 0x461BCD PUSH1 0xE5 SHL DUP2 MSTORE PUSH1 0x4 DUP2 ADD DUP6 SWAP1 MSTORE PUSH1 0xC PUSH1 0x24 DUP3 ADD MSTORE PUSH12 0x2737BA103090383630BCB2B9 PUSH1 0xA1 SHL PUSH1 0x44 DUP3 ADD MSTORE PUSH1 0x64 SWAP1 REVERT JUMPDEST SWAP1 POP PUSH1 0x1 DUP3 ADD SLOAD AND CALLER EQ CODESIZE PUSH2 0x6B4 JUMP JUMPDEST PUSH4 0x4E487B71 PUSH1 0xE0 SHL DUP9 MSTORE PUSH1 0x21 PUSH1 0x4 MSTORE PUSH1 0x24 DUP9 REVERT JUMPDEST POP CALLVALUE PUSH2 0x321 JUMPI DUP1 PUSH1 0x3 NOT CALLDATASIZE ADD SLT PUSH2 0x321 JUMPI CALLER DUP2 MSTORE PUSH1 0x1 PUSH1 0x20 MSTORE PUSH1 0x40 DUP2 KECCAK256 SLOAD DUP1 ISZERO PUSH2 0x85E JUMPI CALLER DUP3 MSTORE PUSH1 0x1 PUSH1 0x20 MSTORE DUP2 PUSH1 0x40 DUP2 KECCAK256 SSTORE DUP2 DUP1 DUP1 DUP1 DUP5 CALLER GAS CALL PUSH2 0x7F2 PUSH2 0x1AE7 JUMP JUMPDEST POP ISZERO PUSH2 0x827 JUMPI PUSH1 0x40 MLOAD SWAP1 DUP2 MSTORE PUSH32 0x1A31E733A172AFCF46074B3106C17F0C298E226442682A03C1E99CE256139EC2 PUSH1 0x20 CALLER SWAP3 LOG2 DUP1 RETURN JUMPDEST PUSH1 0x40 MLOAD PUSH3 0x461BCD PUSH1 0xE5 SHL DUP2 MSTORE PUSH1 0x20 PUSH1 0x4 DUP3 ADD MSTORE PUSH1 0xF PUSH1 0x24 DUP3 ADD MSTORE PUSH15 0x1D1C985B9CD9995C8819985A5B1959 PUSH1 0x8A SHL PUSH1 0x44 DUP3 ADD MSTORE PUSH1 0x64 SWAP1 REVERT JUMPDEST PUSH1 0x40 MLOAD PUSH3 0x461BCD PUSH1 0xE5 SHL DUP2 MSTORE PUSH1 0x20 PUSH1 0x4 DUP3 ADD MSTORE PUSH1 0x10 PUSH1 0x24 DUP3 ADD MSTORE PUSH16 0x4E6F7468696E6720746F20636C61696D PUSH1 0x80 SHL PUSH1 0x44 DUP3 ADD MSTORE PUSH1 0x64 SWAP1 REVERT JUMPDEST POP CALLVALUE PUSH2 0x321 JUMPI DUP1 PUSH1 0x3 NOT CALLDATASIZE ADD SLT PUSH2 0x321 JUMPI PUSH1 0x20 PUSH1 0x40 MLOAD PUSH1 0xA DUP2 MSTORE RETURN JUMPDEST POP CALLVALUE PUSH2 0x321 JUMPI DUP1 PUSH1 0x3 NOT CALLDATASIZE ADD SLT PUSH2 0x321 JUMPI PUSH1 0x20 PUSH1 0x40 MLOAD PUSH1 0x64 DUP2 MSTORE RETURN JUMPDEST POP CALLVALUE PUSH2 0x321 JUMPI DUP1 PUSH1 0x3 NOT CALLDATASIZE ADD SLT PUSH2 0x321 JUMPI PUSH1 0x3 SLOAD PUSH1 0x40 MLOAD PUSH1 0x1 PUSH1 0x1 PUSH1 0xA0 SHL SUB SWAP1 SWAP2 AND DUP2 MSTORE PUSH1 0x20 SWAP1 RETURN JUMPDEST POP DUP1 PUSH1 0x3 NOT CALLDATASIZE ADD SLT PUSH2 0x321 JUMPI PUSH2 0x90E CALLVALUE ISZERO ISZERO PUSH2 0x193A JUMP JUMPDEST PUSH1 0x2 SLOAD SWAP1 PUSH1 0x40 MLOAD SWAP2 PUSH2 0x91F DUP4 PUSH2 0x1807 JUMP JUMPDEST CALLER DUP4 MSTORE DUP2 PUSH1 0x20 DUP5 ADD MSTORE DUP2 PUSH1 0x40 DUP5 ADD MSTORE CALLVALUE PUSH1 0x60 DUP5 ADD MSTORE DUP2 PUSH1 0x80 DUP5 ADD MSTORE DUP2 PUSH1 0xA0 DUP5 ADD MSTORE DUP2 PUSH1 0xC0 DUP5 ADD MSTORE TIMESTAMP PUSH1 0xE0 DUP5 ADD MSTORE DUP2 PUSH2 0x100 DUP5 ADD MSTORE DUP2 PUSH2 0x120 DUP5 ADD MSTORE DUP2 PUSH2 0x140 DUP5 ADD MSTORE DUP2 PUSH2 0x160 DUP5 ADD MSTORE DUP2 PUSH2 0x180 DUP5 ADD MSTORE DUP2 PUSH2 0x1A0 DUP5 ADD MSTORE PUSH1 0x40 MLOAD PUSH2 0x982 DUP2 PUSH2 0x184E JUMP JUMPDEST DUP3 DUP2 MSTORE PUSH2 0x1C0 DUP5 ADD MSTORE DUP1 DUP3 MSTORE PUSH1 0x20 DUP3 DUP2 MSTORE PUSH1 0x40 DUP1 DUP5 KECCAK256 DUP6 MLOAD DUP2 SLOAD PUSH1 0x1 PUSH1 0x1 PUSH1 0xA0 SHL SUB NOT SWAP1 DUP2 AND PUSH1 0x1 PUSH1 0x1 PUSH1 0xA0 SHL SUB SWAP3 DUP4 AND OR DUP4 SSTORE SWAP4 DUP8 ADD MLOAD PUSH1 0x1 DUP4 ADD DUP1 SLOAD SWAP1 SWAP6 AND SWAP2 AND OR SWAP1 SWAP3 SSTORE DUP5 ADD MLOAD PUSH1 0x2 DUP3 ADD SSTORE PUSH1 0x60 DUP5 ADD MLOAD PUSH1 0x3 DUP1 DUP4 ADD SWAP2 SWAP1 SWAP2 SSTORE PUSH1 0x80 DUP6 ADD MLOAD PUSH1 0x4 DUP4 ADD SWAP2 DUP2 LT ISZERO PUSH2 0xC0C JUMPI PUSH2 0x9FA SWAP1 DUP3 PUSH2 0x1993 JUMP JUMPDEST PUSH1 0xA0 DUP6 ADD MLOAD PUSH1 0x2 DUP2 LT ISZERO PUSH2 0xC0C JUMPI DUP2 SLOAD PUSH1 0xC0 DUP8 ADD MLOAD PUSH2 0x100 PUSH1 0x1 PUSH1 0xB0 SHL SUB NOT SWAP1 SWAP2 AND PUSH1 0x8 SWAP3 DUP4 SHL PUSH2 0xFF00 AND OR PUSH1 0x10 SWAP2 SWAP1 SWAP2 SHL PUSH3 0x10000 PUSH1 0x1 PUSH1 0xB0 SHL SUB AND OR SWAP1 SWAP2 SSTORE PUSH2 0x1C0 SWAP2 PUSH1 0xE0 DUP7 ADD MLOAD PUSH1 0x5 DUP3 ADD SSTORE PUSH2 0x100 DUP7 ADD MLOAD PUSH1 0x6 DUP3 ADD DUP1 SLOAD PUSH2 0x120 DUP10 ADD MLOAD PUSH2 0xFF00 SWAP1 ISZERO ISZERO PUSH1 0x8 SHL AND SWAP3 ISZERO ISZERO PUSH1 0xFF AND PUSH2 0xFFFF NOT SWAP1 SWAP2 AND OR SWAP2 SWAP1 SWAP2 OR DUP2 SSTORE PUSH2 0xADA SWAP1 JUMPDEST PUSH2 0x140 DUP9 ADD MLOAD DUP2 SLOAD PUSH3 0xFF0000 NOT AND SWAP1 ISZERO ISZERO PUSH1 0x10 SHL PUSH3 0xFF0000 AND OR DUP2 SSTORE PUSH2 0x160 DUP9 ADD MLOAD DUP2 SLOAD PUSH4 0xFF000000 NOT AND SWAP1 ISZERO ISZERO PUSH1 0x18 SHL PUSH4 0xFF000000 AND OR DUP2 SSTORE PUSH2 0x180 DUP9 ADD MLOAD DUP2 SLOAD PUSH5 0xFF00000000 NOT AND SWAP1 ISZERO ISZERO PUSH1 0x20 SHL PUSH5 0xFF00000000 AND OR SWAP1 SSTORE JUMP JUMPDEST PUSH2 0x1A0 DUP7 ADD MLOAD PUSH1 0x7 DUP3 ADD SSTORE ADD SWAP4 ADD MLOAD SWAP3 DUP4 MLOAD PUSH8 0xFFFFFFFFFFFFFFFF DUP2 GT PUSH2 0xBF8 JUMPI PUSH2 0xB0F DUP2 PUSH2 0xB09 DUP5 SLOAD PUSH2 0x17CD JUMP JUMPDEST DUP5 PUSH2 0x19C1 JUMP JUMPDEST PUSH1 0x20 SWAP5 PUSH1 0x1F DUP3 GT PUSH1 0x1 EQ PUSH2 0xB95 JUMPI DUP5 SWAP6 DUP3 SWAP2 PUSH2 0xB42 SWAP5 SWAP6 SWAP7 SWAP3 PUSH2 0xB8A JUMPI JUMPDEST POP POP DUP2 PUSH1 0x1 SHL SWAP2 PUSH1 0x0 NOT SWAP1 PUSH1 0x3 SHL SHR NOT AND OR SWAP1 JUMP JUMPDEST SWAP1 SSTORE JUMPDEST PUSH1 0x40 MLOAD SWAP1 CALLVALUE DUP3 MSTORE PUSH1 0x0 PUSH1 0x20 DUP4 ADD MSTORE PUSH32 0x79CFCF64EE95F2F8FBDA0BD025831724360C020432615F28AAC21F03081E3DB7 PUSH1 0x40 CALLER SWAP4 LOG3 PUSH2 0xB84 PUSH1 0x2 SLOAD PUSH2 0x1A17 JUMP JUMPDEST PUSH1 0x2 SSTORE DUP1 RETURN JUMPDEST ADD MLOAD SWAP1 POP CODESIZE DUP1 PUSH2 0xB2D JUMP JUMPDEST PUSH1 0x1F NOT DUP3 AND SWAP6 DUP4 DUP7 MSTORE PUSH1 0x20 DUP7 KECCAK256 SWAP2 DUP7 JUMPDEST DUP9 DUP2 LT PUSH2 0xBE0 JUMPI POP DUP4 PUSH1 0x1 SWAP6 SWAP7 SWAP8 SWAP9 LT PUSH2 0xBC7 JUMPI JUMPDEST POP POP POP DUP2 SHL ADD SWAP1 SSTORE PUSH2 0xB45 JUMP JUMPDEST ADD MLOAD PUSH1 0x0 NOT PUSH1 0xF8 DUP5 PUSH1 0x3 SHL AND SHR NOT AND SWAP1 SSTORE CODESIZE DUP1 DUP1 PUSH2 0xBBA JUMP JUMPDEST SWAP2 SWAP3 PUSH1 0x20 PUSH1 0x1 DUP2 SWAP3 DUP7 DUP6 ADD MLOAD DUP2 SSTORE ADD SWAP5 ADD SWAP3 ADD PUSH2 0xBA5 JUMP JUMPDEST PUSH4 0x4E487B71 PUSH1 0xE0 SHL DUP5 MSTORE PUSH1 0x41 PUSH1 0x4 MSTORE PUSH1 0x24 DUP5 REVERT JUMPDEST PUSH4 0x4E487B71 PUSH1 0xE0 SHL DUP6 MSTORE PUSH1 0x21 PUSH1 0x4 MSTORE PUSH1 0x24 DUP6 REVERT JUMPDEST POP CALLVALUE PUSH2 0x321 JUMPI PUSH1 0xA0 CALLDATASIZE PUSH1 0x3 NOT ADD SLT PUSH2 0x321 JUMPI PUSH2 0xC3A PUSH2 0x188C JUMP JUMPDEST PUSH8 0xFFFFFFFFFFFFFFFF PUSH1 0x44 CALLDATALOAD DUP2 DUP2 GT PUSH2 0x1010 JUMPI PUSH2 0xC5B SWAP1 CALLDATASIZE SWAP1 PUSH1 0x4 ADD PUSH2 0x189B JUMP JUMPDEST SWAP1 SWAP2 PUSH1 0x64 CALLDATALOAD ISZERO ISZERO PUSH1 0x64 CALLDATALOAD SUB PUSH2 0x100B JUMPI PUSH1 0x84 CALLDATALOAD SWAP1 DUP2 GT PUSH2 0x31D JUMPI PUSH2 0xC82 SWAP1 CALLDATASIZE SWAP1 PUSH1 0x4 ADD PUSH2 0x189B JUMP JUMPDEST PUSH1 0x4 SLOAD PUSH1 0x1 PUSH1 0x1 PUSH1 0xA0 SHL SUB AND SWAP4 SWAP2 PUSH2 0xC9B CALLER DUP7 EQ PUSH2 0x1A3C JUMP JUMPDEST PUSH1 0x4 CALLDATALOAD DUP8 MSTORE DUP7 PUSH1 0x20 MSTORE PUSH1 0x40 DUP8 KECCAK256 SWAP4 PUSH1 0x4 DUP6 ADD SLOAD SWAP4 PUSH1 0xFF DUP6 AND PUSH1 0x3 DUP2 LT ISZERO PUSH2 0xFF7 JUMPI PUSH1 0x1 PUSH2 0xCC8 SWAP2 EQ PUSH2 0x1A77 JUMP JUMPDEST PUSH1 0x6 DUP7 ADD SLOAD PUSH1 0xFF DUP2 PUSH1 0x10 SHR AND ISZERO SWAP1 DUP2 PUSH2 0xFE8 JUMPI JUMPDEST POP ISZERO PUSH2 0xFB3 JUMPI PUSH2 0xD75 SWAP2 PUSH2 0xD66 PUSH2 0xD6C SWAP3 DUP11 PUSH1 0x40 MLOAD PUSH2 0xD31 DUP2 PUSH2 0xD23 PUSH1 0x20 DUP3 ADD SWAP5 PUSH1 0x4 CALLDATALOAD DUP7 SWAP1 SWAP2 PUSH1 0x25 SWAP3 DUP3 MSTORE ISZERO ISZERO PUSH1 0xF8 SHL PUSH1 0x20 DUP3 ADD MSTORE PUSH4 0x564F5445 PUSH1 0xE0 SHL PUSH1 0x21 DUP3 ADD MSTORE ADD SWAP1 JUMP JUMPDEST SUB PUSH1 0x1F NOT DUP2 ADD DUP4 MSTORE DUP3 PUSH2 0x186A JUMP JUMPDEST MLOAD SWAP1 KECCAK256 PUSH32 0x19457468657265756D205369676E6564204D6573736167653A0A333200000000 DUP14 MSTORE PUSH1 0x1C MSTORE PUSH1 0x3C DUP13 KECCAK256 SWAP3 CALLDATASIZE SWAP2 PUSH2 0x1AB0 JUMP JUMPDEST SWAP1 PUSH2 0x20A4 JUMP JUMPDEST SWAP1 SWAP3 SWAP2 SWAP3 PUSH2 0x20E0 JUMP JUMPDEST DUP5 SLOAD PUSH1 0x1 PUSH1 0x1 PUSH1 0xA0 SHL SUB SWAP1 DUP2 AND SWAP2 AND SUB PUSH2 0xF7D JUMPI PUSH2 0xE01 SWAP2 PUSH2 0xD66 PUSH2 0xD6C SWAP3 PUSH1 0x40 MLOAD PUSH1 0x20 DUP2 ADD SWAP1 PUSH2 0xDCC DUP2 PUSH2 0xD23 PUSH1 0x64 CALLDATALOAD PUSH1 0x4 CALLDATALOAD DUP7 SWAP1 SWAP2 PUSH1 0x25 SWAP3 DUP3 MSTORE ISZERO ISZERO PUSH1 0xF8 SHL PUSH1 0x20 DUP3 ADD MSTORE PUSH4 0x564F5445 PUSH1 0xE0 SHL PUSH1 0x21 DUP3 ADD MSTORE ADD SWAP1 JUMP JUMPDEST MLOAD SWAP1 KECCAK256 PUSH32 0x19457468657265756D205369676E6564204D6573736167653A0A333200000000 DUP12 MSTORE PUSH1 0x1C MSTORE PUSH1 0x3C DUP11 KECCAK256 SWAP3 CALLDATASIZE SWAP2 PUSH2 0x1AB0 JUMP JUMPDEST PUSH1 0x1 DUP4 ADD DUP1 SLOAD SWAP1 SWAP5 PUSH1 0x1 PUSH1 0x1 PUSH1 0xA0 SHL SUB SWAP3 DUP4 AND SWAP3 SWAP1 SWAP2 AND DUP3 EQ SWAP3 DUP4 ISZERO PUSH2 0xF4C JUMPI JUMPDEST POP POP POP ISZERO PUSH2 0xF16 JUMPI PUSH1 0x6 DUP2 ADD DUP1 SLOAD PUSH5 0x100000000 SWAP5 ISZERO ISZERO PUSH1 0x8 DUP2 SWAP1 SHL PUSH2 0xFF00 AND PUSH4 0xFFFFFF00 NOT SWAP1 SWAP3 AND SWAP2 SWAP1 SWAP2 OR PUSH1 0x64 CALLDATALOAD ISZERO ISZERO PUSH1 0x18 SHL PUSH4 0xFF000000 AND OR PUSH3 0x10000 OR PUSH5 0xFF00000000 NOT AND SWAP5 SWAP1 SWAP5 OR SWAP1 SSTORE DUP1 SLOAD PUSH1 0x40 MLOAD SWAP4 DUP5 MSTORE PUSH1 0xFF SWAP4 PUSH1 0x4 SWAP4 PUSH32 0xA116A5D3AAE66533A57997D2090970991738695337A83A0B490D3A7EA043113C SWAP3 SWAP1 SWAP2 PUSH1 0x1 PUSH1 0x1 PUSH1 0xA0 SHL SUB SWAP1 SWAP2 AND SWAP1 DUP6 CALLDATALOAD SWAP1 DUP5 SWAP1 PUSH1 0x20 SWAP1 LOG3 SLOAD PUSH1 0x40 MLOAD PUSH1 0x64 CALLDATALOAD ISZERO ISZERO DUP2 MSTORE PUSH1 0x1 PUSH1 0x1 PUSH1 0xA0 SHL SUB SWAP1 SWAP2 AND SWAP2 DUP5 CALLDATALOAD SWAP2 PUSH1 0x20 SWAP1 LOG3 ADD SLOAD PUSH1 0x8 SHR AND PUSH1 0x2 DUP2 LT ISZERO PUSH2 0xF02 JUMPI PUSH1 0x1 SUB PUSH2 0xEF7 JUMPI PUSH2 0x5FC PUSH1 0x4 CALLDATALOAD PUSH2 0x1DC5 JUMP JUMPDEST PUSH2 0x5FC PUSH1 0x4 CALLDATALOAD PUSH2 0x1B73 JUMP JUMPDEST PUSH4 0x4E487B71 PUSH1 0xE0 SHL DUP3 MSTORE PUSH1 0x21 PUSH1 0x4 MSTORE PUSH1 0x24 DUP3 REVERT JUMPDEST PUSH1 0x40 MLOAD PUSH3 0x461BCD PUSH1 0xE5 SHL DUP2 MSTORE PUSH1 0x20 PUSH1 0x4 DUP3 ADD MSTORE PUSH1 0xE PUSH1 0x24 DUP3 ADD MSTORE PUSH14 0x496E76616C696420503220736967 PUSH1 0x90 SHL PUSH1 0x44 DUP3 ADD MSTORE PUSH1 0x64 SWAP1 REVERT JUMPDEST PUSH1 0xFF SWAP2 SWAP3 SWAP4 POP PUSH1 0x8 SHR AND PUSH1 0x2 DUP2 LT ISZERO PUSH2 0x453 JUMPI PUSH1 0x1 EQ SWAP2 DUP3 PUSH2 0xF73 JUMPI JUMPDEST POP POP CODESIZE DUP1 DUP1 PUSH2 0xE22 JUMP JUMPDEST EQ SWAP1 POP CODESIZE DUP1 PUSH2 0xF69 JUMP JUMPDEST PUSH1 0x40 MLOAD PUSH3 0x461BCD PUSH1 0xE5 SHL DUP2 MSTORE PUSH1 0x20 PUSH1 0x4 DUP3 ADD MSTORE PUSH1 0xE PUSH1 0x24 DUP3 ADD MSTORE PUSH14 0x496E76616C696420503120736967 PUSH1 0x90 SHL PUSH1 0x44 DUP3 ADD MSTORE PUSH1 0x64 SWAP1 REVERT JUMPDEST PUSH1 0x40 MLOAD PUSH3 0x461BCD PUSH1 0xE5 SHL DUP2 MSTORE PUSH1 0x20 PUSH1 0x4 DUP3 ADD MSTORE PUSH1 0xD PUSH1 0x24 DUP3 ADD MSTORE PUSH13 0x105B1C9958591E481D9BDD1959 PUSH1 0x9A SHL PUSH1 0x44 DUP3 ADD MSTORE PUSH1 0x64 SWAP1 REVERT JUMPDEST PUSH1 0xFF SWAP2 POP PUSH1 0x20 SHR AND ISZERO CODESIZE PUSH2 0xCDC JUMP JUMPDEST PUSH4 0x4E487B71 PUSH1 0xE0 SHL DUP11 MSTORE PUSH1 0x21 PUSH1 0x4 MSTORE PUSH1 0x24 DUP11 REVERT JUMPDEST PUSH1 0x0 DUP1 REVERT JUMPDEST DUP4 DUP1 REVERT JUMPDEST POP CALLVALUE PUSH2 0x321 JUMPI DUP1 PUSH1 0x3 NOT CALLDATASIZE ADD SLT PUSH2 0x321 JUMPI PUSH1 0x20 PUSH1 0x40 MLOAD PUSH1 0xBE DUP2 MSTORE RETURN JUMPDEST POP CALLVALUE PUSH2 0x321 JUMPI PUSH1 0x20 CALLDATASIZE PUSH1 0x3 NOT ADD SLT PUSH2 0x321 JUMPI PUSH1 0x4 CALLDATALOAD PUSH1 0x1 PUSH1 0x1 PUSH1 0xA0 SHL SUB DUP2 DUP2 AND SWAP2 DUP3 SWAP1 SUB PUSH2 0x4FC JUMPI PUSH2 0x1067 SWAP1 PUSH1 0x3 SLOAD AND CALLER EQ PUSH2 0x18C9 JUMP JUMPDEST PUSH2 0x1072 DUP2 ISZERO ISZERO PUSH2 0x1902 JUMP JUMPDEST PUSH1 0x1 PUSH1 0x1 PUSH1 0x60 SHL SUB PUSH1 0xA0 SHL PUSH1 0x4 SLOAD AND OR PUSH1 0x4 SSTORE DUP1 RETURN JUMPDEST POP CALLVALUE PUSH2 0x321 JUMPI DUP1 PUSH1 0x3 NOT CALLDATASIZE ADD SLT PUSH2 0x321 JUMPI PUSH1 0x20 PUSH1 0x2 SLOAD PUSH1 0x40 MLOAD SWAP1 DUP2 MSTORE RETURN JUMPDEST POP CALLVALUE PUSH2 0x321 JUMPI DUP1 PUSH1 0x3 NOT CALLDATASIZE ADD SLT PUSH2 0x321 JUMPI PUSH1 0x5 SLOAD PUSH1 0x40 MLOAD PUSH1 0x1 PUSH1 0x1 PUSH1 0xA0 SHL SUB SWAP1 SWAP2 AND DUP2 MSTORE PUSH1 0x20 SWAP1 RETURN JUMPDEST POP PUSH1 0x20 CALLDATASIZE PUSH1 0x3 NOT ADD SLT PUSH2 0x321 JUMPI PUSH2 0x10E7 CALLVALUE ISZERO ISZERO PUSH2 0x193A JUMP JUMPDEST PUSH1 0x5 SLOAD PUSH1 0x1 PUSH1 0x1 PUSH1 0xA0 SHL SUB AND SWAP1 DUP2 ISZERO PUSH2 0x14F2 JUMPI PUSH1 0x40 MLOAD PUSH4 0x19ADC103 PUSH1 0xE3 SHL DUP2 MSTORE PUSH1 0x4 DUP1 CALLDATALOAD SWAP1 DUP3 ADD MSTORE CALLVALUE PUSH1 0x24 DUP3 ADD MSTORE PUSH1 0x20 DUP2 PUSH1 0x44 DUP2 DUP7 GAS STATICCALL SWAP1 DUP2 ISZERO PUSH2 0x13E6 JUMPI DUP3 SWAP2 PUSH2 0x14B7 JUMPI JUMPDEST POP ISZERO PUSH2 0x147C JUMPI PUSH1 0x2 SLOAD SWAP1 PUSH1 0x40 MLOAD SWAP3 PUSH2 0x1143 DUP5 PUSH2 0x1807 JUMP JUMPDEST CALLER DUP5 MSTORE PUSH1 0x20 DUP5 ADD MSTORE PUSH1 0x4 CALLDATALOAD PUSH1 0x40 DUP5 ADD MSTORE CALLVALUE PUSH1 0x60 DUP5 ADD MSTORE PUSH1 0x1 PUSH1 0x80 DUP5 ADD MSTORE PUSH1 0x1 PUSH1 0xA0 DUP5 ADD MSTORE DUP1 PUSH1 0xC0 DUP5 ADD MSTORE TIMESTAMP PUSH1 0xE0 DUP5 ADD MSTORE PUSH1 0x1 PUSH2 0x100 DUP5 ADD MSTORE DUP1 PUSH2 0x120 DUP5 ADD MSTORE DUP1 PUSH2 0x140 DUP5 ADD MSTORE DUP1 PUSH2 0x160 DUP5 ADD MSTORE DUP1 PUSH2 0x180 DUP5 ADD MSTORE DUP1 PUSH2 0x1A0 DUP5 ADD MSTORE PUSH1 0x40 MLOAD PUSH2 0x11AA DUP2 PUSH2 0x184E JUMP JUMPDEST DUP2 DUP2 MSTORE PUSH2 0x1C0 DUP5 ADD MSTORE DUP2 DUP2 MSTORE PUSH1 0x20 DUP2 DUP2 MSTORE PUSH1 0x40 DUP1 DUP4 KECCAK256 DUP6 MLOAD DUP2 SLOAD PUSH1 0x1 PUSH1 0x1 PUSH1 0xA0 SHL SUB NOT SWAP1 DUP2 AND PUSH1 0x1 PUSH1 0x1 PUSH1 0xA0 SHL SUB SWAP3 DUP4 AND OR DUP4 SSTORE SWAP4 DUP8 ADD MLOAD PUSH1 0x1 DUP4 ADD DUP1 SLOAD SWAP1 SWAP6 AND SWAP2 AND OR SWAP1 SWAP3 SSTORE DUP5 ADD MLOAD PUSH1 0x2 DUP3 ADD SSTORE PUSH1 0x60 DUP5 ADD MLOAD PUSH1 0x3 DUP1 DUP4 ADD SWAP2 SWAP1 SWAP2 SSTORE PUSH1 0x80 DUP6 ADD MLOAD PUSH1 0x4 DUP4 ADD SWAP2 DUP2 LT ISZERO PUSH2 0x1468 JUMPI PUSH2 0x1222 SWAP1 DUP3 PUSH2 0x1993 JUMP JUMPDEST PUSH1 0xA0 DUP6 ADD MLOAD PUSH1 0x2 DUP2 LT ISZERO PUSH2 0x1468 JUMPI DUP2 SLOAD PUSH1 0xC0 DUP8 ADD MLOAD PUSH2 0x100 PUSH1 0x1 PUSH1 0xB0 SHL SUB NOT SWAP1 SWAP2 AND PUSH1 0x8 SWAP3 DUP4 SHL PUSH2 0xFF00 AND OR PUSH1 0x10 SWAP2 SWAP1 SWAP2 SHL PUSH3 0x10000 PUSH1 0x1 PUSH1 0xB0 SHL SUB AND OR SWAP1 SWAP2 SSTORE PUSH2 0x1C0 SWAP2 PUSH1 0xE0 DUP7 ADD MLOAD PUSH1 0x5 DUP3 ADD SSTORE PUSH2 0x100 DUP7 ADD MLOAD PUSH1 0x6 DUP3 ADD DUP1 SLOAD PUSH2 0x120 DUP10 ADD MLOAD PUSH2 0xFF00 SWAP1 ISZERO ISZERO PUSH1 0x8 SHL AND SWAP3 ISZERO ISZERO PUSH1 0xFF AND PUSH2 0xFFFF NOT SWAP1 SWAP2 AND OR SWAP2 SWAP1 SWAP2 OR DUP2 SSTORE PUSH2 0x12AA SWAP1 PUSH2 0xA7E JUMP JUMPDEST PUSH2 0x1A0 DUP7 ADD MLOAD PUSH1 0x7 DUP3 ADD SSTORE ADD SWAP4 ADD MLOAD SWAP3 DUP4 MLOAD PUSH8 0xFFFFFFFFFFFFFFFF DUP2 GT PUSH2 0x1454 JUMPI PUSH2 0x12D9 DUP2 PUSH2 0xB09 DUP5 SLOAD PUSH2 0x17CD JUMP JUMPDEST PUSH1 0x20 SWAP5 PUSH1 0x1F DUP3 GT PUSH1 0x1 EQ PUSH2 0x13F1 JUMPI DUP4 SWAP5 SWAP6 DUP3 SWAP2 PUSH2 0x130B SWAP5 SWAP6 SWAP3 PUSH2 0xB8A JUMPI POP POP DUP2 PUSH1 0x1 SHL SWAP2 PUSH1 0x0 NOT SWAP1 PUSH1 0x3 SHL SHR NOT AND OR SWAP1 JUMP JUMPDEST SWAP1 SSTORE JUMPDEST PUSH2 0x1319 PUSH1 0x2 SLOAD PUSH2 0x1A17 JUMP JUMPDEST PUSH1 0x2 SSTORE PUSH1 0x5 SLOAD PUSH1 0x1 PUSH1 0x1 PUSH1 0xA0 SHL SUB AND DUP1 EXTCODESIZE ISZERO PUSH2 0x467 JUMPI DUP2 DUP1 SWAP2 PUSH1 0x64 PUSH1 0x40 MLOAD DUP1 SWAP5 DUP2 SWAP4 PUSH4 0x9D436921 PUSH1 0xE0 SHL DUP4 MSTORE PUSH1 0x4 CALLDATALOAD PUSH1 0x4 DUP5 ADD MSTORE CALLVALUE PUSH1 0x24 DUP5 ADD MSTORE DUP9 PUSH1 0x44 DUP5 ADD MSTORE GAS CALL DUP1 ISZERO PUSH2 0x13E6 JUMPI PUSH2 0x13D7 JUMPI JUMPDEST POP SWAP1 PUSH1 0x40 MLOAD CALLVALUE DUP2 MSTORE PUSH1 0x1 PUSH1 0x20 DUP3 ADD MSTORE DUP2 PUSH32 0x79CFCF64EE95F2F8FBDA0BD025831724360C020432615F28AAC21F03081E3DB7 PUSH1 0x40 CALLER SWAP4 LOG3 PUSH1 0x1 DUP1 PUSH1 0xA0 SHL SUB PUSH1 0x5 SLOAD AND SWAP1 PUSH32 0x48BBA6A72D4A9FAE48E2469CE99518C38AFEC785FA4F3DF38A1A76B03A979537 PUSH1 0x20 PUSH1 0x40 MLOAD PUSH1 0x4 CALLDATALOAD DUP2 MSTORE LOG3 DUP1 RETURN JUMPDEST PUSH2 0x13E0 SWAP1 PUSH2 0x183A JUMP JUMPDEST CODESIZE PUSH2 0x1366 JUMP JUMPDEST PUSH1 0x40 MLOAD RETURNDATASIZE DUP5 DUP3 RETURNDATACOPY RETURNDATASIZE SWAP1 REVERT JUMPDEST PUSH1 0x1F NOT DUP3 AND SWAP6 DUP4 DUP6 MSTORE PUSH1 0x20 DUP6 KECCAK256 SWAP2 DUP6 JUMPDEST DUP9 DUP2 LT PUSH2 0x143C JUMPI POP DUP4 PUSH1 0x1 SWAP6 SWAP7 SWAP8 SWAP9 LT PUSH2 0x1423 JUMPI JUMPDEST POP POP POP DUP2 SHL ADD SWAP1 SSTORE PUSH2 0x130E JUMP JUMPDEST ADD MLOAD PUSH1 0x0 NOT PUSH1 0xF8 DUP5 PUSH1 0x3 SHL AND SHR NOT AND SWAP1 SSTORE CODESIZE DUP1 DUP1 PUSH2 0x1416 JUMP JUMPDEST SWAP2 SWAP3 PUSH1 0x20 PUSH1 0x1 DUP2 SWAP3 DUP7 DUP6 ADD MLOAD DUP2 SSTORE ADD SWAP5 ADD SWAP3 ADD PUSH2 0x1401 JUMP JUMPDEST PUSH4 0x4E487B71 PUSH1 0xE0 SHL DUP4 MSTORE PUSH1 0x41 PUSH1 0x4 MSTORE PUSH1 0x24 DUP4 REVERT JUMPDEST PUSH4 0x4E487B71 PUSH1 0xE0 SHL DUP5 MSTORE PUSH1 0x21 PUSH1 0x4 MSTORE PUSH1 0x24 DUP5 REVERT JUMPDEST PUSH1 0x40 MLOAD PUSH3 0x461BCD PUSH1 0xE5 SHL DUP2 MSTORE PUSH1 0x20 PUSH1 0x4 DUP3 ADD MSTORE PUSH1 0x13 PUSH1 0x24 DUP3 ADD MSTORE PUSH19 0x109BDD081D985D5B1D081D1BDBC81CDB585B1B PUSH1 0x6A SHL PUSH1 0x44 DUP3 ADD MSTORE PUSH1 0x64 SWAP1 REVERT JUMPDEST SWAP1 POP PUSH1 0x20 DUP2 RETURNDATASIZE PUSH1 0x20 GT PUSH2 0x14EA JUMPI JUMPDEST DUP2 PUSH2 0x14D2 PUSH1 0x20 SWAP4 DUP4 PUSH2 0x186A JUMP JUMPDEST DUP2 ADD SUB SLT PUSH2 0x467 JUMPI MLOAD DUP1 ISZERO ISZERO DUP2 SUB PUSH2 0x467 JUMPI CODESIZE PUSH2 0x112C JUMP JUMPDEST RETURNDATASIZE SWAP2 POP PUSH2 0x14C5 JUMP JUMPDEST PUSH1 0x40 MLOAD PUSH3 0x461BCD PUSH1 0xE5 SHL DUP2 MSTORE PUSH1 0x20 PUSH1 0x4 DUP3 ADD MSTORE PUSH1 0xF PUSH1 0x24 DUP3 ADD MSTORE PUSH15 0x109BDD12539195081B9BDD081CD95D PUSH1 0x8A SHL PUSH1 0x44 DUP3 ADD MSTORE PUSH1 0x64 SWAP1 REVERT JUMPDEST POP CALLVALUE PUSH2 0x321 JUMPI DUP1 PUSH1 0x3 NOT CALLDATASIZE ADD SLT PUSH2 0x321 JUMPI PUSH1 0x20 PUSH1 0x40 MLOAD PUSH1 0x5 DUP2 MSTORE RETURN JUMPDEST POP CALLVALUE PUSH2 0x321 JUMPI PUSH1 0x20 CALLDATASIZE PUSH1 0x3 NOT ADD SLT PUSH2 0x321 JUMPI PUSH1 0x4 CALLDATALOAD DUP2 MSTORE DUP1 PUSH1 0x20 MSTORE PUSH1 0x40 DUP2 KECCAK256 SWAP1 PUSH1 0x1 DUP1 PUSH1 0xA0 SHL SUB DUP3 SLOAD AND SWAP2 PUSH1 0x1 DUP1 PUSH1 0xA0 SHL SUB PUSH1 0x1 DUP3 ADD SLOAD AND SWAP1 PUSH1 0x2 DUP2 ADD SLOAD PUSH1 0x3 DUP3 ADD SLOAD PUSH1 0x4 DUP4 ADD SLOAD PUSH1 0x5 DUP5 ADD SLOAD SWAP2 PUSH1 0x6 DUP6 ADD SLOAD SWAP4 PUSH1 0x8 PUSH1 0x7 DUP8 ADD SLOAD SWAP7 ADD SWAP7 PUSH1 0x40 MLOAD SWAP8 DUP9 DUP11 DUP3 SLOAD SWAP3 PUSH2 0x15B5 DUP5 PUSH2 0x17CD JUMP JUMPDEST DUP1 DUP5 MSTORE SWAP4 PUSH1 0x1 DUP2 AND SWAP1 DUP2 ISZERO PUSH2 0x1712 JUMPI POP PUSH1 0x1 EQ PUSH2 0x16D2 JUMPI JUMPDEST POP PUSH2 0x15DA SWAP3 POP SUB DUP10 PUSH2 0x186A JUMP JUMPDEST PUSH1 0x40 MLOAD SWAP10 DUP11 MSTORE PUSH1 0x20 DUP11 ADD MSTORE PUSH1 0x40 DUP10 ADD MSTORE PUSH1 0x60 DUP9 ADD MSTORE PUSH1 0x3 PUSH1 0xFF DUP3 AND LT ISZERO PUSH2 0x653 JUMPI PUSH1 0xFF DUP2 AND PUSH1 0x80 DUP9 ADD MSTORE PUSH1 0x2 PUSH1 0xFF DUP3 PUSH1 0x8 SHR AND LT ISZERO PUSH2 0x653 JUMPI SWAP2 PUSH1 0xFF SWAP2 DUP4 DUP4 DUP10 SWAP8 SWAP7 SWAP6 PUSH1 0x8 SHR AND PUSH1 0xA0 DUP9 ADD MSTORE PUSH1 0x1 DUP1 PUSH1 0xA0 SHL SUB SWAP1 PUSH1 0x10 SHR AND PUSH1 0xC0 DUP8 ADD MSTORE PUSH1 0xE0 DUP7 ADD MSTORE DUP2 DUP2 AND ISZERO ISZERO PUSH2 0x100 DUP7 ADD MSTORE DUP2 DUP2 PUSH1 0x8 SHR AND ISZERO ISZERO PUSH2 0x120 DUP7 ADD MSTORE DUP2 DUP2 PUSH1 0x10 SHR AND ISZERO ISZERO PUSH2 0x140 DUP7 ADD MSTORE DUP2 DUP2 PUSH1 0x18 SHR AND ISZERO ISZERO PUSH2 0x160 DUP7 ADD MSTORE PUSH1 0x20 SHR AND ISZERO ISZERO PUSH2 0x180 DUP5 ADD MSTORE PUSH2 0x1A0 DUP4 ADD MSTORE PUSH2 0x1E0 PUSH2 0x1C0 DUP4 ADD MSTORE DUP1 MLOAD SWAP1 DUP2 PUSH2 0x1E0 DUP5 ADD MSTORE DUP4 JUMPDEST DUP3 DUP2 LT PUSH2 0x16B9 JUMPI POP POP PUSH2 0x200 SWAP3 DUP4 DUP3 DUP5 ADD ADD MSTORE PUSH1 0x1F DUP1 NOT SWAP2 ADD AND DUP2 ADD SUB ADD SWAP1 RETURN JUMPDEST PUSH1 0x20 DUP3 DUP3 ADD DUP2 ADD MLOAD PUSH2 0x200 DUP9 DUP5 ADD ADD MSTORE DUP7 SWAP5 POP ADD PUSH2 0x1698 JUMP JUMPDEST DUP13 MSTORE POP PUSH1 0x20 DUP12 KECCAK256 SWAP1 SWAP2 DUP12 SWAP2 JUMPDEST DUP2 DUP4 LT PUSH2 0x16F7 JUMPI POP POP SWAP1 PUSH1 0x20 PUSH2 0x15DA SWAP3 DUP3 ADD ADD CODESIZE PUSH2 0x15CD JUMP JUMPDEST DUP1 PUSH1 0x20 SWAP3 SWAP5 DUP4 DUP6 PUSH1 0x1 SWAP5 SLOAD SWAP3 ADD ADD MSTORE ADD SWAP2 ADD SWAP1 SWAP2 DUP11 SWAP3 PUSH2 0x16DE JUMP JUMPDEST SWAP1 POP PUSH1 0x20 SWAP3 POP PUSH2 0x15DA SWAP5 SWAP2 POP PUSH1 0xFF NOT AND DUP3 DUP5 ADD MSTORE ISZERO ISZERO PUSH1 0x5 SHL DUP3 ADD ADD CODESIZE PUSH2 0x15CD JUMP JUMPDEST POP CALLVALUE PUSH2 0x321 JUMPI PUSH1 0x20 CALLDATASIZE PUSH1 0x3 NOT ADD SLT PUSH2 0x321 JUMPI PUSH1 0x4 CALLDATALOAD PUSH1 0x1 PUSH1 0x1 PUSH1 0xA0 SHL SUB DUP2 DUP2 AND SWAP2 DUP3 SWAP1 SUB PUSH2 0x4FC JUMPI PUSH2 0x176B SWAP1 PUSH1 0x3 SLOAD AND CALLER EQ PUSH2 0x18C9 JUMP JUMPDEST PUSH2 0x1776 DUP2 ISZERO ISZERO PUSH2 0x1902 JUMP JUMPDEST PUSH1 0x1 PUSH1 0x1 PUSH1 0x60 SHL SUB PUSH1 0xA0 SHL PUSH1 0x5 SLOAD AND OR PUSH1 0x5 SSTORE DUP1 RETURN JUMPDEST POP CALLVALUE PUSH2 0x321 JUMPI DUP1 PUSH1 0x3 NOT CALLDATASIZE ADD SLT PUSH2 0x321 JUMPI PUSH1 0x20 SWAP1 PUSH1 0x40 MLOAD SWAP1 DUP2 MSTORE RETURN JUMPDEST SWAP1 POP CALLVALUE PUSH2 0x467 JUMPI DUP2 PUSH1 0x3 NOT CALLDATASIZE ADD SLT PUSH2 0x467 JUMPI PUSH1 0x4 SLOAD PUSH1 0x1 PUSH1 0x1 PUSH1 0xA0 SHL SUB AND DUP2 MSTORE PUSH1 0x20 SWAP1 RETURN JUMPDEST SWAP1 PUSH1 0x1 DUP3 DUP2 SHR SWAP3 AND DUP1 ISZERO PUSH2 0x17FD JUMPI JUMPDEST PUSH1 0x20 DUP4 LT EQ PUSH2 0x17E7 JUMPI JUMP JUMPDEST PUSH4 0x4E487B71 PUSH1 0xE0 SHL PUSH1 0x0 MSTORE PUSH1 0x22 PUSH1 0x4 MSTORE PUSH1 0x24 PUSH1 0x0 REVERT JUMPDEST SWAP2 PUSH1 0x7F AND SWAP2 PUSH2 0x17DC JUMP JUMPDEST PUSH2 0x1E0 DUP2 ADD SWAP1 DUP2 LT PUSH8 0xFFFFFFFFFFFFFFFF DUP3 GT OR PUSH2 0x1824 JUMPI PUSH1 0x40 MSTORE JUMP JUMPDEST PUSH4 0x4E487B71 PUSH1 0xE0 SHL PUSH1 0x0 MSTORE PUSH1 0x41 PUSH1 0x4 MSTORE PUSH1 0x24 PUSH1 0x0 REVERT JUMPDEST PUSH8 0xFFFFFFFFFFFFFFFF DUP2 GT PUSH2 0x1824 JUMPI PUSH1 0x40 MSTORE JUMP JUMPDEST PUSH1 0x20 DUP2 ADD SWAP1 DUP2 LT PUSH8 0xFFFFFFFFFFFFFFFF DUP3 GT OR PUSH2 0x1824 JUMPI PUSH1 0x40 MSTORE JUMP JUMPDEST SWAP1 PUSH1 0x1F DUP1 NOT SWAP2 ADD AND DUP2 ADD SWAP1 DUP2 LT PUSH8 0xFFFFFFFFFFFFFFFF DUP3 GT OR PUSH2 0x1824 JUMPI PUSH1 0x40 MSTORE JUMP JUMPDEST PUSH1 0x24 CALLDATALOAD SWAP1 DUP2 ISZERO ISZERO DUP3 SUB PUSH2 0x100B JUMPI JUMP JUMPDEST SWAP2 DUP2 PUSH1 0x1F DUP5 ADD SLT ISZERO PUSH2 0x100B JUMPI DUP3 CALLDATALOAD SWAP2 PUSH8 0xFFFFFFFFFFFFFFFF DUP4 GT PUSH2 0x100B JUMPI PUSH1 0x20 DUP4 DUP2 DUP7 ADD SWAP6 ADD ADD GT PUSH2 0x100B JUMPI JUMP JUMPDEST ISZERO PUSH2 0x18D0 JUMPI JUMP JUMPDEST PUSH1 0x40 MLOAD PUSH3 0x461BCD PUSH1 0xE5 SHL DUP2 MSTORE PUSH1 0x20 PUSH1 0x4 DUP3 ADD MSTORE PUSH1 0xA PUSH1 0x24 DUP3 ADD MSTORE PUSH10 0x4E6F74206F7261636C65 PUSH1 0xB0 SHL PUSH1 0x44 DUP3 ADD MSTORE PUSH1 0x64 SWAP1 REVERT JUMPDEST ISZERO PUSH2 0x1909 JUMPI JUMP JUMPDEST PUSH1 0x40 MLOAD PUSH3 0x461BCD PUSH1 0xE5 SHL DUP2 MSTORE PUSH1 0x20 PUSH1 0x4 DUP3 ADD MSTORE PUSH1 0x9 PUSH1 0x24 DUP3 ADD MSTORE PUSH9 0x3D32B9379030B23239 PUSH1 0xB9 SHL PUSH1 0x44 DUP3 ADD MSTORE PUSH1 0x64 SWAP1 REVERT JUMPDEST ISZERO PUSH2 0x1941 JUMPI JUMP JUMPDEST PUSH1 0x40 MLOAD PUSH3 0x461BCD PUSH1 0xE5 SHL DUP2 MSTORE PUSH1 0x20 PUSH1 0x4 DUP3 ADD MSTORE PUSH1 0xE PUSH1 0x24 DUP3 ADD MSTORE PUSH14 0x14DD185AD9481C995C5D5A5C9959 PUSH1 0x92 SHL PUSH1 0x44 DUP3 ADD MSTORE PUSH1 0x64 SWAP1 REVERT JUMPDEST PUSH8 0xFFFFFFFFFFFFFFFF DUP2 GT PUSH2 0x1824 JUMPI PUSH1 0x1F ADD PUSH1 0x1F NOT AND PUSH1 0x20 ADD SWAP1 JUMP JUMPDEST SWAP1 PUSH1 0x3 DUP2 LT ISZERO PUSH2 0x19AB JUMPI PUSH1 0xFF DUP1 NOT DUP4 SLOAD AND SWAP2 AND OR SWAP1 SSTORE JUMP JUMPDEST PUSH4 0x4E487B71 PUSH1 0xE0 SHL PUSH1 0x0 MSTORE PUSH1 0x21 PUSH1 0x4 MSTORE PUSH1 0x24 PUSH1 0x0 REVERT JUMPDEST SWAP1 PUSH1 0x1F DUP2 GT PUSH2 0x19CF JUMPI POP POP POP JUMP JUMPDEST PUSH1 0x0 SWAP2 PUSH1 0x0 MSTORE PUSH1 0x20 PUSH1 0x0 KECCAK256 SWAP1 PUSH1 0x20 PUSH1 0x1F DUP6 ADD PUSH1 0x5 SHR DUP4 ADD SWAP5 LT PUSH2 0x1A0D JUMPI JUMPDEST PUSH1 0x1F ADD PUSH1 0x5 SHR ADD SWAP2 JUMPDEST DUP3 DUP2 LT PUSH2 0x1A02 JUMPI POP POP POP JUMP JUMPDEST DUP2 DUP2 SSTORE PUSH1 0x1 ADD PUSH2 0x19F6 JUMP JUMPDEST SWAP1 SWAP3 POP DUP3 SWAP1 PUSH2 0x19ED JUMP JUMPDEST PUSH1 0x0 NOT DUP2 EQ PUSH2 0x1A26 JUMPI PUSH1 0x1 ADD SWAP1 JUMP JUMPDEST PUSH4 0x4E487B71 PUSH1 0xE0 SHL PUSH1 0x0 MSTORE PUSH1 0x11 PUSH1 0x4 MSTORE PUSH1 0x24 PUSH1 0x0 REVERT JUMPDEST ISZERO PUSH2 0x1A43 JUMPI JUMP JUMPDEST PUSH1 0x40 MLOAD PUSH3 0x461BCD PUSH1 0xE5 SHL DUP2 MSTORE PUSH1 0x20 PUSH1 0x4 DUP3 ADD MSTORE PUSH1 0xC PUSH1 0x24 DUP3 ADD MSTORE PUSH12 0x2737BA103932B9B7B63B32B9 PUSH1 0xA1 SHL PUSH1 0x44 DUP3 ADD MSTORE PUSH1 0x64 SWAP1 REVERT JUMPDEST ISZERO PUSH2 0x1A7E JUMPI JUMP JUMPDEST PUSH1 0x40 MLOAD PUSH3 0x461BCD PUSH1 0xE5 SHL DUP2 MSTORE PUSH1 0x20 PUSH1 0x4 DUP3 ADD MSTORE PUSH1 0xA PUSH1 0x24 DUP3 ADD MSTORE PUSH10 0x4E6F7420616374697665 PUSH1 0xB0 SHL PUSH1 0x44 DUP3 ADD MSTORE PUSH1 0x64 SWAP1 REVERT JUMPDEST SWAP3 SWAP2 SWAP3 PUSH2 0x1ABC DUP3 PUSH2 0x1977 JUMP JUMPDEST SWAP2 PUSH2 0x1ACA PUSH1 0x40 MLOAD SWAP4 DUP5 PUSH2 0x186A JUMP JUMPDEST DUP3 SWAP5 DUP2 DUP5 MSTORE DUP2 DUP4 ADD GT PUSH2 0x100B JUMPI DUP3 DUP2 PUSH1 0x20 SWAP4 DUP5 PUSH1 0x0 SWAP7 ADD CALLDATACOPY ADD ADD MSTORE JUMP JUMPDEST RETURNDATASIZE ISZERO PUSH2 0x1B12 JUMPI RETURNDATASIZE SWAP1 PUSH2 0x1AF8 DUP3 PUSH2 0x1977 JUMP JUMPDEST SWAP2 PUSH2 0x1B06 PUSH1 0x40 MLOAD SWAP4 DUP5 PUSH2 0x186A JUMP JUMPDEST DUP3 MSTORE RETURNDATASIZE PUSH1 0x0 PUSH1 0x20 DUP5 ADD RETURNDATACOPY JUMP JUMPDEST PUSH1 0x60 SWAP1 JUMP JUMPDEST SWAP2 SWAP1 DUP3 SUB SWAP2 DUP3 GT PUSH2 0x1A26 JUMPI JUMP JUMPDEST SWAP2 SWAP1 DUP3 ADD DUP1 SWAP3 GT PUSH2 0x1A26 JUMPI JUMP JUMPDEST ISZERO PUSH2 0x1B38 JUMPI JUMP JUMPDEST PUSH1 0x40 MLOAD PUSH3 0x461BCD PUSH1 0xE5 SHL DUP2 MSTORE PUSH1 0x20 PUSH1 0x4 DUP3 ADD MSTORE PUSH1 0x13 PUSH1 0x24 DUP3 ADD MSTORE PUSH19 0x199959481D1C985B9CD9995C8819985A5B1959 PUSH1 0x6A SHL PUSH1 0x44 DUP3 ADD MSTORE PUSH1 0x64 SWAP1 REVERT JUMPDEST PUSH1 0x0 SWAP1 DUP1 DUP3 MSTORE PUSH1 0x20 DUP3 DUP2 MSTORE PUSH1 0x40 DUP1 DUP5 KECCAK256 SWAP1 PUSH1 0x3 DUP3 ADD SLOAD SWAP5 PUSH1 0x1 SWAP1 DUP7 DUP3 SHL SWAP7 DUP1 DUP9 DIV PUSH1 0x2 EQ SWAP1 ISZERO OR ISZERO PUSH2 0x1DB1 JUMPI PUSH1 0x5 DUP8 MUL DUP8 DUP2 DIV PUSH1 0x5 EQ DUP9 ISZERO OR ISZERO PUSH2 0x1D9D JUMPI PUSH1 0x64 SWAP1 DIV PUSH2 0x1BBF DUP2 DUP10 PUSH2 0x1B17 JUMP JUMPDEST PUSH1 0x6 DUP7 ADD SLOAD PUSH1 0xFF DUP1 DUP3 PUSH1 0x8 SHR AND ISZERO SWAP2 PUSH1 0x18 SHR AND ISZERO DUP2 EQ PUSH1 0x0 EQ PUSH2 0x1C8B JUMPI POP POP SWAP1 DUP1 DUP1 DUP1 DUP5 PUSH1 0x4 PUSH2 0x1C14 PUSH2 0x1C79 SWAP8 PUSH32 0xC01911861AE5A7A5B004FDA8B4A52B25ECDC8A78AD869354E16B75AEDFA4BE84 SWAP14 SWAP15 PUSH2 0x1B17 JUMP JUMPDEST DUP9 SHR SWAP10 PUSH1 0x1 DUP1 PUSH1 0xA0 SHL SUB SWAP9 DUP10 DUP3 SLOAD AND DUP6 MSTORE DUP1 DUP14 MSTORE DUP11 DUP6 KECCAK256 PUSH2 0x1C36 DUP14 DUP3 SLOAD PUSH2 0x1B24 JUMP JUMPDEST SWAP1 SSTORE DUP10 DUP2 DUP4 ADD SLOAD AND DUP6 MSTORE DUP13 MSTORE DUP10 DUP5 KECCAK256 PUSH2 0x1C50 DUP13 DUP3 SLOAD PUSH2 0x1B24 JUMP JUMPDEST SWAP1 SSTORE ADD DUP1 SLOAD PUSH3 0x10000 PUSH1 0x1 PUSH1 0xB0 SHL SUB NOT AND DUP2 SSTORE PUSH1 0x3 SLOAD SWAP1 SWAP8 AND GAS CALL PUSH2 0x1C73 PUSH2 0x1AE7 JUMP JUMPDEST POP PUSH2 0x1B31 JUMP JUMPDEST DUP1 SLOAD PUSH1 0xFF NOT AND PUSH1 0x2 OR SWAP1 SSTORE MLOAD SWAP1 DUP2 MSTORE LOG2 JUMP JUMPDEST DUP2 DUP9 SWAP8 SWAP6 SWAP7 SWAP5 SWAP3 SWAP11 POP PUSH32 0x36E33EEA5DF2E6C873949C5C856FEB597F250EA8A329ED5AC38C39AB96905359 SWAP9 SWAP2 PUSH1 0x0 EQ PUSH2 0x1D3D JUMPI POP POP DUP1 DUP1 DUP1 PUSH2 0x1D25 SWAP5 PUSH1 0x1 DUP1 PUSH1 0xA0 SHL SUB SWAP9 DUP10 DUP10 SLOAD AND DUP4 MSTORE DUP11 MSTORE DUP13 PUSH2 0x1CE6 DUP9 DUP5 KECCAK256 SWAP2 DUP3 SLOAD PUSH2 0x1B24 JUMP JUMPDEST SWAP1 SSTORE DUP8 SLOAD PUSH1 0x4 SWAP9 SWAP1 SWAP9 ADD DUP1 SLOAD PUSH3 0x10000 PUSH1 0x1 PUSH1 0xB0 SHL SUB NOT AND SWAP9 DUP11 AND PUSH1 0x10 SHL PUSH3 0x10000 PUSH1 0x1 PUSH1 0xB0 SHL SUB AND SWAP9 SWAP1 SWAP9 OR DUP9 SSTORE JUMPDEST DUP9 PUSH1 0x3 SLOAD AND GAS CALL PUSH2 0x1C73 PUSH2 0x1AE7 JUMP JUMPDEST PUSH1 0x2 PUSH1 0xFF NOT DUP4 SLOAD AND OR DUP1 SWAP3 SSTORE MLOAD SWAP6 DUP7 MSTORE PUSH1 0x10 SHR AND SWAP4 LOG3 JUMP JUMPDEST DUP3 PUSH2 0x1D25 SWAP5 PUSH2 0x1D16 PUSH1 0x4 DUP4 SWAP6 DUP5 SWAP6 DUP13 DUP13 ADD SWAP1 PUSH1 0x1 DUP1 PUSH1 0xA0 SHL SUB SWAP14 DUP15 SWAP4 DUP5 DUP5 SLOAD AND DUP10 MSTORE MSTORE PUSH2 0x1D6E DUP13 DUP9 KECCAK256 SWAP2 DUP3 SLOAD PUSH2 0x1B24 JUMP JUMPDEST SWAP1 SSTORE SLOAD SWAP2 SWAP1 SWAP11 ADD DUP1 SLOAD PUSH3 0x10000 PUSH1 0x1 PUSH1 0xB0 SHL SUB NOT AND SWAP11 SWAP1 SWAP2 AND PUSH1 0x10 SHL PUSH3 0x10000 PUSH1 0x1 PUSH1 0xB0 SHL SUB AND SWAP10 SWAP1 SWAP10 OR DUP10 SSTORE JUMP JUMPDEST PUSH4 0x4E487B71 PUSH1 0xE0 SHL DUP3 MSTORE PUSH1 0x11 PUSH1 0x4 MSTORE PUSH1 0x24 DUP3 REVERT JUMPDEST PUSH4 0x4E487B71 PUSH1 0xE0 SHL DUP2 MSTORE PUSH1 0x11 PUSH1 0x4 MSTORE PUSH1 0x24 SWAP1 REVERT JUMPDEST PUSH1 0x0 SWAP1 DUP1 DUP3 MSTORE DUP2 PUSH1 0x20 MSTORE PUSH1 0x40 DUP1 DUP4 KECCAK256 SWAP1 PUSH1 0x3 DUP3 ADD SLOAD SWAP1 PUSH1 0x5 DUP3 MUL SWAP5 DUP3 ISZERO SWAP6 DUP4 DUP2 DIV PUSH1 0x5 EQ DUP8 OR ISZERO PUSH2 0x1D9D JUMPI PUSH1 0x64 SWAP1 DIV SWAP3 PUSH1 0xFF PUSH1 0x6 DUP7 ADD SLOAD PUSH1 0x8 SHR AND PUSH1 0x0 EQ PUSH2 0x1F6A JUMPI PUSH1 0xBE DUP2 MUL DUP2 DUP2 DIV PUSH1 0xBE EQ DUP9 OR ISZERO PUSH2 0x1F56 JUMPI DUP5 PUSH1 0x64 PUSH2 0x1E25 SWAP3 DIV PUSH2 0x1B17 JUMP JUMPDEST SWAP7 DUP2 PUSH1 0x1 SHL SWAP2 DUP3 DIV PUSH1 0x2 EQ OR ISZERO PUSH2 0x1D9D JUMPI DUP4 PUSH2 0x1E44 DUP9 PUSH2 0x1E49 SWAP4 PUSH2 0x1B17 JUMP JUMPDEST PUSH2 0x1B17 JUMP JUMPDEST SWAP1 PUSH1 0x1 DUP1 PUSH1 0xA0 SHL SUB SWAP5 DUP6 DUP2 SLOAD AND DUP3 MSTORE PUSH1 0x1 PUSH1 0x20 MSTORE DUP4 DUP3 KECCAK256 PUSH2 0x1E6B DUP10 DUP3 SLOAD PUSH2 0x1B24 JUMP JUMPDEST SWAP1 SSTORE DUP1 SLOAD PUSH1 0x4 DUP3 ADD DUP1 SLOAD PUSH3 0x10000 PUSH1 0x1 PUSH1 0xB0 SHL SUB NOT AND SWAP2 DUP9 AND PUSH1 0x10 SHL PUSH3 0x10000 PUSH1 0x1 PUSH1 0xB0 SHL SUB AND SWAP2 SWAP1 SWAP2 OR DUP2 SSTORE SWAP5 PUSH2 0x1EB4 SWAP1 DUP4 SWAP1 DUP2 SWAP1 DUP2 SWAP1 DUP2 SWAP1 DUP12 PUSH1 0x3 SLOAD AND GAS CALL PUSH2 0x1C73 PUSH2 0x1AE7 JUMP JUMPDEST PUSH1 0x2 DUP7 PUSH1 0x5 SLOAD AND SWAP2 ADD SLOAD DUP2 EXTCODESIZE ISZERO PUSH2 0x4FC JUMPI SWAP1 PUSH1 0x64 DUP4 SWAP3 DUP7 MLOAD SWAP6 DUP7 SWAP4 DUP5 SWAP3 PUSH4 0x865150EF PUSH1 0xE0 SHL DUP5 MSTORE PUSH1 0x4 DUP5 ADD MSTORE DUP6 PUSH1 0x24 DUP5 ADD MSTORE DUP12 PUSH1 0x44 DUP5 ADD MSTORE GAS CALL SWAP1 DUP2 ISZERO PUSH2 0x1F4B JUMPI POP SWAP2 PUSH1 0x20 SWAP4 SWAP2 PUSH32 0x36E33EEA5DF2E6C873949C5C856FEB597F250EA8A329ED5AC38C39AB96905359 SWAP6 SWAP4 PUSH2 0x1F3C JUMPI JUMPDEST POP PUSH1 0x2 PUSH1 0xFF NOT DUP4 SLOAD AND OR DUP1 SWAP3 SSTORE MLOAD SWAP6 DUP7 MSTORE PUSH1 0x10 SHR AND SWAP4 LOG3 JUMP JUMPDEST PUSH2 0x1F45 SWAP1 PUSH2 0x183A JUMP JUMPDEST CODESIZE PUSH2 0x1F23 JUMP JUMPDEST DUP4 MLOAD SWAP1 RETURNDATASIZE SWAP1 DUP3 RETURNDATACOPY RETURNDATASIZE SWAP1 REVERT JUMPDEST PUSH4 0x4E487B71 PUSH1 0xE0 SHL DUP4 MSTORE PUSH1 0x11 PUSH1 0x4 MSTORE PUSH1 0x24 DUP4 REVERT JUMPDEST SWAP1 SWAP6 SWAP4 SWAP3 PUSH1 0xA DUP3 MUL DUP3 DUP2 DIV PUSH1 0xA EQ DUP7 OR ISZERO PUSH2 0x2090 JUMPI SWAP1 PUSH1 0x64 PUSH2 0x1F8D SWAP3 DIV SWAP1 PUSH2 0x1B24 JUMP JUMPDEST SWAP4 DUP2 PUSH1 0x1 SHL SWAP2 DUP3 DIV PUSH1 0x2 EQ OR ISZERO PUSH2 0x207C JUMPI DUP4 PUSH2 0x1FA8 SWAP2 PUSH2 0x1B17 JUMP JUMPDEST SWAP5 PUSH2 0x1FC7 DUP2 DUP1 DUP1 DUP1 PUSH1 0x1 DUP1 PUSH1 0xA0 SHL SUB SWAP9 DUP10 PUSH1 0x3 SLOAD AND GAS CALL PUSH2 0x1C73 PUSH2 0x1AE7 JUMP JUMPDEST DUP4 PUSH1 0x5 SLOAD AND PUSH1 0x2 DUP5 ADD SLOAD DUP2 EXTCODESIZE ISZERO PUSH2 0x4FC JUMPI SWAP2 DUP1 SWAP2 PUSH1 0x64 DUP10 SWAP5 DUP7 MLOAD SWAP6 DUP7 SWAP4 DUP5 SWAP3 PUSH4 0x865150EF PUSH1 0xE0 SHL DUP5 MSTORE PUSH1 0x4 DUP5 ADD MSTORE PUSH1 0x1 PUSH1 0x24 DUP5 ADD MSTORE DUP12 PUSH1 0x44 DUP5 ADD MSTORE GAS CALL SWAP1 DUP2 ISZERO PUSH2 0x1F4B JUMPI POP SWAP2 PUSH1 0x20 SWAP4 SWAP2 PUSH32 0x36E33EEA5DF2E6C873949C5C856FEB597F250EA8A329ED5AC38C39AB96905359 SWAP6 SWAP4 PUSH2 0x206D JUMPI JUMPDEST POP PUSH1 0x5 SLOAD PUSH1 0x4 SWAP3 SWAP1 SWAP3 ADD DUP1 SLOAD PUSH3 0x10000 PUSH1 0x1 PUSH1 0xB0 SHL SUB NOT AND SWAP3 DUP5 AND PUSH1 0x10 SHL PUSH3 0x10000 PUSH1 0x1 PUSH1 0xB0 SHL SUB AND SWAP3 SWAP1 SWAP3 OR DUP3 SSTORE PUSH2 0x1D25 JUMP JUMPDEST PUSH2 0x2076 SWAP1 PUSH2 0x183A JUMP JUMPDEST CODESIZE PUSH2 0x2039 JUMP JUMPDEST PUSH4 0x4E487B71 PUSH1 0xE0 SHL DUP7 MSTORE PUSH1 0x11 PUSH1 0x4 MSTORE PUSH1 0x24 DUP7 REVERT JUMPDEST PUSH4 0x4E487B71 PUSH1 0xE0 SHL DUP9 MSTORE PUSH1 0x11 PUSH1 0x4 MSTORE PUSH1 0x24 DUP9 REVERT JUMPDEST DUP2 MLOAD SWAP2 SWAP1 PUSH1 0x41 DUP4 SUB PUSH2 0x20D5 JUMPI PUSH2 0x20CE SWAP3 POP PUSH1 0x20 DUP3 ADD MLOAD SWAP1 PUSH1 0x60 PUSH1 0x40 DUP5 ADD MLOAD SWAP4 ADD MLOAD PUSH1 0x0 BYTE SWAP1 PUSH2 0x214F JUMP JUMPDEST SWAP2 SWAP3 SWAP1 SWAP2 SWAP1 JUMP JUMPDEST POP POP PUSH1 0x0 SWAP2 PUSH1 0x2 SWAP2 SWAP1 JUMP JUMPDEST PUSH1 0x4 DUP2 LT ISZERO PUSH2 0x19AB JUMPI DUP1 PUSH2 0x20F2 JUMPI POP POP JUMP JUMPDEST PUSH1 0x1 DUP2 SUB PUSH2 0x210C JUMPI PUSH1 0x40 MLOAD PUSH4 0xF645EEDF PUSH1 0xE0 SHL DUP2 MSTORE PUSH1 0x4 SWAP1 REVERT JUMPDEST PUSH1 0x2 DUP2 SUB PUSH2 0x212D JUMPI PUSH1 0x40 MLOAD PUSH4 0xFCE698F7 PUSH1 0xE0 SHL DUP2 MSTORE PUSH1 0x4 DUP2 ADD DUP4 SWAP1 MSTORE PUSH1 0x24 SWAP1 REVERT JUMPDEST PUSH1 0x3 EQ PUSH2 0x2137 JUMPI POP JUMP JUMPDEST PUSH1 0x24 SWAP1 PUSH1 0x40 MLOAD SWAP1 PUSH4 0x35E2F383 PUSH1 0xE2 SHL DUP3 MSTORE PUSH1 0x4 DUP3 ADD MSTORE REVERT JUMPDEST SWAP2 SWAP1 PUSH32 0x7FFFFFFFFFFFFFFFFFFFFFFFFFFFFFFF5D576E7357A4501DDFE92F46681B20A0 DUP5 GT PUSH2 0x21D3 JUMPI SWAP3 PUSH1 0x20 SWAP3 SWAP2 PUSH1 0xFF PUSH1 0x80 SWAP6 PUSH1 0x40 MLOAD SWAP5 DUP6 MSTORE AND DUP5 DUP5 ADD MSTORE PUSH1 0x40 DUP4 ADD MSTORE PUSH1 0x60 DUP3 ADD MSTORE PUSH1 0x0 SWAP3 DUP4 SWAP2 DUP3 DUP1 MSTORE PUSH1 0x1 GAS STATICCALL ISZERO PUSH2 0x21C7 JUMPI DUP1 MLOAD PUSH1 0x1 PUSH1 0x1 PUSH1 0xA0 SHL SUB DUP2 AND ISZERO PUSH2 0x21BE JUMPI SWAP2 DUP2 SWAP1 JUMP JUMPDEST POP DUP1 SWAP2 PUSH1 0x1 SWAP2 SWAP1 JUMP JUMPDEST PUSH1 0x40 MLOAD SWAP1 RETURNDATASIZE SWAP1 DUP3 RETURNDATACOPY RETURNDATASIZE SWAP1 REVERT JUMPDEST POP POP POP PUSH1 0x0 SWAP2 PUSH1 0x3 SWAP2 SWAP1 JUMP INVALID LOG2 PUSH5 0x6970667358 0x22 SLT KECCAK256 PUSH14 0x34ADC70DDE6D932EE2069B1CA177 0xB5 PUSH25 0xEEA8AB0F573B7EE458A5498817448564736F6C634300081800 CALLER "},"methodIdentifiers":{"BOT_OWNER_SHARE_PERCENT()":"0660dfd9","PAYOUT_DENOMINATOR()":"90282be5","PAYOUT_NUMERATOR()":"56b49975","PERFORMANCE_FEE_PERCENT()":"b06941fa","PROTOCOL_FEE_PERCENT()":"2982de0d","anchorChatLog(uint256,bytes32,string)":"fa7b6cd1","botINFT()":"446c05a9","claimWinnings()":"b401faf1","createGame()":"7255d729","createGamePvE(uint256)":"3a438f5a","gameCount()":"4d1975b4","games(uint256)":"117a5b90","joinGame(uint256)":"efaa55a0","oracle()":"7dc0d1d0","resolveWithSignatures(uint256,bool,bytes,bool,bytes)":"61d86451","resolver()":"04f3bcec","setBotINFT(address)":"10ad960e","setResolver(address)":"4e543b26","submitVerdict(uint256,bool)":"c1f0c04b","transferOracle(address)":"e7326806","winnings(address)":"ea3a1499"}}}}}