{"contracts/HouseVault.sol":{"HouseVault":{"abi":[{"inputs":[],"stateMutability":"nonpayable","type":"constructor"},{"inputs":[],"name":"ReentrancyGuardReentrantCall","type":"error"},{"anonymous":false,"inputs":[{"indexed":true,"internalType":"address","name":"user","type":"address"},{"indexed":false,"internalType":"uint256","name":"amount","type":"uint256"},{"indexed":false,"internalType":"uint256","name":"sharesMinted","type":"uint256"}],"name":"Deposit","type":"event"},{"anonymous":false,"inputs":[{"indexed":false,"internalType":"address","name":"newGameContract","type":"address"}],"name":"GameContractUpdated","type":"event"},{"anonymous":false,"inputs":[{"indexed":false,"internalType":"uint256","name":"amount","type":"uint256"}],"name":"GameLoss","type":"event"},{"anonymous":false,"inputs":[{"indexed":false,"internalType":"uint256","name":"amount","type":"uint256"}],"name":"GameWin","type":"event"},{"anonymous":false,"inputs":[{"indexed":true,"internalType":"address","name":"user","type":"address"},{"indexed":false,"internalType":"uint256","name":"sharesAmount","type":"uint256"},{"indexed":false,"internalType":"uint256","name":"assetsReceived","type":"uint256"}],"name":"Withdraw","type":"event"},{"inputs":[],"name":"DEAD_SHARES","outputs":[{"internalType":"uint256","name":"","type":"uint256"}],"stateMutability":"view","type":"function"},{"inputs":[],"name":"MAX_BET_PERCENT","outputs":[{"internalType":"uint256","name":"","type":"uint256"}],"stateMutability":"view","type":"function"},{"inputs":[],"name":"MAX_DEPOSIT_PERCENT","outputs":[{"internalType":"uint256","name":"","type":"uint256"}],"stateMutability":"view","type":"function"},{"inputs":[],"name":"MIN_DEPOSIT","outputs":[{"internalType":"uint256","name":"","type":"uint256"}],"stateMutability":"view","type":"function"},{"inputs":[],"name":"MIN_POOL_RESERVE","outputs":[{"internalType":"uint256","name":"","type":"uint256"}],"stateMutability":"view","type":"function"},{"inputs":[],"name":"WITHDRAW_DELAY_BLOCKS","outputs":[{"internalType":"uint256","name":"","type":"uint256"}],"stateMutability":"view","type":"function"},{"inputs":[{"internalType":"address","name":"user","type":"address"}],"name":"balanceOf","outputs":[{"internalType":"uint256","name":"","type":"uint256"}],"stateMutability":"view","type":"function"},{"inputs":[{"internalType":"uint256","name":"amount","type":"uint256"}],"name":"canCoverBet","outputs":[{"internalType":"bool","name":"","type":"bool"}],"stateMutability":"view","type":"function"},{"inputs":[],"name":"deposit","outputs":[{"internalType":"uint256","name":"sharesMinted","type":"uint256"}],"stateMutability":"payable","type":"function"},{"inputs":[{"internalType":"address","name":"","type":"address"}],"name":"depositBlock","outputs":[{"internalType":"uint256","name":"","type":"uint256"}],"stateMutability":"view","type":"function"},{"inputs":[],"name":"gameContract","outputs":[{"internalType":"address","name":"","type":"address"}],"stateMutability":"view","type":"function"},{"inputs":[],"name":"maxBet","outputs":[{"internalType":"uint256","name":"","type":"uint256"}],"stateMutability":"view","type":"function"},{"inputs":[],"name":"owner","outputs":[{"internalType":"address","name":"","type":"address"}],"stateMutability":"view","type":"function"},{"inputs":[{"internalType":"uint256","name":"_assets","type":"uint256"}],"name":"previewDeposit","outputs":[{"internalType":"uint256","name":"","type":"uint256"}],"stateMutability":"view","type":"function"},{"inputs":[{"internalType":"uint256","name":"_shares","type":"uint256"}],"name":"previewRedeem","outputs":[{"internalType":"uint256","name":"","type":"uint256"}],"stateMutability":"view","type":"function"},{"inputs":[{"internalType":"uint256","name":"amount","type":"uint256"}],"name":"recordLoss","outputs":[{"internalType":"bool","name":"","type":"bool"}],"stateMutability":"nonpayable","type":"function"},{"inputs":[{"internalType":"uint256","name":"amount","type":"uint256"}],"name":"recordWin","outputs":[],"stateMutability":"nonpayable","type":"function"},{"inputs":[{"internalType":"address","name":"_gameContract","type":"address"}],"name":"setGameContract","outputs":[],"stateMutability":"nonpayable","type":"function"},{"inputs":[{"internalType":"address","name":"user","type":"address"}],"name":"sharePercent","outputs":[{"internalType":"uint256","name":"","type":"uint256"}],"stateMutability":"view","type":"function"},{"inputs":[{"internalType":"address","name":"","type":"address"}],"name":"shares","outputs":[{"internalType":"uint256","name":"","type":"uint256"}],"stateMutability":"view","type":"function"},{"inputs":[],"name":"totalAssets","outputs":[{"internalType":"uint256","name":"","type":"uint256"}],"stateMutability":"view","type":"function"},{"inputs":[],"name":"totalShares","outputs":[{"internalType":"uint256","name":"","type":"uint256"}],"stateMutability":"view","type":"function"},{"inputs":[{"internalType":"address","name":"newOwner","type":"address"}],"name":"transferOwnership","outputs":[],"stateMutability":"nonpayable","type":"function"},{"inputs":[{"internalType":"uint256","name":"_shares","type":"uint256"}],"name":"withdraw","outputs":[{"internalType":"uint256","name":"assets","type":"uint256"}],"stateMutability":"nonpayable","type":"function"},{"inputs":[],"name":"withdrawAll","outputs":[{"internalType":"uint256","name":"assets","type":"uint256"}],"stateMutability":"nonpayable","type":"function"},{"stateMutability":"payable","type":"receive"}],"evm":{"bytecode":{"linkReferences":{},"object":"608060405234801561001057600080fd5b50600160008190555033600160006101000a81548173ffffffffffffffffffffffffffffffffffffffff021916908373ffffffffffffffffffffffffffffffffffffffff160217905550611e22806100696000396000f3fe60806040526004361061016a5760003560e01c8063853828b6116100d1578063d0e30db01161008a578063e624db8411610064578063e624db841461056a578063e6d24bbd14610595578063ef8b30f7146105d2578063f2fde38b1461060f57610171565b8063d0e30db0146104f6578063d3f3300914610514578063e1e158a51461053f57610171565b8063853828b6146103e45780638da5cb5b1461040f5780639621a7e41461043a5780639bffb798146104655780639e6611a514610490578063ce7c2ac2146104b957610171565b80634cdad506116101235780634cdad5061461029a57806354202411146102d75780636022743e146103025780636d4086ba1461033f5780636e459d481461036a57806370a08231146103a757610171565b806301e1d11414610176578063202019a6146101a15780632e1a7d4d146101de5780632e5b21681461021b5780633a98ef3914610246578063405ebd4d1461027157610171565b3661017157005b600080fd5b34801561018257600080fd5b5061018b610638565b60405161019891906115e9565b60405180910390f35b3480156101ad57600080fd5b506101c860048036038101906101c39190611667565b61063e565b6040516101d591906115e9565b60405180910390f35b3480156101ea57600080fd5b50610205600480360381019061020091906116c0565b610656565b60405161021291906115e9565b60405180910390f35b34801561022757600080fd5b506102306109bf565b60405161023d91906115e9565b60405180910390f35b34801561025257600080fd5b5061025b6109e1565b60405161026891906115e9565b60405180910390f35b34801561027d57600080fd5b5061029860048036038101906102939190611667565b6109e7565b005b3480156102a657600080fd5b506102c160048036038101906102bc91906116c0565b610b61565b6040516102ce91906115e9565b60405180910390f35b3480156102e357600080fd5b506102ec610b98565b6040516102f991906115e9565b60405180910390f35b34801561030e57600080fd5b50610329600480360381019061032491906116c0565b610b9d565b6040516103369190611708565b60405180910390f35b34801561034b57600080fd5b50610354610daf565b60405161036191906115e9565b60405180910390f35b34801561037657600080fd5b50610391600480360381019061038c91906116c0565b610dbb565b60405161039e9190611708565b60405180910390f35b3480156103b357600080fd5b506103ce60048036038101906103c99190611667565b610e24565b6040516103db91906115e9565b60405180910390f35b3480156103f057600080fd5b506103f9610e75565b60405161040691906115e9565b60405180910390f35b34801561041b57600080fd5b50610424610f37565b6040516104319190611732565b60405180910390f35b34801561044657600080fd5b5061044f610f5d565b60405161045c91906115e9565b60405180910390f35b34801561047157600080fd5b5061047a610f62565b60405161048791906115e9565b60405180910390f35b34801561049c57600080fd5b506104b760048036038101906104b291906116c0565b610f68565b005b3480156104c557600080fd5b506104e060048036038101906104db9190611667565b61104b565b6040516104ed91906115e9565b60405180910390f35b6104fe611063565b60405161050b91906115e9565b60405180910390f35b34801561052057600080fd5b5061052961133b565b6040516105369190611732565b60405180910390f35b34801561054b57600080fd5b50610554611361565b60405161056191906115e9565b60405180910390f35b34801561057657600080fd5b5061057f61136d565b60405161058c91906115e9565b60405180910390f35b3480156105a157600080fd5b506105bc60048036038101906105b79190611667565b611372565b6040516105c991906115e9565b60405180910390f35b3480156105de57600080fd5b506105f960048036038101906105f491906116c0565b6113fa565b60405161060691906115e9565b60405180910390f35b34801561061b57600080fd5b5061063660048036038101906106319190611667565b61143d565b005b60045481565b60066020528060005260406000206000915090505481565b6000610660611580565b600082116106a3576040517f08c379a000000000000000000000000000000000000000000000000000000000815260040161069a906117aa565b60405180910390fd5b81600560003373ffffffffffffffffffffffffffffffffffffffff1673ffffffffffffffffffffffffffffffffffffffff168152602001908152602001600020541015610725576040517f08c379a000000000000000000000000000000000000000000000000000000000815260040161071c90611816565b60405180910390fd5b6001600660003373ffffffffffffffffffffffffffffffffffffffff1673ffffffffffffffffffffffffffffffffffffffff168152602001908152602001600020546107719190611865565b43116107b2576040517f08c379a00000000000000000000000000000000000000000000000000000000081526004016107a9906118e5565b60405180910390fd5b6107bb82610b61565b9050678ac7230489e80000816004546107d49190611905565b1015806107ee57506000816004546107ec9190611905565b145b61082d576040517f08c379a000000000000000000000000000000000000000000000000000000000815260040161082490611985565b60405180910390fd5b81600560003373ffffffffffffffffffffffffffffffffffffffff1673ffffffffffffffffffffffffffffffffffffffff168152602001908152602001600020600082825461087c9190611905565b9250508190555081600360008282546108959190611905565b9250508190555080600460008282546108ae9190611905565b9250508190555060003373ffffffffffffffffffffffffffffffffffffffff16826040516108db906119d6565b60006040518083038185875af1925050503d8060008114610918576040519150601f19603f3d011682016040523d82523d6000602084013e61091d565b606091505b5050905080610961576040517f08c379a000000000000000000000000000000000000000000000000000000000815260040161095890611a37565b60405180910390fd5b3373ffffffffffffffffffffffffffffffffffffffff167ff279e6a1f5e320cca91135676d9cb6e44ca8a08c0b88342bcdb1144f6511b56884846040516109a9929190611a57565b60405180910390a2506109ba6115c6565b919050565b6000606460036004546109d29190611a80565b6109dc9190611af1565b905090565b60035481565b600160009054906101000a900473ffffffffffffffffffffffffffffffffffffffff1673ffffffffffffffffffffffffffffffffffffffff163373ffffffffffffffffffffffffffffffffffffffff1614610a77576040517f08c379a0000000000000000000000000000000000000000000000000000000008152600401610a6e90611b6e565b60405180910390fd5b600073ffffffffffffffffffffffffffffffffffffffff168173ffffffffffffffffffffffffffffffffffffffff1603610ae6576040517f08c379a0000000000000000000000000000000000000000000000000000000008152600401610add90611bda565b60405180910390fd5b80600260006101000a81548173ffffffffffffffffffffffffffffffffffffffff021916908373ffffffffffffffffffffffffffffffffffffffff1602179055507f94b488ee7f141e60e1c61ff77cc1188dcf8c457486d348a6802e58d765d9844781604051610b569190611732565b60405180910390a150565b60008060035403610b755760009050610b93565b60035460045483610b869190611a80565b610b909190611af1565b90505b919050565b600381565b6000600260009054906101000a900473ffffffffffffffffffffffffffffffffffffffff1673ffffffffffffffffffffffffffffffffffffffff163373ffffffffffffffffffffffffffffffffffffffff1614610c2f576040517f08c379a0000000000000000000000000000000000000000000000000000000008152600401610c2690611c46565b60405180910390fd5b678ac7230489e8000082610c439190611865565b6004541015610c87576040517f08c379a0000000000000000000000000000000000000000000000000000000008152600401610c7e90611cb2565b60405180910390fd5b8160046000828254610c999190611905565b925050819055506000600260009054906101000a900473ffffffffffffffffffffffffffffffffffffffff1673ffffffffffffffffffffffffffffffffffffffff1683604051610ce8906119d6565b60006040518083038185875af1925050503d8060008114610d25576040519150601f19603f3d011682016040523d82523d6000602084013e610d2a565b606091505b5050905080610d6e576040517f08c379a0000000000000000000000000000000000000000000000000000000008152600401610d6590611a37565b60405180910390fd5b7f78388f02d9dc4ba28ce22ed74518d0a3c763d8ae37209ac2b955e69099cc3a5583604051610d9d91906115e9565b60405180910390a16001915050919050565b678ac7230489e8000081565b6000610dc56109bf565b821115610dd55760009050610e1f565b6000606460be84610de69190611a80565b610df09190611af1565b9050678ac7230489e8000081610e069190611865565b6004541015610e19576000915050610e1f565b60019150505b919050565b6000610e6e600560008473ffffffffffffffffffffffffffffffffffffffff1673ffffffffffffffffffffffffffffffffffffffff16815260200190815260200160002054610b61565b9050919050565b60003073ffffffffffffffffffffffffffffffffffffffff16632e1a7d4d600560003373ffffffffffffffffffffffffffffffffffffffff1673ffffffffffffffffffffffffffffffffffffffff168152602001908152602001600020546040518263ffffffff1660e01b8152600401610eef91906115e9565b6020604051808303816000875af1158015610f0e573d6000803e3d6000fd5b505050506040513d601f19601f82011682018060405250810190610f329190611ce7565b905090565b600160009054906101000a900473ffffffffffffffffffffffffffffffffffffffff1681565b600181565b6103e881565b600260009054906101000a900473ffffffffffffffffffffffffffffffffffffffff1673ffffffffffffffffffffffffffffffffffffffff163373ffffffffffffffffffffffffffffffffffffffff1614610ff8576040517f08c379a0000000000000000000000000000000000000000000000000000000008152600401610fef90611c46565b60405180910390fd5b806004600082825461100a9190611865565b925050819055507f025911b9734bd99189872dc430ca90014469d827c1da351e3d21f0da926d83dc8160405161104091906115e9565b60405180910390a150565b60056020528060005260406000206000915090505481565b600061106d611580565b670de0b6b3a76400003410156110b8576040517f08c379a00000000000000000000000000000000000000000000000000000000081526004016110af90611d60565b60405180910390fd5b6000346004546110c89190611865565b9050600034611115600560003373ffffffffffffffffffffffffffffffffffffffff1673ffffffffffffffffffffffffffffffffffffffff16815260200190815260200160002054610b61565b61111f9190611865565b90506064600a836111309190611a80565b61113a9190611af1565b8111158061114a57506000600454145b611189576040517f08c379a000000000000000000000000000000000000000000000000000000000815260040161118090611dcc565b60405180910390fd5b6000600354036111b1576103e8346111a19190611905565b92506103e86003819055506111cf565b600454600354346111c29190611a80565b6111cc9190611af1565b92505b60008311611212576040517f08c379a0000000000000000000000000000000000000000000000000000000008152600401611209906117aa565b60405180910390fd5b82600560003373ffffffffffffffffffffffffffffffffffffffff1673ffffffffffffffffffffffffffffffffffffffff16815260200190815260200160002060008282546112619190611865565b92505081905550826003600082825461127a9190611865565b9250508190555034600460008282546112939190611865565b9250508190555043600660003373ffffffffffffffffffffffffffffffffffffffff1673ffffffffffffffffffffffffffffffffffffffff168152602001908152602001600020819055503373ffffffffffffffffffffffffffffffffffffffff167f90890809c654f11d6e72a28fa60149770a0d11ec6c92319d6ceb2bb0a4ea1a153485604051611326929190611a57565b60405180910390a250506113386115c6565b90565b600260009054906101000a900473ffffffffffffffffffffffffffffffffffffffff1681565b670de0b6b3a764000081565b600a81565b6000806003540361138657600090506113f5565b6003546064670de0b6b3a7640000600560008673ffffffffffffffffffffffffffffffffffffffff1673ffffffffffffffffffffffffffffffffffffffff168152602001908152602001600020546113de9190611a80565b6113e89190611a80565b6113f29190611af1565b90505b919050565b6000806003540361141a576103e8826114139190611905565b9050611438565b6004546003548361142b9190611a80565b6114359190611af1565b90505b919050565b600160009054906101000a900473ffffffffffffffffffffffffffffffffffffffff1673ffffffffffffffffffffffffffffffffffffffff163373ffffffffffffffffffffffffffffffffffffffff16146114cd576040517f08c379a00000000000000000000000000000000000000000000000000000000081526004016114c490611b6e565b60405180910390fd5b600073ffffffffffffffffffffffffffffffffffffffff168173ffffffffffffffffffffffffffffffffffffffff160361153c576040517f08c379a000000000000000000000000000000000000000000000000000000000815260040161153390611bda565b60405180910390fd5b80600160006101000a81548173ffffffffffffffffffffffffffffffffffffffff021916908373ffffffffffffffffffffffffffffffffffffffff16021790555050565b6002600054036115bc576040517f3ee5aeb500000000000000000000000000000000000000000000000000000000815260040160405180910390fd5b6002600081905550565b6001600081905550565b6000819050919050565b6115e3816115d0565b82525050565b60006020820190506115fe60008301846115da565b92915050565b600080fd5b600073ffffffffffffffffffffffffffffffffffffffff82169050919050565b600061163482611609565b9050919050565b61164481611629565b811461164f57600080fd5b50565b6000813590506116618161163b565b92915050565b60006020828403121561167d5761167c611604565b5b600061168b84828501611652565b91505092915050565b61169d816115d0565b81146116a857600080fd5b50565b6000813590506116ba81611694565b92915050565b6000602082840312156116d6576116d5611604565b5b60006116e4848285016116ab565b91505092915050565b60008115159050919050565b611702816116ed565b82525050565b600060208201905061171d60008301846116f9565b92915050565b61172c81611629565b82525050565b60006020820190506117476000830184611723565b92915050565b600082825260208201905092915050565b7f5a65726f20736861726573000000000000000000000000000000000000000000600082015250565b6000611794600b8361174d565b915061179f8261175e565b602082019050919050565b600060208201905081810360008301526117c381611787565b9050919050565b7f496e73756666696369656e742073686172657300000000000000000000000000600082015250565b600061180060138361174d565b915061180b826117ca565b602082019050919050565b6000602082019050818103600083015261182f816117f3565b9050919050565b7f4e487b7100000000000000000000000000000000000000000000000000000000600052601160045260246000fd5b6000611870826115d0565b915061187b836115d0565b925082820190508082111561189357611892611836565b5b92915050565b7f57697468647261772064656c6179206e6f74206d657400000000000000000000600082015250565b60006118cf60168361174d565b91506118da82611899565b602082019050919050565b600060208201905081810360008301526118fe816118c2565b9050919050565b6000611910826115d0565b915061191b836115d0565b925082820390508181111561193357611932611836565b5b92915050565b7f42656c6f77206d696e2072657365727665000000000000000000000000000000600082015250565b600061196f60118361174d565b915061197a82611939565b602082019050919050565b6000602082019050818103600083015261199e81611962565b9050919050565b600081905092915050565b50565b60006119c06000836119a5565b91506119cb826119b0565b600082019050919050565b60006119e1826119b3565b9150819050919050565b7f5472616e73666572206661696c65640000000000000000000000000000000000600082015250565b6000611a21600f8361174d565b9150611a2c826119eb565b602082019050919050565b60006020820190508181036000830152611a5081611a14565b9050919050565b6000604082019050611a6c60008301856115da565b611a7960208301846115da565b9392505050565b6000611a8b826115d0565b9150611a96836115d0565b9250828202611aa4816115d0565b91508282048414831517611abb57611aba611836565b5b5092915050565b7f4e487b7100000000000000000000000000000000000000000000000000000000600052601260045260246000fd5b6000611afc826115d0565b9150611b07836115d0565b925082611b1757611b16611ac2565b5b828204905092915050565b7f4e6f74206f776e65720000000000000000000000000000000000000000000000600082015250565b6000611b5860098361174d565b9150611b6382611b22565b602082019050919050565b60006020820190508181036000830152611b8781611b4b565b9050919050565b7f496e76616c696420616464726573730000000000000000000000000000000000600082015250565b6000611bc4600f8361174d565b9150611bcf82611b8e565b602082019050919050565b60006020820190508181036000830152611bf381611bb7565b9050919050565b7f4e6f742067616d6520636f6e7472616374000000000000000000000000000000600082015250565b6000611c3060118361174d565b9150611c3b82611bfa565b602082019050919050565b60006020820190508181036000830152611c5f81611c23565b9050919050565b7f496e73756666696369656e7420706f6f6c000000000000000000000000000000600082015250565b6000611c9c60118361174d565b9150611ca782611c66565b602082019050919050565b60006020820190508181036000830152611ccb81611c8f565b9050919050565b600081519050611ce181611694565b92915050565b600060208284031215611cfd57611cfc611604565b5b6000611d0b84828501611cd2565b91505092915050565b7f42656c6f77206d696e206465706f736974000000000000000000000000000000600082015250565b6000611d4a60118361174d565b9150611d5582611d14565b602082019050919050565b60006020820190508181036000830152611d7981611d3d565b9050919050565b7f45786365656473206d6178206465706f73697400000000000000000000000000600082015250565b6000611db660138361174d565b9150611dc182611d80565b602082019050919050565b60006020820190508181036000830152611de581611da9565b905091905056fea26469706673582212207fa97289bd3e7404958fd5d8ed8885297efa35e313f0f228b576576bcc8a6a1c64736f6c63430008180033","opcodes":"PUSH1 0x80 PUSH1 0x40 MSTORE CALLVALUE DUP1 ISZERO PUSH2 0x10 JUMPI PUSH1 0x0 DUP1 REVERT JUMPDEST POP PUSH1 0x1 PUSH1 0x0 DUP2 SWAP1 SSTORE POP CALLER PUSH1 0x1 PUSH1 0x0 PUSH2 0x100 EXP DUP2 SLOAD DUP2 PUSH20 0xFFFFFFFFFFFFFFFFFFFFFFFFFFFFFFFFFFFFFFFF MUL NOT AND SWAP1 DUP4 PUSH20 0xFFFFFFFFFFFFFFFFFFFFFFFFFFFFFFFFFFFFFFFF AND MUL OR SWAP1 SSTORE POP PUSH2 0x1E22 DUP1 PUSH2 0x69 PUSH1 0x0 CODECOPY PUSH1 0x0 RETURN INVALID PUSH1 0x80 PUSH1 0x40 MSTORE PUSH1 0x4 CALLDATASIZE LT PUSH2 0x16A JUMPI PUSH1 0x0 CALLDATALOAD PUSH1 0xE0 SHR DUP1 PUSH4 0x853828B6 GT PUSH2 0xD1 JUMPI DUP1 PUSH4 0xD0E30DB0 GT PUSH2 0x8A JUMPI DUP1 PUSH4 0xE624DB84 GT PUSH2 0x64 JUMPI DUP1 PUSH4 0xE624DB84 EQ PUSH2 0x56A JUMPI DUP1 PUSH4 0xE6D24BBD EQ PUSH2 0x595 JUMPI DUP1 PUSH4 0xEF8B30F7 EQ PUSH2 0x5D2 JUMPI DUP1 PUSH4 0xF2FDE38B EQ PUSH2 0x60F JUMPI PUSH2 0x171 JUMP JUMPDEST DUP1 PUSH4 0xD0E30DB0 EQ PUSH2 0x4F6 JUMPI DUP1 PUSH4 0xD3F33009 EQ PUSH2 0x514 JUMPI DUP1 PUSH4 0xE1E158A5 EQ PUSH2 0x53F JUMPI PUSH2 0x171 JUMP JUMPDEST DUP1 PUSH4 0x853828B6 EQ PUSH2 0x3E4 JUMPI DUP1 PUSH4 0x8DA5CB5B EQ PUSH2 0x40F JUMPI DUP1 PUSH4 0x9621A7E4 EQ PUSH2 0x43A JUMPI DUP1 PUSH4 0x9BFFB798 EQ PUSH2 0x465 JUMPI DUP1 PUSH4 0x9E6611A5 EQ PUSH2 0x490 JUMPI DUP1 PUSH4 0xCE7C2AC2 EQ PUSH2 0x4B9 JUMPI PUSH2 0x171 JUMP JUMPDEST DUP1 PUSH4 0x4CDAD506 GT PUSH2 0x123 JUMPI DUP1 PUSH4 0x4CDAD506 EQ PUSH2 0x29A JUMPI DUP1 PUSH4 0x54202411 EQ PUSH2 0x2D7 JUMPI DUP1 PUSH4 0x6022743E EQ PUSH2 0x302 JUMPI DUP1 PUSH4 0x6D4086BA EQ PUSH2 0x33F JUMPI DUP1 PUSH4 0x6E459D48 EQ PUSH2 0x36A JUMPI DUP1 PUSH4 0x70A08231 EQ PUSH2 0x3A7 JUMPI PUSH2 0x171 JUMP JUMPDEST DUP1 PUSH4 0x1E1D114 EQ PUSH2 0x176 JUMPI DUP1 PUSH4 0x202019A6 EQ PUSH2 0x1A1 JUMPI DUP1 PUSH4 0x2E1A7D4D EQ PUSH2 0x1DE JUMPI DUP1 PUSH4 0x2E5B2168 EQ PUSH2 0x21B JUMPI DUP1 PUSH4 0x3A98EF39 EQ PUSH2 0x246 JUMPI DUP1 PUSH4 0x405EBD4D EQ PUSH2 0x271 JUMPI PUSH2 0x171 JUMP JUMPDEST CALLDATASIZE PUSH2 0x171 JUMPI STOP JUMPDEST PUSH1 0x0 DUP1 REVERT JUMPDEST CALLVALUE DUP1 ISZERO PUSH2 0x182 JUMPI PUSH1 0x0 DUP1 REVERT JUMPDEST POP PUSH2 0x18B PUSH2 0x638 JUMP JUMPDEST PUSH1 0x40 MLOAD PUSH2 0x198 SWAP2 SWAP1 PUSH2 0x15E9 JUMP JUMPDEST PUSH1 0x40 MLOAD DUP1 SWAP2 SUB SWAP1 RETURN JUMPDEST CALLVALUE DUP1 ISZERO PUSH2 0x1AD JUMPI PUSH1 0x0 DUP1 REVERT JUMPDEST POP PUSH2 0x1C8 PUSH1 0x4 DUP1 CALLDATASIZE SUB DUP2 ADD SWAP1 PUSH2 0x1C3 SWAP2 SWAP1 PUSH2 0x1667 JUMP JUMPDEST PUSH2 0x63E JUMP JUMPDEST PUSH1 0x40 MLOAD PUSH2 0x1D5 SWAP2 SWAP1 PUSH2 0x15E9 JUMP JUMPDEST PUSH1 0x40 MLOAD DUP1 SWAP2 SUB SWAP1 RETURN JUMPDEST CALLVALUE DUP1 ISZERO PUSH2 0x1EA JUMPI PUSH1 0x0 DUP1 REVERT JUMPDEST POP PUSH2 0x205 PUSH1 0x4 DUP1 CALLDATASIZE SUB DUP2 ADD SWAP1 PUSH2 0x200 SWAP2 SWAP1 PUSH2 0x16C0 JUMP JUMPDEST PUSH2 0x656 JUMP JUMPDEST PUSH1 0x40 MLOAD PUSH2 0x212 SWAP2 SWAP1 PUSH2 0x15E9 JUMP JUMPDEST PUSH1 0x40 MLOAD DUP1 SWAP2 SUB SWAP1 RETURN JUMPDEST CALLVALUE DUP1 ISZERO PUSH2 0x227 JUMPI PUSH1 0x0 DUP1 REVERT JUMPDEST POP PUSH2 0x230 PUSH2 0x9BF JUMP JUMPDEST PUSH1 0x40 MLOAD PUSH2 0x23D SWAP2 SWAP1 PUSH2 0x15E9 JUMP JUMPDEST PUSH1 0x40 MLOAD DUP1 SWAP2 SUB SWAP1 RETURN JUMPDEST CALLVALUE DUP1 ISZERO PUSH2 0x252 JUMPI PUSH1 0x0 DUP1 REVERT JUMPDEST POP PUSH2 0x25B PUSH2 0x9E1 JUMP JUMPDEST PUSH1 0x40 MLOAD PUSH2 0x268 SWAP2 SWAP1 PUSH2 0x15E9 JUMP JUMPDEST PUSH1 0x40 MLOAD DUP1 SWAP2 SUB SWAP1 RETURN JUMPDEST CALLVALUE DUP1 ISZERO PUSH2 0x27D JUMPI PUSH1 0x0 DUP1 REVERT JUMPDEST POP PUSH2 0x298 PUSH1 0x4 DUP1 CALLDATASIZE SUB DUP2 ADD SWAP1 PUSH2 0x293 SWAP2 SWAP1 PUSH2 0x1667 JUMP JUMPDEST PUSH2 0x9E7 JUMP JUMPDEST STOP JUMPDEST CALLVALUE DUP1 ISZERO PUSH2 0x2A6 JUMPI PUSH1 0x0 DUP1 REVERT JUMPDEST POP PUSH2 0x2C1 PUSH1 0x4 DUP1 CALLDATASIZE SUB DUP2 ADD SWAP1 PUSH2 0x2BC SWAP2 SWAP1 PUSH2 0x16C0 JUMP JUMPDEST PUSH2 0xB61 JUMP JUMPDEST PUSH1 0x40 MLOAD PUSH2 0x2CE SWAP2 SWAP1 PUSH2 0x15E9 JUMP JUMPDEST PUSH1 0x40 MLOAD DUP1 SWAP2 SUB SWAP1 RETURN JUMPDEST CALLVALUE DUP1 ISZERO PUSH2 0x2E3 JUMPI PUSH1 0x0 DUP1 REVERT JUMPDEST POP PUSH2 0x2EC PUSH2 0xB98 JUMP JUMPDEST PUSH1 0x40 MLOAD PUSH2 0x2F9 SWAP2 SWAP1 PUSH2 0x15E9 JUMP JUMPDEST PUSH1 0x40 MLOAD DUP1 SWAP2 SUB SWAP1 RETURN JUMPDEST CALLVALUE DUP1 ISZERO PUSH2 0x30E JUMPI PUSH1 0x0 DUP1 REVERT JUMPDEST POP PUSH2 0x329 PUSH1 0x4 DUP1 CALLDATASIZE SUB DUP2 ADD SWAP1 PUSH2 0x324 SWAP2 SWAP1 PUSH2 0x16C0 JUMP JUMPDEST PUSH2 0xB9D JUMP JUMPDEST PUSH1 0x40 MLOAD PUSH2 0x336 SWAP2 SWAP1 PUSH2 0x1708 JUMP JUMPDEST PUSH1 0x40 MLOAD DUP1 SWAP2 SUB SWAP1 RETURN JUMPDEST CALLVALUE DUP1 ISZERO PUSH2 0x34B JUMPI PUSH1 0x0 DUP1 REVERT JUMPDEST POP PUSH2 0x354 PUSH2 0xDAF JUMP JUMPDEST PUSH1 0x40 MLOAD PUSH2 0x361 SWAP2 SWAP1 PUSH2 0x15E9 JUMP JUMPDEST PUSH1 0x40 MLOAD DUP1 SWAP2 SUB SWAP1 RETURN JUMPDEST CALLVALUE DUP1 ISZERO PUSH2 0x376 JUMPI PUSH1 0x0 DUP1 REVERT JUMPDEST POP PUSH2 0x391 PUSH1 0x4 DUP1 CALLDATASIZE SUB DUP2 ADD SWAP1 PUSH2 0x38C SWAP2 SWAP1 PUSH2 0x16C0 JUMP JUMPDEST PUSH2 0xDBB JUMP JUMPDEST PUSH1 0x40 MLOAD PUSH2 0x39E SWAP2 SWAP1 PUSH2 0x1708 JUMP JUMPDEST PUSH1 0x40 MLOAD DUP1 SWAP2 SUB SWAP1 RETURN JUMPDEST CALLVALUE DUP1 ISZERO PUSH2 0x3B3 JUMPI PUSH1 0x0 DUP1 REVERT JUMPDEST POP PUSH2 0x3CE PUSH1 0x4 DUP1 CALLDATASIZE SUB DUP2 ADD SWAP1 PUSH2 0x3C9 SWAP2 SWAP1 PUSH2 0x1667 JUMP JUMPDEST PUSH2 0xE24 JUMP JUMPDEST PUSH1 0x40 MLOAD PUSH2 0x3DB SWAP2 SWAP1 PUSH2 0x15E9 JUMP JUMPDEST PUSH1 0x40 MLOAD DUP1 SWAP2 SUB SWAP1 RETURN JUMPDEST CALLVALUE DUP1 ISZERO PUSH2 0x3F0 JUMPI PUSH1 0x0 DUP1 REVERT JUMPDEST POP PUSH2 0x3F9 PUSH2 0xE75 JUMP JUMPDEST PUSH1 0x40 MLOAD PUSH2 0x406 SWAP2 SWAP1 PUSH2 0x15E9 JUMP JUMPDEST PUSH1 0x40 MLOAD DUP1 SWAP2 SUB SWAP1 RETURN JUMPDEST CALLVALUE DUP1 ISZERO PUSH2 0x41B JUMPI PUSH1 0x0 DUP1 REVERT JUMPDEST POP PUSH2 0x424 PUSH2 0xF37 JUMP JUMPDEST PUSH1 0x40 MLOAD PUSH2 0x431 SWAP2 SWAP1 PUSH2 0x1732 JUMP JUMPDEST PUSH1 0x40 MLOAD DUP1 SWAP2 SUB SWAP1 RETURN JUMPDEST CALLVALUE DUP1 ISZERO PUSH2 0x446 JUMPI PUSH1 0x0 DUP1 REVERT JUMPDEST POP PUSH2 0x44F PUSH2 0xF5D JUMP JUMPDEST PUSH1 0x40 MLOAD PUSH2 0x45C SWAP2 SWAP1 PUSH2 0x15E9 JUMP JUMPDEST PUSH1 0x40 MLOAD DUP1 SWAP2 SUB SWAP1 RETURN JUMPDEST CALLVALUE DUP1 ISZERO PUSH2 0x471 JUMPI PUSH1 0x0 DUP1 REVERT JUMPDEST POP PUSH2 0x47A PUSH2 0xF62 JUMP JUMPDEST PUSH1 0x40 MLOAD PUSH2 0x487 SWAP2 SWAP1 PUSH2 0x15E9 JUMP JUMPDEST PUSH1 0x40 MLOAD DUP1 SWAP2 SUB SWAP1 RETURN JUMPDEST CALLVALUE DUP1 ISZERO PUSH2 0x49C JUMPI PUSH1 0x0 DUP1 REVERT JUMPDEST POP PUSH2 0x4B7 PUSH1 0x4 DUP1 CALLDATASIZE SUB DUP2 ADD SWAP1 PUSH2 0x4B2 SWAP2 SWAP1 PUSH2 0x16C0 JUMP JUMPDEST PUSH2 0xF68 JUMP JUMPDEST STOP JUMPDEST CALLVALUE DUP1 ISZERO PUSH2 0x4C5 JUMPI PUSH1 0x0 DUP1 REVERT JUMPDEST POP PUSH2 0x4E0 PUSH1 0x4 DUP1 CALLDATASIZE SUB DUP2 ADD SWAP1 PUSH2 0x4DB SWAP2 SWAP1 PUSH2 0x1667 JUMP JUMPDEST PUSH2 0x104B JUMP JUMPDEST PUSH1 0x40 MLOAD PUSH2 0x4ED SWAP2 SWAP1 PUSH2 0x15E9 JUMP JUMPDEST PUSH1 0x40 MLOAD DUP1 SWAP2 SUB SWAP1 RETURN JUMPDEST PUSH2 0x4FE PUSH2 0x1063 JUMP JUMPDEST PUSH1 0x40 MLOAD PUSH2 0x50B SWAP2 SWAP1 PUSH2 0x15E9 JUMP JUMPDEST PUSH1 0x40 MLOAD DUP1 SWAP2 SUB SWAP1 RETURN JUMPDEST CALLVALUE DUP1 ISZERO PUSH2 0x520 JUMPI PUSH1 0x0 DUP1 REVERT JUMPDEST POP PUSH2 0x529 PUSH2 0x133B JUMP JUMPDEST PUSH1 0x40 MLOAD PUSH2 0x536 SWAP2 SWAP1 PUSH2 0x1732 JUMP JUMPDEST PUSH1 0x40 MLOAD DUP1 SWAP2 SUB SWAP1 RETURN JUMPDEST CALLVALUE DUP1 ISZERO PUSH2 0x54B JUMPI PUSH1 0x0 DUP1 REVERT JUMPDEST POP PUSH2 0x554 PUSH2 0x1361 JUMP JUMPDEST PUSH1 0x40 MLOAD PUSH2 0x561 SWAP2 SWAP1 PUSH2 0x15E9 JUMP JUMPDEST PUSH1 0x40 MLOAD DUP1 SWAP2 SUB SWAP1 RETURN JUMPDEST CALLVALUE DUP1 ISZERO PUSH2 0x576 JUMPI PUSH1 0x0 DUP1 REVERT JUMPDEST POP PUSH2 0x57F PUSH2 0x136D JUMP JUMPDEST PUSH1 0x40 MLOAD PUSH2 0x58C SWAP2 SWAP1 PUSH2 0x15E9 JUMP JUMPDEST PUSH1 0x40 MLOAD DUP1 SWAP2 SUB SWAP1 RETURN JUMPDEST CALLVALUE DUP1 ISZERO PUSH2 0x5A1 JUMPI PUSH1 0x0 DUP1 REVERT JUMPDEST POP PUSH2 0x5BC PUSH1 0x4 DUP1 CALLDATASIZE SUB DUP2 ADD SWAP1 PUSH2 0x5B7 SWAP2 SWAP1 PUSH2 0x1667 JUMP JUMPDEST PUSH2 0x1372 JUMP JUMPDEST PUSH1 0x40 MLOAD PUSH2 0x5C9 SWAP2 SWAP1 PUSH2 0x15E9 JUMP JUMPDEST PUSH1 0x40 MLOAD DUP1 SWAP2 SUB SWAP1 RETURN JUMPDEST CALLVALUE DUP1 ISZERO PUSH2 0x5DE JUMPI PUSH1 0x0 DUP1 REVERT JUMPDEST POP PUSH2 0x5F9 PUSH1 0x4 DUP1 CALLDATASIZE SUB DUP2 ADD SWAP1 PUSH2 0x5F4 SWAP2 SWAP1 PUSH2 0x16C0 JUMP JUMPDEST PUSH2 0x13FA JUMP JUMPDEST PUSH1 0x40 MLOAD PUSH2 0x606 SWAP2 SWAP1 PUSH2 0x15E9 JUMP JUMPDEST PUSH1 0x40 MLOAD DUP1 SWAP2 SUB SWAP1 RETURN JUMPDEST CALLVALUE DUP1 ISZERO PUSH2 0x61B JUMPI PUSH1 0x0 DUP1 REVERT JUMPDEST POP PUSH2 0x636 PUSH1 0x4 DUP1 CALLDATASIZE SUB DUP2 ADD SWAP1 PUSH2 0x631 SWAP2 SWAP1 PUSH2 0x1667 JUMP JUMPDEST PUSH2 0x143D JUMP JUMPDEST STOP JUMPDEST PUSH1 0x4 SLOAD DUP2 JUMP JUMPDEST PUSH1 0x6 PUSH1 0x20 MSTORE DUP1 PUSH1 0x0 MSTORE PUSH1 0x40 PUSH1 0x0 KECCAK256 PUSH1 0x0 SWAP2 POP SWAP1 POP SLOAD DUP2 JUMP JUMPDEST PUSH1 0x0 PUSH2 0x660 PUSH2 0x1580 JUMP JUMPDEST PUSH1 0x0 DUP3 GT PUSH2 0x6A3 JUMPI PUSH1 0x40 MLOAD PUSH32 0x8C379A000000000000000000000000000000000000000000000000000000000 DUP2 MSTORE PUSH1 0x4 ADD PUSH2 0x69A SWAP1 PUSH2 0x17AA JUMP JUMPDEST PUSH1 0x40 MLOAD DUP1 SWAP2 SUB SWAP1 REVERT JUMPDEST DUP2 PUSH1 0x5 PUSH1 0x0 CALLER PUSH20 0xFFFFFFFFFFFFFFFFFFFFFFFFFFFFFFFFFFFFFFFF AND PUSH20 0xFFFFFFFFFFFFFFFFFFFFFFFFFFFFFFFFFFFFFFFF AND DUP2 MSTORE PUSH1 0x20 ADD SWAP1 DUP2 MSTORE PUSH1 0x20 ADD PUSH1 0x0 KECCAK256 SLOAD LT ISZERO PUSH2 0x725 JUMPI PUSH1 0x40 MLOAD PUSH32 0x8C379A000000000000000000000000000000000000000000000000000000000 DUP2 MSTORE PUSH1 0x4 ADD PUSH2 0x71C SWAP1 PUSH2 0x1816 JUMP JUMPDEST PUSH1 0x40 MLOAD DUP1 SWAP2 SUB SWAP1 REVERT JUMPDEST PUSH1 0x1 PUSH1 0x6 PUSH1 0x0 CALLER PUSH20 0xFFFFFFFFFFFFFFFFFFFFFFFFFFFFFFFFFFFFFFFF AND PUSH20 0xFFFFFFFFFFFFFFFFFFFFFFFFFFFFFFFFFFFFFFFF AND DUP2 MSTORE PUSH1 0x20 ADD SWAP1 DUP2 MSTORE PUSH1 0x20 ADD PUSH1 0x0 KECCAK256 SLOAD PUSH2 0x771 SWAP2 SWAP1 PUSH2 0x1865 JUMP JUMPDEST NUMBER GT PUSH2 0x7B2 JUMPI PUSH1 0x40 MLOAD PUSH32 0x8C379A000000000000000000000000000000000000000000000000000000000 DUP2 MSTORE PUSH1 0x4 ADD PUSH2 0x7A9 SWAP1 PUSH2 0x18E5 JUMP JUMPDEST PUSH1 0x40 MLOAD DUP1 SWAP2 SUB SWAP1 REVERT JUMPDEST PUSH2 0x7BB DUP3 PUSH2 0xB61 JUMP JUMPDEST SWAP1 POP PUSH8 0x8AC7230489E80000 DUP2 PUSH1 0x4 SLOAD PUSH2 0x7D4 SWAP2 SWAP1 PUSH2 0x1905 JUMP JUMPDEST LT ISZERO DUP1 PUSH2 0x7EE JUMPI POP PUSH1 0x0 DUP2 PUSH1 0x4 SLOAD PUSH2 0x7EC SWAP2 SWAP1 PUSH2 0x1905 JUMP JUMPDEST EQ JUMPDEST PUSH2 0x82D JUMPI PUSH1 0x40 MLOAD PUSH32 0x8C379A000000000000000000000000000000000000000000000000000000000 DUP2 MSTORE PUSH1 0x4 ADD PUSH2 0x824 SWAP1 PUSH2 0x1985 JUMP JUMPDEST PUSH1 0x40 MLOAD DUP1 SWAP2 SUB SWAP1 REVERT JUMPDEST DUP2 PUSH1 0x5 PUSH1 0x0 CALLER PUSH20 0xFFFFFFFFFFFFFFFFFFFFFFFFFFFFFFFFFFFFFFFF AND PUSH20 0xFFFFFFFFFFFFFFFFFFFFFFFFFFFFFFFFFFFFFFFF AND DUP2 MSTORE PUSH1 0x20 ADD SWAP1 DUP2 MSTORE PUSH1 0x20 ADD PUSH1 0x0 KECCAK256 PUSH1 0x0 DUP3 DUP3 SLOAD PUSH2 0x87C SWAP2 SWAP1 PUSH2 0x1905 JUMP JUMPDEST SWAP3 POP POP DUP2 SWAP1 SSTORE POP DUP2 PUSH1 0x3 PUSH1 0x0 DUP3 DUP3 SLOAD PUSH2 0x895 SWAP2 SWAP1 PUSH2 0x1905 JUMP JUMPDEST SWAP3 POP POP DUP2 SWAP1 SSTORE POP DUP1 PUSH1 0x4 PUSH1 0x0 DUP3 DUP3 SLOAD PUSH2 0x8AE SWAP2 SWAP1 PUSH2 0x1905 JUMP JUMPDEST SWAP3 POP POP DUP2 SWAP1 SSTORE POP PUSH1 0x0 CALLER PUSH20 0xFFFFFFFFFFFFFFFFFFFFFFFFFFFFFFFFFFFFFFFF AND DUP3 PUSH1 0x40 MLOAD PUSH2 0x8DB SWAP1 PUSH2 0x19D6 JUMP JUMPDEST PUSH1 0x0 PUSH1 0x40 MLOAD DUP1 DUP4 SUB DUP2 DUP6 DUP8 GAS CALL SWAP3 POP POP POP RETURNDATASIZE DUP1 PUSH1 0x0 DUP2 EQ PUSH2 0x918 JUMPI PUSH1 0x40 MLOAD SWAP2 POP PUSH1 0x1F NOT PUSH1 0x3F RETURNDATASIZE ADD AND DUP3 ADD PUSH1 0x40 MSTORE RETURNDATASIZE DUP3 MSTORE RETURNDATASIZE PUSH1 0x0 PUSH1 0x20 DUP5 ADD RETURNDATACOPY PUSH2 0x91D JUMP JUMPDEST PUSH1 0x60 SWAP2 POP JUMPDEST POP POP SWAP1 POP DUP1 PUSH2 0x961 JUMPI PUSH1 0x40 MLOAD PUSH32 0x8C379A000000000000000000000000000000000000000000000000000000000 DUP2 MSTORE PUSH1 0x4 ADD PUSH2 0x958 SWAP1 PUSH2 0x1A37 JUMP JUMPDEST PUSH1 0x40 MLOAD DUP1 SWAP2 SUB SWAP1 REVERT JUMPDEST CALLER PUSH20 0xFFFFFFFFFFFFFFFFFFFFFFFFFFFFFFFFFFFFFFFF AND PUSH32 0xF279E6A1F5E320CCA91135676D9CB6E44CA8A08C0B88342BCDB1144F6511B568 DUP5 DUP5 PUSH1 0x40 MLOAD PUSH2 0x9A9 SWAP3 SWAP2 SWAP1 PUSH2 0x1A57 JUMP JUMPDEST PUSH1 0x40 MLOAD DUP1 SWAP2 SUB SWAP1 LOG2 POP PUSH2 0x9BA PUSH2 0x15C6 JUMP JUMPDEST SWAP2 SWAP1 POP JUMP JUMPDEST PUSH1 0x0 PUSH1 0x64 PUSH1 0x3 PUSH1 0x4 SLOAD PUSH2 0x9D2 SWAP2 SWAP1 PUSH2 0x1A80 JUMP JUMPDEST PUSH2 0x9DC SWAP2 SWAP1 PUSH2 0x1AF1 JUMP JUMPDEST SWAP1 POP SWAP1 JUMP JUMPDEST PUSH1 0x3 SLOAD DUP2 JUMP JUMPDEST PUSH1 0x1 PUSH1 0x0 SWAP1 SLOAD SWAP1 PUSH2 0x100 EXP SWAP1 DIV PUSH20 0xFFFFFFFFFFFFFFFFFFFFFFFFFFFFFFFFFFFFFFFF AND PUSH20 0xFFFFFFFFFFFFFFFFFFFFFFFFFFFFFFFFFFFFFFFF AND CALLER PUSH20 0xFFFFFFFFFFFFFFFFFFFFFFFFFFFFFFFFFFFFFFFF AND EQ PUSH2 0xA77 JUMPI PUSH1 0x40 MLOAD PUSH32 0x8C379A000000000000000000000000000000000000000000000000000000000 DUP2 MSTORE PUSH1 0x4 ADD PUSH2 0xA6E SWAP1 PUSH2 0x1B6E JUMP JUMPDEST PUSH1 0x40 MLOAD DUP1 SWAP2 SUB SWAP1 REVERT JUMPDEST PUSH1 0x0 PUSH20 0xFFFFFFFFFFFFFFFFFFFFFFFFFFFFFFFFFFFFFFFF AND DUP2 PUSH20 0xFFFFFFFFFFFFFFFFFFFFFFFFFFFFFFFFFFFFFFFF AND SUB PUSH2 0xAE6 JUMPI PUSH1 0x40 MLOAD PUSH32 0x8C379A000000000000000000000000000000000000000000000000000000000 DUP2 MSTORE PUSH1 0x4 ADD PUSH2 0xADD SWAP1 PUSH2 0x1BDA JUMP JUMPDEST PUSH1 0x40 MLOAD DUP1 SWAP2 SUB SWAP1 REVERT JUMPDEST DUP1 PUSH1 0x2 PUSH1 0x0 PUSH2 0x100 EXP DUP2 SLOAD DUP2 PUSH20 0xFFFFFFFFFFFFFFFFFFFFFFFFFFFFFFFFFFFFFFFF MUL NOT AND SWAP1 DUP4 PUSH20 0xFFFFFFFFFFFFFFFFFFFFFFFFFFFFFFFFFFFFFFFF AND MUL OR SWAP1 SSTORE POP PUSH32 0x94B488EE7F141E60E1C61FF77CC1188DCF8C457486D348A6802E58D765D98447 DUP2 PUSH1 0x40 MLOAD PUSH2 0xB56 SWAP2 SWAP1 PUSH2 0x1732 JUMP JUMPDEST PUSH1 0x40 MLOAD DUP1 SWAP2 SUB SWAP1 LOG1 POP JUMP JUMPDEST PUSH1 0x0 DUP1 PUSH1 0x3 SLOAD SUB PUSH2 0xB75 JUMPI PUSH1 0x0 SWAP1 POP PUSH2 0xB93 JUMP JUMPDEST PUSH1 0x3 SLOAD PUSH1 0x4 SLOAD DUP4 PUSH2 0xB86 SWAP2 SWAP1 PUSH2 0x1A80 JUMP JUMPDEST PUSH2 0xB90 SWAP2 SWAP1 PUSH2 0x1AF1 JUMP JUMPDEST SWAP1 POP JUMPDEST SWAP2 SWAP1 POP JUMP JUMPDEST PUSH1 0x3 DUP2 JUMP JUMPDEST PUSH1 0x0 PUSH1 0x2 PUSH1 0x0 SWAP1 SLOAD SWAP1 PUSH2 0x100 EXP SWAP1 DIV PUSH20 0xFFFFFFFFFFFFFFFFFFFFFFFFFFFFFFFFFFFFFFFF AND PUSH20 0xFFFFFFFFFFFFFFFFFFFFFFFFFFFFFFFFFFFFFFFF AND CALLER PUSH20 0xFFFFFFFFFFFFFFFFFFFFFFFFFFFFFFFFFFFFFFFF AND EQ PUSH2 0xC2F JUMPI PUSH1 0x40 MLOAD PUSH32 0x8C379A000000000000000000000000000000000000000000000000000000000 DUP2 MSTORE PUSH1 0x4 ADD PUSH2 0xC26 SWAP1 PUSH2 0x1C46 JUMP JUMPDEST PUSH1 0x40 MLOAD DUP1 SWAP2 SUB SWAP1 REVERT JUMPDEST PUSH8 0x8AC7230489E80000 DUP3 PUSH2 0xC43 SWAP2 SWAP1 PUSH2 0x1865 JUMP JUMPDEST PUSH1 0x4 SLOAD LT ISZERO PUSH2 0xC87 JUMPI PUSH1 0x40 MLOAD PUSH32 0x8C379A000000000000000000000000000000000000000000000000000000000 DUP2 MSTORE PUSH1 0x4 ADD PUSH2 0xC7E SWAP1 PUSH2 0x1CB2 JUMP JUMPDEST PUSH1 0x40 MLOAD DUP1 SWAP2 SUB SWAP1 REVERT JUMPDEST DUP2 PUSH1 0x4 PUSH1 0x0 DUP3 DUP3 SLOAD PUSH2 0xC99 SWAP2 SWAP1 PUSH2 0x1905 JUMP JUMPDEST SWAP3 POP POP DUP2 SWAP1 SSTORE POP PUSH1 0x0 PUSH1 0x2 PUSH1 0x0 SWAP1 SLOAD SWAP1 PUSH2 0x100 EXP SWAP1 DIV PUSH20 0xFFFFFFFFFFFFFFFFFFFFFFFFFFFFFFFFFFFFFFFF AND PUSH20 0xFFFFFFFFFFFFFFFFFFFFFFFFFFFFFFFFFFFFFFFF AND DUP4 PUSH1 0x40 MLOAD PUSH2 0xCE8 SWAP1 PUSH2 0x19D6 JUMP JUMPDEST PUSH1 0x0 PUSH1 0x40 MLOAD DUP1 DUP4 SUB DUP2 DUP6 DUP8 GAS CALL SWAP3 POP POP POP RETURNDATASIZE DUP1 PUSH1 0x0 DUP2 EQ PUSH2 0xD25 JUMPI PUSH1 0x40 MLOAD SWAP2 POP PUSH1 0x1F NOT PUSH1 0x3F RETURNDATASIZE ADD AND DUP3 ADD PUSH1 0x40 MSTORE RETURNDATASIZE DUP3 MSTORE RETURNDATASIZE PUSH1 0x0 PUSH1 0x20 DUP5 ADD RETURNDATACOPY PUSH2 0xD2A JUMP JUMPDEST PUSH1 0x60 SWAP2 POP JUMPDEST POP POP SWAP1 POP DUP1 PUSH2 0xD6E JUMPI PUSH1 0x40 MLOAD PUSH32 0x8C379A000000000000000000000000000000000000000000000000000000000 DUP2 MSTORE PUSH1 0x4 ADD PUSH2 0xD65 SWAP1 PUSH2 0x1A37 JUMP JUMPDEST PUSH1 0x40 MLOAD DUP1 SWAP2 SUB SWAP1 REVERT JUMPDEST PUSH32 0x78388F02D9DC4BA28CE22ED74518D0A3C763D8AE37209AC2B955E69099CC3A55 DUP4 PUSH1 0x40 MLOAD PUSH2 0xD9D SWAP2 SWAP1 PUSH2 0x15E9 JUMP JUMPDEST PUSH1 0x40 MLOAD DUP1 SWAP2 SUB SWAP1 LOG1 PUSH1 0x1 SWAP2 POP POP SWAP2 SWAP1 POP JUMP JUMPDEST PUSH8 0x8AC7230489E80000 DUP2 JUMP JUMPDEST PUSH1 0x0 PUSH2 0xDC5 PUSH2 0x9BF JUMP JUMPDEST DUP3 GT ISZERO PUSH2 0xDD5 JUMPI PUSH1 0x0 SWAP1 POP PUSH2 0xE1F JUMP JUMPDEST PUSH1 0x0 PUSH1 0x64 PUSH1 0xBE DUP5 PUSH2 0xDE6 SWAP2 SWAP1 PUSH2 0x1A80 JUMP JUMPDEST PUSH2 0xDF0 SWAP2 SWAP1 PUSH2 0x1AF1 JUMP JUMPDEST SWAP1 POP PUSH8 0x8AC7230489E80000 DUP2 PUSH2 0xE06 SWAP2 SWAP1 PUSH2 0x1865 JUMP JUMPDEST PUSH1 0x4 SLOAD LT ISZERO PUSH2 0xE19 JUMPI PUSH1 0x0 SWAP2 POP POP PUSH2 0xE1F JUMP JUMPDEST PUSH1 0x1 SWAP2 POP POP JUMPDEST SWAP2 SWAP1 POP JUMP JUMPDEST PUSH1 0x0 PUSH2 0xE6E PUSH1 0x5 PUSH1 0x0 DUP5 PUSH20 0xFFFFFFFFFFFFFFFFFFFFFFFFFFFFFFFFFFFFFFFF AND PUSH20 0xFFFFFFFFFFFFFFFFFFFFFFFFFFFFFFFFFFFFFFFF AND DUP2 MSTORE PUSH1 0x20 ADD SWAP1 DUP2 MSTORE PUSH1 0x20 ADD PUSH1 0x0 KECCAK256 SLOAD PUSH2 0xB61 JUMP JUMPDEST SWAP1 POP SWAP2 SWAP1 POP JUMP JUMPDEST PUSH1 0x0 ADDRESS PUSH20 0xFFFFFFFFFFFFFFFFFFFFFFFFFFFFFFFFFFFFFFFF AND PUSH4 0x2E1A7D4D PUSH1 0x5 PUSH1 0x0 CALLER PUSH20 0xFFFFFFFFFFFFFFFFFFFFFFFFFFFFFFFFFFFFFFFF AND PUSH20 0xFFFFFFFFFFFFFFFFFFFFFFFFFFFFFFFFFFFFFFFF AND DUP2 MSTORE PUSH1 0x20 ADD SWAP1 DUP2 MSTORE PUSH1 0x20 ADD PUSH1 0x0 KECCAK256 SLOAD PUSH1 0x40 MLOAD DUP3 PUSH4 0xFFFFFFFF AND PUSH1 0xE0 SHL DUP2 MSTORE PUSH1 0x4 ADD PUSH2 0xEEF SWAP2 SWAP1 PUSH2 0x15E9 JUMP JUMPDEST PUSH1 0x20 PUSH1 0x40 MLOAD DUP1 DUP4 SUB DUP2 PUSH1 0x0 DUP8 GAS CALL ISZERO DUP1 ISZERO PUSH2 0xF0E JUMPI RETURNDATASIZE PUSH1 0x0 DUP1 RETURNDATACOPY RETURNDATASIZE PUSH1 0x0 REVERT JUMPDEST POP POP POP POP PUSH1 0x40 MLOAD RETURNDATASIZE PUSH1 0x1F NOT PUSH1 0x1F DUP3 ADD AND DUP3 ADD DUP1 PUSH1 0x40 MSTORE POP DUP2 ADD SWAP1 PUSH2 0xF32 SWAP2 SWAP1 PUSH2 0x1CE7 JUMP JUMPDEST SWAP1 POP SWAP1 JUMP JUMPDEST PUSH1 0x1 PUSH1 0x0 SWAP1 SLOAD SWAP1 PUSH2 0x100 EXP SWAP1 DIV PUSH20 0xFFFFFFFFFFFFFFFFFFFFFFFFFFFFFFFFFFFFFFFF AND DUP2 JUMP JUMPDEST PUSH1 0x1 DUP2 JUMP JUMPDEST PUSH2 0x3E8 DUP2 JUMP JUMPDEST PUSH1 0x2 PUSH1 0x0 SWAP1 SLOAD SWAP1 PUSH2 0x100 EXP SWAP1 DIV PUSH20 0xFFFFFFFFFFFFFFFFFFFFFFFFFFFFFFFFFFFFFFFF AND PUSH20 0xFFFFFFFFFFFFFFFFFFFFFFFFFFFFFFFFFFFFFFFF AND CALLER PUSH20 0xFFFFFFFFFFFFFFFFFFFFFFFFFFFFFFFFFFFFFFFF AND EQ PUSH2 0xFF8 JUMPI PUSH1 0x40 MLOAD PUSH32 0x8C379A000000000000000000000000000000000000000000000000000000000 DUP2 MSTORE PUSH1 0x4 ADD PUSH2 0xFEF SWAP1 PUSH2 0x1C46 JUMP JUMPDEST PUSH1 0x40 MLOAD DUP1 SWAP2 SUB SWAP1 REVERT JUMPDEST DUP1 PUSH1 0x4 PUSH1 0x0 DUP3 DUP3 SLOAD PUSH2 0x100A SWAP2 SWAP1 PUSH2 0x1865 JUMP JUMPDEST SWAP3 POP POP DUP2 SWAP1 SSTORE POP PUSH32 0x25911B9734BD99189872DC430CA90014469D827C1DA351E3D21F0DA926D83DC DUP2 PUSH1 0x40 MLOAD PUSH2 0x1040 SWAP2 SWAP1 PUSH2 0x15E9 JUMP JUMPDEST PUSH1 0x40 MLOAD DUP1 SWAP2 SUB SWAP1 LOG1 POP JUMP JUMPDEST PUSH1 0x5 PUSH1 0x20 MSTORE DUP1 PUSH1 0x0 MSTORE PUSH1 0x40 PUSH1 0x0 KECCAK256 PUSH1 0x0 SWAP2 POP SWAP1 POP SLOAD DUP2 JUMP JUMPDEST PUSH1 0x0 PUSH2 0x106D PUSH2 0x1580 JUMP JUMPDEST PUSH8 0xDE0B6B3A7640000 CALLVALUE LT ISZERO PUSH2 0x10B8 JUMPI PUSH1 0x40 MLOAD PUSH32 0x8C379A000000000000000000000000000000000000000000000000000000000 DUP2 MSTORE PUSH1 0x4 ADD PUSH2 0x10AF SWAP1 PUSH2 0x1D60 JUMP JUMPDEST PUSH1 0x40 MLOAD DUP1 SWAP2 SUB SWAP1 REVERT JUMPDEST PUSH1 0x0 CALLVALUE PUSH1 0x4 SLOAD PUSH2 0x10C8 SWAP2 SWAP1 PUSH2 0x1865 JUMP JUMPDEST SWAP1 POP PUSH1 0x0 CALLVALUE PUSH2 0x1115 PUSH1 0x5 PUSH1 0x0 CALLER PUSH20 0xFFFFFFFFFFFFFFFFFFFFFFFFFFFFFFFFFFFFFFFF AND PUSH20 0xFFFFFFFFFFFFFFFFFFFFFFFFFFFFFFFFFFFFFFFF AND DUP2 MSTORE PUSH1 0x20 ADD SWAP1 DUP2 MSTORE PUSH1 0x20 ADD PUSH1 0x0 KECCAK256 SLOAD PUSH2 0xB61 JUMP JUMPDEST PUSH2 0x111F SWAP2 SWAP1 PUSH2 0x1865 JUMP JUMPDEST SWAP1 POP PUSH1 0x64 PUSH1 0xA DUP4 PUSH2 0x1130 SWAP2 SWAP1 PUSH2 0x1A80 JUMP JUMPDEST PUSH2 0x113A SWAP2 SWAP1 PUSH2 0x1AF1 JUMP JUMPDEST DUP2 GT ISZERO DUP1 PUSH2 0x114A JUMPI POP PUSH1 0x0 PUSH1 0x4 SLOAD EQ JUMPDEST PUSH2 0x1189 JUMPI PUSH1 0x40 MLOAD PUSH32 0x8C379A000000000000000000000000000000000000000000000000000000000 DUP2 MSTORE PUSH1 0x4 ADD PUSH2 0x1180 SWAP1 PUSH2 0x1DCC JUMP JUMPDEST PUSH1 0x40 MLOAD DUP1 SWAP2 SUB SWAP1 REVERT JUMPDEST PUSH1 0x0 PUSH1 0x3 SLOAD SUB PUSH2 0x11B1 JUMPI PUSH2 0x3E8 CALLVALUE PUSH2 0x11A1 SWAP2 SWAP1 PUSH2 0x1905 JUMP JUMPDEST SWAP3 POP PUSH2 0x3E8 PUSH1 0x3 DUP2 SWAP1 SSTORE POP PUSH2 0x11CF JUMP JUMPDEST PUSH1 0x4 SLOAD PUSH1 0x3 SLOAD CALLVALUE PUSH2 0x11C2 SWAP2 SWAP1 PUSH2 0x1A80 JUMP JUMPDEST PUSH2 0x11CC SWAP2 SWAP1 PUSH2 0x1AF1 JUMP JUMPDEST SWAP3 POP JUMPDEST PUSH1 0x0 DUP4 GT PUSH2 0x1212 JUMPI PUSH1 0x40 MLOAD PUSH32 0x8C379A000000000000000000000000000000000000000000000000000000000 DUP2 MSTORE PUSH1 0x4 ADD PUSH2 0x1209 SWAP1 PUSH2 0x17AA JUMP JUMPDEST PUSH1 0x40 MLOAD DUP1 SWAP2 SUB SWAP1 REVERT JUMPDEST DUP3 PUSH1 0x5 PUSH1 0x0 CALLER PUSH20 0xFFFFFFFFFFFFFFFFFFFFFFFFFFFFFFFFFFFFFFFF AND PUSH20 0xFFFFFFFFFFFFFFFFFFFFFFFFFFFFFFFFFFFFFFFF AND DUP2 MSTORE PUSH1 0x20 ADD SWAP1 DUP2 MSTORE PUSH1 0x20 ADD PUSH1 0x0 KECCAK256 PUSH1 0x0 DUP3 DUP3 SLOAD PUSH2 0x1261 SWAP2 SWAP1 PUSH2 0x1865 JUMP JUMPDEST SWAP3 POP POP DUP2 SWAP1 SSTORE POP DUP3 PUSH1 0x3 PUSH1 0x0 DUP3 DUP3 SLOAD PUSH2 0x127A SWAP2 SWAP1 PUSH2 0x1865 JUMP JUMPDEST SWAP3 POP POP DUP2 SWAP1 SSTORE POP CALLVALUE PUSH1 0x4 PUSH1 0x0 DUP3 DUP3 SLOAD PUSH2 0x1293 SWAP2 SWAP1 PUSH2 0x1865 JUMP JUMPDEST SWAP3 POP POP DUP2 SWAP1 SSTORE POP NUMBER PUSH1 0x6 PUSH1 0x0 CALLER PUSH20 0xFFFFFFFFFFFFFFFFFFFFFFFFFFFFFFFFFFFFFFFF AND PUSH20 0xFFFFFFFFFFFFFFFFFFFFFFFFFFFFFFFFFFFFFFFF AND DUP2 MSTORE PUSH1 0x20 ADD SWAP1 DUP2 MSTORE PUSH1 0x20 ADD PUSH1 0x0 KECCAK256 DUP2 SWAP1 SSTORE POP CALLER PUSH20 0xFFFFFFFFFFFFFFFFFFFFFFFFFFFFFFFFFFFFFFFF AND PUSH32 0x90890809C654F11D6E72A28FA60149770A0D11EC6C92319D6CEB2BB0A4EA1A15 CALLVALUE DUP6 PUSH1 0x40 MLOAD PUSH2 0x1326 SWAP3 SWAP2 SWAP1 PUSH2 0x1A57 JUMP JUMPDEST PUSH1 0x40 MLOAD DUP1 SWAP2 SUB SWAP1 LOG2 POP POP PUSH2 0x1338 PUSH2 0x15C6 JUMP JUMPDEST SWAP1 JUMP JUMPDEST PUSH1 0x2 PUSH1 0x0 SWAP1 SLOAD SWAP1 PUSH2 0x100 EXP SWAP1 DIV PUSH20 0xFFFFFFFFFFFFFFFFFFFFFFFFFFFFFFFFFFFFFFFF AND DUP2 JUMP JUMPDEST PUSH8 0xDE0B6B3A7640000 DUP2 JUMP JUMPDEST PUSH1 0xA DUP2 JUMP JUMPDEST PUSH1 0x0 DUP1 PUSH1 0x3 SLOAD SUB PUSH2 0x1386 JUMPI PUSH1 0x0 SWAP1 POP PUSH2 0x13F5 JUMP JUMPDEST PUSH1 0x3 SLOAD PUSH1 0x64 PUSH8 0xDE0B6B3A7640000 PUSH1 0x5 PUSH1 0x0 DUP7 PUSH20 0xFFFFFFFFFFFFFFFFFFFFFFFFFFFFFFFFFFFFFFFF AND PUSH20 0xFFFFFFFFFFFFFFFFFFFFFFFFFFFFFFFFFFFFFFFF AND DUP2 MSTORE PUSH1 0x20 ADD SWAP1 DUP2 MSTORE PUSH1 0x20 ADD PUSH1 0x0 KECCAK256 SLOAD PUSH2 0x13DE SWAP2 SWAP1 PUSH2 0x1A80 JUMP JUMPDEST PUSH2 0x13E8 SWAP2 SWAP1 PUSH2 0x1A80 JUMP JUMPDEST PUSH2 0x13F2 SWAP2 SWAP1 PUSH2 0x1AF1 JUMP JUMPDEST SWAP1 POP JUMPDEST SWAP2 SWAP1 POP JUMP JUMPDEST PUSH1 0x0 DUP1 PUSH1 0x3 SLOAD SUB PUSH2 0x141A JUMPI PUSH2 0x3E8 DUP3 PUSH2 0x1413 SWAP2 SWAP1 PUSH2 0x1905 JUMP JUMPDEST SWAP1 POP PUSH2 0x1438 JUMP JUMPDEST PUSH1 0x4 SLOAD PUSH1 0x3 SLOAD DUP4 PUSH2 0x142B SWAP2 SWAP1 PUSH2 0x1A80 JUMP JUMPDEST PUSH2 0x1435 SWAP2 SWAP1 PUSH2 0x1AF1 JUMP JUMPDEST SWAP1 POP JUMPDEST SWAP2 SWAP1 POP JUMP JUMPDEST PUSH1 0x1 PUSH1 0x0 SWAP1 SLOAD SWAP1 PUSH2 0x100 EXP SWAP1 DIV PUSH20 0xFFFFFFFFFFFFFFFFFFFFFFFFFFFFFFFFFFFFFFFF AND PUSH20 0xFFFFFFFFFFFFFFFFFFFFFFFFFFFFFFFFFFFFFFFF AND CALLER PUSH20 0xFFFFFFFFFFFFFFFFFFFFFFFFFFFFFFFFFFFFFFFF AND EQ PUSH2 0x14CD JUMPI PUSH1 0x40 MLOAD PUSH32 0x8C379A000000000000000000000000000000000000000000000000000000000 DUP2 MSTORE PUSH1 0x4 ADD PUSH2 0x14C4 SWAP1 PUSH2 0x1B6E JUMP JUMPDEST PUSH1 0x40 MLOAD DUP1 SWAP2 SUB SWAP1 REVERT JUMPDEST PUSH1 0x0 PUSH20 0xFFFFFFFFFFFFFFFFFFFFFFFFFFFFFFFFFFFFFFFF AND DUP2 PUSH20 0xFFFFFFFFFFFFFFFFFFFFFFFFFFFFFFFFFFFFFFFF AND SUB PUSH2 0x153C JUMPI PUSH1 0x40 MLOAD PUSH32 0x8C379A000000000000000000000000000000000000000000000000000000000 DUP2 MSTORE PUSH1 0x4 ADD PUSH2 0x1533 SWAP1 PUSH2 0x1BDA JUMP JUMPDEST PUSH1 0x40 MLOAD DUP1 SWAP2 SUB SWAP1 REVERT JUMPDEST DUP1 PUSH1 0x1 PUSH1 0x0 PUSH2 0x100 EXP DUP2 SLOAD DUP2 PUSH20 0xFFFFFFFFFFFFFFFFFFFFFFFFFFFFFFFFFFFFFFFF MUL NOT AND SWAP1 DUP4 PUSH20 0xFFFFFFFFFFFFFFFFFFFFFFFFFFFFFFFFFFFFFFFF AND MUL OR SWAP1 SSTORE POP POP JUMP JUMPDEST PUSH1 0x2 PUSH1 0x0 SLOAD SUB PUSH2 0x15BC JUMPI PUSH1 0x40 MLOAD PUSH32 0x3EE5AEB500000000000000000000000000000000000000000000000000000000 DUP2 MSTORE PUSH1 0x4 ADD PUSH1 0x40 MLOAD DUP1 SWAP2 SUB SWAP1 REVERT JUMPDEST PUSH1 0x2 PUSH1 0x0 DUP2 SWAP1 SSTORE POP JUMP JUMPDEST PUSH1 0x1 PUSH1 0x0 DUP2 SWAP1 SSTORE POP JUMP JUMPDEST PUSH1 0x0 DUP2 SWAP1 POP SWAP2 SWAP1 POP JUMP JUMPDEST PUSH2 0x15E3 DUP2 PUSH2 0x15D0 JUMP JUMPDEST DUP3 MSTORE POP POP JUMP JUMPDEST PUSH1 0x0 PUSH1 0x20 DUP3 ADD SWAP1 POP PUSH2 0x15FE PUSH1 0x0 DUP4 ADD DUP5 PUSH2 0x15DA JUMP JUMPDEST SWAP3 SWAP2 POP POP JUMP JUMPDEST PUSH1 0x0 DUP1 REVERT JUMPDEST PUSH1 0x0 PUSH20 0xFFFFFFFFFFFFFFFFFFFFFFFFFFFFFFFFFFFFFFFF DUP3 AND SWAP1 POP SWAP2 SWAP1 POP JUMP JUMPDEST PUSH1 0x0 PUSH2 0x1634 DUP3 PUSH2 0x1609 JUMP JUMPDEST SWAP1 POP SWAP2 SWAP1 POP JUMP JUMPDEST PUSH2 0x1644 DUP2 PUSH2 0x1629 JUMP JUMPDEST DUP2 EQ PUSH2 0x164F JUMPI PUSH1 0x0 DUP1 REVERT JUMPDEST POP JUMP JUMPDEST PUSH1 0x0 DUP2 CALLDATALOAD SWAP1 POP PUSH2 0x1661 DUP2 PUSH2 0x163B JUMP JUMPDEST SWAP3 SWAP2 POP POP JUMP JUMPDEST PUSH1 0x0 PUSH1 0x20 DUP3 DUP5 SUB SLT ISZERO PUSH2 0x167D JUMPI PUSH2 0x167C PUSH2 0x1604 JUMP JUMPDEST JUMPDEST PUSH1 0x0 PUSH2 0x168B DUP5 DUP3 DUP6 ADD PUSH2 0x1652 JUMP JUMPDEST SWAP2 POP POP SWAP3 SWAP2 POP POP JUMP JUMPDEST PUSH2 0x169D DUP2 PUSH2 0x15D0 JUMP JUMPDEST DUP2 EQ PUSH2 0x16A8 JUMPI PUSH1 0x0 DUP1 REVERT JUMPDEST POP JUMP JUMPDEST PUSH1 0x0 DUP2 CALLDATALOAD SWAP1 POP PUSH2 0x16BA DUP2 PUSH2 0x1694 JUMP JUMPDEST SWAP3 SWAP2 POP POP JUMP JUMPDEST PUSH1 0x0 PUSH1 0x20 DUP3 DUP5 SUB SLT ISZERO PUSH2 0x16D6 JUMPI PUSH2 0x16D5 PUSH2 0x1604 JUMP JUMPDEST JUMPDEST PUSH1 0x0 PUSH2 0x16E4 DUP5 DUP3 DUP6 ADD PUSH2 0x16AB JUMP JUMPDEST SWAP2 POP POP SWAP3 SWAP2 POP POP JUMP JUMPDEST PUSH1 0x0 DUP2 ISZERO ISZERO SWAP1 POP SWAP2 SWAP1 POP JUMP JUMPDEST PUSH2 0x1702 DUP2 PUSH2 0x16ED JUMP JUMPDEST DUP3 MSTORE POP POP JUMP JUMPDEST PUSH1 0x0 PUSH1 0x20 DUP3 ADD SWAP1 POP PUSH2 0x171D PUSH1 0x0 DUP4 ADD DUP5 PUSH2 0x16F9 JUMP JUMPDEST SWAP3 SWAP2 POP POP JUMP JUMPDEST PUSH2 0x172C DUP2 PUSH2 0x1629 JUMP JUMPDEST DUP3 MSTORE POP POP JUMP JUMPDEST PUSH1 0x0 PUSH1 0x20 DUP3 ADD SWAP1 POP PUSH2 0x1747 PUSH1 0x0 DUP4 ADD DUP5 PUSH2 0x1723 JUMP JUMPDEST SWAP3 SWAP2 POP POP JUMP JUMPDEST PUSH1 0x0 DUP3 DUP3 MSTORE PUSH1 0x20 DUP3 ADD SWAP1 POP SWAP3 SWAP2 POP POP JUMP JUMPDEST PUSH32 0x5A65726F20736861726573000000000000000000000000000000000000000000 PUSH1 0x0 DUP3 ADD MSTORE POP JUMP JUMPDEST PUSH1 0x0 PUSH2 0x1794 PUSH1 0xB DUP4 PUSH2 0x174D JUMP JUMPDEST SWAP2 POP PUSH2 0x179F DUP3 PUSH2 0x175E JUMP JUMPDEST PUSH1 0x20 DUP3 ADD SWAP1 POP SWAP2 SWAP1 POP JUMP JUMPDEST PUSH1 0x0 PUSH1 0x20 DUP3 ADD SWAP1 POP DUP2 DUP2 SUB PUSH1 0x0 DUP4 ADD MSTORE PUSH2 0x17C3 DUP2 PUSH2 0x1787 JUMP JUMPDEST SWAP1 POP SWAP2 SWAP1 POP JUMP JUMPDEST PUSH32 0x496E73756666696369656E742073686172657300000000000000000000000000 PUSH1 0x0 DUP3 ADD MSTORE POP JUMP JUMPDEST PUSH1 0x0 PUSH2 0x1800 PUSH1 0x13 DUP4 PUSH2 0x174D JUMP JUMPDEST SWAP2 POP PUSH2 0x180B DUP3 PUSH2 0x17CA JUMP JUMPDEST PUSH1 0x20 DUP3 ADD SWAP1 POP SWAP2 SWAP1 POP JUMP JUMPDEST PUSH1 0x0 PUSH1 0x20 DUP3 ADD SWAP1 POP DUP2 DUP2 SUB PUSH1 0x0 DUP4 ADD MSTORE PUSH2 0x182F DUP2 PUSH2 0x17F3 JUMP JUMPDEST SWAP1 POP SWAP2 SWAP1 POP JUMP JUMPDEST PUSH32 0x4E487B7100000000000000000000000000000000000000000000000000000000 PUSH1 0x0 MSTORE PUSH1 0x11 PUSH1 0x4 MSTORE PUSH1 0x24 PUSH1 0x0 REVERT JUMPDEST PUSH1 0x0 PUSH2 0x1870 DUP3 PUSH2 0x15D0 JUMP JUMPDEST SWAP2 POP PUSH2 0x187B DUP4 PUSH2 0x15D0 JUMP JUMPDEST SWAP3 POP DUP3 DUP3 ADD SWAP1 POP DUP1 DUP3 GT ISZERO PUSH2 0x1893 JUMPI PUSH2 0x1892 PUSH2 0x1836 JUMP JUMPDEST JUMPDEST SWAP3 SWAP2 POP POP JUMP JUMPDEST PUSH32 0x57697468647261772064656C6179206E6F74206D657400000000000000000000 PUSH1 0x0 DUP3 ADD MSTORE POP JUMP JUMPDEST PUSH1 0x0 PUSH2 0x18CF PUSH1 0x16 DUP4 PUSH2 0x174D JUMP JUMPDEST SWAP2 POP PUSH2 0x18DA DUP3 PUSH2 0x1899 JUMP JUMPDEST PUSH1 0x20 DUP3 ADD SWAP1 POP SWAP2 SWAP1 POP JUMP JUMPDEST PUSH1 0x0 PUSH1 0x20 DUP3 ADD SWAP1 POP DUP2 DUP2 SUB PUSH1 0x0 DUP4 ADD MSTORE PUSH2 0x18FE DUP2 PUSH2 0x18C2 JUMP JUMPDEST SWAP1 POP SWAP2 SWAP1 POP JUMP JUMPDEST PUSH1 0x0 PUSH2 0x1910 DUP3 PUSH2 0x15D0 JUMP JUMPDEST SWAP2 POP PUSH2 0x191B DUP4 PUSH2 0x15D0 JUMP JUMPDEST SWAP3 POP DUP3 DUP3 SUB SWAP1 POP DUP2 DUP2 GT ISZERO PUSH2 0x1933 JUMPI PUSH2 0x1932 PUSH2 0x1836 JUMP JUMPDEST JUMPDEST SWAP3 SWAP2 POP POP JUMP JUMPDEST PUSH32 0x42656C6F77206D696E2072657365727665000000000000000000000000000000 PUSH1 0x0 DUP3 ADD MSTORE POP JUMP JUMPDEST PUSH1 0x0 PUSH2 0x196F PUSH1 0x11 DUP4 PUSH2 0x174D JUMP JUMPDEST SWAP2 POP PUSH2 0x197A DUP3 PUSH2 0x1939 JUMP JUMPDEST PUSH1 0x20 DUP3 ADD SWAP1 POP SWAP2 SWAP1 POP JUMP JUMPDEST PUSH1 0x0 PUSH1 0x20 DUP3 ADD SWAP1 POP DUP2 DUP2 SUB PUSH1 0x0 DUP4 ADD MSTORE PUSH2 0x199E DUP2 PUSH2 0x1962 JUMP JUMPDEST SWAP1 POP SWAP2 SWAP1 POP JUMP JUMPDEST PUSH1 0x0 DUP2 SWAP1 POP SWAP3 SWAP2 POP POP JUMP JUMPDEST POP JUMP JUMPDEST PUSH1 0x0 PUSH2 0x19C0 PUSH1 0x0 DUP4 PUSH2 0x19A5 JUMP JUMPDEST SWAP2 POP PUSH2 0x19CB DUP3 PUSH2 0x19B0 JUMP JUMPDEST PUSH1 0x0 DUP3 ADD SWAP1 POP SWAP2 SWAP1 POP JUMP JUMPDEST PUSH1 0x0 PUSH2 0x19E1 DUP3 PUSH2 0x19B3 JUMP JUMPDEST SWAP2 POP DUP2 SWAP1 POP SWAP2 SWAP1 POP JUMP JUMPDEST PUSH32 0x5472616E73666572206661696C65640000000000000000000000000000000000 PUSH1 0x0 DUP3 ADD MSTORE POP JUMP JUMPDEST PUSH1 0x0 PUSH2 0x1A21 PUSH1 0xF DUP4 PUSH2 0x174D JUMP JUMPDEST SWAP2 POP PUSH2 0x1A2C DUP3 PUSH2 0x19EB JUMP JUMPDEST PUSH1 0x20 DUP3 ADD SWAP1 POP SWAP2 SWAP1 POP JUMP JUMPDEST PUSH1 0x0 PUSH1 0x20 DUP3 ADD SWAP1 POP DUP2 DUP2 SUB PUSH1 0x0 DUP4 ADD MSTORE PUSH2 0x1A50 DUP2 PUSH2 0x1A14 JUMP JUMPDEST SWAP1 POP SWAP2 SWAP1 POP JUMP JUMPDEST PUSH1 0x0 PUSH1 0x40 DUP3 ADD SWAP1 POP PUSH2 0x1A6C PUSH1 0x0 DUP4 ADD DUP6 PUSH2 0x15DA JUMP JUMPDEST PUSH2 0x1A79 PUSH1 0x20 DUP4 ADD DUP5 PUSH2 0x15DA JUMP JUMPDEST SWAP4 SWAP3 POP POP POP JUMP JUMPDEST PUSH1 0x0 PUSH2 0x1A8B DUP3 PUSH2 0x15D0 JUMP JUMPDEST SWAP2 POP PUSH2 0x1A96 DUP4 PUSH2 0x15D0 JUMP JUMPDEST SWAP3 POP DUP3 DUP3 MUL PUSH2 0x1AA4 DUP2 PUSH2 0x15D0 JUMP JUMPDEST SWAP2 POP DUP3 DUP3 DIV DUP5 EQ DUP4 ISZERO OR PUSH2 0x1ABB JUMPI PUSH2 0x1ABA PUSH2 0x1836 JUMP JUMPDEST JUMPDEST POP SWAP3 SWAP2 POP POP JUMP JUMPDEST PUSH32 0x4E487B7100000000000000000000000000000000000000000000000000000000 PUSH1 0x0 MSTORE PUSH1 0x12 PUSH1 0x4 MSTORE PUSH1 0x24 PUSH1 0x0 REVERT JUMPDEST PUSH1 0x0 PUSH2 0x1AFC DUP3 PUSH2 0x15D0 JUMP JUMPDEST SWAP2 POP PUSH2 0x1B07 DUP4 PUSH2 0x15D0 JUMP JUMPDEST SWAP3 POP DUP3 PUSH2 0x1B17 JUMPI PUSH2 0x1B16 PUSH2 0x1AC2 JUMP JUMPDEST JUMPDEST DUP3 DUP3 DIV SWAP1 POP SWAP3 SWAP2 POP POP JUMP JUMPDEST PUSH32 0x4E6F74206F776E65720000000000000000000000000000000000000000000000 PUSH1 0x0 DUP3 ADD MSTORE POP JUMP JUMPDEST PUSH1 0x0 PUSH2 0x1B58 PUSH1 0x9 DUP4 PUSH2 0x174D JUMP JUMPDEST SWAP2 POP PUSH2 0x1B63 DUP3 PUSH2 0x1B22 JUMP JUMPDEST PUSH1 0x20 DUP3 ADD SWAP1 POP SWAP2 SWAP1 POP JUMP JUMPDEST PUSH1 0x0 PUSH1 0x20 DUP3 ADD SWAP1 POP DUP2 DUP2 SUB PUSH1 0x0 DUP4 ADD MSTORE PUSH2 0x1B87 DUP2 PUSH2 0x1B4B JUMP JUMPDEST SWAP1 POP SWAP2 SWAP1 POP JUMP JUMPDEST PUSH32 0x496E76616C696420616464726573730000000000000000000000000000000000 PUSH1 0x0 DUP3 ADD MSTORE POP JUMP JUMPDEST PUSH1 0x0 PUSH2 0x1BC4 PUSH1 0xF DUP4 PUSH2 0x174D JUMP JUMPDEST SWAP2 POP PUSH2 0x1BCF DUP3 PUSH2 0x1B8E JUMP JUMPDEST PUSH1 0x20 DUP3 ADD SWAP1 POP SWAP2 SWAP1 POP JUMP JUMPDEST PUSH1 0x0 PUSH1 0x20 DUP3 ADD SWAP1 POP DUP2 DUP2 SUB PUSH1 0x0 DUP4 ADD MSTORE PUSH2 0x1BF3 DUP2 PUSH2 0x1BB7 JUMP JUMPDEST SWAP1 POP SWAP2 SWAP1 POP JUMP JUMPDEST PUSH32 0x4E6F742067616D6520636F6E7472616374000000000000000000000000000000 PUSH1 0x0 DUP3 ADD MSTORE POP JUMP JUMPDEST PUSH1 0x0 PUSH2 0x1C30 PUSH1 0x11 DUP4 PUSH2 0x174D JUMP JUMPDEST SWAP2 POP PUSH2 0x1C3B DUP3 PUSH2 0x1BFA JUMP JUMPDEST PUSH1 0x20 DUP3 ADD SWAP1 POP SWAP2 SWAP1 POP JUMP JUMPDEST PUSH1 0x0 PUSH1 0x20 DUP3 ADD SWAP1 POP DUP2 DUP2 SUB PUSH1 0x0 DUP4 ADD MSTORE PUSH2 0x1C5F DUP2 PUSH2 0x1C23 JUMP JUMPDEST SWAP1 POP SWAP2 SWAP1 POP JUMP JUMPDEST PUSH32 0x496E73756666696369656E7420706F6F6C000000000000000000000000000000 PUSH1 0x0 DUP3 ADD MSTORE POP JUMP JUMPDEST PUSH1 0x0 PUSH2 0x1C9C PUSH1 0x11 DUP4 PUSH2 0x174D JUMP JUMPDEST SWAP2 POP PUSH2 0x1CA7 DUP3 PUSH2 0x1C66 JUMP JUMPDEST PUSH1 0x20 DUP3 ADD SWAP1 POP SWAP2 SWAP1 POP JUMP JUMPDEST PUSH1 0x0 PUSH1 0x20 DUP3 ADD SWAP1 POP DUP2 DUP2 SUB PUSH1 0x0 DUP4 ADD MSTORE PUSH2 0x1CCB DUP2 PUSH2 0x1C8F JUMP JUMPDEST SWAP1 POP SWAP2 SWAP1 POP JUMP JUMPDEST PUSH1 0x0 DUP2 MLOAD SWAP1 POP PUSH2 0x1CE1 DUP2 PUSH2 0x1694 JUMP JUMPDEST SWAP3 SWAP2 POP POP JUMP JUMPDEST PUSH1 0x0 PUSH1 0x20 DUP3 DUP5 SUB SLT ISZERO PUSH2 0x1CFD JUMPI PUSH2 0x1CFC PUSH2 0x1604 JUMP JUMPDEST JUMPDEST PUSH1 0x0 PUSH2 0x1D0B DUP5 DUP3 DUP6 ADD PUSH2 0x1CD2 JUMP JUMPDEST SWAP2 POP POP SWAP3 SWAP2 POP POP JUMP JUMPDEST PUSH32 0x42656C6F77206D696E206465706F736974000000000000000000000000000000 PUSH1 0x0 DUP3 ADD MSTORE POP JUMP JUMPDEST PUSH1 0x0 PUSH2 0x1D4A PUSH1 0x11 DUP4 PUSH2 0x174D JUMP JUMPDEST SWAP2 POP PUSH2 0x1D55 DUP3 PUSH2 0x1D14 JUMP JUMPDEST PUSH1 0x20 DUP3 ADD SWAP1 POP SWAP2 SWAP1 POP JUMP JUMPDEST PUSH1 0x0 PUSH1 0x20 DUP3 ADD SWAP1 POP DUP2 DUP2 SUB PUSH1 0x0 DUP4 ADD MSTORE PUSH2 0x1D79 DUP2 PUSH2 0x1D3D JUMP JUMPDEST SWAP1 POP SWAP2 SWAP1 POP JUMP JUMPDEST PUSH32 0x45786365656473206D6178206465706F73697400000000000000000000000000 PUSH1 0x0 DUP3 ADD MSTORE POP JUMP JUMPDEST PUSH1 0x0 PUSH2 0x1DB6 PUSH1 0x13 DUP4 PUSH2 0x174D JUMP JUMPDEST SWAP2 POP PUSH2 0x1DC1 DUP3 PUSH2 0x1D80 JUMP JUMPDEST PUSH1 0x20 DUP3 ADD SWAP1 POP SWAP2 SWAP1 POP JUMP JUMPDEST PUSH1 0x0 PUSH1 0x20 DUP3 ADD SWAP1 POP DUP2 DUP2 SUB PUSH1 0x0 DUP4 ADD MSTORE PUSH2 0x1DE5 DUP2 PUSH2 0x1DA9 JUMP JUMPDEST SWAP1 POP SWAP2 SWAP1 POP JUMP INVALID LOG2 PUSH5 0x6970667358 0x22 SLT KECCAK256 PUSH32 0xA97289BD3E7404958FD5D8ED8885297EFA35E313F0F228B576576BCC8A6A1C64 PUSH20 0x6F6C634300081800330000000000000000000000 "},"methodIdentifiers":{"DEAD_SHARES()":"9bffb798","MAX_BET_PERCENT()":"54202411","MAX_DEPOSIT_PERCENT()":"e624db84","MIN_DEPOSIT()":"e1e158a5","MIN_POOL_RESERVE()":"6d4086ba","WITHDRAW_DELAY_BLOCKS()":"9621a7e4","balanceOf(address)":"70a08231","canCoverBet(uint256)":"6e459d48","deposit()":"d0e30db0","depositBlock(address)":"202019a6","gameContract()":"d3f33009","maxBet()":"2e5b2168","owner()":"8da5cb5b","previewDeposit(uint256)":"ef8b30f7","previewRedeem(uint256)":"4cdad506","recordLoss(uint256)":"6022743e","recordWin(uint256)":"9e6611a5","setGameContract(address)":"405ebd4d","sharePercent(address)":"e6d24bbd","shares(address)":"ce7c2ac2","totalAssets()":"01e1d114","totalShares()":"3a98ef39","transferOwnership(address)":"f2fde38b","withdraw(uint256)":"2e1a7d4d","withdrawAll()":"853828b6"}}}}}