{
  "_format": "hh-sol-artifact-1",
  "contractName": "HouseVault",
  "sourceName": "contracts/HouseVault.sol",
  "abi": [
    {
      "inputs": [],
      "stateMutability": "nonpayable",
      "type": "constructor"
    },
    {
      "inputs": [],
      "name": "ReentrancyGuardReentrantCall",
      "type": "error"
    },
    {
      "anonymous": false,
      "inputs": [
        {
          "indexed": true,
          "internalType": "address",
          "name": "user",
          "type": "address"
        },
        {
          "indexed": false,
          "internalType": "uint256",
          "name": "amount",
          "type": "uint256"
        },
        {
          "indexed": false,
          "internalType": "uint256",
          "name": "sharesMinted",
          "type": "uint256"
        }
      ],
      "name": "Deposit",
      "type": "event"
    },
    {
      "anonymous": false,
      "inputs": [
        {
          "indexed": false,
          "internalType": "address",
          "name": "newGameContract",
          "type": "address"
        }
      ],
      "name": "GameContractUpdated",
      "type": "event"
    },
    {
      "anonymous": false,
      "inputs": [
        {
          "indexed": false,
          "internalType": "uint256",
          "name": "amount",
          "type": "uint256"
        }
      ],
      "name": "GameLoss",
      "type": "event"
    },
    {
      "anonymous": false,
      "inputs": [
        {
          "indexed": false,
          "internalType": "uint256",
          "name": "amount",
          "type": "uint256"
        }
      ],
      "name": "GameWin",
      "type": "event"
    },
    {
      "anonymous": false,
      "inputs": [
        {
          "indexed": true,
          "internalType": "address",
          "name": "user",
          "type": "address"
        },
        {
          "indexed": false,
          "internalType": "uint256",
          "name": "sharesAmount",
          "type": "uint256"
        },
        {
          "indexed": false,
          "internalType": "uint256",
          "name": "assetsReceived",
          "type": "uint256"
        }
      ],
      "name": "Withdraw",
      "type": "event"
    },
    {
      "inputs": [],
      "name": "DEAD_SHARES",
      "outputs": [
        {
          "internalType": "uint256",
          "name": "",
          "type": "uint256"
        }
      ],
      "stateMutability": "view",
      "type": "function"
    },
    {
      "inputs": [],
      "name": "MAX_BET_PERCENT",
      "outputs": [
        {
          "internalType": "uint256",
          "name": "",
          "type": "uint256"
        }
      ],
      "stateMutability": "view",
      "type": "function"
    },
    {
      "inputs": [],
      "name": "MAX_DEPOSIT_PERCENT",
      "outputs": [
        {
          "internalType": "uint256",
          "name": "",
          "type": "uint256"
        }
      ],
      "stateMutability": "view",
      "type": "function"
    },
    {
      "inputs": [],
      "name": "MIN_DEPOSIT",
      "outputs": [
        {
          "internalType": "uint256",
          "name": "",
          "type": "uint256"
        }
      ],
      "stateMutability": "view",
      "type": "function"
    },
    {
      "inputs": [],
      "name": "MIN_POOL_RESERVE",
      "outputs": [
        {
          "internalType": "uint256",
          "name": "",
          "type": "uint256"
        }
      ],
      "stateMutability": "view",
      "type": "function"
    },
    {
      "inputs": [],
      "name": "WITHDRAW_DELAY_BLOCKS",
      "outputs": [
        {
          "internalType": "uint256",
          "name": "",
          "type": "uint256"
        }
      ],
      "stateMutability": "view",
      "type": "function"
    },
    {
      "inputs": [
        {
          "internalType": "address",
          "name": "user",
          "type": "address"
        }
      ],
      "name": "balanceOf",
      "outputs": [
        {
          "internalType": "uint256",
          "name": "",
          "type": "uint256"
        }
      ],
      "stateMutability": "view",
      "type": "function"
    },
    {
      "inputs": [
        {
          "internalType": "uint256",
          "name": "amount",
          "type": "uint256"
        }
      ],
      "name": "canCoverBet",
      "outputs": [
        {
          "internalType": "bool",
          "name": "",
          "type": "bool"
        }
      ],
      "stateMutability": "view",
      "type": "function"
    },
    {
      "inputs": [],
      "name": "deposit",
      "outputs": [
        {
          "internalType": "uint256",
          "name": "sharesMinted",
          "type": "uint256"
        }
      ],
      "stateMutability": "payable",
      "type": "function"
    },
    {
      "inputs": [
        {
          "internalType": "address",
          "name": "",
          "type": "address"
        }
      ],
      "name": "depositBlock",
      "outputs": [
        {
          "internalType": "uint256",
          "name": "",
          "type": "uint256"
        }
      ],
      "stateMutability": "view",
      "type": "function"
    },
    {
      "inputs": [],
      "name": "gameContract",
      "outputs": [
        {
          "internalType": "address",
          "name": "",
          "type": "address"
        }
      ],
      "stateMutability": "view",
      "type": "function"
    },
    {
      "inputs": [],
      "name": "maxBet",
      "outputs": [
        {
          "internalType": "uint256",
          "name": "",
          "type": "uint256"
        }
      ],
      "stateMutability": "view",
      "type": "function"
    },
    {
      "inputs": [],
      "name": "owner",
      "outputs": [
        {
          "internalType": "address",
          "name": "",
          "type": "address"
        }
      ],
      "stateMutability": "view",
      "type": "function"
    },
    {
      "inputs": [
        {
          "internalType": "uint256",
          "name": "_assets",
          "type": "uint256"
        }
      ],
      "name": "previewDeposit",
      "outputs": [
        {
          "internalType": "uint256",
          "name": "",
          "type": "uint256"
        }
      ],
      "stateMutability": "view",
      "type": "function"
    },
    {
      "inputs": [
        {
          "internalType": "uint256",
          "name": "_shares",
          "type": "uint256"
        }
      ],
      "name": "previewRedeem",
      "outputs": [
        {
          "internalType": "uint256",
          "name": "",
          "type": "uint256"
        }
      ],
      "stateMutability": "view",
      "type": "function"
    },
    {
      "inputs": [
        {
          "internalType": "uint256",
          "name": "amount",
          "type": "uint256"
        }
      ],
      "name": "recordLoss",
      "outputs": [
        {
          "internalType": "bool",
          "name": "",
          "type": "bool"
        }
      ],
      "stateMutability": "nonpayable",
      "type": "function"
    },
    {
      "inputs": [],
      "name": "recordWin",
      "outputs": [],
      "stateMutability": "payable",
      "type": "function"
    },
    {
      "inputs": [
        {
          "internalType": "address",
          "name": "_gameContract",
          "type": "address"
        }
      ],
      "name": "setGameContract",
      "outputs": [],
      "stateMutability": "nonpayable",
      "type": "function"
    },
    {
      "inputs": [
        {
          "internalType": "address",
          "name": "user",
          "type": "address"
        }
      ],
      "name": "sharePercent",
      "outputs": [
        {
          "internalType": "uint256",
          "name": "",
          "type": "uint256"
        }
      ],
      "stateMutability": "view",
      "type": "function"
    },
    {
      "inputs": [
        {
          "internalType": "address",
          "name": "",
          "type": "address"
        }
      ],
      "name": "shares",
      "outputs": [
        {
          "internalType": "uint256",
          "name": "",
          "type": "uint256"
        }
      ],
      "stateMutability": "view",
      "type": "function"
    },
    {
      "inputs": [],
      "name": "totalAssets",
      "outputs": [
        {
          "internalType": "uint256",
          "name": "",
          "type": "uint256"
        }
      ],
      "stateMutability": "view",
      "type": "function"
    },
    {
      "inputs": [],
      "name": "totalShares",
      "outputs": [
        {
          "internalType": "uint256",
          "name": "",
          "type": "uint256"
        }
      ],
      "stateMutability": "view",
      "type": "function"
    },
    {
      "inputs": [
        {
          "internalType": "address",
          "name": "newOwner",
          "type": "address"
        }
      ],
      "name": "transferOwnership",
      "outputs": [],
      "stateMutability": "nonpayable",
      "type": "function"
    },
    {
      "inputs": [
        {
          "internalType": "uint256",
          "name": "_shares",
          "type": "uint256"
        }
      ],
      "name": "withdraw",
      "outputs": [
        {
          "internalType": "uint256",
          "name": "assets",
          "type": "uint256"
        }
      ],
      "stateMutability": "nonpayable",
      "type": "function"
    },
    {
      "inputs": [],
      "name": "withdrawAll",
      "outputs": [
        {
          "internalType": "uint256",
          "name": "assets",
          "type": "uint256"
        }
      ],
      "stateMutability": "nonpayable",
      "type": "function"
    },
    {
      "stateMutability": "payable",
      "type": "receive"
    }
  ],
  "bytecode": "0x608060405234801561001057600080fd5b50600160008190555033600160006101000a81548173ffffffffffffffffffffffffffffffffffffffff021916908373ffffffffffffffffffffffffffffffffffffffff160217905550611d72806100696000396000f3fe60806040526004361061016a5760003560e01c806370a08231116100d1578063d0e30db01161008a578063e624db8411610064578063e624db841461054b578063e6d24bbd14610576578063ef8b30f7146105b3578063f2fde38b146105f057610171565b8063d0e30db0146104d7578063d3f33009146104f5578063e1e158a51461052057610171565b806370a08231146103b1578063853828b6146103ee5780638da5cb5b146104195780639621a7e4146104445780639bffb7981461046f578063ce7c2ac21461049a57610171565b8063405ebd4d11610123578063405ebd4d1461027b5780634cdad506146102a457806354202411146102e15780636022743e1461030c5780636d4086ba146103495780636e459d481461037457610171565b806301e1d1141461017657806303eff0b8146101a1578063202019a6146101ab5780632e1a7d4d146101e85780632e5b2168146102255780633a98ef391461025057610171565b3661017157005b600080fd5b34801561018257600080fd5b5061018b610619565b6040516101989190611539565b60405180910390f35b6101a961061f565b005b3480156101b757600080fd5b506101d260048036038101906101cd91906115b7565b610744565b6040516101df9190611539565b60405180910390f35b3480156101f457600080fd5b5061020f600480360381019061020a9190611610565b61075c565b60405161021c9190611539565b60405180910390f35b34801561023157600080fd5b5061023a610ac5565b6040516102479190611539565b60405180910390f35b34801561025c57600080fd5b50610265610ae7565b6040516102729190611539565b60405180910390f35b34801561028757600080fd5b506102a2600480360381019061029d91906115b7565b610aed565b005b3480156102b057600080fd5b506102cb60048036038101906102c69190611610565b610c67565b6040516102d89190611539565b60405180910390f35b3480156102ed57600080fd5b506102f6610c9e565b6040516103039190611539565b60405180910390f35b34801561031857600080fd5b50610333600480360381019061032e9190611610565b610ca3565b6040516103409190611658565b60405180910390f35b34801561035557600080fd5b5061035e610eb5565b60405161036b9190611539565b60405180910390f35b34801561038057600080fd5b5061039b60048036038101906103969190611610565b610ec1565b6040516103a89190611658565b60405180910390f35b3480156103bd57600080fd5b506103d860048036038101906103d391906115b7565b610f2a565b6040516103e59190611539565b60405180910390f35b3480156103fa57600080fd5b50610403610f7b565b6040516104109190611539565b60405180910390f35b34801561042557600080fd5b5061042e61103d565b60405161043b9190611682565b60405180910390f35b34801561045057600080fd5b50610459611063565b6040516104669190611539565b60405180910390f35b34801561047b57600080fd5b50610484611068565b6040516104919190611539565b60405180910390f35b3480156104a657600080fd5b506104c160048036038101906104bc91906115b7565b61106e565b6040516104ce9190611539565b60405180910390f35b6104df611086565b6040516104ec9190611539565b60405180910390f35b34801561050157600080fd5b5061050a61128b565b6040516105179190611682565b60405180910390f35b34801561052c57600080fd5b506105356112b1565b6040516105429190611539565b60405180910390f35b34801561055757600080fd5b506105606112bd565b60405161056d9190611539565b60405180910390f35b34801561058257600080fd5b5061059d600480360381019061059891906115b7565b6112c2565b6040516105aa9190611539565b60405180910390f35b3480156105bf57600080fd5b506105da60048036038101906105d59190611610565b61134a565b6040516105e79190611539565b60405180910390f35b3480156105fc57600080fd5b50610617600480360381019061061291906115b7565b61138d565b005b60045481565b600260009054906101000a900473ffffffffffffffffffffffffffffffffffffffff1673ffffffffffffffffffffffffffffffffffffffff163373ffffffffffffffffffffffffffffffffffffffff16146106af576040517f08c379a00000000000000000000000000000000000000000000000000000000081526004016106a6906116fa565b60405180910390fd5b600034116106f2576040517f08c379a00000000000000000000000000000000000000000000000000000000081526004016106e990611766565b60405180910390fd5b346004600082825461070491906117b5565b925050819055507f025911b9734bd99189872dc430ca90014469d827c1da351e3d21f0da926d83dc3460405161073a9190611539565b60405180910390a1565b60066020528060005260406000206000915090505481565b60006107666114d0565b600082116107a9576040517f08c379a00000000000000000000000000000000000000000000000000000000081526004016107a090611835565b60405180910390fd5b81600560003373ffffffffffffffffffffffffffffffffffffffff1673ffffffffffffffffffffffffffffffffffffffff16815260200190815260200160002054101561082b576040517f08c379a0000000000000000000000000000000000000000000000000000000008152600401610822906118a1565b60405180910390fd5b6001600660003373ffffffffffffffffffffffffffffffffffffffff1673ffffffffffffffffffffffffffffffffffffffff1681526020019081526020016000205461087791906117b5565b43116108b8576040517f08c379a00000000000000000000000000000000000000000000000000000000081526004016108af9061190d565b60405180910390fd5b6108c182610c67565b9050678ac7230489e80000816004546108da919061192d565b1015806108f457506000816004546108f2919061192d565b145b610933576040517f08c379a000000000000000000000000000000000000000000000000000000000815260040161092a906119ad565b60405180910390fd5b81600560003373ffffffffffffffffffffffffffffffffffffffff1673ffffffffffffffffffffffffffffffffffffffff1681526020019081526020016000206000828254610982919061192d565b92505081905550816003600082825461099b919061192d565b9250508190555080600460008282546109b4919061192d565b9250508190555060003373ffffffffffffffffffffffffffffffffffffffff16826040516109e1906119fe565b60006040518083038185875af1925050503d8060008114610a1e576040519150601f19603f3d011682016040523d82523d6000602084013e610a23565b606091505b5050905080610a67576040517f08c379a0000000000000000000000000000000000000000000000000000000008152600401610a5e90611a5f565b60405180910390fd5b3373ffffffffffffffffffffffffffffffffffffffff167ff279e6a1f5e320cca91135676d9cb6e44ca8a08c0b88342bcdb1144f6511b5688484604051610aaf929190611a7f565b60405180910390a250610ac0611516565b919050565b60006064600a600454610ad89190611aa8565b610ae29190611b19565b905090565b60035481565b600160009054906101000a900473ffffffffffffffffffffffffffffffffffffffff1673ffffffffffffffffffffffffffffffffffffffff163373ffffffffffffffffffffffffffffffffffffffff1614610b7d576040517f08c379a0000000000000000000000000000000000000000000000000000000008152600401610b7490611b96565b60405180910390fd5b600073ffffffffffffffffffffffffffffffffffffffff168173ffffffffffffffffffffffffffffffffffffffff1603610bec576040517f08c379a0000000000000000000000000000000000000000000000000000000008152600401610be390611c02565b60405180910390fd5b80600260006101000a81548173ffffffffffffffffffffffffffffffffffffffff021916908373ffffffffffffffffffffffffffffffffffffffff1602179055507f94b488ee7f141e60e1c61ff77cc1188dcf8c457486d348a6802e58d765d9844781604051610c5c9190611682565b60405180910390a150565b60008060035403610c7b5760009050610c99565b60035460045483610c8c9190611aa8565b610c969190611b19565b90505b919050565b600a81565b6000600260009054906101000a900473ffffffffffffffffffffffffffffffffffffffff1673ffffffffffffffffffffffffffffffffffffffff163373ffffffffffffffffffffffffffffffffffffffff1614610d35576040517f08c379a0000000000000000000000000000000000000000000000000000000008152600401610d2c906116fa565b60405180910390fd5b678ac7230489e8000082610d4991906117b5565b6004541015610d8d576040517f08c379a0000000000000000000000000000000000000000000000000000000008152600401610d8490611c6e565b60405180910390fd5b8160046000828254610d9f919061192d565b925050819055506000600260009054906101000a900473ffffffffffffffffffffffffffffffffffffffff1673ffffffffffffffffffffffffffffffffffffffff1683604051610dee906119fe565b60006040518083038185875af1925050503d8060008114610e2b576040519150601f19603f3d011682016040523d82523d6000602084013e610e30565b606091505b5050905080610e74576040517f08c379a0000000000000000000000000000000000000000000000000000000008152600401610e6b90611a5f565b60405180910390fd5b7f78388f02d9dc4ba28ce22ed74518d0a3c763d8ae37209ac2b955e69099cc3a5583604051610ea39190611539565b60405180910390a16001915050919050565b678ac7230489e8000081565b6000610ecb610ac5565b821115610edb5760009050610f25565b6000606460be84610eec9190611aa8565b610ef69190611b19565b9050678ac7230489e8000081610f0c91906117b5565b6004541015610f1f576000915050610f25565b60019150505b919050565b6000610f74600560008473ffffffffffffffffffffffffffffffffffffffff1673ffffffffffffffffffffffffffffffffffffffff16815260200190815260200160002054610c67565b9050919050565b60003073ffffffffffffffffffffffffffffffffffffffff16632e1a7d4d600560003373ffffffffffffffffffffffffffffffffffffffff1673ffffffffffffffffffffffffffffffffffffffff168152602001908152602001600020546040518263ffffffff1660e01b8152600401610ff59190611539565b6020604051808303816000875af1158015611014573d6000803e3d6000fd5b505050506040513d601f19601f820116820180604052508101906110389190611ca3565b905090565b600160009054906101000a900473ffffffffffffffffffffffffffffffffffffffff1681565b600181565b6103e881565b60056020528060005260406000206000915090505481565b60006110906114d0565b670de0b6b3a76400003410156110db576040517f08c379a00000000000000000000000000000000000000000000000000000000081526004016110d290611d1c565b60405180910390fd5b600060035403611103576103e8346110f3919061192d565b90506103e8600381905550611121565b600454600354346111149190611aa8565b61111e9190611b19565b90505b60008111611164576040517f08c379a000000000000000000000000000000000000000000000000000000000815260040161115b90611835565b60405180910390fd5b80600560003373ffffffffffffffffffffffffffffffffffffffff1673ffffffffffffffffffffffffffffffffffffffff16815260200190815260200160002060008282546111b391906117b5565b9250508190555080600360008282546111cc91906117b5565b9250508190555034600460008282546111e591906117b5565b9250508190555043600660003373ffffffffffffffffffffffffffffffffffffffff1673ffffffffffffffffffffffffffffffffffffffff168152602001908152602001600020819055503373ffffffffffffffffffffffffffffffffffffffff167f90890809c654f11d6e72a28fa60149770a0d11ec6c92319d6ceb2bb0a4ea1a153483604051611278929190611a7f565b60405180910390a2611288611516565b90565b600260009054906101000a900473ffffffffffffffffffffffffffffffffffffffff1681565b670de0b6b3a764000081565b600a81565b600080600354036112d65760009050611345565b6003546064670de0b6b3a7640000600560008673ffffffffffffffffffffffffffffffffffffffff1673ffffffffffffffffffffffffffffffffffffffff1681526020019081526020016000205461132e9190611aa8565b6113389190611aa8565b6113429190611b19565b90505b919050565b6000806003540361136a576103e882611363919061192d565b9050611388565b6004546003548361137b9190611aa8565b6113859190611b19565b90505b919050565b600160009054906101000a900473ffffffffffffffffffffffffffffffffffffffff1673ffffffffffffffffffffffffffffffffffffffff163373ffffffffffffffffffffffffffffffffffffffff161461141d576040517f08c379a000000000000000000000000000000000000000000000000000000000815260040161141490611b96565b60405180910390fd5b600073ffffffffffffffffffffffffffffffffffffffff168173ffffffffffffffffffffffffffffffffffffffff160361148c576040517f08c379a000000000000000000000000000000000000000000000000000000000815260040161148390611c02565b60405180910390fd5b80600160006101000a81548173ffffffffffffffffffffffffffffffffffffffff021916908373ffffffffffffffffffffffffffffffffffffffff16021790555050565b60026000540361150c576040517f3ee5aeb500000000000000000000000000000000000000000000000000000000815260040160405180910390fd5b6002600081905550565b6001600081905550565b6000819050919050565b61153381611520565b82525050565b600060208201905061154e600083018461152a565b92915050565b600080fd5b600073ffffffffffffffffffffffffffffffffffffffff82169050919050565b600061158482611559565b9050919050565b61159481611579565b811461159f57600080fd5b50565b6000813590506115b18161158b565b92915050565b6000602082840312156115cd576115cc611554565b5b60006115db848285016115a2565b91505092915050565b6115ed81611520565b81146115f857600080fd5b50565b60008135905061160a816115e4565b92915050565b60006020828403121561162657611625611554565b5b6000611634848285016115fb565b91505092915050565b60008115159050919050565b6116528161163d565b82525050565b600060208201905061166d6000830184611649565b92915050565b61167c81611579565b82525050565b60006020820190506116976000830184611673565b92915050565b600082825260208201905092915050565b7f4e6f742067616d6520636f6e7472616374000000000000000000000000000000600082015250565b60006116e460118361169d565b91506116ef826116ae565b602082019050919050565b60006020820190508181036000830152611713816116d7565b9050919050565b7f4e6f2076616c75652073656e7400000000000000000000000000000000000000600082015250565b6000611750600d8361169d565b915061175b8261171a565b602082019050919050565b6000602082019050818103600083015261177f81611743565b9050919050565b7f4e487b7100000000000000000000000000000000000000000000000000000000600052601160045260246000fd5b60006117c082611520565b91506117cb83611520565b92508282019050808211156117e3576117e2611786565b5b92915050565b7f5a65726f20736861726573000000000000000000000000000000000000000000600082015250565b600061181f600b8361169d565b915061182a826117e9565b602082019050919050565b6000602082019050818103600083015261184e81611812565b9050919050565b7f496e73756666696369656e742073686172657300000000000000000000000000600082015250565b600061188b60138361169d565b915061189682611855565b602082019050919050565b600060208201905081810360008301526118ba8161187e565b9050919050565b7f57697468647261772064656c6179206e6f74206d657400000000000000000000600082015250565b60006118f760168361169d565b9150611902826118c1565b602082019050919050565b60006020820190508181036000830152611926816118ea565b9050919050565b600061193882611520565b915061194383611520565b925082820390508181111561195b5761195a611786565b5b92915050565b7f42656c6f77206d696e2072657365727665000000000000000000000000000000600082015250565b600061199760118361169d565b91506119a282611961565b602082019050919050565b600060208201905081810360008301526119c68161198a565b9050919050565b600081905092915050565b50565b60006119e86000836119cd565b91506119f3826119d8565b600082019050919050565b6000611a09826119db565b9150819050919050565b7f5472616e73666572206661696c65640000000000000000000000000000000000600082015250565b6000611a49600f8361169d565b9150611a5482611a13565b602082019050919050565b60006020820190508181036000830152611a7881611a3c565b9050919050565b6000604082019050611a94600083018561152a565b611aa1602083018461152a565b9392505050565b6000611ab382611520565b9150611abe83611520565b9250828202611acc81611520565b91508282048414831517611ae357611ae2611786565b5b5092915050565b7f4e487b7100000000000000000000000000000000000000000000000000000000600052601260045260246000fd5b6000611b2482611520565b9150611b2f83611520565b925082611b3f57611b3e611aea565b5b828204905092915050565b7f4e6f74206f776e65720000000000000000000000000000000000000000000000600082015250565b6000611b8060098361169d565b9150611b8b82611b4a565b602082019050919050565b60006020820190508181036000830152611baf81611b73565b9050919050565b7f496e76616c696420616464726573730000000000000000000000000000000000600082015250565b6000611bec600f8361169d565b9150611bf782611bb6565b602082019050919050565b60006020820190508181036000830152611c1b81611bdf565b9050919050565b7f496e73756666696369656e7420706f6f6c000000000000000000000000000000600082015250565b6000611c5860118361169d565b9150611c6382611c22565b602082019050919050565b60006020820190508181036000830152611c8781611c4b565b9050919050565b600081519050611c9d816115e4565b92915050565b600060208284031215611cb957611cb8611554565b5b6000611cc784828501611c8e565b91505092915050565b7f42656c6f77206d696e206465706f736974000000000000000000000000000000600082015250565b6000611d0660118361169d565b9150611d1182611cd0565b602082019050919050565b60006020820190508181036000830152611d3581611cf9565b905091905056fea264697066735822122045bb44f3073046281041d459d2793f277874787993315b8394cda1b73c011e9764736f6c63430008180033",
  "linkReferences": {},
  "deployedLinkReferences": {}
}