{
  "_format": "hh-sol-artifact-1",
  "contractName": "HouseVault",
  "sourceName": "contracts/HouseVault.sol",
  "abi": [
    {
      "inputs": [],
      "stateMutability": "nonpayable",
      "type": "constructor"
    },
    {
      "inputs": [],
      "name": "ReentrancyGuardReentrantCall",
      "type": "error"
    },
    {
      "anonymous": false,
      "inputs": [
        {
          "indexed": true,
          "internalType": "address",
          "name": "user",
          "type": "address"
        },
        {
          "indexed": false,
          "internalType": "uint256",
          "name": "amount",
          "type": "uint256"
        },
        {
          "indexed": false,
          "internalType": "uint256",
          "name": "sharesMinted",
          "type": "uint256"
        }
      ],
      "name": "Deposit",
      "type": "event"
    },
    {
      "anonymous": false,
      "inputs": [
        {
          "indexed": false,
          "internalType": "address",
          "name": "newGameContract",
          "type": "address"
        }
      ],
      "name": "GameContractUpdated",
      "type": "event"
    },
    {
      "anonymous": false,
      "inputs": [
        {
          "indexed": false,
          "internalType": "uint256",
          "name": "amount",
          "type": "uint256"
        }
      ],
      "name": "GameLoss",
      "type": "event"
    },
    {
      "anonymous": false,
      "inputs": [
        {
          "indexed": false,
          "internalType": "uint256",
          "name": "amount",
          "type": "uint256"
        }
      ],
      "name": "GameWin",
      "type": "event"
    },
    {
      "anonymous": false,
      "inputs": [
        {
          "indexed": true,
          "internalType": "address",
          "name": "user",
          "type": "address"
        },
        {
          "indexed": false,
          "internalType": "uint256",
          "name": "sharesAmount",
          "type": "uint256"
        },
        {
          "indexed": false,
          "internalType": "uint256",
          "name": "assetsReceived",
          "type": "uint256"
        }
      ],
      "name": "Withdraw",
      "type": "event"
    },
    {
      "inputs": [],
      "name": "DEAD_SHARES",
      "outputs": [
        {
          "internalType": "uint256",
          "name": "",
          "type": "uint256"
        }
      ],
      "stateMutability": "view",
      "type": "function"
    },
    {
      "inputs": [],
      "name": "MAX_BET_PERCENT",
      "outputs": [
        {
          "internalType": "uint256",
          "name": "",
          "type": "uint256"
        }
      ],
      "stateMutability": "view",
      "type": "function"
    },
    {
      "inputs": [],
      "name": "MAX_DEPOSIT_PERCENT",
      "outputs": [
        {
          "internalType": "uint256",
          "name": "",
          "type": "uint256"
        }
      ],
      "stateMutability": "view",
      "type": "function"
    },
    {
      "inputs": [],
      "name": "MIN_DEPOSIT",
      "outputs": [
        {
          "internalType": "uint256",
          "name": "",
          "type": "uint256"
        }
      ],
      "stateMutability": "view",
      "type": "function"
    },
    {
      "inputs": [],
      "name": "MIN_POOL_RESERVE",
      "outputs": [
        {
          "internalType": "uint256",
          "name": "",
          "type": "uint256"
        }
      ],
      "stateMutability": "view",
      "type": "function"
    },
    {
      "inputs": [],
      "name": "WITHDRAW_DELAY_BLOCKS",
      "outputs": [
        {
          "internalType": "uint256",
          "name": "",
          "type": "uint256"
        }
      ],
      "stateMutability": "view",
      "type": "function"
    },
    {
      "inputs": [
        {
          "internalType": "address",
          "name": "user",
          "type": "address"
        }
      ],
      "name": "balanceOf",
      "outputs": [
        {
          "internalType": "uint256",
          "name": "",
          "type": "uint256"
        }
      ],
      "stateMutability": "view",
      "type": "function"
    },
    {
      "inputs": [
        {
          "internalType": "uint256",
          "name": "amount",
          "type": "uint256"
        }
      ],
      "name": "canCoverBet",
      "outputs": [
        {
          "internalType": "bool",
          "name": "",
          "type": "bool"
        }
      ],
      "stateMutability": "view",
      "type": "function"
    },
    {
      "inputs": [],
      "name": "deposit",
      "outputs": [
        {
          "internalType": "uint256",
          "name": "sharesMinted",
          "type": "uint256"
        }
      ],
      "stateMutability": "payable",
      "type": "function"
    },
    {
      "inputs": [
        {
          "internalType": "address",
          "name": "",
          "type": "address"
        }
      ],
      "name": "depositBlock",
      "outputs": [
        {
          "internalType": "uint256",
          "name": "",
          "type": "uint256"
        }
      ],
      "stateMutability": "view",
      "type": "function"
    },
    {
      "inputs": [],
      "name": "gameContract",
      "outputs": [
        {
          "internalType": "address",
          "name": "",
          "type": "address"
        }
      ],
      "stateMutability": "view",
      "type": "function"
    },
    {
      "inputs": [],
      "name": "maxBet",
      "outputs": [
        {
          "internalType": "uint256",
          "name": "",
          "type": "uint256"
        }
      ],
      "stateMutability": "view",
      "type": "function"
    },
    {
      "inputs": [],
      "name": "owner",
      "outputs": [
        {
          "internalType": "address",
          "name": "",
          "type": "address"
        }
      ],
      "stateMutability": "view",
      "type": "function"
    },
    {
      "inputs": [
        {
          "internalType": "uint256",
          "name": "_assets",
          "type": "uint256"
        }
      ],
      "name": "previewDeposit",
      "outputs": [
        {
          "internalType": "uint256",
          "name": "",
          "type": "uint256"
        }
      ],
      "stateMutability": "view",
      "type": "function"
    },
    {
      "inputs": [
        {
          "internalType": "uint256",
          "name": "_shares",
          "type": "uint256"
        }
      ],
      "name": "previewRedeem",
      "outputs": [
        {
          "internalType": "uint256",
          "name": "",
          "type": "uint256"
        }
      ],
      "stateMutability": "view",
      "type": "function"
    },
    {
      "inputs": [
        {
          "internalType": "uint256",
          "name": "amount",
          "type": "uint256"
        }
      ],
      "name": "recordLoss",
      "outputs": [
        {
          "internalType": "bool",
          "name": "",
          "type": "bool"
        }
      ],
      "stateMutability": "nonpayable",
      "type": "function"
    },
    {
      "inputs": [],
      "name": "recordWin",
      "outputs": [],
      "stateMutability": "payable",
      "type": "function"
    },
    {
      "inputs": [
        {
          "internalType": "address",
          "name": "_gameContract",
          "type": "address"
        }
      ],
      "name": "setGameContract",
      "outputs": [],
      "stateMutability": "nonpayable",
      "type": "function"
    },
    {
      "inputs": [
        {
          "internalType": "address",
          "name": "user",
          "type": "address"
        }
      ],
      "name": "sharePercent",
      "outputs": [
        {
          "internalType": "uint256",
          "name": "",
          "type": "uint256"
        }
      ],
      "stateMutability": "view",
      "type": "function"
    },
    {
      "inputs": [
        {
          "internalType": "address",
          "name": "",
          "type": "address"
        }
      ],
      "name": "shares",
      "outputs": [
        {
          "internalType": "uint256",
          "name": "",
          "type": "uint256"
        }
      ],
      "stateMutability": "view",
      "type": "function"
    },
    {
      "inputs": [],
      "name": "totalAssets",
      "outputs": [
        {
          "internalType": "uint256",
          "name": "",
          "type": "uint256"
        }
      ],
      "stateMutability": "view",
      "type": "function"
    },
    {
      "inputs": [],
      "name": "totalShares",
      "outputs": [
        {
          "internalType": "uint256",
          "name": "",
          "type": "uint256"
        }
      ],
      "stateMutability": "view",
      "type": "function"
    },
    {
      "inputs": [
        {
          "internalType": "address",
          "name": "newOwner",
          "type": "address"
        }
      ],
      "name": "transferOwnership",
      "outputs": [],
      "stateMutability": "nonpayable",
      "type": "function"
    },
    {
      "inputs": [
        {
          "internalType": "uint256",
          "name": "_shares",
          "type": "uint256"
        }
      ],
      "name": "withdraw",
      "outputs": [
        {
          "internalType": "uint256",
          "name": "assets",
          "type": "uint256"
        }
      ],
      "stateMutability": "nonpayable",
      "type": "function"
    },
    {
      "inputs": [],
      "name": "withdrawAll",
      "outputs": [
        {
          "internalType": "uint256",
          "name": "assets",
          "type": "uint256"
        }
      ],
      "stateMutability": "nonpayable",
      "type": "function"
    },
    {
      "stateMutability": "payable",
      "type": "receive"
    }
  ],
  "bytecode": "0x6080806040523461002d576001600081905580546001600160a01b03191633179055610d9e90816100338239f35b600080fdfe608060409080825260049081361015610023575b505050361561002157600080fd5b005b600092833560e01c91826301e1d114146109ac5750816303eff0b814610917578163202019a6146108dc5781632e1a7d4d146107015781632e5b2168146106e45781633a98ef39146106c5578163405ebd4d146106405781634cdad5061461061f57816354202411146101fc5781636022743e146105335781636d4086ba146105105781636e459d48146104e657816370a08231146104aa578163853828b61461041c5781638da5cb5b146103f35781639621a7e4146103d75781639bffb798146103ba578163ce7c2ac21461037f578163d0e30db01461024d578163d3f3300914610224578163e1e158a514610201578163e624db84146101fc578163e6d24bbd146101ca578163ef8b30f71461019f575063f2fde38b146101465780610013565b3461019b57602036600319011261019b57356001600160a01b03818116918290036101975761017b6001549182163314610b99565b610186821515610bd1565b6001600160a01b0319161760015580f35b8280fd5b5080fd5b905082346101c75760203660031901126101c757506101c060209235610d15565b9051908152f35b80fd5b919050346101975760203660031901126101975735916001600160a01b03831683036101c757506101c0602092610c86565b6109c8565b83903461019b578160031936011261019b5760209051670de0b6b3a76400008152f35b83903461019b578160031936011261019b5760025490516001600160a01b039091168152602090f35b90508260031936011261019757610262610d45565b670de0b6b3a76400003410610348576003548061032857506103e719340134811161031557602093600191936103e86003555b6102a0851515610a4c565b338252600586528382206102b5868254610a29565b90556102c385600354610a29565b6003556102d1348254610a29565b9055338152600685524383822055825134815284868201527f90890809c654f11d6e72a28fa60149770a0d11ec6c92319d6ceb2bb0a4ea1a15843392a25551908152f35b634e487b7160e01b845260118352602484fd5b60209361034261033a60019334610b49565b855490610b5c565b93610295565b906020606492519162461bcd60e51b8352820152601160248201527010995b1bddc81b5a5b8819195c1bdcda5d607a1b6044820152fd5b9190503461019757602036600319011261019757356001600160a01b0381169081900361019757828291602094526005845220549051908152f35b83903461019b578160031936011261019b57602090516103e88152f35b83903461019b578160031936011261019b576020905160018152f35b83903461019b578160031936011261019b5760015490516001600160a01b039091168152602090f35b8391503461019b578160031936011261019b5733825260056020908152818320548251632e1a7d4d60e01b81529485015292838160248186305af192831561049f57809361046d575b505051908152f35b909192508382813d8311610498575b6104868183610a93565b810103126101c7575051908380610465565b503d61047c565b8251903d90823e3d90fd5b9190503461019757602036600319011261019757356001600160a01b038116908190036101975781836101c09260209552600585522054610c0f565b905082346101c75760203660031901126101c7575061050760209235610c37565b90519015158152f35b83903461019b578160031936011261019b5760209051678ac7230489e800008152f35b905082346101c75760203660031901126101c757600254833591906001600160a01b03166105623382146109e9565b8454678ac7230489e80000840180851161060c5781106105d557828080602098958780968b986105b67f78388f02d9dc4ba28ce22ed74518d0a3c763d8ae37209ac2b955e69099cc3a559b6105c899610a86565b90555af16105c2610acb565b50610b0b565b8351908152a15160018152f35b845162461bcd60e51b81526020818801526011602482015270125b9cdd59999a58da595b9d081c1bdbdb607a1b6044820152606490fd5b634e487b7160e01b845260118752602484fd5b905082346101c75760203660031901126101c757506101c060209235610c0f565b91905034610197576020366003190112610197576001600160a01b039035818116908190036106c1577f94b488ee7f141e60e1c61ff77cc1188dcf8c457486d348a6802e58d765d984479261069c602093600154163314610b99565b6106a7821515610bd1565b600280546001600160a01b0319168317905551908152a180f35b8380fd5b83903461019b578160031936011261019b576020906003549051908152f35b83903461019b578160031936011261019b576020906101c0610b7c565b90503461019757602092836003193601126101c7578235610720610d45565b61072b811515610a4c565b338252600585528083832054106108a357338252600685528282205460018101809111610890574311156108545761076281610c0f565b93805485678ac7230489e800006107798284610a86565b1091821592610842575b50501561080b579060019291338352600587528483206107a4838254610a86565b90556107b282600354610a86565b6003556107c0868254610a86565b90556107d58280808089335af16105c2610acb565b835190815284868201527ff279e6a1f5e320cca91135676d9cb6e44ca8a08c0b88342bcdb1144f6511b568843392a25551908152f35b835162461bcd60e51b8152908101869052601160248201527042656c6f77206d696e207265736572766560781b6044820152606490fd5b61084c9250610a86565b158538610783565b825162461bcd60e51b8152808501869052601660248201527515da5d1a191c985dc819195b185e481b9bdd081b595d60521b6044820152606490fd5b634e487b7160e01b835260118552602483fd5b825162461bcd60e51b81528085018690526013602482015272496e73756666696369656e742073686172657360681b6044820152606490fd5b9190503461019757602036600319011261019757356001600160a01b0381169081900361019757828291602094526006845220549051908152f35b919050826003193601126101975761093a60018060a01b036002541633146109e9565b341561097a577f025911b9734bd99189872dc430ca90014469d827c1da351e3d21f0da926d83dc91602091610970348254610a29565b905551348152a180f35b6020606492519162461bcd60e51b8352820152600d60248201526c139bc81d985b1d59481cd95b9d609a1b6044820152fd5b8490843461019757826003193601126101975760209250548152f35b346109e45760003660031901126109e4576020604051600a8152f35b600080fd5b156109f057565b60405162461bcd60e51b8152602060048201526011602482015270139bdd0819d85b594818dbdb9d1c9858dd607a1b6044820152606490fd5b91908201809211610a3657565b634e487b7160e01b600052601160045260246000fd5b15610a5357565b60405162461bcd60e51b815260206004820152600b60248201526a5a65726f2073686172657360a81b6044820152606490fd5b91908203918211610a3657565b90601f8019910116810190811067ffffffffffffffff821117610ab557604052565b634e487b7160e01b600052604160045260246000fd5b3d15610b06573d9067ffffffffffffffff8211610ab55760405191610afa601f8201601f191660200184610a93565b82523d6000602084013e565b606090565b15610b1257565b60405162461bcd60e51b815260206004820152600f60248201526e151c985b9cd9995c8819985a5b1959608a1b6044820152606490fd5b81810292918115918404141715610a3657565b8115610b66570490565b634e487b7160e01b600052601260045260246000fd5b600454600a810290808204600a1490151715610a36576064900490565b15610ba057565b60405162461bcd60e51b81526020600482015260096024820152682737ba1037bbb732b960b91b6044820152606490fd5b15610bd857565b60405162461bcd60e51b815260206004820152600f60248201526e496e76616c6964206164647265737360881b6044820152606490fd5b6003548015610c3057610c28610c2d9260045490610b49565b610b5c565b90565b5050600090565b610c3f610b7c565b8111610c805760be81029080820460be1490151715610a365760649004600454678ac7230489e800008201809211610a365710610c7b57600190565b600090565b50600090565b906003548015610d0e5760009260018060a01b0316835260056020526040832054670de0b6b3a764000090818102918183041481151715610cfa5768056bc75e2d63100000029080820460641490151715610ce657610c2d929350610b5c565b634e487b7160e01b84526011600452602484fd5b634e487b7160e01b85526011600452602485fd5b5060009150565b6003548015610d3457610d2b90610c2d92610b49565b60045490610b5c565b506103e7198101908111610a365790565b600260005414610d56576002600055565b604051633ee5aeb560e01b8152600490fdfea2646970667358221220cc9dcb36e474cf80c041941282d5ce06804245bbad036cfcdb3b099e1ec8894764736f6c63430008180033",
  "linkReferences": {},
  "deployedLinkReferences": {}
}