{
  "_format": "hh-sol-artifact-1",
  "contractName": "HouseVault",
  "sourceName": "contracts/HouseVault.sol",
  "abi": [
    {
      "inputs": [],
      "stateMutability": "nonpayable",
      "type": "constructor"
    },
    {
      "inputs": [],
      "name": "ReentrancyGuardReentrantCall",
      "type": "error"
    },
    {
      "anonymous": false,
      "inputs": [
        {
          "indexed": true,
          "internalType": "address",
          "name": "user",
          "type": "address"
        },
        {
          "indexed": false,
          "internalType": "uint256",
          "name": "amount",
          "type": "uint256"
        },
        {
          "indexed": false,
          "internalType": "uint256",
          "name": "sharesMinted",
          "type": "uint256"
        }
      ],
      "name": "Deposit",
      "type": "event"
    },
    {
      "anonymous": false,
      "inputs": [
        {
          "indexed": false,
          "internalType": "address",
          "name": "newGameContract",
          "type": "address"
        }
      ],
      "name": "GameContractUpdated",
      "type": "event"
    },
    {
      "anonymous": false,
      "inputs": [
        {
          "indexed": false,
          "internalType": "uint256",
          "name": "amount",
          "type": "uint256"
        }
      ],
      "name": "GameLoss",
      "type": "event"
    },
    {
      "anonymous": false,
      "inputs": [
        {
          "indexed": false,
          "internalType": "uint256",
          "name": "amount",
          "type": "uint256"
        }
      ],
      "name": "GameWin",
      "type": "event"
    },
    {
      "anonymous": false,
      "inputs": [
        {
          "indexed": true,
          "internalType": "address",
          "name": "user",
          "type": "address"
        },
        {
          "indexed": false,
          "internalType": "uint256",
          "name": "sharesAmount",
          "type": "uint256"
        },
        {
          "indexed": false,
          "internalType": "uint256",
          "name": "assetsReceived",
          "type": "uint256"
        }
      ],
      "name": "Withdraw",
      "type": "event"
    },
    {
      "inputs": [],
      "name": "DEAD_SHARES",
      "outputs": [
        {
          "internalType": "uint256",
          "name": "",
          "type": "uint256"
        }
      ],
      "stateMutability": "view",
      "type": "function"
    },
    {
      "inputs": [],
      "name": "MAX_BET_PERCENT",
      "outputs": [
        {
          "internalType": "uint256",
          "name": "",
          "type": "uint256"
        }
      ],
      "stateMutability": "view",
      "type": "function"
    },
    {
      "inputs": [],
      "name": "MAX_DEPOSIT_PERCENT",
      "outputs": [
        {
          "internalType": "uint256",
          "name": "",
          "type": "uint256"
        }
      ],
      "stateMutability": "view",
      "type": "function"
    },
    {
      "inputs": [],
      "name": "MIN_DEPOSIT",
      "outputs": [
        {
          "internalType": "uint256",
          "name": "",
          "type": "uint256"
        }
      ],
      "stateMutability": "view",
      "type": "function"
    },
    {
      "inputs": [],
      "name": "MIN_POOL_RESERVE",
      "outputs": [
        {
          "internalType": "uint256",
          "name": "",
          "type": "uint256"
        }
      ],
      "stateMutability": "view",
      "type": "function"
    },
    {
      "inputs": [],
      "name": "WITHDRAW_DELAY_BLOCKS",
      "outputs": [
        {
          "internalType": "uint256",
          "name": "",
          "type": "uint256"
        }
      ],
      "stateMutability": "view",
      "type": "function"
    },
    {
      "inputs": [
        {
          "internalType": "address",
          "name": "user",
          "type": "address"
        }
      ],
      "name": "balanceOf",
      "outputs": [
        {
          "internalType": "uint256",
          "name": "",
          "type": "uint256"
        }
      ],
      "stateMutability": "view",
      "type": "function"
    },
    {
      "inputs": [
        {
          "internalType": "uint256",
          "name": "amount",
          "type": "uint256"
        }
      ],
      "name": "canCoverBet",
      "outputs": [
        {
          "internalType": "bool",
          "name": "",
          "type": "bool"
        }
      ],
      "stateMutability": "view",
      "type": "function"
    },
    {
      "inputs": [],
      "name": "deposit",
      "outputs": [
        {
          "internalType": "uint256",
          "name": "sharesMinted",
          "type": "uint256"
        }
      ],
      "stateMutability": "payable",
      "type": "function"
    },
    {
      "inputs": [
        {
          "internalType": "address",
          "name": "",
          "type": "address"
        }
      ],
      "name": "depositBlock",
      "outputs": [
        {
          "internalType": "uint256",
          "name": "",
          "type": "uint256"
        }
      ],
      "stateMutability": "view",
      "type": "function"
    },
    {
      "inputs": [],
      "name": "gameContract",
      "outputs": [
        {
          "internalType": "address",
          "name": "",
          "type": "address"
        }
      ],
      "stateMutability": "view",
      "type": "function"
    },
    {
      "inputs": [],
      "name": "maxBet",
      "outputs": [
        {
          "internalType": "uint256",
          "name": "",
          "type": "uint256"
        }
      ],
      "stateMutability": "view",
      "type": "function"
    },
    {
      "inputs": [],
      "name": "owner",
      "outputs": [
        {
          "internalType": "address",
          "name": "",
          "type": "address"
        }
      ],
      "stateMutability": "view",
      "type": "function"
    },
    {
      "inputs": [
        {
          "internalType": "uint256",
          "name": "_assets",
          "type": "uint256"
        }
      ],
      "name": "previewDeposit",
      "outputs": [
        {
          "internalType": "uint256",
          "name": "",
          "type": "uint256"
        }
      ],
      "stateMutability": "view",
      "type": "function"
    },
    {
      "inputs": [
        {
          "internalType": "uint256",
          "name": "_shares",
          "type": "uint256"
        }
      ],
      "name": "previewRedeem",
      "outputs": [
        {
          "internalType": "uint256",
          "name": "",
          "type": "uint256"
        }
      ],
      "stateMutability": "view",
      "type": "function"
    },
    {
      "inputs": [
        {
          "internalType": "uint256",
          "name": "amount",
          "type": "uint256"
        }
      ],
      "name": "recordLoss",
      "outputs": [
        {
          "internalType": "bool",
          "name": "",
          "type": "bool"
        }
      ],
      "stateMutability": "nonpayable",
      "type": "function"
    },
    {
      "inputs": [
        {
          "internalType": "uint256",
          "name": "amount",
          "type": "uint256"
        }
      ],
      "name": "recordWin",
      "outputs": [],
      "stateMutability": "nonpayable",
      "type": "function"
    },
    {
      "inputs": [
        {
          "internalType": "address",
          "name": "_gameContract",
          "type": "address"
        }
      ],
      "name": "setGameContract",
      "outputs": [],
      "stateMutability": "nonpayable",
      "type": "function"
    },
    {
      "inputs": [
        {
          "internalType": "address",
          "name": "user",
          "type": "address"
        }
      ],
      "name": "sharePercent",
      "outputs": [
        {
          "internalType": "uint256",
          "name": "",
          "type": "uint256"
        }
      ],
      "stateMutability": "view",
      "type": "function"
    },
    {
      "inputs": [
        {
          "internalType": "address",
          "name": "",
          "type": "address"
        }
      ],
      "name": "shares",
      "outputs": [
        {
          "internalType": "uint256",
          "name": "",
          "type": "uint256"
        }
      ],
      "stateMutability": "view",
      "type": "function"
    },
    {
      "inputs": [],
      "name": "totalAssets",
      "outputs": [
        {
          "internalType": "uint256",
          "name": "",
          "type": "uint256"
        }
      ],
      "stateMutability": "view",
      "type": "function"
    },
    {
      "inputs": [],
      "name": "totalShares",
      "outputs": [
        {
          "internalType": "uint256",
          "name": "",
          "type": "uint256"
        }
      ],
      "stateMutability": "view",
      "type": "function"
    },
    {
      "inputs": [
        {
          "internalType": "address",
          "name": "newOwner",
          "type": "address"
        }
      ],
      "name": "transferOwnership",
      "outputs": [],
      "stateMutability": "nonpayable",
      "type": "function"
    },
    {
      "inputs": [
        {
          "internalType": "uint256",
          "name": "_shares",
          "type": "uint256"
        }
      ],
      "name": "withdraw",
      "outputs": [
        {
          "internalType": "uint256",
          "name": "assets",
          "type": "uint256"
        }
      ],
      "stateMutability": "nonpayable",
      "type": "function"
    },
    {
      "inputs": [],
      "name": "withdrawAll",
      "outputs": [
        {
          "internalType": "uint256",
          "name": "assets",
          "type": "uint256"
        }
      ],
      "stateMutability": "nonpayable",
      "type": "function"
    },
    {
      "stateMutability": "payable",
      "type": "receive"
    }
  ],
  "bytecode": "0x608060405234801561001057600080fd5b50600160008190555033600160006101000a81548173ffffffffffffffffffffffffffffffffffffffff021916908373ffffffffffffffffffffffffffffffffffffffff160217905550611e22806100696000396000f3fe60806040526004361061016a5760003560e01c8063853828b6116100d1578063d0e30db01161008a578063e624db8411610064578063e624db841461056a578063e6d24bbd14610595578063ef8b30f7146105d2578063f2fde38b1461060f57610171565b8063d0e30db0146104f6578063d3f3300914610514578063e1e158a51461053f57610171565b8063853828b6146103e45780638da5cb5b1461040f5780639621a7e41461043a5780639bffb798146104655780639e6611a514610490578063ce7c2ac2146104b957610171565b80634cdad506116101235780634cdad5061461029a57806354202411146102d75780636022743e146103025780636d4086ba1461033f5780636e459d481461036a57806370a08231146103a757610171565b806301e1d11414610176578063202019a6146101a15780632e1a7d4d146101de5780632e5b21681461021b5780633a98ef3914610246578063405ebd4d1461027157610171565b3661017157005b600080fd5b34801561018257600080fd5b5061018b610638565b60405161019891906115e9565b60405180910390f35b3480156101ad57600080fd5b506101c860048036038101906101c39190611667565b61063e565b6040516101d591906115e9565b60405180910390f35b3480156101ea57600080fd5b50610205600480360381019061020091906116c0565b610656565b60405161021291906115e9565b60405180910390f35b34801561022757600080fd5b506102306109bf565b60405161023d91906115e9565b60405180910390f35b34801561025257600080fd5b5061025b6109e1565b60405161026891906115e9565b60405180910390f35b34801561027d57600080fd5b5061029860048036038101906102939190611667565b6109e7565b005b3480156102a657600080fd5b506102c160048036038101906102bc91906116c0565b610b61565b6040516102ce91906115e9565b60405180910390f35b3480156102e357600080fd5b506102ec610b98565b6040516102f991906115e9565b60405180910390f35b34801561030e57600080fd5b50610329600480360381019061032491906116c0565b610b9d565b6040516103369190611708565b60405180910390f35b34801561034b57600080fd5b50610354610daf565b60405161036191906115e9565b60405180910390f35b34801561037657600080fd5b50610391600480360381019061038c91906116c0565b610dbb565b60405161039e9190611708565b60405180910390f35b3480156103b357600080fd5b506103ce60048036038101906103c99190611667565b610e24565b6040516103db91906115e9565b60405180910390f35b3480156103f057600080fd5b506103f9610e75565b60405161040691906115e9565b60405180910390f35b34801561041b57600080fd5b50610424610f37565b6040516104319190611732565b60405180910390f35b34801561044657600080fd5b5061044f610f5d565b60405161045c91906115e9565b60405180910390f35b34801561047157600080fd5b5061047a610f62565b60405161048791906115e9565b60405180910390f35b34801561049c57600080fd5b506104b760048036038101906104b291906116c0565b610f68565b005b3480156104c557600080fd5b506104e060048036038101906104db9190611667565b61104b565b6040516104ed91906115e9565b60405180910390f35b6104fe611063565b60405161050b91906115e9565b60405180910390f35b34801561052057600080fd5b5061052961133b565b6040516105369190611732565b60405180910390f35b34801561054b57600080fd5b50610554611361565b60405161056191906115e9565b60405180910390f35b34801561057657600080fd5b5061057f61136d565b60405161058c91906115e9565b60405180910390f35b3480156105a157600080fd5b506105bc60048036038101906105b79190611667565b611372565b6040516105c991906115e9565b60405180910390f35b3480156105de57600080fd5b506105f960048036038101906105f491906116c0565b6113fa565b60405161060691906115e9565b60405180910390f35b34801561061b57600080fd5b5061063660048036038101906106319190611667565b61143d565b005b60045481565b60066020528060005260406000206000915090505481565b6000610660611580565b600082116106a3576040517f08c379a000000000000000000000000000000000000000000000000000000000815260040161069a906117aa565b60405180910390fd5b81600560003373ffffffffffffffffffffffffffffffffffffffff1673ffffffffffffffffffffffffffffffffffffffff168152602001908152602001600020541015610725576040517f08c379a000000000000000000000000000000000000000000000000000000000815260040161071c90611816565b60405180910390fd5b6001600660003373ffffffffffffffffffffffffffffffffffffffff1673ffffffffffffffffffffffffffffffffffffffff168152602001908152602001600020546107719190611865565b43116107b2576040517f08c379a00000000000000000000000000000000000000000000000000000000081526004016107a9906118e5565b60405180910390fd5b6107bb82610b61565b9050678ac7230489e80000816004546107d49190611905565b1015806107ee57506000816004546107ec9190611905565b145b61082d576040517f08c379a000000000000000000000000000000000000000000000000000000000815260040161082490611985565b60405180910390fd5b81600560003373ffffffffffffffffffffffffffffffffffffffff1673ffffffffffffffffffffffffffffffffffffffff168152602001908152602001600020600082825461087c9190611905565b9250508190555081600360008282546108959190611905565b9250508190555080600460008282546108ae9190611905565b9250508190555060003373ffffffffffffffffffffffffffffffffffffffff16826040516108db906119d6565b60006040518083038185875af1925050503d8060008114610918576040519150601f19603f3d011682016040523d82523d6000602084013e61091d565b606091505b5050905080610961576040517f08c379a000000000000000000000000000000000000000000000000000000000815260040161095890611a37565b60405180910390fd5b3373ffffffffffffffffffffffffffffffffffffffff167ff279e6a1f5e320cca91135676d9cb6e44ca8a08c0b88342bcdb1144f6511b56884846040516109a9929190611a57565b60405180910390a2506109ba6115c6565b919050565b6000606460036004546109d29190611a80565b6109dc9190611af1565b905090565b60035481565b600160009054906101000a900473ffffffffffffffffffffffffffffffffffffffff1673ffffffffffffffffffffffffffffffffffffffff163373ffffffffffffffffffffffffffffffffffffffff1614610a77576040517f08c379a0000000000000000000000000000000000000000000000000000000008152600401610a6e90611b6e565b60405180910390fd5b600073ffffffffffffffffffffffffffffffffffffffff168173ffffffffffffffffffffffffffffffffffffffff1603610ae6576040517f08c379a0000000000000000000000000000000000000000000000000000000008152600401610add90611bda565b60405180910390fd5b80600260006101000a81548173ffffffffffffffffffffffffffffffffffffffff021916908373ffffffffffffffffffffffffffffffffffffffff1602179055507f94b488ee7f141e60e1c61ff77cc1188dcf8c457486d348a6802e58d765d9844781604051610b569190611732565b60405180910390a150565b60008060035403610b755760009050610b93565b60035460045483610b869190611a80565b610b909190611af1565b90505b919050565b600381565b6000600260009054906101000a900473ffffffffffffffffffffffffffffffffffffffff1673ffffffffffffffffffffffffffffffffffffffff163373ffffffffffffffffffffffffffffffffffffffff1614610c2f576040517f08c379a0000000000000000000000000000000000000000000000000000000008152600401610c2690611c46565b60405180910390fd5b678ac7230489e8000082610c439190611865565b6004541015610c87576040517f08c379a0000000000000000000000000000000000000000000000000000000008152600401610c7e90611cb2565b60405180910390fd5b8160046000828254610c999190611905565b925050819055506000600260009054906101000a900473ffffffffffffffffffffffffffffffffffffffff1673ffffffffffffffffffffffffffffffffffffffff1683604051610ce8906119d6565b60006040518083038185875af1925050503d8060008114610d25576040519150601f19603f3d011682016040523d82523d6000602084013e610d2a565b606091505b5050905080610d6e576040517f08c379a0000000000000000000000000000000000000000000000000000000008152600401610d6590611a37565b60405180910390fd5b7f78388f02d9dc4ba28ce22ed74518d0a3c763d8ae37209ac2b955e69099cc3a5583604051610d9d91906115e9565b60405180910390a16001915050919050565b678ac7230489e8000081565b6000610dc56109bf565b821115610dd55760009050610e1f565b6000606460be84610de69190611a80565b610df09190611af1565b9050678ac7230489e8000081610e069190611865565b6004541015610e19576000915050610e1f565b60019150505b919050565b6000610e6e600560008473ffffffffffffffffffffffffffffffffffffffff1673ffffffffffffffffffffffffffffffffffffffff16815260200190815260200160002054610b61565b9050919050565b60003073ffffffffffffffffffffffffffffffffffffffff16632e1a7d4d600560003373ffffffffffffffffffffffffffffffffffffffff1673ffffffffffffffffffffffffffffffffffffffff168152602001908152602001600020546040518263ffffffff1660e01b8152600401610eef91906115e9565b6020604051808303816000875af1158015610f0e573d6000803e3d6000fd5b505050506040513d601f19601f82011682018060405250810190610f329190611ce7565b905090565b600160009054906101000a900473ffffffffffffffffffffffffffffffffffffffff1681565b600181565b6103e881565b600260009054906101000a900473ffffffffffffffffffffffffffffffffffffffff1673ffffffffffffffffffffffffffffffffffffffff163373ffffffffffffffffffffffffffffffffffffffff1614610ff8576040517f08c379a0000000000000000000000000000000000000000000000000000000008152600401610fef90611c46565b60405180910390fd5b806004600082825461100a9190611865565b925050819055507f025911b9734bd99189872dc430ca90014469d827c1da351e3d21f0da926d83dc8160405161104091906115e9565b60405180910390a150565b60056020528060005260406000206000915090505481565b600061106d611580565b670de0b6b3a76400003410156110b8576040517f08c379a00000000000000000000000000000000000000000000000000000000081526004016110af90611d60565b60405180910390fd5b6000346004546110c89190611865565b9050600034611115600560003373ffffffffffffffffffffffffffffffffffffffff1673ffffffffffffffffffffffffffffffffffffffff16815260200190815260200160002054610b61565b61111f9190611865565b90506064600a836111309190611a80565b61113a9190611af1565b8111158061114a57506000600454145b611189576040517f08c379a000000000000000000000000000000000000000000000000000000000815260040161118090611dcc565b60405180910390fd5b6000600354036111b1576103e8346111a19190611905565b92506103e86003819055506111cf565b600454600354346111c29190611a80565b6111cc9190611af1565b92505b60008311611212576040517f08c379a0000000000000000000000000000000000000000000000000000000008152600401611209906117aa565b60405180910390fd5b82600560003373ffffffffffffffffffffffffffffffffffffffff1673ffffffffffffffffffffffffffffffffffffffff16815260200190815260200160002060008282546112619190611865565b92505081905550826003600082825461127a9190611865565b9250508190555034600460008282546112939190611865565b9250508190555043600660003373ffffffffffffffffffffffffffffffffffffffff1673ffffffffffffffffffffffffffffffffffffffff168152602001908152602001600020819055503373ffffffffffffffffffffffffffffffffffffffff167f90890809c654f11d6e72a28fa60149770a0d11ec6c92319d6ceb2bb0a4ea1a153485604051611326929190611a57565b60405180910390a250506113386115c6565b90565b600260009054906101000a900473ffffffffffffffffffffffffffffffffffffffff1681565b670de0b6b3a764000081565b600a81565b6000806003540361138657600090506113f5565b6003546064670de0b6b3a7640000600560008673ffffffffffffffffffffffffffffffffffffffff1673ffffffffffffffffffffffffffffffffffffffff168152602001908152602001600020546113de9190611a80565b6113e89190611a80565b6113f29190611af1565b90505b919050565b6000806003540361141a576103e8826114139190611905565b9050611438565b6004546003548361142b9190611a80565b6114359190611af1565b90505b919050565b600160009054906101000a900473ffffffffffffffffffffffffffffffffffffffff1673ffffffffffffffffffffffffffffffffffffffff163373ffffffffffffffffffffffffffffffffffffffff16146114cd576040517f08c379a00000000000000000000000000000000000000000000000000000000081526004016114c490611b6e565b60405180910390fd5b600073ffffffffffffffffffffffffffffffffffffffff168173ffffffffffffffffffffffffffffffffffffffff160361153c576040517f08c379a000000000000000000000000000000000000000000000000000000000815260040161153390611bda565b60405180910390fd5b80600160006101000a81548173ffffffffffffffffffffffffffffffffffffffff021916908373ffffffffffffffffffffffffffffffffffffffff16021790555050565b6002600054036115bc576040517f3ee5aeb500000000000000000000000000000000000000000000000000000000815260040160405180910390fd5b6002600081905550565b6001600081905550565b6000819050919050565b6115e3816115d0565b82525050565b60006020820190506115fe60008301846115da565b92915050565b600080fd5b600073ffffffffffffffffffffffffffffffffffffffff82169050919050565b600061163482611609565b9050919050565b61164481611629565b811461164f57600080fd5b50565b6000813590506116618161163b565b92915050565b60006020828403121561167d5761167c611604565b5b600061168b84828501611652565b91505092915050565b61169d816115d0565b81146116a857600080fd5b50565b6000813590506116ba81611694565b92915050565b6000602082840312156116d6576116d5611604565b5b60006116e4848285016116ab565b91505092915050565b60008115159050919050565b611702816116ed565b82525050565b600060208201905061171d60008301846116f9565b92915050565b61172c81611629565b82525050565b60006020820190506117476000830184611723565b92915050565b600082825260208201905092915050565b7f5a65726f20736861726573000000000000000000000000000000000000000000600082015250565b6000611794600b8361174d565b915061179f8261175e565b602082019050919050565b600060208201905081810360008301526117c381611787565b9050919050565b7f496e73756666696369656e742073686172657300000000000000000000000000600082015250565b600061180060138361174d565b915061180b826117ca565b602082019050919050565b6000602082019050818103600083015261182f816117f3565b9050919050565b7f4e487b7100000000000000000000000000000000000000000000000000000000600052601160045260246000fd5b6000611870826115d0565b915061187b836115d0565b925082820190508082111561189357611892611836565b5b92915050565b7f57697468647261772064656c6179206e6f74206d657400000000000000000000600082015250565b60006118cf60168361174d565b91506118da82611899565b602082019050919050565b600060208201905081810360008301526118fe816118c2565b9050919050565b6000611910826115d0565b915061191b836115d0565b925082820390508181111561193357611932611836565b5b92915050565b7f42656c6f77206d696e2072657365727665000000000000000000000000000000600082015250565b600061196f60118361174d565b915061197a82611939565b602082019050919050565b6000602082019050818103600083015261199e81611962565b9050919050565b600081905092915050565b50565b60006119c06000836119a5565b91506119cb826119b0565b600082019050919050565b60006119e1826119b3565b9150819050919050565b7f5472616e73666572206661696c65640000000000000000000000000000000000600082015250565b6000611a21600f8361174d565b9150611a2c826119eb565b602082019050919050565b60006020820190508181036000830152611a5081611a14565b9050919050565b6000604082019050611a6c60008301856115da565b611a7960208301846115da565b9392505050565b6000611a8b826115d0565b9150611a96836115d0565b9250828202611aa4816115d0565b91508282048414831517611abb57611aba611836565b5b5092915050565b7f4e487b7100000000000000000000000000000000000000000000000000000000600052601260045260246000fd5b6000611afc826115d0565b9150611b07836115d0565b925082611b1757611b16611ac2565b5b828204905092915050565b7f4e6f74206f776e65720000000000000000000000000000000000000000000000600082015250565b6000611b5860098361174d565b9150611b6382611b22565b602082019050919050565b60006020820190508181036000830152611b8781611b4b565b9050919050565b7f496e76616c696420616464726573730000000000000000000000000000000000600082015250565b6000611bc4600f8361174d565b9150611bcf82611b8e565b602082019050919050565b60006020820190508181036000830152611bf381611bb7565b9050919050565b7f4e6f742067616d6520636f6e7472616374000000000000000000000000000000600082015250565b6000611c3060118361174d565b9150611c3b82611bfa565b602082019050919050565b60006020820190508181036000830152611c5f81611c23565b9050919050565b7f496e73756666696369656e7420706f6f6c000000000000000000000000000000600082015250565b6000611c9c60118361174d565b9150611ca782611c66565b602082019050919050565b60006020820190508181036000830152611ccb81611c8f565b9050919050565b600081519050611ce181611694565b92915050565b600060208284031215611cfd57611cfc611604565b5b6000611d0b84828501611cd2565b91505092915050565b7f42656c6f77206d696e206465706f736974000000000000000000000000000000600082015250565b6000611d4a60118361174d565b9150611d5582611d14565b602082019050919050565b60006020820190508181036000830152611d7981611d3d565b9050919050565b7f45786365656473206d6178206465706f73697400000000000000000000000000600082015250565b6000611db660138361174d565b9150611dc182611d80565b602082019050919050565b60006020820190508181036000830152611de581611da9565b905091905056fea26469706673582212207fa97289bd3e7404958fd5d8ed8885297efa35e313f0f228b576576bcc8a6a1c64736f6c63430008180033",
  "linkReferences": {},
  "deployedLinkReferences": {}
}