{
  "_format": "hh-sol-artifact-1",
  "contractName": "OxHuman",
  "sourceName": "contracts/OxHuman.sol",
  "abi": [
    {
      "inputs": [],
      "stateMutability": "nonpayable",
      "type": "constructor"
    },
    {
      "inputs": [],
      "name": "ECDSAInvalidSignature",
      "type": "error"
    },
    {
      "inputs": [
        {
          "internalType": "uint256",
          "name": "length",
          "type": "uint256"
        }
      ],
      "name": "ECDSAInvalidSignatureLength",
      "type": "error"
    },
    {
      "inputs": [
        {
          "internalType": "bytes32",
          "name": "s",
          "type": "bytes32"
        }
      ],
      "name": "ECDSAInvalidSignatureS",
      "type": "error"
    },
    {
      "anonymous": false,
      "inputs": [
        {
          "indexed": true,
          "internalType": "uint256",
          "name": "gameId",
          "type": "uint256"
        },
        {
          "indexed": false,
          "internalType": "address",
          "name": "player1",
          "type": "address"
        },
        {
          "indexed": false,
          "internalType": "uint256",
          "name": "stake",
          "type": "uint256"
        }
      ],
      "name": "GameCreated",
      "type": "event"
    },
    {
      "anonymous": false,
      "inputs": [
        {
          "indexed": true,
          "internalType": "uint256",
          "name": "gameId",
          "type": "uint256"
        },
        {
          "indexed": false,
          "internalType": "uint256",
          "name": "refundAmount",
          "type": "uint256"
        }
      ],
      "name": "GameDraw",
      "type": "event"
    },
    {
      "anonymous": false,
      "inputs": [
        {
          "indexed": true,
          "internalType": "uint256",
          "name": "gameId",
          "type": "uint256"
        },
        {
          "indexed": false,
          "internalType": "address",
          "name": "player2",
          "type": "address"
        }
      ],
      "name": "GameJoined",
      "type": "event"
    },
    {
      "anonymous": false,
      "inputs": [
        {
          "indexed": true,
          "internalType": "uint256",
          "name": "gameId",
          "type": "uint256"
        },
        {
          "indexed": false,
          "internalType": "address",
          "name": "winner",
          "type": "address"
        },
        {
          "indexed": false,
          "internalType": "uint256",
          "name": "payout",
          "type": "uint256"
        }
      ],
      "name": "GameResolved",
      "type": "event"
    },
    {
      "anonymous": false,
      "inputs": [
        {
          "indexed": true,
          "internalType": "uint256",
          "name": "gameId",
          "type": "uint256"
        },
        {
          "indexed": false,
          "internalType": "address",
          "name": "player",
          "type": "address"
        },
        {
          "indexed": false,
          "internalType": "bool",
          "name": "guessedBot",
          "type": "bool"
        }
      ],
      "name": "VerdictSubmitted",
      "type": "event"
    },
    {
      "anonymous": false,
      "inputs": [
        {
          "indexed": true,
          "internalType": "address",
          "name": "player",
          "type": "address"
        },
        {
          "indexed": false,
          "internalType": "uint256",
          "name": "amount",
          "type": "uint256"
        }
      ],
      "name": "WinningsClaimed",
      "type": "event"
    },
    {
      "inputs": [],
      "name": "FEE_PERCENT",
      "outputs": [
        {
          "internalType": "uint256",
          "name": "",
          "type": "uint256"
        }
      ],
      "stateMutability": "view",
      "type": "function"
    },
    {
      "inputs": [],
      "name": "PAYOUT_DENOMINATOR",
      "outputs": [
        {
          "internalType": "uint256",
          "name": "",
          "type": "uint256"
        }
      ],
      "stateMutability": "view",
      "type": "function"
    },
    {
      "inputs": [],
      "name": "PAYOUT_NUMERATOR",
      "outputs": [
        {
          "internalType": "uint256",
          "name": "",
          "type": "uint256"
        }
      ],
      "stateMutability": "view",
      "type": "function"
    },
    {
      "inputs": [],
      "name": "PERFORMANCE_FEE",
      "outputs": [
        {
          "internalType": "uint256",
          "name": "",
          "type": "uint256"
        }
      ],
      "stateMutability": "view",
      "type": "function"
    },
    {
      "inputs": [],
      "name": "claimWinnings",
      "outputs": [],
      "stateMutability": "nonpayable",
      "type": "function"
    },
    {
      "inputs": [],
      "name": "createGame",
      "outputs": [],
      "stateMutability": "payable",
      "type": "function"
    },
    {
      "inputs": [],
      "name": "createGamePvE",
      "outputs": [],
      "stateMutability": "payable",
      "type": "function"
    },
    {
      "inputs": [],
      "name": "gameCount",
      "outputs": [
        {
          "internalType": "uint256",
          "name": "",
          "type": "uint256"
        }
      ],
      "stateMutability": "view",
      "type": "function"
    },
    {
      "inputs": [
        {
          "internalType": "uint256",
          "name": "",
          "type": "uint256"
        }
      ],
      "name": "games",
      "outputs": [
        {
          "internalType": "address",
          "name": "player1",
          "type": "address"
        },
        {
          "internalType": "address",
          "name": "player2",
          "type": "address"
        },
        {
          "internalType": "uint256",
          "name": "stake",
          "type": "uint256"
        },
        {
          "internalType": "enum OxHuman.GameStatus",
          "name": "status",
          "type": "uint8"
        },
        {
          "internalType": "enum OxHuman.GameMode",
          "name": "mode",
          "type": "uint8"
        },
        {
          "internalType": "address",
          "name": "winner",
          "type": "address"
        },
        {
          "internalType": "uint256",
          "name": "timestamp",
          "type": "uint256"
        },
        {
          "internalType": "bool",
          "name": "isPlayer2Bot",
          "type": "bool"
        },
        {
          "internalType": "bool",
          "name": "player1GuessedBot",
          "type": "bool"
        },
        {
          "internalType": "bool",
          "name": "player1Submitted",
          "type": "bool"
        },
        {
          "internalType": "bool",
          "name": "player2GuessedBot",
          "type": "bool"
        },
        {
          "internalType": "bool",
          "name": "player2Submitted",
          "type": "bool"
        }
      ],
      "stateMutability": "view",
      "type": "function"
    },
    {
      "inputs": [],
      "name": "houseVault",
      "outputs": [
        {
          "internalType": "contract IHouseVault",
          "name": "",
          "type": "address"
        }
      ],
      "stateMutability": "view",
      "type": "function"
    },
    {
      "inputs": [
        {
          "internalType": "uint256",
          "name": "_gameId",
          "type": "uint256"
        },
        {
          "internalType": "bool",
          "name": "_isBot",
          "type": "bool"
        }
      ],
      "name": "joinGame",
      "outputs": [],
      "stateMutability": "payable",
      "type": "function"
    },
    {
      "inputs": [
        {
          "internalType": "uint256",
          "name": "_gameId",
          "type": "uint256"
        }
      ],
      "name": "joinGameAsHouse",
      "outputs": [],
      "stateMutability": "nonpayable",
      "type": "function"
    },
    {
      "inputs": [],
      "name": "oracle",
      "outputs": [
        {
          "internalType": "address",
          "name": "",
          "type": "address"
        }
      ],
      "stateMutability": "view",
      "type": "function"
    },
    {
      "inputs": [
        {
          "internalType": "uint256",
          "name": "_gameId",
          "type": "uint256"
        },
        {
          "internalType": "address",
          "name": "_winner",
          "type": "address"
        }
      ],
      "name": "oracleForceResolve",
      "outputs": [],
      "stateMutability": "nonpayable",
      "type": "function"
    },
    {
      "inputs": [
        {
          "internalType": "uint256",
          "name": "_gameId",
          "type": "uint256"
        }
      ],
      "name": "oracleJoinAsBot",
      "outputs": [],
      "stateMutability": "payable",
      "type": "function"
    },
    {
      "inputs": [
        {
          "internalType": "uint256",
          "name": "_gameId",
          "type": "uint256"
        },
        {
          "internalType": "bool",
          "name": "_p1GuessedBot",
          "type": "bool"
        },
        {
          "internalType": "bytes",
          "name": "_p1Signature",
          "type": "bytes"
        },
        {
          "internalType": "bool",
          "name": "_p2GuessedBot",
          "type": "bool"
        },
        {
          "internalType": "bytes",
          "name": "_p2Signature",
          "type": "bytes"
        }
      ],
      "name": "resolveWithSignatures",
      "outputs": [],
      "stateMutability": "nonpayable",
      "type": "function"
    },
    {
      "inputs": [],
      "name": "resolver",
      "outputs": [
        {
          "internalType": "address",
          "name": "",
          "type": "address"
        }
      ],
      "stateMutability": "view",
      "type": "function"
    },
    {
      "inputs": [
        {
          "internalType": "address",
          "name": "_houseVault",
          "type": "address"
        }
      ],
      "name": "setHouseVault",
      "outputs": [],
      "stateMutability": "nonpayable",
      "type": "function"
    },
    {
      "inputs": [
        {
          "internalType": "address",
          "name": "_resolver",
          "type": "address"
        }
      ],
      "name": "setResolver",
      "outputs": [],
      "stateMutability": "nonpayable",
      "type": "function"
    },
    {
      "inputs": [
        {
          "internalType": "uint256",
          "name": "_gameId",
          "type": "uint256"
        },
        {
          "internalType": "bool",
          "name": "_guessedBot",
          "type": "bool"
        }
      ],
      "name": "submitVerdict",
      "outputs": [],
      "stateMutability": "nonpayable",
      "type": "function"
    },
    {
      "inputs": [
        {
          "internalType": "address",
          "name": "",
          "type": "address"
        }
      ],
      "name": "winnings",
      "outputs": [
        {
          "internalType": "uint256",
          "name": "",
          "type": "uint256"
        }
      ],
      "stateMutability": "view",
      "type": "function"
    },
    {
      "stateMutability": "payable",
      "type": "receive"
    }
  ],
  "bytecode": "0x608060405234801561001057600080fd5b5033600360006101000a81548173ffffffffffffffffffffffffffffffffffffffff021916908373ffffffffffffffffffffffffffffffffffffffff16021790555033600460006101000a81548173ffffffffffffffffffffffffffffffffffffffff021916908373ffffffffffffffffffffffffffffffffffffffff160217905550614c5a806100a26000396000f3fe60806040526004361061012e5760003560e01c80637dc0d1d0116100ab578063c1f0c04b1161006f578063c1f0c04b14610360578063d49fbe0514610389578063df32e9c0146103b4578063e93f5665146103dd578063ea3a149914610408578063eaf98d231461044557610135565b80637dc0d1d0146102ae57806390282be5146102d957806394517b9014610304578063a11757a614610320578063b401faf11461034957610135565b80634e543b26116100f25780634e543b26146101fe57806356b49975146102275780635f2e403f1461025257806361d864511461027b5780637255d729146102a457610135565b806304f3bcec1461013a578063117a5b90146101655780631a47bfff146101ad5780634c8f1688146101b75780634d1975b4146101d357610135565b3661013557005b600080fd5b34801561014657600080fd5b5061014f610470565b60405161015c9190613bf4565b60405180910390f35b34801561017157600080fd5b5061018c60048036038101906101879190613c4f565b610496565b6040516101a49c9b9a99989796959493929190613d65565b60405180910390f35b6101b56105b1565b005b6101d160048036038101906101cc9190613c4f565b610b03565b005b3480156101df57600080fd5b506101e8610d39565b6040516101f59190613e1f565b60405180910390f35b34801561020a57600080fd5b5061022560048036038101906102209190613e66565b610d3f565b005b34801561023357600080fd5b5061023c610e13565b6040516102499190613e1f565b60405180910390f35b34801561025e57600080fd5b5061027960048036038101906102749190613e66565b610e18565b005b34801561028757600080fd5b506102a2600480360381019061029d9190613f24565b610f5b565b005b6102ac611509565b005b3480156102ba57600080fd5b506102c3611871565b6040516102d09190613bf4565b60405180910390f35b3480156102e557600080fd5b506102ee611897565b6040516102fb9190613e1f565b60405180910390f35b61031e60048036038101906103199190613fe0565b61189c565b005b34801561032c57600080fd5b5061034760048036038101906103429190613c4f565b611ad4565b005b34801561035557600080fd5b5061035e611f8c565b005b34801561036c57600080fd5b5061038760048036038101906103829190613fe0565b6120f0565b005b34801561039557600080fd5b5061039e61240a565b6040516103ab919061407f565b60405180910390f35b3480156103c057600080fd5b506103db60048036038101906103d6919061409a565b612430565b005b3480156103e957600080fd5b506103f261284c565b6040516103ff9190613e1f565b60405180910390f35b34801561041457600080fd5b5061042f600480360381019061042a9190613e66565b612851565b60405161043c9190613e1f565b60405180910390f35b34801561045157600080fd5b5061045a612869565b6040516104679190613e1f565b60405180910390f35b600460009054906101000a900473ffffffffffffffffffffffffffffffffffffffff1681565b60006020528060005260406000206000915090508060000160009054906101000a900473ffffffffffffffffffffffffffffffffffffffff16908060010160009054906101000a900473ffffffffffffffffffffffffffffffffffffffff16908060020154908060030160009054906101000a900460ff16908060030160019054906101000a900460ff16908060030160029054906101000a900473ffffffffffffffffffffffffffffffffffffffff16908060040154908060050160009054906101000a900460ff16908060050160019054906101000a900460ff16908060050160029054906101000a900460ff16908060050160039054906101000a900460ff16908060050160049054906101000a900460ff1690508c565b600034116105f4576040517f08c379a00000000000000000000000000000000000000000000000000000000081526004016105eb90614137565b60405180910390fd5b600073ffffffffffffffffffffffffffffffffffffffff16600560009054906101000a900473ffffffffffffffffffffffffffffffffffffffff1673ffffffffffffffffffffffffffffffffffffffff1603610685576040517f08c379a000000000000000000000000000000000000000000000000000000000815260040161067c906141a3565b60405180910390fd5b600560009054906101000a900473ffffffffffffffffffffffffffffffffffffffff1673ffffffffffffffffffffffffffffffffffffffff16636e459d48346040518263ffffffff1660e01b81526004016106e09190613e1f565b602060405180830381865afa1580156106fd573d6000803e3d6000fd5b505050506040513d601f19601f8201168201806040525081019061072191906141d8565b610760576040517f08c379a000000000000000000000000000000000000000000000000000000000815260040161075790614251565b60405180910390fd5b600060025490506040518061018001604052803373ffffffffffffffffffffffffffffffffffffffff168152602001600560009054906101000a900473ffffffffffffffffffffffffffffffffffffffff1673ffffffffffffffffffffffffffffffffffffffff168152602001348152602001600160028111156107e7576107e6613c8b565b5b81526020016001808111156107ff576107fe613c8b565b5b8152602001600073ffffffffffffffffffffffffffffffffffffffff1681526020014281526020016001151581526020016000151581526020016000151581526020016000151581526020016000151581525060008083815260200190815260200160002060008201518160000160006101000a81548173ffffffffffffffffffffffffffffffffffffffff021916908373ffffffffffffffffffffffffffffffffffffffff16021790555060208201518160010160006101000a81548173ffffffffffffffffffffffffffffffffffffffff021916908373ffffffffffffffffffffffffffffffffffffffff1602179055506040820151816002015560608201518160030160006101000a81548160ff0219169083600281111561092757610926613c8b565b5b021790555060808201518160030160016101000a81548160ff0219169083600181111561095757610956613c8b565b5b021790555060a08201518160030160026101000a81548173ffffffffffffffffffffffffffffffffffffffff021916908373ffffffffffffffffffffffffffffffffffffffff16021790555060c0820151816004015560e08201518160050160006101000a81548160ff0219169083151502179055506101008201518160050160016101000a81548160ff0219169083151502179055506101208201518160050160026101000a81548160ff0219169083151502179055506101408201518160050160036101000a81548160ff0219169083151502179055506101608201518160050160046101000a81548160ff021916908315150217905550905050807f7dfb67e9ff596fca4da65c7eedb128cd1aac553af54b3c0cb733625a2480d8bd3334604051610a86929190614271565b60405180910390a2807f45c4f9cbafe186141862608c493f28b823fde4c2142bedc3f5169961a73fdd22600560009054906101000a900473ffffffffffffffffffffffffffffffffffffffff16604051610ae09190613bf4565b60405180910390a260026000815480929190610afb906142c9565b919050555050565b600360009054906101000a900473ffffffffffffffffffffffffffffffffffffffff1673ffffffffffffffffffffffffffffffffffffffff163373ffffffffffffffffffffffffffffffffffffffff1614610b93576040517f08c379a0000000000000000000000000000000000000000000000000000000008152600401610b8a9061435d565b60405180910390fd5b6000806000838152602001908152602001600020905060006002811115610bbd57610bbc613c8b565b5b8160030160009054906101000a900460ff166002811115610be157610be0613c8b565b5b14610c21576040517f08c379a0000000000000000000000000000000000000000000000000000000008152600401610c18906143c9565b60405180910390fd5b80600201543414610c67576040517f08c379a0000000000000000000000000000000000000000000000000000000008152600401610c5e90614435565b60405180910390fd5b338160010160006101000a81548173ffffffffffffffffffffffffffffffffffffffff021916908373ffffffffffffffffffffffffffffffffffffffff16021790555060018160050160006101000a81548160ff02191690831515021790555060018160030160006101000a81548160ff02191690836002811115610cef57610cee613c8b565b5b0217905550428160040181905550817f45c4f9cbafe186141862608c493f28b823fde4c2142bedc3f5169961a73fdd2233604051610d2d9190613bf4565b60405180910390a25050565b60025481565b600360009054906101000a900473ffffffffffffffffffffffffffffffffffffffff1673ffffffffffffffffffffffffffffffffffffffff163373ffffffffffffffffffffffffffffffffffffffff1614610dcf576040517f08c379a0000000000000000000000000000000000000000000000000000000008152600401610dc69061435d565b60405180910390fd5b80600460006101000a81548173ffffffffffffffffffffffffffffffffffffffff021916908373ffffffffffffffffffffffffffffffffffffffff16021790555050565b60be81565b600360009054906101000a900473ffffffffffffffffffffffffffffffffffffffff1673ffffffffffffffffffffffffffffffffffffffff163373ffffffffffffffffffffffffffffffffffffffff1614610ea8576040517f08c379a0000000000000000000000000000000000000000000000000000000008152600401610e9f9061435d565b60405180910390fd5b600073ffffffffffffffffffffffffffffffffffffffff168173ffffffffffffffffffffffffffffffffffffffff1603610f17576040517f08c379a0000000000000000000000000000000000000000000000000000000008152600401610f0e906144a1565b60405180910390fd5b80600560006101000a81548173ffffffffffffffffffffffffffffffffffffffff021916908373ffffffffffffffffffffffffffffffffffffffff16021790555050565b600460009054906101000a900473ffffffffffffffffffffffffffffffffffffffff1673ffffffffffffffffffffffffffffffffffffffff163373ffffffffffffffffffffffffffffffffffffffff1614610feb576040517f08c379a0000000000000000000000000000000000000000000000000000000008152600401610fe29061450d565b60405180910390fd5b600080600089815260200190815260200160002090506001600281111561101557611014613c8b565b5b8160030160009054906101000a900460ff16600281111561103957611038613c8b565b5b14611079576040517f08c379a000000000000000000000000000000000000000000000000000000000815260040161107090614579565b60405180910390fd5b8060050160029054906101000a900460ff161580156110a757508060050160049054906101000a900460ff16155b6110e6576040517f08c379a00000000000000000000000000000000000000000000000000000000081526004016110dd906145e5565b60405180910390fd5b8060000160009054906101000a900473ffffffffffffffffffffffffffffffffffffffff1673ffffffffffffffffffffffffffffffffffffffff1661119f6111558a8a60405160200161113a9291906146c5565b6040516020818303038152906040528051906020012061286e565b88888080601f016020809104026020016040519081016040528093929190818152602001838380828437600081840152601f19601f820116905080830192505050505050506128a4565b73ffffffffffffffffffffffffffffffffffffffff16146111f5576040517f08c379a00000000000000000000000000000000000000000000000000000000081526004016111ec90614748565b60405180910390fd5b600061127561122b8a876040516020016112109291906146c5565b6040516020818303038152906040528051906020012061286e565b85858080601f016020809104026020016040519081016040528093929190818152602001838380828437600081840152601f19601f820116905080830192505050505050506128a4565b90508160010160009054906101000a900473ffffffffffffffffffffffffffffffffffffffff1673ffffffffffffffffffffffffffffffffffffffff168173ffffffffffffffffffffffffffffffffffffffff16148061136257506001808111156112e3576112e2613c8b565b5b8260030160019054906101000a900460ff16600181111561130757611306613c8b565b5b1480156113615750600460009054906101000a900473ffffffffffffffffffffffffffffffffffffffff1673ffffffffffffffffffffffffffffffffffffffff168173ffffffffffffffffffffffffffffffffffffffff16145b5b6113a1576040517f08c379a0000000000000000000000000000000000000000000000000000000008152600401611398906147b4565b60405180910390fd5b878260050160016101000a81548160ff02191690831515021790555060018260050160026101000a81548160ff021916908315150217905550848260050160036101000a81548160ff02191690831515021790555060018260050160046101000a81548160ff021916908315150217905550887fa116a5d3aae66533a57997d2090970991738695337a83a0b490d3a7ea043113c8360000160009054906101000a900473ffffffffffffffffffffffffffffffffffffffff168a6040516114699291906147d4565b60405180910390a2887fa116a5d3aae66533a57997d2090970991738695337a83a0b490d3a7ea043113c8360010160009054906101000a900473ffffffffffffffffffffffffffffffffffffffff16876040516114c79291906147d4565b60405180910390a28160050160009054906101000a900460ff16156114f4576114ef896128d0565b6114fe565b6114fd89612c1f565b5b505050505050505050565b6000341161154c576040517f08c379a000000000000000000000000000000000000000000000000000000000815260040161154390614137565b60405180910390fd5b6040518061018001604052803373ffffffffffffffffffffffffffffffffffffffff168152602001600073ffffffffffffffffffffffffffffffffffffffff168152602001348152602001600060028111156115ab576115aa613c8b565b5b8152602001600060018111156115c4576115c3613c8b565b5b8152602001600073ffffffffffffffffffffffffffffffffffffffff16815260200142815260200160001515815260200160001515815260200160001515815260200160001515815260200160001515815250600080600254815260200190815260200160002060008201518160000160006101000a81548173ffffffffffffffffffffffffffffffffffffffff021916908373ffffffffffffffffffffffffffffffffffffffff16021790555060208201518160010160006101000a81548173ffffffffffffffffffffffffffffffffffffffff021916908373ffffffffffffffffffffffffffffffffffffffff1602179055506040820151816002015560608201518160030160006101000a81548160ff021916908360028111156116ee576116ed613c8b565b5b021790555060808201518160030160016101000a81548160ff0219169083600181111561171e5761171d613c8b565b5b021790555060a08201518160030160026101000a81548173ffffffffffffffffffffffffffffffffffffffff021916908373ffffffffffffffffffffffffffffffffffffffff16021790555060c0820151816004015560e08201518160050160006101000a81548160ff0219169083151502179055506101008201518160050160016101000a81548160ff0219169083151502179055506101208201518160050160026101000a81548160ff0219169083151502179055506101408201518160050160036101000a81548160ff0219169083151502179055506101608201518160050160046101000a81548160ff0219169083151502179055509050506002547f7dfb67e9ff596fca4da65c7eedb128cd1aac553af54b3c0cb733625a2480d8bd333460405161184f929190614271565b60405180910390a26002600081548092919061186a906142c9565b9190505550565b600360009054906101000a900473ffffffffffffffffffffffffffffffffffffffff1681565b606481565b60008060008481526020019081526020016000209050600060028111156118c6576118c5613c8b565b5b8160030160009054906101000a900460ff1660028111156118ea576118e9613c8b565b5b1461192a576040517f08c379a0000000000000000000000000000000000000000000000000000000008152600401611921906143c9565b60405180910390fd5b80600201543414611970576040517f08c379a000000000000000000000000000000000000000000000000000000000815260040161196790614435565b60405180910390fd5b8060000160009054906101000a900473ffffffffffffffffffffffffffffffffffffffff1673ffffffffffffffffffffffffffffffffffffffff163373ffffffffffffffffffffffffffffffffffffffff1603611a02576040517f08c379a00000000000000000000000000000000000000000000000000000000081526004016119f990614849565b60405180910390fd5b338160010160006101000a81548173ffffffffffffffffffffffffffffffffffffffff021916908373ffffffffffffffffffffffffffffffffffffffff160217905550818160050160006101000a81548160ff02191690831515021790555060018160030160006101000a81548160ff02191690836002811115611a8957611a88613c8b565b5b0217905550428160040181905550827f45c4f9cbafe186141862608c493f28b823fde4c2142bedc3f5169961a73fdd2233604051611ac79190613bf4565b60405180910390a2505050565b600460009054906101000a900473ffffffffffffffffffffffffffffffffffffffff1673ffffffffffffffffffffffffffffffffffffffff163373ffffffffffffffffffffffffffffffffffffffff1614611b64576040517f08c379a0000000000000000000000000000000000000000000000000000000008152600401611b5b9061450d565b60405180910390fd5b6000806000838152602001908152602001600020905060006002811115611b8e57611b8d613c8b565b5b8160030160009054906101000a900460ff166002811115611bb257611bb1613c8b565b5b14611bf2576040517f08c379a0000000000000000000000000000000000000000000000000000000008152600401611be9906143c9565b60405180910390fd5b600073ffffffffffffffffffffffffffffffffffffffff16600560009054906101000a900473ffffffffffffffffffffffffffffffffffffffff1673ffffffffffffffffffffffffffffffffffffffff1603611c83576040517f08c379a0000000000000000000000000000000000000000000000000000000008152600401611c7a906141a3565b60405180910390fd5b600560009054906101000a900473ffffffffffffffffffffffffffffffffffffffff1673ffffffffffffffffffffffffffffffffffffffff16636e459d4882600201546040518263ffffffff1660e01b8152600401611ce29190613e1f565b602060405180830381865afa158015611cff573d6000803e3d6000fd5b505050506040513d601f19601f82011682018060405250810190611d2391906141d8565b611d62576040517f08c379a0000000000000000000000000000000000000000000000000000000008152600401611d5990614251565b60405180910390fd5b6000600560009054906101000a900473ffffffffffffffffffffffffffffffffffffffff1673ffffffffffffffffffffffffffffffffffffffff16636022743e83600201546040518263ffffffff1660e01b8152600401611dc39190613e1f565b6020604051808303816000875af1158015611de2573d6000803e3d6000fd5b505050506040513d601f19601f82011682018060405250810190611e0691906141d8565b905080611e48576040517f08c379a0000000000000000000000000000000000000000000000000000000008152600401611e3f906148b5565b60405180910390fd5b600560009054906101000a900473ffffffffffffffffffffffffffffffffffffffff168260010160006101000a81548173ffffffffffffffffffffffffffffffffffffffff021916908373ffffffffffffffffffffffffffffffffffffffff16021790555060018260050160006101000a81548160ff02191690831515021790555060018260030160016101000a81548160ff02191690836001811115611ef257611ef1613c8b565b5b021790555060018260030160006101000a81548160ff02191690836002811115611f1f57611f1e613c8b565b5b0217905550428260040181905550827f45c4f9cbafe186141862608c493f28b823fde4c2142bedc3f5169961a73fdd22600560009054906101000a900473ffffffffffffffffffffffffffffffffffffffff16604051611f7f9190613bf4565b60405180910390a2505050565b6000600160003373ffffffffffffffffffffffffffffffffffffffff1673ffffffffffffffffffffffffffffffffffffffff16815260200190815260200160002054905060008111612013576040517f08c379a000000000000000000000000000000000000000000000000000000000815260040161200a90614921565b60405180910390fd5b6000600160003373ffffffffffffffffffffffffffffffffffffffff1673ffffffffffffffffffffffffffffffffffffffff168152602001908152602001600020819055503373ffffffffffffffffffffffffffffffffffffffff166108fc829081150290604051600060405180830381858888f1935050505015801561209e573d6000803e3d6000fd5b503373ffffffffffffffffffffffffffffffffffffffff167f1a31e733a172afcf46074b3106c17f0c298e226442682a03c1e99ce256139ec2826040516120e59190613e1f565b60405180910390a250565b600080600084815260200190815260200160002090506001600281111561211a57612119613c8b565b5b8160030160009054906101000a900460ff16600281111561213e5761213d613c8b565b5b1461217e576040517f08c379a000000000000000000000000000000000000000000000000000000000815260040161217590614579565b60405180910390fd5b8060000160009054906101000a900473ffffffffffffffffffffffffffffffffffffffff1673ffffffffffffffffffffffffffffffffffffffff163373ffffffffffffffffffffffffffffffffffffffff160361229f578060050160029054906101000a900460ff1615612227576040517f08c379a000000000000000000000000000000000000000000000000000000000815260040161221e9061498d565b60405180910390fd5b818160050160016101000a81548160ff02191690831515021790555060018160050160026101000a81548160ff021916908315150217905550827fa116a5d3aae66533a57997d2090970991738695337a83a0b490d3a7ea043113c33846040516122929291906147d4565b60405180910390a26123fc565b8060010160009054906101000a900473ffffffffffffffffffffffffffffffffffffffff1673ffffffffffffffffffffffffffffffffffffffff163373ffffffffffffffffffffffffffffffffffffffff16036123c0578060050160049054906101000a900460ff1615612348576040517f08c379a000000000000000000000000000000000000000000000000000000000815260040161233f906149f9565b60405180910390fd5b818160050160036101000a81548160ff02191690831515021790555060018160050160046101000a81548160ff021916908315150217905550827fa116a5d3aae66533a57997d2090970991738695337a83a0b490d3a7ea043113c33846040516123b39291906147d4565b60405180910390a26123fb565b6040517f08c379a00000000000000000000000000000000000000000000000000000000081526004016123f290614a65565b60405180910390fd5b5b612405836132a2565b505050565b600560009054906101000a900473ffffffffffffffffffffffffffffffffffffffff1681565b600360009054906101000a900473ffffffffffffffffffffffffffffffffffffffff1673ffffffffffffffffffffffffffffffffffffffff163373ffffffffffffffffffffffffffffffffffffffff16146124c0576040517f08c379a00000000000000000000000000000000000000000000000000000000081526004016124b79061435d565b60405180910390fd5b60008060008481526020019081526020016000209050600160028111156124ea576124e9613c8b565b5b8160030160009054906101000a900460ff16600281111561250e5761250d613c8b565b5b1461254e576040517f08c379a000000000000000000000000000000000000000000000000000000000815260040161254590614579565b60405180910390fd5b6000600282600201546125619190614a85565b9050600060646005836125749190614a85565b61257e9190614af6565b90506000818361258e9190614b27565b9050600073ffffffffffffffffffffffffffffffffffffffff168573ffffffffffffffffffffffffffffffffffffffff16036126da576000600283856125d49190614b27565b6125de9190614af6565b905080600160008760000160009054906101000a900473ffffffffffffffffffffffffffffffffffffffff1673ffffffffffffffffffffffffffffffffffffffff1673ffffffffffffffffffffffffffffffffffffffff16815260200190815260200160002060008282546126539190614b5b565b9250508190555080600160008760010160009054906101000a900473ffffffffffffffffffffffffffffffffffffffff1673ffffffffffffffffffffffffffffffffffffffff1673ffffffffffffffffffffffffffffffffffffffff16815260200190815260200160002060008282546126cd9190614b5b565b9250508190555050612774565b848460030160026101000a81548173ffffffffffffffffffffffffffffffffffffffff021916908373ffffffffffffffffffffffffffffffffffffffff16021790555080600160008773ffffffffffffffffffffffffffffffffffffffff1673ffffffffffffffffffffffffffffffffffffffff168152602001908152602001600020600082825461276c9190614b5b565b925050819055505b600360009054906101000a900473ffffffffffffffffffffffffffffffffffffffff1673ffffffffffffffffffffffffffffffffffffffff166108fc839081150290604051600060405180830381858888f193505050501580156127dc573d6000803e3d6000fd5b5060028460030160006101000a81548160ff0219169083600281111561280557612804613c8b565b5b0217905550857f36e33eea5df2e6c873949c5c856feb597f250ea8a329ed5ac38c39ab96905359868360405161283c929190614271565b60405180910390a2505050505050565b601481565b60016020528060005260406000206000915090505481565b600581565b60007f19457468657265756d205369676e6564204d6573736167653a0a33320000000060005281601c52603c6000209050919050565b6000806000806128b4868661343b565b9250925092506128c48282613497565b82935050505092915050565b6000806000838152602001908152602001600020905060008160050160009054906101000a900460ff1615158260050160019054906101000a900460ff1615151490506000600283600201546129269190614a85565b9050600060646005836129399190614a85565b6129439190614af6565b9050600081836129539190614b27565b90508315612a41578460000160009054906101000a900473ffffffffffffffffffffffffffffffffffffffff168560030160026101000a81548173ffffffffffffffffffffffffffffffffffffffff021916908373ffffffffffffffffffffffffffffffffffffffff16021790555080600160008760000160009054906101000a900473ffffffffffffffffffffffffffffffffffffffff1673ffffffffffffffffffffffffffffffffffffffff1673ffffffffffffffffffffffffffffffffffffffff1681526020019081526020016000206000828254612a359190614b5b565b92505081905550612b23565b8460010160009054906101000a900473ffffffffffffffffffffffffffffffffffffffff168560030160026101000a81548173ffffffffffffffffffffffffffffffffffffffff021916908373ffffffffffffffffffffffffffffffffffffffff16021790555080600160008760010160009054906101000a900473ffffffffffffffffffffffffffffffffffffffff1673ffffffffffffffffffffffffffffffffffffffff1673ffffffffffffffffffffffffffffffffffffffff1681526020019081526020016000206000828254612b1b9190614b5b565b925050819055505b600360009054906101000a900473ffffffffffffffffffffffffffffffffffffffff1673ffffffffffffffffffffffffffffffffffffffff166108fc839081150290604051600060405180830381858888f19350505050158015612b8b573d6000803e3d6000fd5b5060028560030160006101000a81548160ff02191690836002811115612bb457612bb3613c8b565b5b0217905550857f36e33eea5df2e6c873949c5c856feb597f250ea8a329ed5ac38c39ab969053598660030160029054906101000a900473ffffffffffffffffffffffffffffffffffffffff1683604051612c0f929190614271565b60405180910390a2505050505050565b6000806000838152602001908152602001600020905060008015158260050160019054906101000a900460ff16151514905060008015158360050160039054906101000a900460ff161515149050600060028460020154612c809190614a85565b905060006064600583612c939190614a85565b612c9d9190614af6565b905060008183612cad9190614b27565b905083151585151503612ee257600060028385612cca9190614b27565b612cd49190614af6565b905080600160008960000160009054906101000a900473ffffffffffffffffffffffffffffffffffffffff1673ffffffffffffffffffffffffffffffffffffffff1673ffffffffffffffffffffffffffffffffffffffff1681526020019081526020016000206000828254612d499190614b5b565b9250508190555080600160008960010160009054906101000a900473ffffffffffffffffffffffffffffffffffffffff1673ffffffffffffffffffffffffffffffffffffffff1673ffffffffffffffffffffffffffffffffffffffff1681526020019081526020016000206000828254612dc39190614b5b565b9250508190555060008760030160026101000a81548173ffffffffffffffffffffffffffffffffffffffff021916908373ffffffffffffffffffffffffffffffffffffffff160217905550600360009054906101000a900473ffffffffffffffffffffffffffffffffffffffff1673ffffffffffffffffffffffffffffffffffffffff166108fc849081150290604051600060405180830381858888f19350505050158015612e76573d6000803e3d6000fd5b5060028760030160006101000a81548160ff02191690836002811115612e9f57612e9e613c8b565b5b0217905550877fc01911861ae5a7a5b004fda8b4a52b25ecdc8a78ad869354e16b75aedfa4be8482604051612ed49190613e1f565b60405180910390a250613299565b84156130c2578560000160009054906101000a900473ffffffffffffffffffffffffffffffffffffffff168660030160026101000a81548173ffffffffffffffffffffffffffffffffffffffff021916908373ffffffffffffffffffffffffffffffffffffffff16021790555080600160008860000160009054906101000a900473ffffffffffffffffffffffffffffffffffffffff1673ffffffffffffffffffffffffffffffffffffffff1673ffffffffffffffffffffffffffffffffffffffff1681526020019081526020016000206000828254612fc29190614b5b565b92505081905550600360009054906101000a900473ffffffffffffffffffffffffffffffffffffffff1673ffffffffffffffffffffffffffffffffffffffff166108fc839081150290604051600060405180830381858888f19350505050158015613031573d6000803e3d6000fd5b5060028660030160006101000a81548160ff0219169083600281111561305a57613059613c8b565b5b0217905550867f36e33eea5df2e6c873949c5c856feb597f250ea8a329ed5ac38c39ab969053598760030160029054906101000a900473ffffffffffffffffffffffffffffffffffffffff16836040516130b5929190614271565b60405180910390a2613298565b8560010160009054906101000a900473ffffffffffffffffffffffffffffffffffffffff168660030160026101000a81548173ffffffffffffffffffffffffffffffffffffffff021916908373ffffffffffffffffffffffffffffffffffffffff16021790555080600160008860010160009054906101000a900473ffffffffffffffffffffffffffffffffffffffff1673ffffffffffffffffffffffffffffffffffffffff1673ffffffffffffffffffffffffffffffffffffffff168152602001908152602001600020600082825461319c9190614b5b565b92505081905550600360009054906101000a900473ffffffffffffffffffffffffffffffffffffffff1673ffffffffffffffffffffffffffffffffffffffff166108fc839081150290604051600060405180830381858888f1935050505015801561320b573d6000803e3d6000fd5b5060028660030160006101000a81548160ff0219169083600281111561323457613233613c8b565b5b0217905550867f36e33eea5df2e6c873949c5c856feb597f250ea8a329ed5ac38c39ab969053598760030160029054906101000a900473ffffffffffffffffffffffffffffffffffffffff168360405161328f929190614271565b60405180910390a25b5b50505050505050565b600080600083815260200190815260200160002090506001808111156132cb576132ca613c8b565b5b8160030160019054906101000a900460ff1660018111156132ef576132ee613c8b565b5b14801561330a57508060050160029054906101000a900460ff165b1561331e57613318826135fb565b50613438565b6000600181111561333257613331613c8b565b5b8160030160019054906101000a900460ff16600181111561335657613355613c8b565b5b14801561337157508060050160009054906101000a900460ff165b801561338b57508060050160029054906101000a900460ff165b1561339f57613399826128d0565b50613438565b600060018111156133b3576133b2613c8b565b5b8160030160019054906101000a900460ff1660018111156133d7576133d6613c8b565b5b1480156133f357508060050160009054906101000a900460ff16155b801561340d57508060050160029054906101000a900460ff165b801561342757508060050160049054906101000a900460ff165b156134365761343582612c1f565b5b505b50565b600080600060418451036134805760008060006020870151925060408701519150606087015160001a905061347288828585613abf565b955095509550505050613490565b60006002855160001b9250925092505b9250925092565b600060038111156134ab576134aa613c8b565b5b8260038111156134be576134bd613c8b565b5b03156135f757600160038111156134d8576134d7613c8b565b5b8260038111156134eb576134ea613c8b565b5b03613522576040517ff645eedf00000000000000000000000000000000000000000000000000000000815260040160405180910390fd5b6002600381111561353657613535613c8b565b5b82600381111561354957613548613c8b565b5b0361358e578060001c6040517ffce698f70000000000000000000000000000000000000000000000000000000081526004016135859190613e1f565b60405180910390fd5b6003808111156135a1576135a0613c8b565b5b8260038111156135b4576135b3613c8b565b5b036135f657806040517fd78bce0c0000000000000000000000000000000000000000000000000000000081526004016135ed9190614ba8565b60405180910390fd5b5b5050565b6000806000838152602001908152602001600020905060008160050160019054906101000a900460ff169050600082600201549050600060646005836136419190614a85565b61364b9190614af6565b9050821561387b576000606460be846136649190614a85565b61366e9190614af6565b90506000838261367e9190614b27565b9050600560009054906101000a900473ffffffffffffffffffffffffffffffffffffffff1673ffffffffffffffffffffffffffffffffffffffff16636022743e826040518263ffffffff1660e01b81526004016136db9190613e1f565b6020604051808303816000875af11580156136fa573d6000803e3d6000fd5b505050506040513d601f19601f8201168201806040525081019061371e91906141d8565b50828261372b9190614b27565b600160008860000160009054906101000a900473ffffffffffffffffffffffffffffffffffffffff1673ffffffffffffffffffffffffffffffffffffffff1673ffffffffffffffffffffffffffffffffffffffff168152602001908152602001600020600082825461379d9190614b5b565b925050819055508560000160009054906101000a900473ffffffffffffffffffffffffffffffffffffffff168660030160026101000a81548173ffffffffffffffffffffffffffffffffffffffff021916908373ffffffffffffffffffffffffffffffffffffffff160217905550600360009054906101000a900473ffffffffffffffffffffffffffffffffffffffff1673ffffffffffffffffffffffffffffffffffffffff166108fc849081150290604051600060405180830381858888f19350505050158015613873573d6000803e3d6000fd5b505050613a1c565b600081836138899190614b27565b90506000606460148361389c9190614a85565b6138a69190614af6565b9050600560009054906101000a900473ffffffffffffffffffffffffffffffffffffffff1673ffffffffffffffffffffffffffffffffffffffff16639e6611a582846138f29190614b27565b6040518263ffffffff1660e01b815260040161390e9190613e1f565b600060405180830381600087803b15801561392857600080fd5b505af115801561393c573d6000803e3d6000fd5b50505050600560009054906101000a900473ffffffffffffffffffffffffffffffffffffffff168660030160026101000a81548173ffffffffffffffffffffffffffffffffffffffff021916908373ffffffffffffffffffffffffffffffffffffffff160217905550600360009054906101000a900473ffffffffffffffffffffffffffffffffffffffff1673ffffffffffffffffffffffffffffffffffffffff166108fc82856139ed9190614b5b565b9081150290604051600060405180830381858888f19350505050158015613a18573d6000803e3d6000fd5b5050505b60028460030160006101000a81548160ff02191690836002811115613a4457613a43613c8b565b5b0217905550847f36e33eea5df2e6c873949c5c856feb597f250ea8a329ed5ac38c39ab969053598560030160029054906101000a900473ffffffffffffffffffffffffffffffffffffffff1685613a9c576000613aa2565b86600201545b604051613ab0929190614271565b60405180910390a25050505050565b60008060007f7fffffffffffffffffffffffffffffff5d576e7357a4501ddfe92f46681b20a08460001c1115613aff576000600385925092509250613ba9565b600060018888888860405160008152602001604052604051613b249493929190614bdf565b6020604051602081039080840390855afa158015613b46573d6000803e3d6000fd5b505050602060405103519050600073ffffffffffffffffffffffffffffffffffffffff168173ffffffffffffffffffffffffffffffffffffffff1603613b9a57600060016000801b93509350935050613ba9565b8060008060001b935093509350505b9450945094915050565b600073ffffffffffffffffffffffffffffffffffffffff82169050919050565b6000613bde82613bb3565b9050919050565b613bee81613bd3565b82525050565b6000602082019050613c096000830184613be5565b92915050565b600080fd5b600080fd5b6000819050919050565b613c2c81613c19565b8114613c3757600080fd5b50565b600081359050613c4981613c23565b92915050565b600060208284031215613c6557613c64613c0f565b5b6000613c7384828501613c3a565b91505092915050565b613c8581613c19565b82525050565b7f4e487b7100000000000000000000000000000000000000000000000000000000600052602160045260246000fd5b60038110613ccb57613cca613c8b565b5b50565b6000819050613cdc82613cba565b919050565b6000613cec82613cce565b9050919050565b613cfc81613ce1565b82525050565b60028110613d1357613d12613c8b565b5b50565b6000819050613d2482613d02565b919050565b6000613d3482613d16565b9050919050565b613d4481613d29565b82525050565b60008115159050919050565b613d5f81613d4a565b82525050565b600061018082019050613d7b600083018f613be5565b613d88602083018e613be5565b613d95604083018d613c7c565b613da2606083018c613cf3565b613daf608083018b613d3b565b613dbc60a083018a613be5565b613dc960c0830189613c7c565b613dd660e0830188613d56565b613de4610100830187613d56565b613df2610120830186613d56565b613e00610140830185613d56565b613e0e610160830184613d56565b9d9c50505050505050505050505050565b6000602082019050613e346000830184613c7c565b92915050565b613e4381613bd3565b8114613e4e57600080fd5b50565b600081359050613e6081613e3a565b92915050565b600060208284031215613e7c57613e7b613c0f565b5b6000613e8a84828501613e51565b91505092915050565b613e9c81613d4a565b8114613ea757600080fd5b50565b600081359050613eb981613e93565b92915050565b600080fd5b600080fd5b600080fd5b60008083601f840112613ee457613ee3613ebf565b5b8235905067ffffffffffffffff811115613f0157613f00613ec4565b5b602083019150836001820283011115613f1d57613f1c613ec9565b5b9250929050565b600080600080600080600060a0888a031215613f4357613f42613c0f565b5b6000613f518a828b01613c3a565b9750506020613f628a828b01613eaa565b965050604088013567ffffffffffffffff811115613f8357613f82613c14565b5b613f8f8a828b01613ece565b95509550506060613fa28a828b01613eaa565b935050608088013567ffffffffffffffff811115613fc357613fc2613c14565b5b613fcf8a828b01613ece565b925092505092959891949750929550565b60008060408385031215613ff757613ff6613c0f565b5b600061400585828601613c3a565b925050602061401685828601613eaa565b9150509250929050565b6000819050919050565b600061404561404061403b84613bb3565b614020565b613bb3565b9050919050565b60006140578261402a565b9050919050565b60006140698261404c565b9050919050565b6140798161405e565b82525050565b60006020820190506140946000830184614070565b92915050565b600080604083850312156140b1576140b0613c0f565b5b60006140bf85828601613c3a565b92505060206140d085828601613e51565b9150509250929050565b600082825260208201905092915050565b7f5374616b65207265717569726564000000000000000000000000000000000000600082015250565b6000614121600e836140da565b915061412c826140eb565b602082019050919050565b6000602082019050818103600083015261415081614114565b9050919050565b7f486f7573655661756c74206e6f74207365740000000000000000000000000000600082015250565b600061418d6012836140da565b915061419882614157565b602082019050919050565b600060208201905081810360008301526141bc81614180565b9050919050565b6000815190506141d281613e93565b92915050565b6000602082840312156141ee576141ed613c0f565b5b60006141fc848285016141c3565b91505092915050565b7f426574206578636565647320706f6f6c20636170616369747900000000000000600082015250565b600061423b6019836140da565b915061424682614205565b602082019050919050565b6000602082019050818103600083015261426a8161422e565b9050919050565b60006040820190506142866000830185613be5565b6142936020830184613c7c565b9392505050565b7f4e487b7100000000000000000000000000000000000000000000000000000000600052601160045260246000fd5b60006142d482613c19565b91507fffffffffffffffffffffffffffffffffffffffffffffffffffffffffffffffff82036143065761430561429a565b5b600182019050919050565b7f4f6e6c79204f7261636c65000000000000000000000000000000000000000000600082015250565b6000614347600b836140da565b915061435282614311565b602082019050919050565b600060208201905081810360008301526143768161433a565b9050919050565b7f47616d65206e6f74206f70656e00000000000000000000000000000000000000600082015250565b60006143b3600d836140da565b91506143be8261437d565b602082019050919050565b600060208201905081810360008301526143e2816143a6565b9050919050565b7f496e636f7272656374207374616b650000000000000000000000000000000000600082015250565b600061441f600f836140da565b915061442a826143e9565b602082019050919050565b6000602082019050818103600083015261444e81614412565b9050919050565b7f496e76616c696420616464726573730000000000000000000000000000000000600082015250565b600061448b600f836140da565b915061449682614455565b602082019050919050565b600060208201905081810360008301526144ba8161447e565b9050919050565b7f4e6f7420617574686f72697a6564207265736f6c766572000000000000000000600082015250565b60006144f76017836140da565b9150614502826144c1565b602082019050919050565b60006020820190508181036000830152614526816144ea565b9050919050565b7f47616d65206e6f74206163746976650000000000000000000000000000000000600082015250565b6000614563600f836140da565b915061456e8261452d565b602082019050919050565b6000602082019050818103600083015261459281614556565b9050919050565b7f416c726561647920766f746564206f6e2d636861696e00000000000000000000600082015250565b60006145cf6016836140da565b91506145da82614599565b602082019050919050565b600060208201905081810360008301526145fe816145c2565b9050919050565b6000819050919050565b61462061461b82613c19565b614605565b82525050565b60008160f81b9050919050565b600061463e82614626565b9050919050565b600061465082614633565b9050919050565b61466861466382613d4a565b614645565b82525050565b600081905092915050565b7f564f544500000000000000000000000000000000000000000000000000000000600082015250565b60006146af60048361466e565b91506146ba82614679565b600482019050919050565b60006146d1828561460f565b6020820191506146e18284614657565b6001820191506146f0826146a2565b91508190509392505050565b7f496e76616c6964205031207369676e6174757265000000000000000000000000600082015250565b60006147326014836140da565b915061473d826146fc565b602082019050919050565b6000602082019050818103600083015261476181614725565b9050919050565b7f496e76616c6964205032207369676e6174757265000000000000000000000000600082015250565b600061479e6014836140da565b91506147a982614768565b602082019050919050565b600060208201905081810360008301526147cd81614791565b9050919050565b60006040820190506147e96000830185613be5565b6147f66020830184613d56565b9392505050565b7f43616e6e6f7420706c617920616761696e73742073656c660000000000000000600082015250565b60006148336018836140da565b915061483e826147fd565b602082019050919050565b6000602082019050818103600083015261486281614826565b9050919050565b7f486f7573655661756c742066756e64696e67206661696c656400000000000000600082015250565b600061489f6019836140da565b91506148aa82614869565b602082019050919050565b600060208201905081810360008301526148ce81614892565b9050919050565b7f4e6f2077696e6e696e677320746f20636c61696d000000000000000000000000600082015250565b600061490b6014836140da565b9150614916826148d5565b602082019050919050565b6000602082019050818103600083015261493a816148fe565b9050919050565b7f503120616c7265616479207375626d6974746564000000000000000000000000600082015250565b60006149776014836140da565b915061498282614941565b602082019050919050565b600060208201905081810360008301526149a68161496a565b9050919050565b7f503220616c7265616479207375626d6974746564000000000000000000000000600082015250565b60006149e36014836140da565b91506149ee826149ad565b602082019050919050565b60006020820190508181036000830152614a12816149d6565b9050919050565b7f4e6f74206120706c6179657220696e20746869732067616d6500000000000000600082015250565b6000614a4f6019836140da565b9150614a5a82614a19565b602082019050919050565b60006020820190508181036000830152614a7e81614a42565b9050919050565b6000614a9082613c19565b9150614a9b83613c19565b9250828202614aa981613c19565b91508282048414831517614ac057614abf61429a565b5b5092915050565b7f4e487b7100000000000000000000000000000000000000000000000000000000600052601260045260246000fd5b6000614b0182613c19565b9150614b0c83613c19565b925082614b1c57614b1b614ac7565b5b828204905092915050565b6000614b3282613c19565b9150614b3d83613c19565b9250828203905081811115614b5557614b5461429a565b5b92915050565b6000614b6682613c19565b9150614b7183613c19565b9250828201905080821115614b8957614b8861429a565b5b92915050565b6000819050919050565b614ba281614b8f565b82525050565b6000602082019050614bbd6000830184614b99565b92915050565b600060ff82169050919050565b614bd981614bc3565b82525050565b6000608082019050614bf46000830187614b99565b614c016020830186614bd0565b614c0e6040830185614b99565b614c1b6060830184614b99565b9594505050505056fea2646970667358221220aa47d87b02ae66d3fd874207163eaad0035b06a68298f31155883e6f0bc2360a64736f6c63430008180033",
  "linkReferences": {},
  "deployedLinkReferences": {}
}