{
  "_format": "hh-sol-artifact-1",
  "contractName": "OxHuman",
  "sourceName": "contracts/OxHuman.sol",
  "abi": [
    {
      "inputs": [],
      "stateMutability": "nonpayable",
      "type": "constructor"
    },
    {
      "inputs": [],
      "name": "ECDSAInvalidSignature",
      "type": "error"
    },
    {
      "inputs": [
        {
          "internalType": "uint256",
          "name": "length",
          "type": "uint256"
        }
      ],
      "name": "ECDSAInvalidSignatureLength",
      "type": "error"
    },
    {
      "inputs": [
        {
          "internalType": "bytes32",
          "name": "s",
          "type": "bytes32"
        }
      ],
      "name": "ECDSAInvalidSignatureS",
      "type": "error"
    },
    {
      "anonymous": false,
      "inputs": [
        {
          "indexed": true,
          "internalType": "uint256",
          "name": "gameId",
          "type": "uint256"
        },
        {
          "indexed": false,
          "internalType": "bytes32",
          "name": "chatLogHash",
          "type": "bytes32"
        },
        {
          "indexed": false,
          "internalType": "string",
          "name": "chatLogURI",
          "type": "string"
        }
      ],
      "name": "ChatLogAnchored",
      "type": "event"
    },
    {
      "anonymous": false,
      "inputs": [
        {
          "indexed": true,
          "internalType": "uint256",
          "name": "gameId",
          "type": "uint256"
        },
        {
          "indexed": true,
          "internalType": "address",
          "name": "player1",
          "type": "address"
        },
        {
          "indexed": false,
          "internalType": "uint256",
          "name": "stake",
          "type": "uint256"
        },
        {
          "indexed": false,
          "internalType": "enum OxHuman.GameMode",
          "name": "mode",
          "type": "uint8"
        }
      ],
      "name": "GameCreated",
      "type": "event"
    },
    {
      "anonymous": false,
      "inputs": [
        {
          "indexed": true,
          "internalType": "uint256",
          "name": "gameId",
          "type": "uint256"
        },
        {
          "indexed": false,
          "internalType": "uint256",
          "name": "refundAmount",
          "type": "uint256"
        }
      ],
      "name": "GameDraw",
      "type": "event"
    },
    {
      "anonymous": false,
      "inputs": [
        {
          "indexed": true,
          "internalType": "uint256",
          "name": "gameId",
          "type": "uint256"
        },
        {
          "indexed": true,
          "internalType": "address",
          "name": "player2",
          "type": "address"
        },
        {
          "indexed": false,
          "internalType": "uint256",
          "name": "botTokenId",
          "type": "uint256"
        }
      ],
      "name": "GameJoined",
      "type": "event"
    },
    {
      "anonymous": false,
      "inputs": [
        {
          "indexed": true,
          "internalType": "uint256",
          "name": "gameId",
          "type": "uint256"
        },
        {
          "indexed": true,
          "internalType": "address",
          "name": "winner",
          "type": "address"
        },
        {
          "indexed": false,
          "internalType": "uint256",
          "name": "payout",
          "type": "uint256"
        }
      ],
      "name": "GameResolved",
      "type": "event"
    },
    {
      "anonymous": false,
      "inputs": [
        {
          "indexed": true,
          "internalType": "uint256",
          "name": "gameId",
          "type": "uint256"
        },
        {
          "indexed": true,
          "internalType": "address",
          "name": "player",
          "type": "address"
        },
        {
          "indexed": false,
          "internalType": "bool",
          "name": "guessedBot",
          "type": "bool"
        }
      ],
      "name": "VerdictSubmitted",
      "type": "event"
    },
    {
      "anonymous": false,
      "inputs": [
        {
          "indexed": true,
          "internalType": "address",
          "name": "player",
          "type": "address"
        },
        {
          "indexed": false,
          "internalType": "uint256",
          "name": "amount",
          "type": "uint256"
        }
      ],
      "name": "WinningsClaimed",
      "type": "event"
    },
    {
      "inputs": [],
      "name": "BOT_OWNER_SHARE_PERCENT",
      "outputs": [
        {
          "internalType": "uint256",
          "name": "",
          "type": "uint256"
        }
      ],
      "stateMutability": "view",
      "type": "function"
    },
    {
      "inputs": [],
      "name": "PAYOUT_DENOMINATOR",
      "outputs": [
        {
          "internalType": "uint256",
          "name": "",
          "type": "uint256"
        }
      ],
      "stateMutability": "view",
      "type": "function"
    },
    {
      "inputs": [],
      "name": "PAYOUT_NUMERATOR",
      "outputs": [
        {
          "internalType": "uint256",
          "name": "",
          "type": "uint256"
        }
      ],
      "stateMutability": "view",
      "type": "function"
    },
    {
      "inputs": [],
      "name": "PERFORMANCE_FEE_PERCENT",
      "outputs": [
        {
          "internalType": "uint256",
          "name": "",
          "type": "uint256"
        }
      ],
      "stateMutability": "view",
      "type": "function"
    },
    {
      "inputs": [],
      "name": "PROTOCOL_FEE_PERCENT",
      "outputs": [
        {
          "internalType": "uint256",
          "name": "",
          "type": "uint256"
        }
      ],
      "stateMutability": "view",
      "type": "function"
    },
    {
      "inputs": [
        {
          "internalType": "uint256",
          "name": "gameId",
          "type": "uint256"
        },
        {
          "internalType": "bytes32",
          "name": "hash",
          "type": "bytes32"
        },
        {
          "internalType": "string",
          "name": "uri",
          "type": "string"
        }
      ],
      "name": "anchorChatLog",
      "outputs": [],
      "stateMutability": "nonpayable",
      "type": "function"
    },
    {
      "inputs": [],
      "name": "botINFT",
      "outputs": [
        {
          "internalType": "contract IBotINFT",
          "name": "",
          "type": "address"
        }
      ],
      "stateMutability": "view",
      "type": "function"
    },
    {
      "inputs": [],
      "name": "claimWinnings",
      "outputs": [],
      "stateMutability": "nonpayable",
      "type": "function"
    },
    {
      "inputs": [
        {
          "internalType": "uint256",
          "name": "gameId",
          "type": "uint256"
        },
        {
          "internalType": "uint256",
          "name": "botTokenId",
          "type": "uint256"
        }
      ],
      "name": "convertToPvE",
      "outputs": [],
      "stateMutability": "nonpayable",
      "type": "function"
    },
    {
      "inputs": [],
      "name": "createGame",
      "outputs": [],
      "stateMutability": "payable",
      "type": "function"
    },
    {
      "inputs": [
        {
          "internalType": "uint256",
          "name": "botTokenId",
          "type": "uint256"
        }
      ],
      "name": "createGamePvE",
      "outputs": [],
      "stateMutability": "payable",
      "type": "function"
    },
    {
      "inputs": [],
      "name": "gameCount",
      "outputs": [
        {
          "internalType": "uint256",
          "name": "",
          "type": "uint256"
        }
      ],
      "stateMutability": "view",
      "type": "function"
    },
    {
      "inputs": [
        {
          "internalType": "uint256",
          "name": "",
          "type": "uint256"
        }
      ],
      "name": "games",
      "outputs": [
        {
          "internalType": "address",
          "name": "player1",
          "type": "address"
        },
        {
          "internalType": "address",
          "name": "player2",
          "type": "address"
        },
        {
          "internalType": "uint256",
          "name": "botTokenId",
          "type": "uint256"
        },
        {
          "internalType": "uint256",
          "name": "stake",
          "type": "uint256"
        },
        {
          "internalType": "enum OxHuman.GameStatus",
          "name": "status",
          "type": "uint8"
        },
        {
          "internalType": "enum OxHuman.GameMode",
          "name": "mode",
          "type": "uint8"
        },
        {
          "internalType": "address",
          "name": "winner",
          "type": "address"
        },
        {
          "internalType": "uint256",
          "name": "timestamp",
          "type": "uint256"
        },
        {
          "internalType": "bool",
          "name": "isPlayer2Bot",
          "type": "bool"
        },
        {
          "internalType": "bool",
          "name": "player1GuessedBot",
          "type": "bool"
        },
        {
          "internalType": "bool",
          "name": "player1Submitted",
          "type": "bool"
        },
        {
          "internalType": "bool",
          "name": "player2GuessedBot",
          "type": "bool"
        },
        {
          "internalType": "bool",
          "name": "player2Submitted",
          "type": "bool"
        },
        {
          "internalType": "bytes32",
          "name": "chatLogHash",
          "type": "bytes32"
        },
        {
          "internalType": "string",
          "name": "chatLogURI",
          "type": "string"
        }
      ],
      "stateMutability": "view",
      "type": "function"
    },
    {
      "inputs": [
        {
          "internalType": "uint256",
          "name": "gameId",
          "type": "uint256"
        }
      ],
      "name": "joinGame",
      "outputs": [],
      "stateMutability": "payable",
      "type": "function"
    },
    {
      "inputs": [],
      "name": "oracle",
      "outputs": [
        {
          "internalType": "address",
          "name": "",
          "type": "address"
        }
      ],
      "stateMutability": "view",
      "type": "function"
    },
    {
      "inputs": [
        {
          "internalType": "uint256",
          "name": "gameId",
          "type": "uint256"
        },
        {
          "internalType": "bool",
          "name": "p1GuessedBot",
          "type": "bool"
        },
        {
          "internalType": "bytes",
          "name": "p1Signature",
          "type": "bytes"
        },
        {
          "internalType": "bool",
          "name": "p2GuessedBot",
          "type": "bool"
        },
        {
          "internalType": "bytes",
          "name": "p2Signature",
          "type": "bytes"
        }
      ],
      "name": "resolveWithSignatures",
      "outputs": [],
      "stateMutability": "nonpayable",
      "type": "function"
    },
    {
      "inputs": [],
      "name": "resolver",
      "outputs": [
        {
          "internalType": "address",
          "name": "",
          "type": "address"
        }
      ],
      "stateMutability": "view",
      "type": "function"
    },
    {
      "inputs": [
        {
          "internalType": "address",
          "name": "_botINFT",
          "type": "address"
        }
      ],
      "name": "setBotINFT",
      "outputs": [],
      "stateMutability": "nonpayable",
      "type": "function"
    },
    {
      "inputs": [
        {
          "internalType": "address",
          "name": "_resolver",
          "type": "address"
        }
      ],
      "name": "setResolver",
      "outputs": [],
      "stateMutability": "nonpayable",
      "type": "function"
    },
    {
      "inputs": [
        {
          "internalType": "uint256",
          "name": "gameId",
          "type": "uint256"
        },
        {
          "internalType": "bool",
          "name": "guessedBot",
          "type": "bool"
        }
      ],
      "name": "submitVerdict",
      "outputs": [],
      "stateMutability": "nonpayable",
      "type": "function"
    },
    {
      "inputs": [
        {
          "internalType": "address",
          "name": "newOracle",
          "type": "address"
        }
      ],
      "name": "transferOracle",
      "outputs": [],
      "stateMutability": "nonpayable",
      "type": "function"
    },
    {
      "inputs": [
        {
          "internalType": "address",
          "name": "",
          "type": "address"
        }
      ],
      "name": "winnings",
      "outputs": [
        {
          "internalType": "uint256",
          "name": "",
          "type": "uint256"
        }
      ],
      "stateMutability": "view",
      "type": "function"
    },
    {
      "stateMutability": "payable",
      "type": "receive"
    }
  ],
  "bytecode": "0x608080604052346100325760018060a01b0319338160035416176003553390600454161760045561240090816100388239f35b600080fdfe608080604052600436101561001d575b50361561001b57600080fd5b005b600090813560e01c90816304f3bcec1461189b575080630660dfd91461187f5780630f253dbd1461169557806310ad960e1461163d578063117a5b90146114365780632982de0d1461141a5780633a438f5a1461109c578063446c05a9146110735780634d1975b4146110555780634e543b2614610ffd57806356b4997514610fe157806361d8645114610bd95780637255d729146108b45780637dc0d1d01461088b57806390282be51461086f578063b06941fa14610853578063b401faf11461076d578063c1f0c04b146104d1578063e732680614610479578063ea3a149914610438578063efaa55a01461032f5763fa7b6cd10361000f573461032c57606036600319011261032c5760043567ffffffffffffffff6024356044358281116103285761015090369060040161198e565b9061016660018060a01b036004541633146119bc565b8486526020938685526040872060ff6004820154166003811015610314576002036102e057808560076008930155019083116102cc576101b0836101aa83546118c0565b83611bc7565b86601f841160011461024257927fd5481a923f70ffcc54fac6af637145d2c7d9a126e624d71b593978d52c9fd8de959492819261020683806060988d91610237575b508160011b916000199060031b1c19161790565b90555b604080519687958652850152816040850152848401378181018301879052601f01601f19168101030190a280f35b9050840135386101f2565b81885285882090601f198516895b8181106102b55750928593927fd5481a923f70ffcc54fac6af637145d2c7d9a126e624d71b593978d52c9fd8de9897959285606098951061029b575b5050600183811b019055610209565b830135600019600386901b60f8161c19169055388061028c565b919288600181928689013581550194019201610250565b634e487b7160e01b87526041600452602487fd5b60405162461bcd60e51b815260048101879052600c60248201526b139bdd081c995cdbdb1d995960a21b6044820152606490fd5b634e487b7160e01b89526021600452602489fd5b8480fd5b80fd5b50602036600319011261032c57600435808252816020526040822060048101805460ff811660038110156104245761036790156119f7565b600383015434036103f15782546001600160a01b031633146103c657600190818401336001600160601b0360a01b82541617905560ff1916179055600542910155604051908282526000805160206123ab83398151915260203393a380f35b606460405162461bcd60e51b815260206004820152600460248201526329b2b63360e11b6044820152fd5b60405162461bcd60e51b815260206004820152600b60248201526a57726f6e67207374616b6560a81b6044820152606490fd5b634e487b7160e01b86526021600452602486fd5b503461032c57602036600319011261032c576004356001600160a01b03811690819003610475578160409160209352600183522054604051908152f35b5080fd5b503461032c57602036600319011261032c576004356001600160a01b03818116918290036104cd576104b16003549182163314611afd565b6104bc821515611b36565b6001600160a01b0319161760035580f35b8280fd5b503461032c57604036600319011261032c576004356104ee61197f565b818352602090838252604084209060048201549160ff92838116600381101561075957600161051d9114611c42565b81546001600160a01b03918591339084160361065c5750505060060182815460101c1661062457805462ffff00191661ff00921515600881901b939093161762010000179055604051908152339084907fa116a5d3aae66533a57997d2090970991738695337a83a0b490d3a7ea043113c908590a35b828452838252604084209181600484015460081c166002811015610424576001811480610614575b156105d057505050506105cd90611f90565b80f35b159283610603575b836105f2575b5050506105e9575080f35b6105cd90611d3e565b60060154901c1690503880806105de565b600681015460101c831693506105d8565b5082600685015460101c166105bb565b60405162461bcd60e51b815260048101859052601060248201526f140c48185b1c9958591e481d9bdd195960821b6044820152606490fd5b60081c16600281101561075957159081610749575b501561071557600601828154851c166106dd57805464ffff000000191663ff000000921515601881901b9390931617640100000000179055604051908152339084907fa116a5d3aae66533a57997d2090970991738695337a83a0b490d3a7ea043113c908590a3610593565b60405162461bcd60e51b815260048101859052601060248201526f140c88185b1c9958591e481d9bdd195960821b6044820152606490fd5b60405162461bcd60e51b815260048101859052600c60248201526b2737ba103090383630bcb2b960a11b6044820152606490fd5b9050600182015416331438610671565b634e487b7160e01b88526021600452602488fd5b503461032c578060031936011261032c5733815260016020526040812054801561081b5733825260016020528160408120558180808084335af16107af611cb2565b50156107e4576040519081527f1a31e733a172afcf46074b3106c17f0c298e226442682a03c1e99ce256139ec260203392a280f35b60405162461bcd60e51b815260206004820152600f60248201526e1d1c985b9cd9995c8819985a5b1959608a1b6044820152606490fd5b60405162461bcd60e51b815260206004820152601060248201526f4e6f7468696e6720746f20636c61696d60801b6044820152606490fd5b503461032c578060031936011261032c576020604051600a8152f35b503461032c578060031936011261032c57602060405160648152f35b503461032c578060031936011261032c576003546040516001600160a01b039091168152602090f35b508060031936011261032c576108cb341515611b6e565b60025490604051916108dc83611924565b3383528160208401528160408401523460608401528160808401528160a08401528160c08401524260e08401528161010084015281610120840152816101408401528161016084015281610180840152816101a084015260405161093f81611941565b8281526101c084015280825260208281526040808420855181546001600160a01b03199081166001600160a01b03928316178355938701516001830180549095169116179092558401516002820155606084015160038083019190915560808501516004830191811015610bc5576109b79082611ae5565b60a08501516002811015610bc55791610a02826109d96101c095600895611ac6565b60c0880151815462010000600160b01b03191660109190911b62010000600160b01b0316179055565b60e08601516005820155610a9360068201610a306101008901511515829060ff801983541691151516179055565b61012088015181546101408a01516101608b01516101808c015190151560181b63ff0000001691151560101b62ff00001693151560081b61ff001664ffffffff001990931692909217929092179190911790151560201b64ff0000000016179055565b6101a086015160078201550193015192835167ffffffffffffffff8111610bb157610ac881610ac284546118c0565b84611bc7565b602094601f8211600114610b4e5784958291610afb94959692610b43575b50508160011b916000199060031b1c19161790565b90555b60405190348252600060208301527f79cfcf64ee95f2f8fbda0bd025831724360c020432615f28aac21f03081e3db760403393a3610b3d600254611c1d565b60025580f35b015190503880610ae6565b601f198216958386526020862091865b888110610b9957508360019596979810610b80575b505050811b019055610afe565b015160001960f88460031b161c19169055388080610b73565b91926020600181928685015181550194019201610b5e565b634e487b7160e01b84526041600452602484fd5b634e487b7160e01b85526021600452602485fd5b503461032c5760a036600319011261032c57610bf361197f565b67ffffffffffffffff604435818111610fdd57610c1490369060040161198e565b9091606435151560643503610fd85760843590811161032857610c3b90369060040161198e565b6004546001600160a01b03169391610c543386146119bc565b600435875286602052604087209360048501549360ff85166003811015610fc4576001610c819114611c42565b600686015460ff8160101c16159081610fb5575b5015610f8057610d2e91610d1f610d25928a604051610cea81610cdc60208201946004358690916025928252151560f81b602082015263564f544560e01b60218201520190565b03601f19810183528261195d565b5190207f19457468657265756d205369676e6564204d6573736167653a0a3332000000008d52601c52603c8c20923691611c7b565b9061226f565b909291926122ab565b84546001600160a01b03908116911603610f4a57610dba91610d1f610d25926040516020810190610d8581610cdc6064356004358690916025928252151560f81b602082015263564f544560e01b60218201520190565b5190207f19457468657265756d205369676e6564204d6573736167653a0a3332000000008b52601c52603c8a20923691611c7b565b60018301805490946001600160a01b03928316929091168214928315610f05575b50505015610ecf57600681018054640100000000941515600881901b61ff001663ffffff001990921691909117606435151560181b63ff0000001617620100001764ff000000001916949094179055805460405193845260ff936004937fa116a5d3aae66533a57997d2090970991738695337a83a0b490d3a7ea043113c9290916001600160a01b03909116908535908490602090a354604051606435151581526001600160a01b0390911691843591602090a3015460081c166002811015610ebb57600103610eb0576105cd600435611f90565b6105cd600435611d3e565b634e487b7160e01b82526021600452602482fd5b60405162461bcd60e51b815260206004820152600e60248201526d496e76616c69642050322073696760901b6044820152606490fd5b60ff9192935060081c166002811015610f36576001149182610f2c575b5050388080610ddb565b1490503880610f22565b634e487b7160e01b87526021600452602487fd5b60405162461bcd60e51b815260206004820152600e60248201526d496e76616c69642050312073696760901b6044820152606490fd5b60405162461bcd60e51b815260206004820152600d60248201526c105b1c9958591e481d9bdd1959609a1b6044820152606490fd5b60ff915060201c161538610c95565b634e487b7160e01b8a52602160045260248afd5b600080fd5b8380fd5b503461032c578060031936011261032c57602060405160be8152f35b503461032c57602036600319011261032c576004356001600160a01b03818116918290036104cd5761103490600354163314611afd565b61103f811515611b36565b6001600160601b0360a01b600454161760045580f35b503461032c578060031936011261032c576020600254604051908152f35b503461032c578060031936011261032c576005546040516001600160a01b039091168152602090f35b50602036600319011261032c576110b4341515611b6e565b6005546001600160a01b0316906110cc821515611a2e565b6040516319adc10360e31b81526004803590820152346024820152602081604481865afa90811561137d57906111099183916113eb575b50611a84565b6002546040519261111984611924565b3384526020840152600435604084015234606084015260016080840152600160a08401528160c08401524260e0840152600161010084015281610120840152816101408401528161016084015281610180840152816101a084015260405161118081611941565b8281526101c084015280825260208281526040808420855181546001600160a01b03199081166001600160a01b03928316178355938701516001830180549095169116179092558401516002820155606084015160038083019190915560808501516004830191811015610bc5576111f89082611ae5565b60a08501516002811015610bc5579161121a826109d96101c095600895611ac6565b60e0860151600582015561124860068201610a306101008901511515829060ff801983541691151516179055565b6101a086015160078201550193015192835167ffffffffffffffff8111610bb15761127781610ac284546118c0565b602094601f821160011461138857849582916112a994959692610b435750508160011b916000199060031b1c19161790565b90555b6112b7600254611c1d565b60025560055482906001600160a01b0316803b1561047557604051639d43692160e01b81526004803590820152346024820152604481018490529082908290606490829084905af1801561137d57611369575b505060405134815260016020820152817f79cfcf64ee95f2f8fbda0bd025831724360c020432615f28aac21f03081e3db760403393a360018060a01b0360055416906000805160206123ab83398151915260206040516004358152a380f35b611372906118fa565b61047557813861130a565b6040513d84823e3d90fd5b601f198216958386526020862091865b8881106113d3575083600195969798106113ba575b505050811b0190556112ac565b015160001960f88460031b161c191690553880806113ad565b91926020600181928685015181550194019201611398565b61140d915060203d602011611413575b611405818361195d565b810190611a6c565b38611103565b503d6113fb565b503461032c578060031936011261032c57602060405160058152f35b503461032c57602036600319011261032c57600435815280602052604081209060018060a01b038254169160018060a01b036001820154169060028101546003820154906004830154916005840154906006850154926008600787015496019660405197888a8254926114a8846118c0565b808452936001811690811561161b57506001146115db575b506114cd9250038961195d565b604051998a5260208a015260408901526060880152600360ff841610156104245760ff83166080880152600260ff8460081c1610156115c5579060ff9183838997969560081c1660a088015260018060a01b039060101c1660c087015260e08601528181161515610100860152818160081c161515610120860152818160101c161515610140860152818160181c16151561016086015260201c1615156101808401526101a08301526101e06101c0830152805190816101e0840152835b8281106115ac57505061020092838284010152601f80199101168101030190f35b602082820181015161020088840101528694500161158b565b634e487b7160e01b600052602160045260246000fd5b8c525060208b2090918b915b8183106116005750509060206114cd92820101386114c0565b80602092948385600194549201015201910190918a926115e7565b9050602092506114cd94915060ff191682840152151560051b820101386114c0565b503461032c57602036600319011261032c576004356001600160a01b03818116918290036104cd5761167490600354163314611afd565b61167f811515611b36565b6001600160601b0360a01b600554161760055580f35b503461032c57604036600319011261032c576004356024359060018060a01b036116c4816004541633146119bc565b81845260209084825260408520600481019081549160ff83166003811015610314576116f090156119f7565b60ff8360081c16600281101561031457611849578360055416611714811515611a2e565b600383015493604051916319adc10360e31b83528960048401528560248401528783604481845afa92831561183e5761010193611757918d916118275750611a84565b60018501906001600160601b0360a01b82541617905588600285015560068401600160ff1982541617905561ffff191617905560054291015585826005541691823b1561047557604051639d43692160e01b815260048101889052602481019190915260448101869052918290606490829084905af1801561181c576117f9575b50906000805160206123ab833981519152916005541693604051908152a380f35b946118146000805160206123ab8339815191529392966118fa565b9490916117d8565b6040513d88823e3d90fd5b61140d91508a3d8c1161141357611405818361195d565b6040513d8d823e3d90fd5b60405162461bcd60e51b815260048101869052600e60248201526d105b1c9958591e481c9bdd5d195960921b6044820152606490fd5b503461032c578060031936011261032c57602090604051908152f35b9050346104755781600319360112610475576004546001600160a01b03168152602090f35b90600182811c921680156118f0575b60208310146118da57565b634e487b7160e01b600052602260045260246000fd5b91607f16916118cf565b67ffffffffffffffff811161190e57604052565b634e487b7160e01b600052604160045260246000fd5b6101e0810190811067ffffffffffffffff82111761190e57604052565b6020810190811067ffffffffffffffff82111761190e57604052565b90601f8019910116810190811067ffffffffffffffff82111761190e57604052565b602435908115158203610fd857565b9181601f84011215610fd85782359167ffffffffffffffff8311610fd85760208381860195010111610fd857565b156119c357565b60405162461bcd60e51b815260206004820152600c60248201526b2737ba103932b9b7b63b32b960a11b6044820152606490fd5b156119fe57565b60405162461bcd60e51b81526020600482015260086024820152672737ba1037b832b760c11b6044820152606490fd5b15611a3557565b60405162461bcd60e51b815260206004820152600f60248201526e109bdd12539195081b9bdd081cd95d608a1b6044820152606490fd5b90816020910312610fd857518015158103610fd85790565b15611a8b57565b60405162461bcd60e51b8152602060048201526013602482015272109bdd081d985d5b1d081d1bdbc81cdb585b1b606a1b6044820152606490fd5b9060028110156115c55761ff0082549160081b169061ff001916179055565b9060038110156115c55760ff80198354169116179055565b15611b0457565b60405162461bcd60e51b815260206004820152600a6024820152694e6f74206f7261636c6560b01b6044820152606490fd5b15611b3d57565b60405162461bcd60e51b81526020600482015260096024820152683d32b9379030b2323960b91b6044820152606490fd5b15611b7557565b60405162461bcd60e51b815260206004820152600e60248201526d14dd185ad9481c995c5d5a5c995960921b6044820152606490fd5b67ffffffffffffffff811161190e57601f01601f191660200190565b90601f8111611bd557505050565b6000916000526020600020906020601f850160051c83019410611c13575b601f0160051c01915b828110611c0857505050565b818155600101611bfc565b9092508290611bf3565b6000198114611c2c5760010190565b634e487b7160e01b600052601160045260246000fd5b15611c4957565b60405162461bcd60e51b815260206004820152600a6024820152694e6f742061637469766560b01b6044820152606490fd5b929192611c8782611bab565b91611c95604051938461195d565b829481845281830111610fd8578281602093846000960137010152565b3d15611cdd573d90611cc382611bab565b91611cd1604051938461195d565b82523d6000602084013e565b606090565b91908203918211611c2c57565b91908201809211611c2c57565b15611d0357565b60405162461bcd60e51b8152602060048201526013602482015272199959481d1c985b9cd9995c8819985a5b1959606a1b6044820152606490fd5b600090808252602082815260408084209060038201549460019086821b9680880460021490151715611f7c576005870287810460051488151715611f685760649004611d8a8189611ce2565b600686015460ff808260081c16159160181c16158114600014611e5657505090808080846004611ddf611e44977fc01911861ae5a7a5b004fda8b4a52b25ecdc8a78ad869354e16b75aedfa4be849d9e611ce2565b881c9960018060a01b0398898254168552808d528a8520611e018d8254611cef565b905589818301541685528c52898420611e1b8c8254611cef565b905501805462010000600160b01b03191681556003549097165af1611e3e611cb2565b50611cfc565b805460ff1916600217905551908152a2565b818897959694929a507f36e33eea5df2e6c873949c5c856feb597f250ea8a329ed5ac38c39ab969053599891600014611f08575050808080611ef09460018060a01b03988989541683528a528c611eb1888420918254611cef565b90558754600498909801805462010000600160b01b031916988a1660101b62010000600160b01b03169890981788555b88600354165af1611e3e611cb2565b600260ff19835416178092555195865260101c1693a3565b82611ef094611ee16004839584958c8c019060018060a01b039d8e9384845416895252611f398c8820918254611cef565b90555491909a01805462010000600160b01b0319169a90911660101b62010000600160b01b0316999099178955565b634e487b7160e01b82526011600452602482fd5b634e487b7160e01b81526011600452602490fd5b600090808252816020526040808320906003820154906005820294821595838104600514871715611f6857606490049260ff600686015460081c166000146121355760be810281810460be1488171561212157846064611ff09204611ce2565b968160011b9182046002141715611f68578361200f8861201493611ce2565b611ce2565b9060018060a01b03948581541682526001602052838220612036898254611cef565b9055805460048201805462010000600160b01b03191691881660101b62010000600160b01b03169190911781559461207f9083908190819081908b600354165af1611e3e611cb2565b60028660055416910154813b156104cd5790606483928651958693849263865150ef60e01b845260048401528560248401528b60448401525af1908115612116575091602093917f36e33eea5df2e6c873949c5c856feb597f250ea8a329ed5ac38c39ab969053599593612107575b50600260ff19835416178092555195865260101c1693a3565b612110906118fa565b386120ee565b8351903d90823e3d90fd5b634e487b7160e01b83526011600452602483fd5b90959392600a8202828104600a1486171561225b57906064612158920490611cef565b938160011b9182046002141715612247578361217391611ce2565b946121928180808060018060a01b039889600354165af1611e3e611cb2565b83600554166002840154813b156104cd57918091606489948651958693849263865150ef60e01b84526004840152600160248401528b60448401525af1908115612116575091602093917f36e33eea5df2e6c873949c5c856feb597f250ea8a329ed5ac38c39ab969053599593612238575b50600554600492909201805462010000600160b01b03191692841660101b62010000600160b01b0316929092178255611ef0565b612241906118fa565b38612204565b634e487b7160e01b86526011600452602486fd5b634e487b7160e01b88526011600452602488fd5b81519190604183036122a05761229992506020820151906060604084015193015160001a9061231a565b9192909190565b505060009160029190565b60048110156115c557806122bd575050565b600181036122d75760405163f645eedf60e01b8152600490fd5b600281036122f85760405163fce698f760e01b815260048101839052602490fd5b6003146123025750565b602490604051906335e2f38360e21b82526004820152fd5b91907f7fffffffffffffffffffffffffffffff5d576e7357a4501ddfe92f46681b20a0841161239e57926020929160ff608095604051948552168484015260408301526060820152600092839182805260015afa156123925780516001600160a01b0381161561238957918190565b50809160019190565b604051903d90823e3d90fd5b5050506000916003919056fe48bba6a72d4a9fae48e2469ce99518c38afec785fa4f3df38a1a76b03a979537a2646970667358221220e5911a59e288063660264ab9ff5a94b28044cae9c561d1fe441d1c993feab52264736f6c63430008180033",
  "linkReferences": {},
  "deployedLinkReferences": {}
}