{
  "_format": "hh-sol-artifact-1",
  "contractName": "OxHuman",
  "sourceName": "contracts/OxHuman.sol",
  "abi": [
    {
      "inputs": [],
      "stateMutability": "nonpayable",
      "type": "constructor"
    },
    {
      "anonymous": false,
      "inputs": [
        {
          "indexed": true,
          "internalType": "uint256",
          "name": "gameId",
          "type": "uint256"
        },
        {
          "indexed": false,
          "internalType": "address",
          "name": "player1",
          "type": "address"
        },
        {
          "indexed": false,
          "internalType": "uint256",
          "name": "stake",
          "type": "uint256"
        }
      ],
      "name": "GameCreated",
      "type": "event"
    },
    {
      "anonymous": false,
      "inputs": [
        {
          "indexed": true,
          "internalType": "uint256",
          "name": "gameId",
          "type": "uint256"
        },
        {
          "indexed": false,
          "internalType": "address",
          "name": "player2",
          "type": "address"
        }
      ],
      "name": "GameJoined",
      "type": "event"
    },
    {
      "anonymous": false,
      "inputs": [
        {
          "indexed": true,
          "internalType": "uint256",
          "name": "gameId",
          "type": "uint256"
        },
        {
          "indexed": false,
          "internalType": "address",
          "name": "winner",
          "type": "address"
        },
        {
          "indexed": false,
          "internalType": "uint256",
          "name": "payout",
          "type": "uint256"
        }
      ],
      "name": "GameResolved",
      "type": "event"
    },
    {
      "inputs": [],
      "name": "createGame",
      "outputs": [],
      "stateMutability": "payable",
      "type": "function"
    },
    {
      "inputs": [],
      "name": "gameCount",
      "outputs": [
        {
          "internalType": "uint256",
          "name": "",
          "type": "uint256"
        }
      ],
      "stateMutability": "view",
      "type": "function"
    },
    {
      "inputs": [
        {
          "internalType": "uint256",
          "name": "",
          "type": "uint256"
        }
      ],
      "name": "games",
      "outputs": [
        {
          "internalType": "address",
          "name": "player1",
          "type": "address"
        },
        {
          "internalType": "address",
          "name": "player2",
          "type": "address"
        },
        {
          "internalType": "uint256",
          "name": "stake",
          "type": "uint256"
        },
        {
          "internalType": "enum OxHuman.GameStatus",
          "name": "status",
          "type": "uint8"
        },
        {
          "internalType": "address",
          "name": "winner",
          "type": "address"
        },
        {
          "internalType": "uint256",
          "name": "timestamp",
          "type": "uint256"
        },
        {
          "internalType": "bool",
          "name": "isPlayer2Bot",
          "type": "bool"
        },
        {
          "internalType": "bool",
          "name": "player1GuessedBot",
          "type": "bool"
        },
        {
          "internalType": "bool",
          "name": "player1Submitted",
          "type": "bool"
        }
      ],
      "stateMutability": "view",
      "type": "function"
    },
    {
      "inputs": [
        {
          "internalType": "uint256",
          "name": "_gameId",
          "type": "uint256"
        },
        {
          "internalType": "bool",
          "name": "_isBot",
          "type": "bool"
        }
      ],
      "name": "joinGame",
      "outputs": [],
      "stateMutability": "payable",
      "type": "function"
    },
    {
      "inputs": [],
      "name": "oracle",
      "outputs": [
        {
          "internalType": "address",
          "name": "",
          "type": "address"
        }
      ],
      "stateMutability": "view",
      "type": "function"
    },
    {
      "inputs": [
        {
          "internalType": "uint256",
          "name": "_gameId",
          "type": "uint256"
        }
      ],
      "name": "oracleJoinAsBot",
      "outputs": [],
      "stateMutability": "payable",
      "type": "function"
    },
    {
      "inputs": [
        {
          "internalType": "uint256",
          "name": "_gameId",
          "type": "uint256"
        },
        {
          "internalType": "bool",
          "name": "_guessedBot",
          "type": "bool"
        }
      ],
      "name": "submitVerdict",
      "outputs": [],
      "stateMutability": "nonpayable",
      "type": "function"
    }
  ],
  "bytecode": "0x608060405234801561001057600080fd5b5033600260006101000a81548173ffffffffffffffffffffffffffffffffffffffff021916908373ffffffffffffffffffffffffffffffffffffffff16021790555061162f806100616000396000f3fe6080604052600436106100705760003560e01c80637255d7291161004e5780637255d729146101015780637dc0d1d01461010b57806394517b9014610136578063c1f0c04b1461015257610070565b8063117a5b90146100755780634c8f1688146100ba5780634d1975b4146100d6575b600080fd5b34801561008157600080fd5b5061009c60048036038101906100979190610ed4565b61017b565b6040516100b199989796959493929190610fe3565b60405180910390f35b6100d460048036038101906100cf9190610ed4565b61025d565b005b3480156100e257600080fd5b506100eb61048a565b6040516100f89190611070565b60405180910390f35b610109610490565b005b34801561011757600080fd5b5061012061075a565b60405161012d919061108b565b60405180910390f35b610150600480360381019061014b91906110d2565b610780565b005b34801561015e57600080fd5b50610179600480360381019061017491906110d2565b6109af565b005b60006020528060005260406000206000915090508060000160009054906101000a900473ffffffffffffffffffffffffffffffffffffffff16908060010160009054906101000a900473ffffffffffffffffffffffffffffffffffffffff16908060020154908060030160009054906101000a900460ff16908060030160019054906101000a900473ffffffffffffffffffffffffffffffffffffffff16908060040154908060050160009054906101000a900460ff16908060050160019054906101000a900460ff16908060050160029054906101000a900460ff16905089565b600260009054906101000a900473ffffffffffffffffffffffffffffffffffffffff1673ffffffffffffffffffffffffffffffffffffffff163373ffffffffffffffffffffffffffffffffffffffff16146102ed576040517f08c379a00000000000000000000000000000000000000000000000000000000081526004016102e49061116f565b60405180910390fd5b600080600083815260200190815260200160002090506000600281111561031757610316610f51565b5b8160030160009054906101000a900460ff16600281111561033b5761033a610f51565b5b1461037b576040517f08c379a0000000000000000000000000000000000000000000000000000000008152600401610372906111db565b60405180910390fd5b806002015434146103c1576040517f08c379a00000000000000000000000000000000000000000000000000000000081526004016103b890611247565b60405180910390fd5b338160010160006101000a81548173ffffffffffffffffffffffffffffffffffffffff021916908373ffffffffffffffffffffffffffffffffffffffff16021790555060018160050160006101000a81548160ff02191690831515021790555060018160030160006101000a81548160ff0219169083600281111561044957610448610f51565b5b0217905550817f45c4f9cbafe186141862608c493f28b823fde4c2142bedc3f5169961a73fdd223360405161047e919061108b565b60405180910390a25050565b60015481565b600034116104d3576040517f08c379a00000000000000000000000000000000000000000000000000000000081526004016104ca906112b3565b60405180910390fd5b6040518061012001604052803373ffffffffffffffffffffffffffffffffffffffff168152602001600073ffffffffffffffffffffffffffffffffffffffff1681526020013481526020016000600281111561053257610531610f51565b5b8152602001600073ffffffffffffffffffffffffffffffffffffffff16815260200142815260200160001515815260200160001515815260200160001515815250600080600154815260200190815260200160002060008201518160000160006101000a81548173ffffffffffffffffffffffffffffffffffffffff021916908373ffffffffffffffffffffffffffffffffffffffff16021790555060208201518160010160006101000a81548173ffffffffffffffffffffffffffffffffffffffff021916908373ffffffffffffffffffffffffffffffffffffffff1602179055506040820151816002015560608201518160030160006101000a81548160ff0219169083600281111561064a57610649610f51565b5b021790555060808201518160030160016101000a81548173ffffffffffffffffffffffffffffffffffffffff021916908373ffffffffffffffffffffffffffffffffffffffff16021790555060a0820151816004015560c08201518160050160006101000a81548160ff02191690831515021790555060e08201518160050160016101000a81548160ff0219169083151502179055506101008201518160050160026101000a81548160ff0219169083151502179055509050506001547f7dfb67e9ff596fca4da65c7eedb128cd1aac553af54b3c0cb733625a2480d8bd33346040516107389291906112d3565b60405180910390a2600160008154809291906107539061132b565b9190505550565b600260009054906101000a900473ffffffffffffffffffffffffffffffffffffffff1681565b60008060008481526020019081526020016000209050600060028111156107aa576107a9610f51565b5b8160030160009054906101000a900460ff1660028111156107ce576107cd610f51565b5b1461080e576040517f08c379a0000000000000000000000000000000000000000000000000000000008152600401610805906111db565b60405180910390fd5b80600201543414610854576040517f08c379a000000000000000000000000000000000000000000000000000000000815260040161084b90611247565b60405180910390fd5b8060000160009054906101000a900473ffffffffffffffffffffffffffffffffffffffff1673ffffffffffffffffffffffffffffffffffffffff163373ffffffffffffffffffffffffffffffffffffffff16036108e6576040517f08c379a00000000000000000000000000000000000000000000000000000000081526004016108dd906113bf565b60405180910390fd5b338160010160006101000a81548173ffffffffffffffffffffffffffffffffffffffff021916908373ffffffffffffffffffffffffffffffffffffffff160217905550818160050160006101000a81548160ff02191690831515021790555060018160030160006101000a81548160ff0219169083600281111561096d5761096c610f51565b5b0217905550827f45c4f9cbafe186141862608c493f28b823fde4c2142bedc3f5169961a73fdd22336040516109a2919061108b565b60405180910390a2505050565b60008060008481526020019081526020016000209050600160028111156109d9576109d8610f51565b5b8160030160009054906101000a900460ff1660028111156109fd576109fc610f51565b5b14610a3d576040517f08c379a0000000000000000000000000000000000000000000000000000000008152600401610a349061142b565b60405180910390fd5b8060000160009054906101000a900473ffffffffffffffffffffffffffffffffffffffff1673ffffffffffffffffffffffffffffffffffffffff163373ffffffffffffffffffffffffffffffffffffffff1614610acf576040517f08c379a0000000000000000000000000000000000000000000000000000000008152600401610ac690611497565b60405180910390fd5b8060050160029054906101000a900460ff1615610b21576040517f08c379a0000000000000000000000000000000000000000000000000000000008152600401610b1890611503565b60405180910390fd5b818160050160016101000a81548160ff02191690831515021790555060018160050160026101000a81548160ff021916908315150217905550610b6383610b68565b505050565b6000806000838152602001908152602001600020905060008160050160009054906101000a900460ff1615158260050160019054906101000a900460ff161515149050600060028360020154610bbe9190611523565b905060006064600583610bd19190611523565b610bdb9190611594565b905060008183610beb91906115c5565b90508315610cca578460000160009054906101000a900473ffffffffffffffffffffffffffffffffffffffff168560030160016101000a81548173ffffffffffffffffffffffffffffffffffffffff021916908373ffffffffffffffffffffffffffffffffffffffff1602179055508460000160009054906101000a900473ffffffffffffffffffffffffffffffffffffffff1673ffffffffffffffffffffffffffffffffffffffff166108fc829081150290604051600060405180830381858888f19350505050158015610cc4573d6000803e3d6000fd5b50610d9d565b8460010160009054906101000a900473ffffffffffffffffffffffffffffffffffffffff168560030160016101000a81548173ffffffffffffffffffffffffffffffffffffffff021916908373ffffffffffffffffffffffffffffffffffffffff1602179055508460010160009054906101000a900473ffffffffffffffffffffffffffffffffffffffff1673ffffffffffffffffffffffffffffffffffffffff166108fc829081150290604051600060405180830381858888f19350505050158015610d9b573d6000803e3d6000fd5b505b600260009054906101000a900473ffffffffffffffffffffffffffffffffffffffff1673ffffffffffffffffffffffffffffffffffffffff166108fc839081150290604051600060405180830381858888f19350505050158015610e05573d6000803e3d6000fd5b5060028560030160006101000a81548160ff02191690836002811115610e2e57610e2d610f51565b5b0217905550857f36e33eea5df2e6c873949c5c856feb597f250ea8a329ed5ac38c39ab969053598660030160019054906101000a900473ffffffffffffffffffffffffffffffffffffffff1683604051610e899291906112d3565b60405180910390a2505050505050565b600080fd5b6000819050919050565b610eb181610e9e565b8114610ebc57600080fd5b50565b600081359050610ece81610ea8565b92915050565b600060208284031215610eea57610ee9610e99565b5b6000610ef884828501610ebf565b91505092915050565b600073ffffffffffffffffffffffffffffffffffffffff82169050919050565b6000610f2c82610f01565b9050919050565b610f3c81610f21565b82525050565b610f4b81610e9e565b82525050565b7f4e487b7100000000000000000000000000000000000000000000000000000000600052602160045260246000fd5b60038110610f9157610f90610f51565b5b50565b6000819050610fa282610f80565b919050565b6000610fb282610f94565b9050919050565b610fc281610fa7565b82525050565b60008115159050919050565b610fdd81610fc8565b82525050565b600061012082019050610ff9600083018c610f33565b611006602083018b610f33565b611013604083018a610f42565b6110206060830189610fb9565b61102d6080830188610f33565b61103a60a0830187610f42565b61104760c0830186610fd4565b61105460e0830185610fd4565b611062610100830184610fd4565b9a9950505050505050505050565b60006020820190506110856000830184610f42565b92915050565b60006020820190506110a06000830184610f33565b92915050565b6110af81610fc8565b81146110ba57600080fd5b50565b6000813590506110cc816110a6565b92915050565b600080604083850312156110e9576110e8610e99565b5b60006110f785828601610ebf565b9250506020611108858286016110bd565b9150509250929050565b600082825260208201905092915050565b7f4f6e6c79204f7261636c65000000000000000000000000000000000000000000600082015250565b6000611159600b83611112565b915061116482611123565b602082019050919050565b600060208201905081810360008301526111888161114c565b9050919050565b7f47616d65206e6f74206f70656e00000000000000000000000000000000000000600082015250565b60006111c5600d83611112565b91506111d08261118f565b602082019050919050565b600060208201905081810360008301526111f4816111b8565b9050919050565b7f496e636f7272656374207374616b650000000000000000000000000000000000600082015250565b6000611231600f83611112565b915061123c826111fb565b602082019050919050565b6000602082019050818103600083015261126081611224565b9050919050565b7f5374616b65207265717569726564000000000000000000000000000000000000600082015250565b600061129d600e83611112565b91506112a882611267565b602082019050919050565b600060208201905081810360008301526112cc81611290565b9050919050565b60006040820190506112e86000830185610f33565b6112f56020830184610f42565b9392505050565b7f4e487b7100000000000000000000000000000000000000000000000000000000600052601160045260246000fd5b600061133682610e9e565b91507fffffffffffffffffffffffffffffffffffffffffffffffffffffffffffffffff8203611368576113676112fc565b5b600182019050919050565b7f43616e6e6f7420706c617920616761696e73742073656c660000000000000000600082015250565b60006113a9601883611112565b91506113b482611373565b602082019050919050565b600060208201905081810360008301526113d88161139c565b9050919050565b7f47616d65206e6f74206163746976650000000000000000000000000000000000600082015250565b6000611415600f83611112565b9150611420826113df565b602082019050919050565b6000602082019050818103600083015261144481611408565b9050919050565b7f4f6e6c7920506c6179657220312063616e206775657373000000000000000000600082015250565b6000611481601783611112565b915061148c8261144b565b602082019050919050565b600060208201905081810360008301526114b081611474565b9050919050565b7f416c7265616479207375626d6974746564000000000000000000000000000000600082015250565b60006114ed601183611112565b91506114f8826114b7565b602082019050919050565b6000602082019050818103600083015261151c816114e0565b9050919050565b600061152e82610e9e565b915061153983610e9e565b925082820261154781610e9e565b9150828204841483151761155e5761155d6112fc565b5b5092915050565b7f4e487b7100000000000000000000000000000000000000000000000000000000600052601260045260246000fd5b600061159f82610e9e565b91506115aa83610e9e565b9250826115ba576115b9611565565b5b828204905092915050565b60006115d082610e9e565b91506115db83610e9e565b92508282039050818111156115f3576115f26112fc565b5b9291505056fea2646970667358221220d5c9c8d675e5116089d1835808ce42e31b2fcbe7715e6f57e40d445d0fcbcdce64736f6c63430008180033",
  "linkReferences": {},
  "deployedLinkReferences": {}
}