{
  "_format": "hh-sol-artifact-1",
  "contractName": "OxHuman",
  "sourceName": "contracts/OxHuman.sol",
  "abi": [
    {
      "inputs": [],
      "stateMutability": "nonpayable",
      "type": "constructor"
    },
    {
      "inputs": [],
      "name": "ECDSAInvalidSignature",
      "type": "error"
    },
    {
      "inputs": [
        {
          "internalType": "uint256",
          "name": "length",
          "type": "uint256"
        }
      ],
      "name": "ECDSAInvalidSignatureLength",
      "type": "error"
    },
    {
      "inputs": [
        {
          "internalType": "bytes32",
          "name": "s",
          "type": "bytes32"
        }
      ],
      "name": "ECDSAInvalidSignatureS",
      "type": "error"
    },
    {
      "anonymous": false,
      "inputs": [
        {
          "indexed": true,
          "internalType": "uint256",
          "name": "gameId",
          "type": "uint256"
        },
        {
          "indexed": false,
          "internalType": "address",
          "name": "player1",
          "type": "address"
        },
        {
          "indexed": false,
          "internalType": "uint256",
          "name": "stake",
          "type": "uint256"
        }
      ],
      "name": "GameCreated",
      "type": "event"
    },
    {
      "anonymous": false,
      "inputs": [
        {
          "indexed": true,
          "internalType": "uint256",
          "name": "gameId",
          "type": "uint256"
        },
        {
          "indexed": false,
          "internalType": "uint256",
          "name": "refundAmount",
          "type": "uint256"
        }
      ],
      "name": "GameDraw",
      "type": "event"
    },
    {
      "anonymous": false,
      "inputs": [
        {
          "indexed": true,
          "internalType": "uint256",
          "name": "gameId",
          "type": "uint256"
        },
        {
          "indexed": false,
          "internalType": "address",
          "name": "player2",
          "type": "address"
        }
      ],
      "name": "GameJoined",
      "type": "event"
    },
    {
      "anonymous": false,
      "inputs": [
        {
          "indexed": true,
          "internalType": "uint256",
          "name": "gameId",
          "type": "uint256"
        },
        {
          "indexed": false,
          "internalType": "address",
          "name": "winner",
          "type": "address"
        },
        {
          "indexed": false,
          "internalType": "uint256",
          "name": "payout",
          "type": "uint256"
        }
      ],
      "name": "GameResolved",
      "type": "event"
    },
    {
      "anonymous": false,
      "inputs": [
        {
          "indexed": true,
          "internalType": "uint256",
          "name": "gameId",
          "type": "uint256"
        },
        {
          "indexed": false,
          "internalType": "address",
          "name": "player",
          "type": "address"
        },
        {
          "indexed": false,
          "internalType": "bool",
          "name": "guessedBot",
          "type": "bool"
        }
      ],
      "name": "VerdictSubmitted",
      "type": "event"
    },
    {
      "anonymous": false,
      "inputs": [
        {
          "indexed": true,
          "internalType": "address",
          "name": "player",
          "type": "address"
        },
        {
          "indexed": false,
          "internalType": "uint256",
          "name": "amount",
          "type": "uint256"
        }
      ],
      "name": "WinningsClaimed",
      "type": "event"
    },
    {
      "inputs": [],
      "name": "claimWinnings",
      "outputs": [],
      "stateMutability": "nonpayable",
      "type": "function"
    },
    {
      "inputs": [],
      "name": "createGame",
      "outputs": [],
      "stateMutability": "payable",
      "type": "function"
    },
    {
      "inputs": [],
      "name": "gameCount",
      "outputs": [
        {
          "internalType": "uint256",
          "name": "",
          "type": "uint256"
        }
      ],
      "stateMutability": "view",
      "type": "function"
    },
    {
      "inputs": [
        {
          "internalType": "uint256",
          "name": "",
          "type": "uint256"
        }
      ],
      "name": "games",
      "outputs": [
        {
          "internalType": "address",
          "name": "player1",
          "type": "address"
        },
        {
          "internalType": "address",
          "name": "player2",
          "type": "address"
        },
        {
          "internalType": "uint256",
          "name": "stake",
          "type": "uint256"
        },
        {
          "internalType": "enum OxHuman.GameStatus",
          "name": "status",
          "type": "uint8"
        },
        {
          "internalType": "address",
          "name": "winner",
          "type": "address"
        },
        {
          "internalType": "uint256",
          "name": "timestamp",
          "type": "uint256"
        },
        {
          "internalType": "bool",
          "name": "isPlayer2Bot",
          "type": "bool"
        },
        {
          "internalType": "bool",
          "name": "player1GuessedBot",
          "type": "bool"
        },
        {
          "internalType": "bool",
          "name": "player1Submitted",
          "type": "bool"
        },
        {
          "internalType": "bool",
          "name": "player2GuessedBot",
          "type": "bool"
        },
        {
          "internalType": "bool",
          "name": "player2Submitted",
          "type": "bool"
        }
      ],
      "stateMutability": "view",
      "type": "function"
    },
    {
      "inputs": [
        {
          "internalType": "uint256",
          "name": "_gameId",
          "type": "uint256"
        },
        {
          "internalType": "bool",
          "name": "_isBot",
          "type": "bool"
        }
      ],
      "name": "joinGame",
      "outputs": [],
      "stateMutability": "payable",
      "type": "function"
    },
    {
      "inputs": [],
      "name": "oracle",
      "outputs": [
        {
          "internalType": "address",
          "name": "",
          "type": "address"
        }
      ],
      "stateMutability": "view",
      "type": "function"
    },
    {
      "inputs": [
        {
          "internalType": "uint256",
          "name": "_gameId",
          "type": "uint256"
        },
        {
          "internalType": "address",
          "name": "_winner",
          "type": "address"
        }
      ],
      "name": "oracleForceResolve",
      "outputs": [],
      "stateMutability": "nonpayable",
      "type": "function"
    },
    {
      "inputs": [
        {
          "internalType": "uint256",
          "name": "_gameId",
          "type": "uint256"
        }
      ],
      "name": "oracleJoinAsBot",
      "outputs": [],
      "stateMutability": "payable",
      "type": "function"
    },
    {
      "inputs": [
        {
          "internalType": "uint256",
          "name": "_gameId",
          "type": "uint256"
        },
        {
          "internalType": "bool",
          "name": "_p1GuessedBot",
          "type": "bool"
        },
        {
          "internalType": "bytes",
          "name": "_p1Signature",
          "type": "bytes"
        },
        {
          "internalType": "bool",
          "name": "_p2GuessedBot",
          "type": "bool"
        },
        {
          "internalType": "bytes",
          "name": "_p2Signature",
          "type": "bytes"
        }
      ],
      "name": "resolveWithSignatures",
      "outputs": [],
      "stateMutability": "nonpayable",
      "type": "function"
    },
    {
      "inputs": [],
      "name": "resolver",
      "outputs": [
        {
          "internalType": "address",
          "name": "",
          "type": "address"
        }
      ],
      "stateMutability": "view",
      "type": "function"
    },
    {
      "inputs": [
        {
          "internalType": "address",
          "name": "_resolver",
          "type": "address"
        }
      ],
      "name": "setResolver",
      "outputs": [],
      "stateMutability": "nonpayable",
      "type": "function"
    },
    {
      "inputs": [
        {
          "internalType": "uint256",
          "name": "_gameId",
          "type": "uint256"
        },
        {
          "internalType": "bool",
          "name": "_guessedBot",
          "type": "bool"
        }
      ],
      "name": "submitVerdict",
      "outputs": [],
      "stateMutability": "nonpayable",
      "type": "function"
    },
    {
      "inputs": [
        {
          "internalType": "address",
          "name": "",
          "type": "address"
        }
      ],
      "name": "winnings",
      "outputs": [
        {
          "internalType": "uint256",
          "name": "",
          "type": "uint256"
        }
      ],
      "stateMutability": "view",
      "type": "function"
    }
  ],
  "bytecode": "0x608060405234801561001057600080fd5b5033600360006101000a81548173ffffffffffffffffffffffffffffffffffffffff021916908373ffffffffffffffffffffffffffffffffffffffff16021790555033600460006101000a81548173ffffffffffffffffffffffffffffffffffffffff021916908373ffffffffffffffffffffffffffffffffffffffff1602179055506135e6806100a26000396000f3fe6080604052600436106100c25760003560e01c80637255d7291161007f578063b401faf111610059578063b401faf114610223578063c1f0c04b1461023a578063df32e9c014610263578063ea3a14991461028c576100c2565b80637255d729146101d25780637dc0d1d0146101dc57806394517b9014610207576100c2565b806304f3bcec146100c7578063117a5b90146100f25780634c8f1688146101395780634d1975b4146101555780634e543b261461018057806361d86451146101a9575b600080fd5b3480156100d357600080fd5b506100dc6102c9565b6040516100e99190612843565b60405180910390f35b3480156100fe57600080fd5b506101196004803603810190610114919061289e565b6102ef565b6040516101309b9a9998979695949392919061296c565b60405180910390f35b610153600480360381019061014e919061289e565b6103f7565b005b34801561016157600080fd5b5061016a61062d565b6040516101779190612a17565b60405180910390f35b34801561018c57600080fd5b506101a760048036038101906101a29190612a5e565b610633565b005b3480156101b557600080fd5b506101d060048036038101906101cb9190612b1c565b610707565b005b6101da610c3b565b005b3480156101e857600080fd5b506101f1610f59565b6040516101fe9190612843565b60405180910390f35b610221600480360381019061021c9190612bd8565b610f7f565b005b34801561022f57600080fd5b506102386111b7565b005b34801561024657600080fd5b50610261600480360381019061025c9190612bd8565b61131b565b005b34801561026f57600080fd5b5061028a60048036038101906102859190612c18565b611635565b005b34801561029857600080fd5b506102b360048036038101906102ae9190612a5e565b611a51565b6040516102c09190612a17565b60405180910390f35b600460009054906101000a900473ffffffffffffffffffffffffffffffffffffffff1681565b60006020528060005260406000206000915090508060000160009054906101000a900473ffffffffffffffffffffffffffffffffffffffff16908060010160009054906101000a900473ffffffffffffffffffffffffffffffffffffffff16908060020154908060030160009054906101000a900460ff16908060030160019054906101000a900473ffffffffffffffffffffffffffffffffffffffff16908060040154908060050160009054906101000a900460ff16908060050160019054906101000a900460ff16908060050160029054906101000a900460ff16908060050160039054906101000a900460ff16908060050160049054906101000a900460ff1690508b565b600360009054906101000a900473ffffffffffffffffffffffffffffffffffffffff1673ffffffffffffffffffffffffffffffffffffffff163373ffffffffffffffffffffffffffffffffffffffff1614610487576040517f08c379a000000000000000000000000000000000000000000000000000000000815260040161047e90612cb5565b60405180910390fd5b60008060008381526020019081526020016000209050600060028111156104b1576104b06128da565b5b8160030160009054906101000a900460ff1660028111156104d5576104d46128da565b5b14610515576040517f08c379a000000000000000000000000000000000000000000000000000000000815260040161050c90612d21565b60405180910390fd5b8060020154341461055b576040517f08c379a000000000000000000000000000000000000000000000000000000000815260040161055290612d8d565b60405180910390fd5b338160010160006101000a81548173ffffffffffffffffffffffffffffffffffffffff021916908373ffffffffffffffffffffffffffffffffffffffff16021790555060018160050160006101000a81548160ff02191690831515021790555060018160030160006101000a81548160ff021916908360028111156105e3576105e26128da565b5b0217905550428160040181905550817f45c4f9cbafe186141862608c493f28b823fde4c2142bedc3f5169961a73fdd22336040516106219190612843565b60405180910390a25050565b60025481565b600360009054906101000a900473ffffffffffffffffffffffffffffffffffffffff1673ffffffffffffffffffffffffffffffffffffffff163373ffffffffffffffffffffffffffffffffffffffff16146106c3576040517f08c379a00000000000000000000000000000000000000000000000000000000081526004016106ba90612cb5565b60405180910390fd5b80600460006101000a81548173ffffffffffffffffffffffffffffffffffffffff021916908373ffffffffffffffffffffffffffffffffffffffff16021790555050565b600460009054906101000a900473ffffffffffffffffffffffffffffffffffffffff1673ffffffffffffffffffffffffffffffffffffffff163373ffffffffffffffffffffffffffffffffffffffff1614610797576040517f08c379a000000000000000000000000000000000000000000000000000000000815260040161078e90612df9565b60405180910390fd5b60008060008981526020019081526020016000209050600160028111156107c1576107c06128da565b5b8160030160009054906101000a900460ff1660028111156107e5576107e46128da565b5b14610825576040517f08c379a000000000000000000000000000000000000000000000000000000000815260040161081c90612e65565b60405180910390fd5b8060050160029054906101000a900460ff1615801561085357508060050160049054906101000a900460ff16155b610892576040517f08c379a000000000000000000000000000000000000000000000000000000000815260040161088990612ed1565b60405180910390fd5b600088886040516020016108a7929190612fb1565b60405160208183030381529060405280519060200120905060006108ca82611a69565b9050600061091c828a8a8080601f016020809104026020016040519081016040528093929190818152602001838380828437600081840152601f19601f82011690508083019250505050505050611a9f565b90508360000160009054906101000a900473ffffffffffffffffffffffffffffffffffffffff1673ffffffffffffffffffffffffffffffffffffffff168173ffffffffffffffffffffffffffffffffffffffff16146109b0576040517f08c379a00000000000000000000000000000000000000000000000000000000081526004016109a790613034565b60405180910390fd5b60008b886040516020016109c5929190612fb1565b60405160208183030381529060405280519060200120905060006109e882611a69565b90506000610a3a828a8a8080601f016020809104026020016040519081016040528093929190818152602001838380828437600081840152601f19601f82011690508083019250505050505050611a9f565b90508660010160009054906101000a900473ffffffffffffffffffffffffffffffffffffffff1673ffffffffffffffffffffffffffffffffffffffff168173ffffffffffffffffffffffffffffffffffffffff1614610ace576040517f08c379a0000000000000000000000000000000000000000000000000000000008152600401610ac5906130a0565b60405180910390fd5b8c8760050160016101000a81548160ff02191690831515021790555060018760050160026101000a81548160ff021916908315150217905550898760050160036101000a81548160ff02191690831515021790555060018760050160046101000a81548160ff0219169083151502179055508d7fa116a5d3aae66533a57997d2090970991738695337a83a0b490d3a7ea043113c8860000160009054906101000a900473ffffffffffffffffffffffffffffffffffffffff168f604051610b969291906130c0565b60405180910390a28d7fa116a5d3aae66533a57997d2090970991738695337a83a0b490d3a7ea043113c8860010160009054906101000a900473ffffffffffffffffffffffffffffffffffffffff168c604051610bf49291906130c0565b60405180910390a28660050160009054906101000a900460ff1615610c2157610c1c8e611acb565b610c2b565b610c2a8e611e1a565b5b5050505050505050505050505050565b60003411610c7e576040517f08c379a0000000000000000000000000000000000000000000000000000000008152600401610c7590613135565b60405180910390fd5b6040518061016001604052803373ffffffffffffffffffffffffffffffffffffffff168152602001600073ffffffffffffffffffffffffffffffffffffffff16815260200134815260200160006002811115610cdd57610cdc6128da565b5b8152602001600073ffffffffffffffffffffffffffffffffffffffff16815260200142815260200160001515815260200160001515815260200160001515815260200160001515815260200160001515815250600080600254815260200190815260200160002060008201518160000160006101000a81548173ffffffffffffffffffffffffffffffffffffffff021916908373ffffffffffffffffffffffffffffffffffffffff16021790555060208201518160010160006101000a81548173ffffffffffffffffffffffffffffffffffffffff021916908373ffffffffffffffffffffffffffffffffffffffff1602179055506040820151816002015560608201518160030160006101000a81548160ff02191690836002811115610e0757610e066128da565b5b021790555060808201518160030160016101000a81548173ffffffffffffffffffffffffffffffffffffffff021916908373ffffffffffffffffffffffffffffffffffffffff16021790555060a0820151816004015560c08201518160050160006101000a81548160ff02191690831515021790555060e08201518160050160016101000a81548160ff0219169083151502179055506101008201518160050160026101000a81548160ff0219169083151502179055506101208201518160050160036101000a81548160ff0219169083151502179055506101408201518160050160046101000a81548160ff0219169083151502179055509050506002547f7dfb67e9ff596fca4da65c7eedb128cd1aac553af54b3c0cb733625a2480d8bd3334604051610f37929190613155565b60405180910390a260026000815480929190610f52906131ad565b9190505550565b600360009054906101000a900473ffffffffffffffffffffffffffffffffffffffff1681565b6000806000848152602001908152602001600020905060006002811115610fa957610fa86128da565b5b8160030160009054906101000a900460ff166002811115610fcd57610fcc6128da565b5b1461100d576040517f08c379a000000000000000000000000000000000000000000000000000000000815260040161100490612d21565b60405180910390fd5b80600201543414611053576040517f08c379a000000000000000000000000000000000000000000000000000000000815260040161104a90612d8d565b60405180910390fd5b8060000160009054906101000a900473ffffffffffffffffffffffffffffffffffffffff1673ffffffffffffffffffffffffffffffffffffffff163373ffffffffffffffffffffffffffffffffffffffff16036110e5576040517f08c379a00000000000000000000000000000000000000000000000000000000081526004016110dc90613241565b60405180910390fd5b338160010160006101000a81548173ffffffffffffffffffffffffffffffffffffffff021916908373ffffffffffffffffffffffffffffffffffffffff160217905550818160050160006101000a81548160ff02191690831515021790555060018160030160006101000a81548160ff0219169083600281111561116c5761116b6128da565b5b0217905550428160040181905550827f45c4f9cbafe186141862608c493f28b823fde4c2142bedc3f5169961a73fdd22336040516111aa9190612843565b60405180910390a2505050565b6000600160003373ffffffffffffffffffffffffffffffffffffffff1673ffffffffffffffffffffffffffffffffffffffff1681526020019081526020016000205490506000811161123e576040517f08c379a0000000000000000000000000000000000000000000000000000000008152600401611235906132ad565b60405180910390fd5b6000600160003373ffffffffffffffffffffffffffffffffffffffff1673ffffffffffffffffffffffffffffffffffffffff168152602001908152602001600020819055503373ffffffffffffffffffffffffffffffffffffffff166108fc829081150290604051600060405180830381858888f193505050501580156112c9573d6000803e3d6000fd5b503373ffffffffffffffffffffffffffffffffffffffff167f1a31e733a172afcf46074b3106c17f0c298e226442682a03c1e99ce256139ec2826040516113109190612a17565b60405180910390a250565b6000806000848152602001908152602001600020905060016002811115611345576113446128da565b5b8160030160009054906101000a900460ff166002811115611369576113686128da565b5b146113a9576040517f08c379a00000000000000000000000000000000000000000000000000000000081526004016113a090612e65565b60405180910390fd5b8060000160009054906101000a900473ffffffffffffffffffffffffffffffffffffffff1673ffffffffffffffffffffffffffffffffffffffff163373ffffffffffffffffffffffffffffffffffffffff16036114ca578060050160029054906101000a900460ff1615611452576040517f08c379a000000000000000000000000000000000000000000000000000000000815260040161144990613319565b60405180910390fd5b818160050160016101000a81548160ff02191690831515021790555060018160050160026101000a81548160ff021916908315150217905550827fa116a5d3aae66533a57997d2090970991738695337a83a0b490d3a7ea043113c33846040516114bd9291906130c0565b60405180910390a2611627565b8060010160009054906101000a900473ffffffffffffffffffffffffffffffffffffffff1673ffffffffffffffffffffffffffffffffffffffff163373ffffffffffffffffffffffffffffffffffffffff16036115eb578060050160049054906101000a900460ff1615611573576040517f08c379a000000000000000000000000000000000000000000000000000000000815260040161156a90613385565b60405180910390fd5b818160050160036101000a81548160ff02191690831515021790555060018160050160046101000a81548160ff021916908315150217905550827fa116a5d3aae66533a57997d2090970991738695337a83a0b490d3a7ea043113c33846040516115de9291906130c0565b60405180910390a2611626565b6040517f08c379a000000000000000000000000000000000000000000000000000000000815260040161161d906133f1565b60405180910390fd5b5b6116308361249d565b505050565b600360009054906101000a900473ffffffffffffffffffffffffffffffffffffffff1673ffffffffffffffffffffffffffffffffffffffff163373ffffffffffffffffffffffffffffffffffffffff16146116c5576040517f08c379a00000000000000000000000000000000000000000000000000000000081526004016116bc90612cb5565b60405180910390fd5b60008060008481526020019081526020016000209050600160028111156116ef576116ee6128da565b5b8160030160009054906101000a900460ff166002811115611713576117126128da565b5b14611753576040517f08c379a000000000000000000000000000000000000000000000000000000000815260040161174a90612e65565b60405180910390fd5b6000600282600201546117669190613411565b9050600060646005836117799190613411565b6117839190613482565b90506000818361179391906134b3565b9050600073ffffffffffffffffffffffffffffffffffffffff168573ffffffffffffffffffffffffffffffffffffffff16036118df576000600283856117d991906134b3565b6117e39190613482565b905080600160008760000160009054906101000a900473ffffffffffffffffffffffffffffffffffffffff1673ffffffffffffffffffffffffffffffffffffffff1673ffffffffffffffffffffffffffffffffffffffff168152602001908152602001600020600082825461185891906134e7565b9250508190555080600160008760010160009054906101000a900473ffffffffffffffffffffffffffffffffffffffff1673ffffffffffffffffffffffffffffffffffffffff1673ffffffffffffffffffffffffffffffffffffffff16815260200190815260200160002060008282546118d291906134e7565b9250508190555050611979565b848460030160016101000a81548173ffffffffffffffffffffffffffffffffffffffff021916908373ffffffffffffffffffffffffffffffffffffffff16021790555080600160008773ffffffffffffffffffffffffffffffffffffffff1673ffffffffffffffffffffffffffffffffffffffff168152602001908152602001600020600082825461197191906134e7565b925050819055505b600360009054906101000a900473ffffffffffffffffffffffffffffffffffffffff1673ffffffffffffffffffffffffffffffffffffffff166108fc839081150290604051600060405180830381858888f193505050501580156119e1573d6000803e3d6000fd5b5060028460030160006101000a81548160ff02191690836002811115611a0a57611a096128da565b5b0217905550857f36e33eea5df2e6c873949c5c856feb597f250ea8a329ed5ac38c39ab969053598683604051611a41929190613155565b60405180910390a2505050505050565b60016020528060005260406000206000915090505481565b60007f19457468657265756d205369676e6564204d6573736167653a0a33320000000060005281601c52603c6000209050919050565b600080600080611aaf868661254e565b925092509250611abf82826125aa565b82935050505092915050565b6000806000838152602001908152602001600020905060008160050160009054906101000a900460ff1615158260050160019054906101000a900460ff161515149050600060028360020154611b219190613411565b905060006064600583611b349190613411565b611b3e9190613482565b905060008183611b4e91906134b3565b90508315611c3c578460000160009054906101000a900473ffffffffffffffffffffffffffffffffffffffff168560030160016101000a81548173ffffffffffffffffffffffffffffffffffffffff021916908373ffffffffffffffffffffffffffffffffffffffff16021790555080600160008760000160009054906101000a900473ffffffffffffffffffffffffffffffffffffffff1673ffffffffffffffffffffffffffffffffffffffff1673ffffffffffffffffffffffffffffffffffffffff1681526020019081526020016000206000828254611c3091906134e7565b92505081905550611d1e565b8460010160009054906101000a900473ffffffffffffffffffffffffffffffffffffffff168560030160016101000a81548173ffffffffffffffffffffffffffffffffffffffff021916908373ffffffffffffffffffffffffffffffffffffffff16021790555080600160008760010160009054906101000a900473ffffffffffffffffffffffffffffffffffffffff1673ffffffffffffffffffffffffffffffffffffffff1673ffffffffffffffffffffffffffffffffffffffff1681526020019081526020016000206000828254611d1691906134e7565b925050819055505b600360009054906101000a900473ffffffffffffffffffffffffffffffffffffffff1673ffffffffffffffffffffffffffffffffffffffff166108fc839081150290604051600060405180830381858888f19350505050158015611d86573d6000803e3d6000fd5b5060028560030160006101000a81548160ff02191690836002811115611daf57611dae6128da565b5b0217905550857f36e33eea5df2e6c873949c5c856feb597f250ea8a329ed5ac38c39ab969053598660030160019054906101000a900473ffffffffffffffffffffffffffffffffffffffff1683604051611e0a929190613155565b60405180910390a2505050505050565b6000806000838152602001908152602001600020905060008015158260050160019054906101000a900460ff16151514905060008015158360050160039054906101000a900460ff161515149050600060028460020154611e7b9190613411565b905060006064600583611e8e9190613411565b611e989190613482565b905060008183611ea891906134b3565b9050831515851515036120dd57600060028385611ec591906134b3565b611ecf9190613482565b905080600160008960000160009054906101000a900473ffffffffffffffffffffffffffffffffffffffff1673ffffffffffffffffffffffffffffffffffffffff1673ffffffffffffffffffffffffffffffffffffffff1681526020019081526020016000206000828254611f4491906134e7565b9250508190555080600160008960010160009054906101000a900473ffffffffffffffffffffffffffffffffffffffff1673ffffffffffffffffffffffffffffffffffffffff1673ffffffffffffffffffffffffffffffffffffffff1681526020019081526020016000206000828254611fbe91906134e7565b9250508190555060008760030160016101000a81548173ffffffffffffffffffffffffffffffffffffffff021916908373ffffffffffffffffffffffffffffffffffffffff160217905550600360009054906101000a900473ffffffffffffffffffffffffffffffffffffffff1673ffffffffffffffffffffffffffffffffffffffff166108fc849081150290604051600060405180830381858888f19350505050158015612071573d6000803e3d6000fd5b5060028760030160006101000a81548160ff0219169083600281111561209a576120996128da565b5b0217905550877fc01911861ae5a7a5b004fda8b4a52b25ecdc8a78ad869354e16b75aedfa4be84826040516120cf9190612a17565b60405180910390a250612494565b84156122bd578560000160009054906101000a900473ffffffffffffffffffffffffffffffffffffffff168660030160016101000a81548173ffffffffffffffffffffffffffffffffffffffff021916908373ffffffffffffffffffffffffffffffffffffffff16021790555080600160008860000160009054906101000a900473ffffffffffffffffffffffffffffffffffffffff1673ffffffffffffffffffffffffffffffffffffffff1673ffffffffffffffffffffffffffffffffffffffff16815260200190815260200160002060008282546121bd91906134e7565b92505081905550600360009054906101000a900473ffffffffffffffffffffffffffffffffffffffff1673ffffffffffffffffffffffffffffffffffffffff166108fc839081150290604051600060405180830381858888f1935050505015801561222c573d6000803e3d6000fd5b5060028660030160006101000a81548160ff02191690836002811115612255576122546128da565b5b0217905550867f36e33eea5df2e6c873949c5c856feb597f250ea8a329ed5ac38c39ab969053598760030160019054906101000a900473ffffffffffffffffffffffffffffffffffffffff16836040516122b0929190613155565b60405180910390a2612493565b8560010160009054906101000a900473ffffffffffffffffffffffffffffffffffffffff168660030160016101000a81548173ffffffffffffffffffffffffffffffffffffffff021916908373ffffffffffffffffffffffffffffffffffffffff16021790555080600160008860010160009054906101000a900473ffffffffffffffffffffffffffffffffffffffff1673ffffffffffffffffffffffffffffffffffffffff1673ffffffffffffffffffffffffffffffffffffffff168152602001908152602001600020600082825461239791906134e7565b92505081905550600360009054906101000a900473ffffffffffffffffffffffffffffffffffffffff1673ffffffffffffffffffffffffffffffffffffffff166108fc839081150290604051600060405180830381858888f19350505050158015612406573d6000803e3d6000fd5b5060028660030160006101000a81548160ff0219169083600281111561242f5761242e6128da565b5b0217905550867f36e33eea5df2e6c873949c5c856feb597f250ea8a329ed5ac38c39ab969053598760030160019054906101000a900473ffffffffffffffffffffffffffffffffffffffff168360405161248a929190613155565b60405180910390a25b5b50505050505050565b600080600083815260200190815260200160002090508060050160009054906101000a900460ff1680156124df57508060050160029054906101000a900460ff165b156124f3576124ed82611acb565b5061254b565b8060050160009054906101000a900460ff1615801561252057508060050160029054906101000a900460ff165b801561253a57508060050160049054906101000a900460ff165b156125495761254882611e1a565b5b505b50565b600080600060418451036125935760008060006020870151925060408701519150606087015160001a90506125858882858561270e565b9550955095505050506125a3565b60006002855160001b9250925092505b9250925092565b600060038111156125be576125bd6128da565b5b8260038111156125d1576125d06128da565b5b031561270a57600160038111156125eb576125ea6128da565b5b8260038111156125fe576125fd6128da565b5b03612635576040517ff645eedf00000000000000000000000000000000000000000000000000000000815260040160405180910390fd5b60026003811115612649576126486128da565b5b82600381111561265c5761265b6128da565b5b036126a1578060001c6040517ffce698f70000000000000000000000000000000000000000000000000000000081526004016126989190612a17565b60405180910390fd5b6003808111156126b4576126b36128da565b5b8260038111156126c7576126c66128da565b5b0361270957806040517fd78bce0c0000000000000000000000000000000000000000000000000000000081526004016127009190613534565b60405180910390fd5b5b5050565b60008060007f7fffffffffffffffffffffffffffffff5d576e7357a4501ddfe92f46681b20a08460001c111561274e5760006003859250925092506127f8565b600060018888888860405160008152602001604052604051612773949392919061356b565b6020604051602081039080840390855afa158015612795573d6000803e3d6000fd5b505050602060405103519050600073ffffffffffffffffffffffffffffffffffffffff168173ffffffffffffffffffffffffffffffffffffffff16036127e957600060016000801b935093509350506127f8565b8060008060001b935093509350505b9450945094915050565b600073ffffffffffffffffffffffffffffffffffffffff82169050919050565b600061282d82612802565b9050919050565b61283d81612822565b82525050565b60006020820190506128586000830184612834565b92915050565b600080fd5b600080fd5b6000819050919050565b61287b81612868565b811461288657600080fd5b50565b60008135905061289881612872565b92915050565b6000602082840312156128b4576128b361285e565b5b60006128c284828501612889565b91505092915050565b6128d481612868565b82525050565b7f4e487b7100000000000000000000000000000000000000000000000000000000600052602160045260246000fd5b6003811061291a576129196128da565b5b50565b600081905061292b82612909565b919050565b600061293b8261291d565b9050919050565b61294b81612930565b82525050565b60008115159050919050565b61296681612951565b82525050565b600061016082019050612982600083018e612834565b61298f602083018d612834565b61299c604083018c6128cb565b6129a9606083018b612942565b6129b6608083018a612834565b6129c360a08301896128cb565b6129d060c083018861295d565b6129dd60e083018761295d565b6129eb61010083018661295d565b6129f961012083018561295d565b612a0761014083018461295d565b9c9b505050505050505050505050565b6000602082019050612a2c60008301846128cb565b92915050565b612a3b81612822565b8114612a4657600080fd5b50565b600081359050612a5881612a32565b92915050565b600060208284031215612a7457612a7361285e565b5b6000612a8284828501612a49565b91505092915050565b612a9481612951565b8114612a9f57600080fd5b50565b600081359050612ab181612a8b565b92915050565b600080fd5b600080fd5b600080fd5b60008083601f840112612adc57612adb612ab7565b5b8235905067ffffffffffffffff811115612af957612af8612abc565b5b602083019150836001820283011115612b1557612b14612ac1565b5b9250929050565b600080600080600080600060a0888a031215612b3b57612b3a61285e565b5b6000612b498a828b01612889565b9750506020612b5a8a828b01612aa2565b965050604088013567ffffffffffffffff811115612b7b57612b7a612863565b5b612b878a828b01612ac6565b95509550506060612b9a8a828b01612aa2565b935050608088013567ffffffffffffffff811115612bbb57612bba612863565b5b612bc78a828b01612ac6565b925092505092959891949750929550565b60008060408385031215612bef57612bee61285e565b5b6000612bfd85828601612889565b9250506020612c0e85828601612aa2565b9150509250929050565b60008060408385031215612c2f57612c2e61285e565b5b6000612c3d85828601612889565b9250506020612c4e85828601612a49565b9150509250929050565b600082825260208201905092915050565b7f4f6e6c79204f7261636c65000000000000000000000000000000000000000000600082015250565b6000612c9f600b83612c58565b9150612caa82612c69565b602082019050919050565b60006020820190508181036000830152612cce81612c92565b9050919050565b7f47616d65206e6f74206f70656e00000000000000000000000000000000000000600082015250565b6000612d0b600d83612c58565b9150612d1682612cd5565b602082019050919050565b60006020820190508181036000830152612d3a81612cfe565b9050919050565b7f496e636f7272656374207374616b650000000000000000000000000000000000600082015250565b6000612d77600f83612c58565b9150612d8282612d41565b602082019050919050565b60006020820190508181036000830152612da681612d6a565b9050919050565b7f4e6f7420617574686f72697a6564207265736f6c766572000000000000000000600082015250565b6000612de3601783612c58565b9150612dee82612dad565b602082019050919050565b60006020820190508181036000830152612e1281612dd6565b9050919050565b7f47616d65206e6f74206163746976650000000000000000000000000000000000600082015250565b6000612e4f600f83612c58565b9150612e5a82612e19565b602082019050919050565b60006020820190508181036000830152612e7e81612e42565b9050919050565b7f416c726561647920766f746564206f6e2d636861696e00000000000000000000600082015250565b6000612ebb601683612c58565b9150612ec682612e85565b602082019050919050565b60006020820190508181036000830152612eea81612eae565b9050919050565b6000819050919050565b612f0c612f0782612868565b612ef1565b82525050565b60008160f81b9050919050565b6000612f2a82612f12565b9050919050565b6000612f3c82612f1f565b9050919050565b612f54612f4f82612951565b612f31565b82525050565b600081905092915050565b7f564f544500000000000000000000000000000000000000000000000000000000600082015250565b6000612f9b600483612f5a565b9150612fa682612f65565b600482019050919050565b6000612fbd8285612efb565b602082019150612fcd8284612f43565b600182019150612fdc82612f8e565b91508190509392505050565b7f496e76616c6964205031207369676e6174757265000000000000000000000000600082015250565b600061301e601483612c58565b915061302982612fe8565b602082019050919050565b6000602082019050818103600083015261304d81613011565b9050919050565b7f496e76616c6964205032207369676e6174757265000000000000000000000000600082015250565b600061308a601483612c58565b915061309582613054565b602082019050919050565b600060208201905081810360008301526130b98161307d565b9050919050565b60006040820190506130d56000830185612834565b6130e2602083018461295d565b9392505050565b7f5374616b65207265717569726564000000000000000000000000000000000000600082015250565b600061311f600e83612c58565b915061312a826130e9565b602082019050919050565b6000602082019050818103600083015261314e81613112565b9050919050565b600060408201905061316a6000830185612834565b61317760208301846128cb565b9392505050565b7f4e487b7100000000000000000000000000000000000000000000000000000000600052601160045260246000fd5b60006131b882612868565b91507fffffffffffffffffffffffffffffffffffffffffffffffffffffffffffffffff82036131ea576131e961317e565b5b600182019050919050565b7f43616e6e6f7420706c617920616761696e73742073656c660000000000000000600082015250565b600061322b601883612c58565b9150613236826131f5565b602082019050919050565b6000602082019050818103600083015261325a8161321e565b9050919050565b7f4e6f2077696e6e696e677320746f20636c61696d000000000000000000000000600082015250565b6000613297601483612c58565b91506132a282613261565b602082019050919050565b600060208201905081810360008301526132c68161328a565b9050919050565b7f503120616c7265616479207375626d6974746564000000000000000000000000600082015250565b6000613303601483612c58565b915061330e826132cd565b602082019050919050565b60006020820190508181036000830152613332816132f6565b9050919050565b7f503220616c7265616479207375626d6974746564000000000000000000000000600082015250565b600061336f601483612c58565b915061337a82613339565b602082019050919050565b6000602082019050818103600083015261339e81613362565b9050919050565b7f4e6f74206120706c6179657220696e20746869732067616d6500000000000000600082015250565b60006133db601983612c58565b91506133e6826133a5565b602082019050919050565b6000602082019050818103600083015261340a816133ce565b9050919050565b600061341c82612868565b915061342783612868565b925082820261343581612868565b9150828204841483151761344c5761344b61317e565b5b5092915050565b7f4e487b7100000000000000000000000000000000000000000000000000000000600052601260045260246000fd5b600061348d82612868565b915061349883612868565b9250826134a8576134a7613453565b5b828204905092915050565b60006134be82612868565b91506134c983612868565b92508282039050818111156134e1576134e061317e565b5b92915050565b60006134f282612868565b91506134fd83612868565b92508282019050808211156135155761351461317e565b5b92915050565b6000819050919050565b61352e8161351b565b82525050565b60006020820190506135496000830184613525565b92915050565b600060ff82169050919050565b6135658161354f565b82525050565b60006080820190506135806000830187613525565b61358d602083018661355c565b61359a6040830185613525565b6135a76060830184613525565b9594505050505056fea26469706673582212201e4b63138393b5a3c3f1baa6887ab7bdd98710d9359af2ec67ef8b704fa2e24f64736f6c63430008180033",
  "linkReferences": {},
  "deployedLinkReferences": {}
}