{
  "_format": "hh-sol-artifact-1",
  "contractName": "OxHuman",
  "sourceName": "contracts/OxHuman.sol",
  "abi": [
    {
      "inputs": [],
      "stateMutability": "nonpayable",
      "type": "constructor"
    },
    {
      "inputs": [],
      "name": "ECDSAInvalidSignature",
      "type": "error"
    },
    {
      "inputs": [
        {
          "internalType": "uint256",
          "name": "length",
          "type": "uint256"
        }
      ],
      "name": "ECDSAInvalidSignatureLength",
      "type": "error"
    },
    {
      "inputs": [
        {
          "internalType": "bytes32",
          "name": "s",
          "type": "bytes32"
        }
      ],
      "name": "ECDSAInvalidSignatureS",
      "type": "error"
    },
    {
      "anonymous": false,
      "inputs": [
        {
          "indexed": true,
          "internalType": "uint256",
          "name": "gameId",
          "type": "uint256"
        },
        {
          "indexed": false,
          "internalType": "address",
          "name": "player1",
          "type": "address"
        },
        {
          "indexed": false,
          "internalType": "uint256",
          "name": "stake",
          "type": "uint256"
        }
      ],
      "name": "GameCreated",
      "type": "event"
    },
    {
      "anonymous": false,
      "inputs": [
        {
          "indexed": true,
          "internalType": "uint256",
          "name": "gameId",
          "type": "uint256"
        },
        {
          "indexed": false,
          "internalType": "uint256",
          "name": "refundAmount",
          "type": "uint256"
        }
      ],
      "name": "GameDraw",
      "type": "event"
    },
    {
      "anonymous": false,
      "inputs": [
        {
          "indexed": true,
          "internalType": "uint256",
          "name": "gameId",
          "type": "uint256"
        },
        {
          "indexed": false,
          "internalType": "address",
          "name": "player2",
          "type": "address"
        }
      ],
      "name": "GameJoined",
      "type": "event"
    },
    {
      "anonymous": false,
      "inputs": [
        {
          "indexed": true,
          "internalType": "uint256",
          "name": "gameId",
          "type": "uint256"
        },
        {
          "indexed": false,
          "internalType": "address",
          "name": "winner",
          "type": "address"
        },
        {
          "indexed": false,
          "internalType": "uint256",
          "name": "payout",
          "type": "uint256"
        }
      ],
      "name": "GameResolved",
      "type": "event"
    },
    {
      "anonymous": false,
      "inputs": [
        {
          "indexed": true,
          "internalType": "uint256",
          "name": "gameId",
          "type": "uint256"
        },
        {
          "indexed": false,
          "internalType": "address",
          "name": "player",
          "type": "address"
        },
        {
          "indexed": false,
          "internalType": "bool",
          "name": "guessedBot",
          "type": "bool"
        }
      ],
      "name": "VerdictSubmitted",
      "type": "event"
    },
    {
      "anonymous": false,
      "inputs": [
        {
          "indexed": true,
          "internalType": "address",
          "name": "player",
          "type": "address"
        },
        {
          "indexed": false,
          "internalType": "uint256",
          "name": "amount",
          "type": "uint256"
        }
      ],
      "name": "WinningsClaimed",
      "type": "event"
    },
    {
      "inputs": [],
      "name": "FEE_PERCENT",
      "outputs": [
        {
          "internalType": "uint256",
          "name": "",
          "type": "uint256"
        }
      ],
      "stateMutability": "view",
      "type": "function"
    },
    {
      "inputs": [],
      "name": "PAYOUT_DENOMINATOR",
      "outputs": [
        {
          "internalType": "uint256",
          "name": "",
          "type": "uint256"
        }
      ],
      "stateMutability": "view",
      "type": "function"
    },
    {
      "inputs": [],
      "name": "PAYOUT_NUMERATOR",
      "outputs": [
        {
          "internalType": "uint256",
          "name": "",
          "type": "uint256"
        }
      ],
      "stateMutability": "view",
      "type": "function"
    },
    {
      "inputs": [],
      "name": "PERFORMANCE_FEE",
      "outputs": [
        {
          "internalType": "uint256",
          "name": "",
          "type": "uint256"
        }
      ],
      "stateMutability": "view",
      "type": "function"
    },
    {
      "inputs": [],
      "name": "claimWinnings",
      "outputs": [],
      "stateMutability": "nonpayable",
      "type": "function"
    },
    {
      "inputs": [],
      "name": "createGame",
      "outputs": [],
      "stateMutability": "payable",
      "type": "function"
    },
    {
      "inputs": [],
      "name": "createGamePvE",
      "outputs": [],
      "stateMutability": "payable",
      "type": "function"
    },
    {
      "inputs": [],
      "name": "gameCount",
      "outputs": [
        {
          "internalType": "uint256",
          "name": "",
          "type": "uint256"
        }
      ],
      "stateMutability": "view",
      "type": "function"
    },
    {
      "inputs": [
        {
          "internalType": "uint256",
          "name": "",
          "type": "uint256"
        }
      ],
      "name": "games",
      "outputs": [
        {
          "internalType": "address",
          "name": "player1",
          "type": "address"
        },
        {
          "internalType": "address",
          "name": "player2",
          "type": "address"
        },
        {
          "internalType": "uint256",
          "name": "stake",
          "type": "uint256"
        },
        {
          "internalType": "enum OxHuman.GameStatus",
          "name": "status",
          "type": "uint8"
        },
        {
          "internalType": "enum OxHuman.GameMode",
          "name": "mode",
          "type": "uint8"
        },
        {
          "internalType": "address",
          "name": "winner",
          "type": "address"
        },
        {
          "internalType": "uint256",
          "name": "timestamp",
          "type": "uint256"
        },
        {
          "internalType": "bool",
          "name": "isPlayer2Bot",
          "type": "bool"
        },
        {
          "internalType": "bool",
          "name": "player1GuessedBot",
          "type": "bool"
        },
        {
          "internalType": "bool",
          "name": "player1Submitted",
          "type": "bool"
        },
        {
          "internalType": "bool",
          "name": "player2GuessedBot",
          "type": "bool"
        },
        {
          "internalType": "bool",
          "name": "player2Submitted",
          "type": "bool"
        }
      ],
      "stateMutability": "view",
      "type": "function"
    },
    {
      "inputs": [],
      "name": "houseVault",
      "outputs": [
        {
          "internalType": "contract IHouseVault",
          "name": "",
          "type": "address"
        }
      ],
      "stateMutability": "view",
      "type": "function"
    },
    {
      "inputs": [
        {
          "internalType": "uint256",
          "name": "_gameId",
          "type": "uint256"
        },
        {
          "internalType": "bool",
          "name": "_isBot",
          "type": "bool"
        }
      ],
      "name": "joinGame",
      "outputs": [],
      "stateMutability": "payable",
      "type": "function"
    },
    {
      "inputs": [
        {
          "internalType": "uint256",
          "name": "_gameId",
          "type": "uint256"
        }
      ],
      "name": "joinGameAsHouse",
      "outputs": [],
      "stateMutability": "nonpayable",
      "type": "function"
    },
    {
      "inputs": [],
      "name": "oracle",
      "outputs": [
        {
          "internalType": "address",
          "name": "",
          "type": "address"
        }
      ],
      "stateMutability": "view",
      "type": "function"
    },
    {
      "inputs": [
        {
          "internalType": "uint256",
          "name": "_gameId",
          "type": "uint256"
        },
        {
          "internalType": "address",
          "name": "_winner",
          "type": "address"
        }
      ],
      "name": "oracleForceResolve",
      "outputs": [],
      "stateMutability": "nonpayable",
      "type": "function"
    },
    {
      "inputs": [
        {
          "internalType": "uint256",
          "name": "_gameId",
          "type": "uint256"
        }
      ],
      "name": "oracleJoinAsBot",
      "outputs": [],
      "stateMutability": "payable",
      "type": "function"
    },
    {
      "inputs": [
        {
          "internalType": "uint256",
          "name": "_gameId",
          "type": "uint256"
        },
        {
          "internalType": "bool",
          "name": "_p1GuessedBot",
          "type": "bool"
        },
        {
          "internalType": "bytes",
          "name": "_p1Signature",
          "type": "bytes"
        },
        {
          "internalType": "bool",
          "name": "_p2GuessedBot",
          "type": "bool"
        },
        {
          "internalType": "bytes",
          "name": "_p2Signature",
          "type": "bytes"
        }
      ],
      "name": "resolveWithSignatures",
      "outputs": [],
      "stateMutability": "nonpayable",
      "type": "function"
    },
    {
      "inputs": [],
      "name": "resolver",
      "outputs": [
        {
          "internalType": "address",
          "name": "",
          "type": "address"
        }
      ],
      "stateMutability": "view",
      "type": "function"
    },
    {
      "inputs": [
        {
          "internalType": "address",
          "name": "_houseVault",
          "type": "address"
        }
      ],
      "name": "setHouseVault",
      "outputs": [],
      "stateMutability": "nonpayable",
      "type": "function"
    },
    {
      "inputs": [
        {
          "internalType": "address",
          "name": "_resolver",
          "type": "address"
        }
      ],
      "name": "setResolver",
      "outputs": [],
      "stateMutability": "nonpayable",
      "type": "function"
    },
    {
      "inputs": [
        {
          "internalType": "uint256",
          "name": "_gameId",
          "type": "uint256"
        },
        {
          "internalType": "bool",
          "name": "_guessedBot",
          "type": "bool"
        }
      ],
      "name": "submitVerdict",
      "outputs": [],
      "stateMutability": "nonpayable",
      "type": "function"
    },
    {
      "inputs": [
        {
          "internalType": "address",
          "name": "",
          "type": "address"
        }
      ],
      "name": "winnings",
      "outputs": [
        {
          "internalType": "uint256",
          "name": "",
          "type": "uint256"
        }
      ],
      "stateMutability": "view",
      "type": "function"
    },
    {
      "stateMutability": "payable",
      "type": "receive"
    }
  ],
  "bytecode": "0x608060405234801561001057600080fd5b5033600360006101000a81548173ffffffffffffffffffffffffffffffffffffffff021916908373ffffffffffffffffffffffffffffffffffffffff16021790555033600460006101000a81548173ffffffffffffffffffffffffffffffffffffffff021916908373ffffffffffffffffffffffffffffffffffffffff160217905550614cb2806100a26000396000f3fe60806040526004361061012e5760003560e01c80637dc0d1d0116100ab578063c1f0c04b1161006f578063c1f0c04b14610360578063d49fbe0514610389578063df32e9c0146103b4578063e93f5665146103dd578063ea3a149914610408578063eaf98d231461044557610135565b80637dc0d1d0146102ae57806390282be5146102d957806394517b9014610304578063a11757a614610320578063b401faf11461034957610135565b80634e543b26116100f25780634e543b26146101fe57806356b49975146102275780635f2e403f1461025257806361d864511461027b5780637255d729146102a457610135565b806304f3bcec1461013a578063117a5b90146101655780631a47bfff146101ad5780634c8f1688146101b75780634d1975b4146101d357610135565b3661013557005b600080fd5b34801561014657600080fd5b5061014f610470565b60405161015c9190613c4c565b60405180910390f35b34801561017157600080fd5b5061018c60048036038101906101879190613ca7565b610496565b6040516101a49c9b9a99989796959493929190613dbd565b60405180910390f35b6101b56105b1565b005b6101d160048036038101906101cc9190613ca7565b610b03565b005b3480156101df57600080fd5b506101e8610d39565b6040516101f59190613e77565b60405180910390f35b34801561020a57600080fd5b5061022560048036038101906102209190613ebe565b610d3f565b005b34801561023357600080fd5b5061023c610e13565b6040516102499190613e77565b60405180910390f35b34801561025e57600080fd5b5061027960048036038101906102749190613ebe565b610e18565b005b34801561028757600080fd5b506102a2600480360381019061029d9190613f7c565b610f5b565b005b6102ac611554565b005b3480156102ba57600080fd5b506102c36118bc565b6040516102d09190613c4c565b60405180910390f35b3480156102e557600080fd5b506102ee6118e2565b6040516102fb9190613e77565b60405180910390f35b61031e60048036038101906103199190614038565b6118e7565b005b34801561032c57600080fd5b5061034760048036038101906103429190613ca7565b611b1f565b005b34801561035557600080fd5b5061035e611fd7565b005b34801561036c57600080fd5b5061038760048036038101906103829190614038565b61213b565b005b34801561039557600080fd5b5061039e612455565b6040516103ab91906140d7565b60405180910390f35b3480156103c057600080fd5b506103db60048036038101906103d691906140f2565b61247b565b005b3480156103e957600080fd5b506103f2612897565b6040516103ff9190613e77565b60405180910390f35b34801561041457600080fd5b5061042f600480360381019061042a9190613ebe565b61289c565b60405161043c9190613e77565b60405180910390f35b34801561045157600080fd5b5061045a6128b4565b6040516104679190613e77565b60405180910390f35b600460009054906101000a900473ffffffffffffffffffffffffffffffffffffffff1681565b60006020528060005260406000206000915090508060000160009054906101000a900473ffffffffffffffffffffffffffffffffffffffff16908060010160009054906101000a900473ffffffffffffffffffffffffffffffffffffffff16908060020154908060030160009054906101000a900460ff16908060030160019054906101000a900460ff16908060030160029054906101000a900473ffffffffffffffffffffffffffffffffffffffff16908060040154908060050160009054906101000a900460ff16908060050160019054906101000a900460ff16908060050160029054906101000a900460ff16908060050160039054906101000a900460ff16908060050160049054906101000a900460ff1690508c565b600034116105f4576040517f08c379a00000000000000000000000000000000000000000000000000000000081526004016105eb9061418f565b60405180910390fd5b600073ffffffffffffffffffffffffffffffffffffffff16600560009054906101000a900473ffffffffffffffffffffffffffffffffffffffff1673ffffffffffffffffffffffffffffffffffffffff1603610685576040517f08c379a000000000000000000000000000000000000000000000000000000000815260040161067c906141fb565b60405180910390fd5b600560009054906101000a900473ffffffffffffffffffffffffffffffffffffffff1673ffffffffffffffffffffffffffffffffffffffff16636e459d48346040518263ffffffff1660e01b81526004016106e09190613e77565b602060405180830381865afa1580156106fd573d6000803e3d6000fd5b505050506040513d601f19601f820116820180604052508101906107219190614230565b610760576040517f08c379a0000000000000000000000000000000000000000000000000000000008152600401610757906142a9565b60405180910390fd5b600060025490506040518061018001604052803373ffffffffffffffffffffffffffffffffffffffff168152602001600560009054906101000a900473ffffffffffffffffffffffffffffffffffffffff1673ffffffffffffffffffffffffffffffffffffffff168152602001348152602001600160028111156107e7576107e6613ce3565b5b81526020016001808111156107ff576107fe613ce3565b5b8152602001600073ffffffffffffffffffffffffffffffffffffffff1681526020014281526020016001151581526020016000151581526020016000151581526020016000151581526020016000151581525060008083815260200190815260200160002060008201518160000160006101000a81548173ffffffffffffffffffffffffffffffffffffffff021916908373ffffffffffffffffffffffffffffffffffffffff16021790555060208201518160010160006101000a81548173ffffffffffffffffffffffffffffffffffffffff021916908373ffffffffffffffffffffffffffffffffffffffff1602179055506040820151816002015560608201518160030160006101000a81548160ff0219169083600281111561092757610926613ce3565b5b021790555060808201518160030160016101000a81548160ff0219169083600181111561095757610956613ce3565b5b021790555060a08201518160030160026101000a81548173ffffffffffffffffffffffffffffffffffffffff021916908373ffffffffffffffffffffffffffffffffffffffff16021790555060c0820151816004015560e08201518160050160006101000a81548160ff0219169083151502179055506101008201518160050160016101000a81548160ff0219169083151502179055506101208201518160050160026101000a81548160ff0219169083151502179055506101408201518160050160036101000a81548160ff0219169083151502179055506101608201518160050160046101000a81548160ff021916908315150217905550905050807f7dfb67e9ff596fca4da65c7eedb128cd1aac553af54b3c0cb733625a2480d8bd3334604051610a869291906142c9565b60405180910390a2807f45c4f9cbafe186141862608c493f28b823fde4c2142bedc3f5169961a73fdd22600560009054906101000a900473ffffffffffffffffffffffffffffffffffffffff16604051610ae09190613c4c565b60405180910390a260026000815480929190610afb90614321565b919050555050565b600360009054906101000a900473ffffffffffffffffffffffffffffffffffffffff1673ffffffffffffffffffffffffffffffffffffffff163373ffffffffffffffffffffffffffffffffffffffff1614610b93576040517f08c379a0000000000000000000000000000000000000000000000000000000008152600401610b8a906143b5565b60405180910390fd5b6000806000838152602001908152602001600020905060006002811115610bbd57610bbc613ce3565b5b8160030160009054906101000a900460ff166002811115610be157610be0613ce3565b5b14610c21576040517f08c379a0000000000000000000000000000000000000000000000000000000008152600401610c1890614421565b60405180910390fd5b80600201543414610c67576040517f08c379a0000000000000000000000000000000000000000000000000000000008152600401610c5e9061448d565b60405180910390fd5b338160010160006101000a81548173ffffffffffffffffffffffffffffffffffffffff021916908373ffffffffffffffffffffffffffffffffffffffff16021790555060018160050160006101000a81548160ff02191690831515021790555060018160030160006101000a81548160ff02191690836002811115610cef57610cee613ce3565b5b0217905550428160040181905550817f45c4f9cbafe186141862608c493f28b823fde4c2142bedc3f5169961a73fdd2233604051610d2d9190613c4c565b60405180910390a25050565b60025481565b600360009054906101000a900473ffffffffffffffffffffffffffffffffffffffff1673ffffffffffffffffffffffffffffffffffffffff163373ffffffffffffffffffffffffffffffffffffffff1614610dcf576040517f08c379a0000000000000000000000000000000000000000000000000000000008152600401610dc6906143b5565b60405180910390fd5b80600460006101000a81548173ffffffffffffffffffffffffffffffffffffffff021916908373ffffffffffffffffffffffffffffffffffffffff16021790555050565b60be81565b600360009054906101000a900473ffffffffffffffffffffffffffffffffffffffff1673ffffffffffffffffffffffffffffffffffffffff163373ffffffffffffffffffffffffffffffffffffffff1614610ea8576040517f08c379a0000000000000000000000000000000000000000000000000000000008152600401610e9f906143b5565b60405180910390fd5b600073ffffffffffffffffffffffffffffffffffffffff168173ffffffffffffffffffffffffffffffffffffffff1603610f17576040517f08c379a0000000000000000000000000000000000000000000000000000000008152600401610f0e906144f9565b60405180910390fd5b80600560006101000a81548173ffffffffffffffffffffffffffffffffffffffff021916908373ffffffffffffffffffffffffffffffffffffffff16021790555050565b600460009054906101000a900473ffffffffffffffffffffffffffffffffffffffff1673ffffffffffffffffffffffffffffffffffffffff163373ffffffffffffffffffffffffffffffffffffffff1614610feb576040517f08c379a0000000000000000000000000000000000000000000000000000000008152600401610fe290614565565b60405180910390fd5b600080600089815260200190815260200160002090506001600281111561101557611014613ce3565b5b8160030160009054906101000a900460ff16600281111561103957611038613ce3565b5b14611079576040517f08c379a0000000000000000000000000000000000000000000000000000000008152600401611070906145d1565b60405180910390fd5b8060050160029054906101000a900460ff161580156110a757508060050160049054906101000a900460ff16155b6110e6576040517f08c379a00000000000000000000000000000000000000000000000000000000081526004016110dd9061463d565b60405180910390fd5b8060000160009054906101000a900473ffffffffffffffffffffffffffffffffffffffff1673ffffffffffffffffffffffffffffffffffffffff1661119f6111558a8a60405160200161113a92919061471d565b604051602081830303815290604052805190602001206128b9565b88888080601f016020809104026020016040519081016040528093929190818152602001838380828437600081840152601f19601f820116905080830192505050505050506128ef565b73ffffffffffffffffffffffffffffffffffffffff16146111f5576040517f08c379a00000000000000000000000000000000000000000000000000000000081526004016111ec906147a0565b60405180910390fd5b600061127561122b8a8760405160200161121092919061471d565b604051602081830303815290604052805190602001206128b9565b85858080601f016020809104026020016040519081016040528093929190818152602001838380828437600081840152601f19601f820116905080830192505050505050506128ef565b90508160010160009054906101000a900473ffffffffffffffffffffffffffffffffffffffff1673ffffffffffffffffffffffffffffffffffffffff168173ffffffffffffffffffffffffffffffffffffffff16148061136257506001808111156112e3576112e2613ce3565b5b8260030160019054906101000a900460ff16600181111561130757611306613ce3565b5b1480156113615750600460009054906101000a900473ffffffffffffffffffffffffffffffffffffffff1673ffffffffffffffffffffffffffffffffffffffff168173ffffffffffffffffffffffffffffffffffffffff16145b5b6113a1576040517f08c379a00000000000000000000000000000000000000000000000000000000081526004016113989061480c565b60405180910390fd5b878260050160016101000a81548160ff02191690831515021790555060018260050160026101000a81548160ff021916908315150217905550848260050160036101000a81548160ff02191690831515021790555060018260050160046101000a81548160ff021916908315150217905550887fa116a5d3aae66533a57997d2090970991738695337a83a0b490d3a7ea043113c8360000160009054906101000a900473ffffffffffffffffffffffffffffffffffffffff168a60405161146992919061482c565b60405180910390a2887fa116a5d3aae66533a57997d2090970991738695337a83a0b490d3a7ea043113c8360010160009054906101000a900473ffffffffffffffffffffffffffffffffffffffff16876040516114c792919061482c565b60405180910390a26001808111156114e2576114e1613ce3565b5b8260030160019054906101000a900460ff16600181111561150657611505613ce3565b5b03611519576115148961291b565b611549565b8160050160009054906101000a900460ff161561153e5761153989612dec565b611548565b6115478961313b565b5b5b505050505050505050565b60003411611597576040517f08c379a000000000000000000000000000000000000000000000000000000000815260040161158e9061418f565b60405180910390fd5b6040518061018001604052803373ffffffffffffffffffffffffffffffffffffffff168152602001600073ffffffffffffffffffffffffffffffffffffffff168152602001348152602001600060028111156115f6576115f5613ce3565b5b81526020016000600181111561160f5761160e613ce3565b5b8152602001600073ffffffffffffffffffffffffffffffffffffffff16815260200142815260200160001515815260200160001515815260200160001515815260200160001515815260200160001515815250600080600254815260200190815260200160002060008201518160000160006101000a81548173ffffffffffffffffffffffffffffffffffffffff021916908373ffffffffffffffffffffffffffffffffffffffff16021790555060208201518160010160006101000a81548173ffffffffffffffffffffffffffffffffffffffff021916908373ffffffffffffffffffffffffffffffffffffffff1602179055506040820151816002015560608201518160030160006101000a81548160ff0219169083600281111561173957611738613ce3565b5b021790555060808201518160030160016101000a81548160ff0219169083600181111561176957611768613ce3565b5b021790555060a08201518160030160026101000a81548173ffffffffffffffffffffffffffffffffffffffff021916908373ffffffffffffffffffffffffffffffffffffffff16021790555060c0820151816004015560e08201518160050160006101000a81548160ff0219169083151502179055506101008201518160050160016101000a81548160ff0219169083151502179055506101208201518160050160026101000a81548160ff0219169083151502179055506101408201518160050160036101000a81548160ff0219169083151502179055506101608201518160050160046101000a81548160ff0219169083151502179055509050506002547f7dfb67e9ff596fca4da65c7eedb128cd1aac553af54b3c0cb733625a2480d8bd333460405161189a9291906142c9565b60405180910390a2600260008154809291906118b590614321565b9190505550565b600360009054906101000a900473ffffffffffffffffffffffffffffffffffffffff1681565b606481565b600080600084815260200190815260200160002090506000600281111561191157611910613ce3565b5b8160030160009054906101000a900460ff16600281111561193557611934613ce3565b5b14611975576040517f08c379a000000000000000000000000000000000000000000000000000000000815260040161196c90614421565b60405180910390fd5b806002015434146119bb576040517f08c379a00000000000000000000000000000000000000000000000000000000081526004016119b29061448d565b60405180910390fd5b8060000160009054906101000a900473ffffffffffffffffffffffffffffffffffffffff1673ffffffffffffffffffffffffffffffffffffffff163373ffffffffffffffffffffffffffffffffffffffff1603611a4d576040517f08c379a0000000000000000000000000000000000000000000000000000000008152600401611a44906148a1565b60405180910390fd5b338160010160006101000a81548173ffffffffffffffffffffffffffffffffffffffff021916908373ffffffffffffffffffffffffffffffffffffffff160217905550818160050160006101000a81548160ff02191690831515021790555060018160030160006101000a81548160ff02191690836002811115611ad457611ad3613ce3565b5b0217905550428160040181905550827f45c4f9cbafe186141862608c493f28b823fde4c2142bedc3f5169961a73fdd2233604051611b129190613c4c565b60405180910390a2505050565b600460009054906101000a900473ffffffffffffffffffffffffffffffffffffffff1673ffffffffffffffffffffffffffffffffffffffff163373ffffffffffffffffffffffffffffffffffffffff1614611baf576040517f08c379a0000000000000000000000000000000000000000000000000000000008152600401611ba690614565565b60405180910390fd5b6000806000838152602001908152602001600020905060006002811115611bd957611bd8613ce3565b5b8160030160009054906101000a900460ff166002811115611bfd57611bfc613ce3565b5b14611c3d576040517f08c379a0000000000000000000000000000000000000000000000000000000008152600401611c3490614421565b60405180910390fd5b600073ffffffffffffffffffffffffffffffffffffffff16600560009054906101000a900473ffffffffffffffffffffffffffffffffffffffff1673ffffffffffffffffffffffffffffffffffffffff1603611cce576040517f08c379a0000000000000000000000000000000000000000000000000000000008152600401611cc5906141fb565b60405180910390fd5b600560009054906101000a900473ffffffffffffffffffffffffffffffffffffffff1673ffffffffffffffffffffffffffffffffffffffff16636e459d4882600201546040518263ffffffff1660e01b8152600401611d2d9190613e77565b602060405180830381865afa158015611d4a573d6000803e3d6000fd5b505050506040513d601f19601f82011682018060405250810190611d6e9190614230565b611dad576040517f08c379a0000000000000000000000000000000000000000000000000000000008152600401611da4906142a9565b60405180910390fd5b6000600560009054906101000a900473ffffffffffffffffffffffffffffffffffffffff1673ffffffffffffffffffffffffffffffffffffffff16636022743e83600201546040518263ffffffff1660e01b8152600401611e0e9190613e77565b6020604051808303816000875af1158015611e2d573d6000803e3d6000fd5b505050506040513d601f19601f82011682018060405250810190611e519190614230565b905080611e93576040517f08c379a0000000000000000000000000000000000000000000000000000000008152600401611e8a9061490d565b60405180910390fd5b600560009054906101000a900473ffffffffffffffffffffffffffffffffffffffff168260010160006101000a81548173ffffffffffffffffffffffffffffffffffffffff021916908373ffffffffffffffffffffffffffffffffffffffff16021790555060018260050160006101000a81548160ff02191690831515021790555060018260030160016101000a81548160ff02191690836001811115611f3d57611f3c613ce3565b5b021790555060018260030160006101000a81548160ff02191690836002811115611f6a57611f69613ce3565b5b0217905550428260040181905550827f45c4f9cbafe186141862608c493f28b823fde4c2142bedc3f5169961a73fdd22600560009054906101000a900473ffffffffffffffffffffffffffffffffffffffff16604051611fca9190613c4c565b60405180910390a2505050565b6000600160003373ffffffffffffffffffffffffffffffffffffffff1673ffffffffffffffffffffffffffffffffffffffff1681526020019081526020016000205490506000811161205e576040517f08c379a000000000000000000000000000000000000000000000000000000000815260040161205590614979565b60405180910390fd5b6000600160003373ffffffffffffffffffffffffffffffffffffffff1673ffffffffffffffffffffffffffffffffffffffff168152602001908152602001600020819055503373ffffffffffffffffffffffffffffffffffffffff166108fc829081150290604051600060405180830381858888f193505050501580156120e9573d6000803e3d6000fd5b503373ffffffffffffffffffffffffffffffffffffffff167f1a31e733a172afcf46074b3106c17f0c298e226442682a03c1e99ce256139ec2826040516121309190613e77565b60405180910390a250565b600080600084815260200190815260200160002090506001600281111561216557612164613ce3565b5b8160030160009054906101000a900460ff16600281111561218957612188613ce3565b5b146121c9576040517f08c379a00000000000000000000000000000000000000000000000000000000081526004016121c0906145d1565b60405180910390fd5b8060000160009054906101000a900473ffffffffffffffffffffffffffffffffffffffff1673ffffffffffffffffffffffffffffffffffffffff163373ffffffffffffffffffffffffffffffffffffffff16036122ea578060050160029054906101000a900460ff1615612272576040517f08c379a0000000000000000000000000000000000000000000000000000000008152600401612269906149e5565b60405180910390fd5b818160050160016101000a81548160ff02191690831515021790555060018160050160026101000a81548160ff021916908315150217905550827fa116a5d3aae66533a57997d2090970991738695337a83a0b490d3a7ea043113c33846040516122dd92919061482c565b60405180910390a2612447565b8060010160009054906101000a900473ffffffffffffffffffffffffffffffffffffffff1673ffffffffffffffffffffffffffffffffffffffff163373ffffffffffffffffffffffffffffffffffffffff160361240b578060050160049054906101000a900460ff1615612393576040517f08c379a000000000000000000000000000000000000000000000000000000000815260040161238a90614a51565b60405180910390fd5b818160050160036101000a81548160ff02191690831515021790555060018160050160046101000a81548160ff021916908315150217905550827fa116a5d3aae66533a57997d2090970991738695337a83a0b490d3a7ea043113c33846040516123fe92919061482c565b60405180910390a2612446565b6040517f08c379a000000000000000000000000000000000000000000000000000000000815260040161243d90614abd565b60405180910390fd5b5b612450836137be565b505050565b600560009054906101000a900473ffffffffffffffffffffffffffffffffffffffff1681565b600360009054906101000a900473ffffffffffffffffffffffffffffffffffffffff1673ffffffffffffffffffffffffffffffffffffffff163373ffffffffffffffffffffffffffffffffffffffff161461250b576040517f08c379a0000000000000000000000000000000000000000000000000000000008152600401612502906143b5565b60405180910390fd5b600080600084815260200190815260200160002090506001600281111561253557612534613ce3565b5b8160030160009054906101000a900460ff16600281111561255957612558613ce3565b5b14612599576040517f08c379a0000000000000000000000000000000000000000000000000000000008152600401612590906145d1565b60405180910390fd5b6000600282600201546125ac9190614add565b9050600060646005836125bf9190614add565b6125c99190614b4e565b9050600081836125d99190614b7f565b9050600073ffffffffffffffffffffffffffffffffffffffff168573ffffffffffffffffffffffffffffffffffffffff16036127255760006002838561261f9190614b7f565b6126299190614b4e565b905080600160008760000160009054906101000a900473ffffffffffffffffffffffffffffffffffffffff1673ffffffffffffffffffffffffffffffffffffffff1673ffffffffffffffffffffffffffffffffffffffff168152602001908152602001600020600082825461269e9190614bb3565b9250508190555080600160008760010160009054906101000a900473ffffffffffffffffffffffffffffffffffffffff1673ffffffffffffffffffffffffffffffffffffffff1673ffffffffffffffffffffffffffffffffffffffff16815260200190815260200160002060008282546127189190614bb3565b92505081905550506127bf565b848460030160026101000a81548173ffffffffffffffffffffffffffffffffffffffff021916908373ffffffffffffffffffffffffffffffffffffffff16021790555080600160008773ffffffffffffffffffffffffffffffffffffffff1673ffffffffffffffffffffffffffffffffffffffff16815260200190815260200160002060008282546127b79190614bb3565b925050819055505b600360009054906101000a900473ffffffffffffffffffffffffffffffffffffffff1673ffffffffffffffffffffffffffffffffffffffff166108fc839081150290604051600060405180830381858888f19350505050158015612827573d6000803e3d6000fd5b5060028460030160006101000a81548160ff021916908360028111156128505761284f613ce3565b5b0217905550857f36e33eea5df2e6c873949c5c856feb597f250ea8a329ed5ac38c39ab9690535986836040516128879291906142c9565b60405180910390a2505050505050565b601481565b60016020528060005260406000206000915090505481565b600581565b60007f19457468657265756d205369676e6564204d6573736167653a0a33320000000060005281601c52603c6000209050919050565b6000806000806128ff8686613957565b92509250925061290f82826139b3565b82935050505092915050565b6000806000838152602001908152602001600020905060008160050160019054906101000a900460ff169050600082600201549050600060646005836129619190614add565b61296b9190614b4e565b90508215612b9b576000606460be846129849190614add565b61298e9190614b4e565b90506000838261299e9190614b7f565b9050600560009054906101000a900473ffffffffffffffffffffffffffffffffffffffff1673ffffffffffffffffffffffffffffffffffffffff16636022743e826040518263ffffffff1660e01b81526004016129fb9190613e77565b6020604051808303816000875af1158015612a1a573d6000803e3d6000fd5b505050506040513d601f19601f82011682018060405250810190612a3e9190614230565b508282612a4b9190614b7f565b600160008860000160009054906101000a900473ffffffffffffffffffffffffffffffffffffffff1673ffffffffffffffffffffffffffffffffffffffff1673ffffffffffffffffffffffffffffffffffffffff1681526020019081526020016000206000828254612abd9190614bb3565b925050819055508560000160009054906101000a900473ffffffffffffffffffffffffffffffffffffffff168660030160026101000a81548173ffffffffffffffffffffffffffffffffffffffff021916908373ffffffffffffffffffffffffffffffffffffffff160217905550600360009054906101000a900473ffffffffffffffffffffffffffffffffffffffff1673ffffffffffffffffffffffffffffffffffffffff166108fc849081150290604051600060405180830381858888f19350505050158015612b93573d6000803e3d6000fd5b505050612d49565b600082905060008284612bae9190614b7f565b905060006064601483612bc19190614add565b612bcb9190614b4e565b905060008183612bdb9190614b7f565b84612be69190614bb3565b9050600560009054906101000a900473ffffffffffffffffffffffffffffffffffffffff1673ffffffffffffffffffffffffffffffffffffffff166303eff0b8826040518263ffffffff1660e01b81526004016000604051808303818588803b158015612c5257600080fd5b505af1158015612c66573d6000803e3d6000fd5b5050505050600560009054906101000a900473ffffffffffffffffffffffffffffffffffffffff168860030160026101000a81548173ffffffffffffffffffffffffffffffffffffffff021916908373ffffffffffffffffffffffffffffffffffffffff160217905550600360009054906101000a900473ffffffffffffffffffffffffffffffffffffffff1673ffffffffffffffffffffffffffffffffffffffff166108fc8387612d189190614bb3565b9081150290604051600060405180830381858888f19350505050158015612d43573d6000803e3d6000fd5b50505050505b60028460030160006101000a81548160ff02191690836002811115612d7157612d70613ce3565b5b0217905550847f36e33eea5df2e6c873949c5c856feb597f250ea8a329ed5ac38c39ab969053598560030160029054906101000a900473ffffffffffffffffffffffffffffffffffffffff1685612dc9576000612dcf565b86600201545b604051612ddd9291906142c9565b60405180910390a25050505050565b6000806000838152602001908152602001600020905060008160050160009054906101000a900460ff1615158260050160019054906101000a900460ff161515149050600060028360020154612e429190614add565b905060006064600583612e559190614add565b612e5f9190614b4e565b905060008183612e6f9190614b7f565b90508315612f5d578460000160009054906101000a900473ffffffffffffffffffffffffffffffffffffffff168560030160026101000a81548173ffffffffffffffffffffffffffffffffffffffff021916908373ffffffffffffffffffffffffffffffffffffffff16021790555080600160008760000160009054906101000a900473ffffffffffffffffffffffffffffffffffffffff1673ffffffffffffffffffffffffffffffffffffffff1673ffffffffffffffffffffffffffffffffffffffff1681526020019081526020016000206000828254612f519190614bb3565b9250508190555061303f565b8460010160009054906101000a900473ffffffffffffffffffffffffffffffffffffffff168560030160026101000a81548173ffffffffffffffffffffffffffffffffffffffff021916908373ffffffffffffffffffffffffffffffffffffffff16021790555080600160008760010160009054906101000a900473ffffffffffffffffffffffffffffffffffffffff1673ffffffffffffffffffffffffffffffffffffffff1673ffffffffffffffffffffffffffffffffffffffff16815260200190815260200160002060008282546130379190614bb3565b925050819055505b600360009054906101000a900473ffffffffffffffffffffffffffffffffffffffff1673ffffffffffffffffffffffffffffffffffffffff166108fc839081150290604051600060405180830381858888f193505050501580156130a7573d6000803e3d6000fd5b5060028560030160006101000a81548160ff021916908360028111156130d0576130cf613ce3565b5b0217905550857f36e33eea5df2e6c873949c5c856feb597f250ea8a329ed5ac38c39ab969053598660030160029054906101000a900473ffffffffffffffffffffffffffffffffffffffff168360405161312b9291906142c9565b60405180910390a2505050505050565b6000806000838152602001908152602001600020905060008015158260050160019054906101000a900460ff16151514905060008015158360050160039054906101000a900460ff16151514905060006002846002015461319c9190614add565b9050600060646005836131af9190614add565b6131b99190614b4e565b9050600081836131c99190614b7f565b9050831515851515036133fe576000600283856131e69190614b7f565b6131f09190614b4e565b905080600160008960000160009054906101000a900473ffffffffffffffffffffffffffffffffffffffff1673ffffffffffffffffffffffffffffffffffffffff1673ffffffffffffffffffffffffffffffffffffffff16815260200190815260200160002060008282546132659190614bb3565b9250508190555080600160008960010160009054906101000a900473ffffffffffffffffffffffffffffffffffffffff1673ffffffffffffffffffffffffffffffffffffffff1673ffffffffffffffffffffffffffffffffffffffff16815260200190815260200160002060008282546132df9190614bb3565b9250508190555060008760030160026101000a81548173ffffffffffffffffffffffffffffffffffffffff021916908373ffffffffffffffffffffffffffffffffffffffff160217905550600360009054906101000a900473ffffffffffffffffffffffffffffffffffffffff1673ffffffffffffffffffffffffffffffffffffffff166108fc849081150290604051600060405180830381858888f19350505050158015613392573d6000803e3d6000fd5b5060028760030160006101000a81548160ff021916908360028111156133bb576133ba613ce3565b5b0217905550877fc01911861ae5a7a5b004fda8b4a52b25ecdc8a78ad869354e16b75aedfa4be84826040516133f09190613e77565b60405180910390a2506137b5565b84156135de578560000160009054906101000a900473ffffffffffffffffffffffffffffffffffffffff168660030160026101000a81548173ffffffffffffffffffffffffffffffffffffffff021916908373ffffffffffffffffffffffffffffffffffffffff16021790555080600160008860000160009054906101000a900473ffffffffffffffffffffffffffffffffffffffff1673ffffffffffffffffffffffffffffffffffffffff1673ffffffffffffffffffffffffffffffffffffffff16815260200190815260200160002060008282546134de9190614bb3565b92505081905550600360009054906101000a900473ffffffffffffffffffffffffffffffffffffffff1673ffffffffffffffffffffffffffffffffffffffff166108fc839081150290604051600060405180830381858888f1935050505015801561354d573d6000803e3d6000fd5b5060028660030160006101000a81548160ff0219169083600281111561357657613575613ce3565b5b0217905550867f36e33eea5df2e6c873949c5c856feb597f250ea8a329ed5ac38c39ab969053598760030160029054906101000a900473ffffffffffffffffffffffffffffffffffffffff16836040516135d19291906142c9565b60405180910390a26137b4565b8560010160009054906101000a900473ffffffffffffffffffffffffffffffffffffffff168660030160026101000a81548173ffffffffffffffffffffffffffffffffffffffff021916908373ffffffffffffffffffffffffffffffffffffffff16021790555080600160008860010160009054906101000a900473ffffffffffffffffffffffffffffffffffffffff1673ffffffffffffffffffffffffffffffffffffffff1673ffffffffffffffffffffffffffffffffffffffff16815260200190815260200160002060008282546136b89190614bb3565b92505081905550600360009054906101000a900473ffffffffffffffffffffffffffffffffffffffff1673ffffffffffffffffffffffffffffffffffffffff166108fc839081150290604051600060405180830381858888f19350505050158015613727573d6000803e3d6000fd5b5060028660030160006101000a81548160ff021916908360028111156137505761374f613ce3565b5b0217905550867f36e33eea5df2e6c873949c5c856feb597f250ea8a329ed5ac38c39ab969053598760030160029054906101000a900473ffffffffffffffffffffffffffffffffffffffff16836040516137ab9291906142c9565b60405180910390a25b5b50505050505050565b600080600083815260200190815260200160002090506001808111156137e7576137e6613ce3565b5b8160030160019054906101000a900460ff16600181111561380b5761380a613ce3565b5b14801561382657508060050160029054906101000a900460ff165b1561383a576138348261291b565b50613954565b6000600181111561384e5761384d613ce3565b5b8160030160019054906101000a900460ff16600181111561387257613871613ce3565b5b14801561388d57508060050160009054906101000a900460ff165b80156138a757508060050160029054906101000a900460ff165b156138bb576138b582612dec565b50613954565b600060018111156138cf576138ce613ce3565b5b8160030160019054906101000a900460ff1660018111156138f3576138f2613ce3565b5b14801561390f57508060050160009054906101000a900460ff16155b801561392957508060050160029054906101000a900460ff165b801561394357508060050160049054906101000a900460ff165b15613952576139518261313b565b5b505b50565b6000806000604184510361399c5760008060006020870151925060408701519150606087015160001a905061398e88828585613b17565b9550955095505050506139ac565b60006002855160001b9250925092505b9250925092565b600060038111156139c7576139c6613ce3565b5b8260038111156139da576139d9613ce3565b5b0315613b1357600160038111156139f4576139f3613ce3565b5b826003811115613a0757613a06613ce3565b5b03613a3e576040517ff645eedf00000000000000000000000000000000000000000000000000000000815260040160405180910390fd5b60026003811115613a5257613a51613ce3565b5b826003811115613a6557613a64613ce3565b5b03613aaa578060001c6040517ffce698f7000000000000000000000000000000000000000000000000000000008152600401613aa19190613e77565b60405180910390fd5b600380811115613abd57613abc613ce3565b5b826003811115613ad057613acf613ce3565b5b03613b1257806040517fd78bce0c000000000000000000000000000000000000000000000000000000008152600401613b099190614c00565b60405180910390fd5b5b5050565b60008060007f7fffffffffffffffffffffffffffffff5d576e7357a4501ddfe92f46681b20a08460001c1115613b57576000600385925092509250613c01565b600060018888888860405160008152602001604052604051613b7c9493929190614c37565b6020604051602081039080840390855afa158015613b9e573d6000803e3d6000fd5b505050602060405103519050600073ffffffffffffffffffffffffffffffffffffffff168173ffffffffffffffffffffffffffffffffffffffff1603613bf257600060016000801b93509350935050613c01565b8060008060001b935093509350505b9450945094915050565b600073ffffffffffffffffffffffffffffffffffffffff82169050919050565b6000613c3682613c0b565b9050919050565b613c4681613c2b565b82525050565b6000602082019050613c616000830184613c3d565b92915050565b600080fd5b600080fd5b6000819050919050565b613c8481613c71565b8114613c8f57600080fd5b50565b600081359050613ca181613c7b565b92915050565b600060208284031215613cbd57613cbc613c67565b5b6000613ccb84828501613c92565b91505092915050565b613cdd81613c71565b82525050565b7f4e487b7100000000000000000000000000000000000000000000000000000000600052602160045260246000fd5b60038110613d2357613d22613ce3565b5b50565b6000819050613d3482613d12565b919050565b6000613d4482613d26565b9050919050565b613d5481613d39565b82525050565b60028110613d6b57613d6a613ce3565b5b50565b6000819050613d7c82613d5a565b919050565b6000613d8c82613d6e565b9050919050565b613d9c81613d81565b82525050565b60008115159050919050565b613db781613da2565b82525050565b600061018082019050613dd3600083018f613c3d565b613de0602083018e613c3d565b613ded604083018d613cd4565b613dfa606083018c613d4b565b613e07608083018b613d93565b613e1460a083018a613c3d565b613e2160c0830189613cd4565b613e2e60e0830188613dae565b613e3c610100830187613dae565b613e4a610120830186613dae565b613e58610140830185613dae565b613e66610160830184613dae565b9d9c50505050505050505050505050565b6000602082019050613e8c6000830184613cd4565b92915050565b613e9b81613c2b565b8114613ea657600080fd5b50565b600081359050613eb881613e92565b92915050565b600060208284031215613ed457613ed3613c67565b5b6000613ee284828501613ea9565b91505092915050565b613ef481613da2565b8114613eff57600080fd5b50565b600081359050613f1181613eeb565b92915050565b600080fd5b600080fd5b600080fd5b60008083601f840112613f3c57613f3b613f17565b5b8235905067ffffffffffffffff811115613f5957613f58613f1c565b5b602083019150836001820283011115613f7557613f74613f21565b5b9250929050565b600080600080600080600060a0888a031215613f9b57613f9a613c67565b5b6000613fa98a828b01613c92565b9750506020613fba8a828b01613f02565b965050604088013567ffffffffffffffff811115613fdb57613fda613c6c565b5b613fe78a828b01613f26565b95509550506060613ffa8a828b01613f02565b935050608088013567ffffffffffffffff81111561401b5761401a613c6c565b5b6140278a828b01613f26565b925092505092959891949750929550565b6000806040838503121561404f5761404e613c67565b5b600061405d85828601613c92565b925050602061406e85828601613f02565b9150509250929050565b6000819050919050565b600061409d61409861409384613c0b565b614078565b613c0b565b9050919050565b60006140af82614082565b9050919050565b60006140c1826140a4565b9050919050565b6140d1816140b6565b82525050565b60006020820190506140ec60008301846140c8565b92915050565b6000806040838503121561410957614108613c67565b5b600061411785828601613c92565b925050602061412885828601613ea9565b9150509250929050565b600082825260208201905092915050565b7f5374616b65207265717569726564000000000000000000000000000000000000600082015250565b6000614179600e83614132565b915061418482614143565b602082019050919050565b600060208201905081810360008301526141a88161416c565b9050919050565b7f486f7573655661756c74206e6f74207365740000000000000000000000000000600082015250565b60006141e5601283614132565b91506141f0826141af565b602082019050919050565b60006020820190508181036000830152614214816141d8565b9050919050565b60008151905061422a81613eeb565b92915050565b60006020828403121561424657614245613c67565b5b60006142548482850161421b565b91505092915050565b7f426574206578636565647320706f6f6c20636170616369747900000000000000600082015250565b6000614293601983614132565b915061429e8261425d565b602082019050919050565b600060208201905081810360008301526142c281614286565b9050919050565b60006040820190506142de6000830185613c3d565b6142eb6020830184613cd4565b9392505050565b7f4e487b7100000000000000000000000000000000000000000000000000000000600052601160045260246000fd5b600061432c82613c71565b91507fffffffffffffffffffffffffffffffffffffffffffffffffffffffffffffffff820361435e5761435d6142f2565b5b600182019050919050565b7f4f6e6c79204f7261636c65000000000000000000000000000000000000000000600082015250565b600061439f600b83614132565b91506143aa82614369565b602082019050919050565b600060208201905081810360008301526143ce81614392565b9050919050565b7f47616d65206e6f74206f70656e00000000000000000000000000000000000000600082015250565b600061440b600d83614132565b9150614416826143d5565b602082019050919050565b6000602082019050818103600083015261443a816143fe565b9050919050565b7f496e636f7272656374207374616b650000000000000000000000000000000000600082015250565b6000614477600f83614132565b915061448282614441565b602082019050919050565b600060208201905081810360008301526144a68161446a565b9050919050565b7f496e76616c696420616464726573730000000000000000000000000000000000600082015250565b60006144e3600f83614132565b91506144ee826144ad565b602082019050919050565b60006020820190508181036000830152614512816144d6565b9050919050565b7f4e6f7420617574686f72697a6564207265736f6c766572000000000000000000600082015250565b600061454f601783614132565b915061455a82614519565b602082019050919050565b6000602082019050818103600083015261457e81614542565b9050919050565b7f47616d65206e6f74206163746976650000000000000000000000000000000000600082015250565b60006145bb600f83614132565b91506145c682614585565b602082019050919050565b600060208201905081810360008301526145ea816145ae565b9050919050565b7f416c726561647920766f746564206f6e2d636861696e00000000000000000000600082015250565b6000614627601683614132565b9150614632826145f1565b602082019050919050565b600060208201905081810360008301526146568161461a565b9050919050565b6000819050919050565b61467861467382613c71565b61465d565b82525050565b60008160f81b9050919050565b60006146968261467e565b9050919050565b60006146a88261468b565b9050919050565b6146c06146bb82613da2565b61469d565b82525050565b600081905092915050565b7f564f544500000000000000000000000000000000000000000000000000000000600082015250565b60006147076004836146c6565b9150614712826146d1565b600482019050919050565b60006147298285614667565b60208201915061473982846146af565b600182019150614748826146fa565b91508190509392505050565b7f496e76616c6964205031207369676e6174757265000000000000000000000000600082015250565b600061478a601483614132565b915061479582614754565b602082019050919050565b600060208201905081810360008301526147b98161477d565b9050919050565b7f496e76616c6964205032207369676e6174757265000000000000000000000000600082015250565b60006147f6601483614132565b9150614801826147c0565b602082019050919050565b60006020820190508181036000830152614825816147e9565b9050919050565b60006040820190506148416000830185613c3d565b61484e6020830184613dae565b9392505050565b7f43616e6e6f7420706c617920616761696e73742073656c660000000000000000600082015250565b600061488b601883614132565b915061489682614855565b602082019050919050565b600060208201905081810360008301526148ba8161487e565b9050919050565b7f486f7573655661756c742066756e64696e67206661696c656400000000000000600082015250565b60006148f7601983614132565b9150614902826148c1565b602082019050919050565b60006020820190508181036000830152614926816148ea565b9050919050565b7f4e6f2077696e6e696e677320746f20636c61696d000000000000000000000000600082015250565b6000614963601483614132565b915061496e8261492d565b602082019050919050565b6000602082019050818103600083015261499281614956565b9050919050565b7f503120616c7265616479207375626d6974746564000000000000000000000000600082015250565b60006149cf601483614132565b91506149da82614999565b602082019050919050565b600060208201905081810360008301526149fe816149c2565b9050919050565b7f503220616c7265616479207375626d6974746564000000000000000000000000600082015250565b6000614a3b601483614132565b9150614a4682614a05565b602082019050919050565b60006020820190508181036000830152614a6a81614a2e565b9050919050565b7f4e6f74206120706c6179657220696e20746869732067616d6500000000000000600082015250565b6000614aa7601983614132565b9150614ab282614a71565b602082019050919050565b60006020820190508181036000830152614ad681614a9a565b9050919050565b6000614ae882613c71565b9150614af383613c71565b9250828202614b0181613c71565b91508282048414831517614b1857614b176142f2565b5b5092915050565b7f4e487b7100000000000000000000000000000000000000000000000000000000600052601260045260246000fd5b6000614b5982613c71565b9150614b6483613c71565b925082614b7457614b73614b1f565b5b828204905092915050565b6000614b8a82613c71565b9150614b9583613c71565b9250828203905081811115614bad57614bac6142f2565b5b92915050565b6000614bbe82613c71565b9150614bc983613c71565b9250828201905080821115614be157614be06142f2565b5b92915050565b6000819050919050565b614bfa81614be7565b82525050565b6000602082019050614c156000830184614bf1565b92915050565b600060ff82169050919050565b614c3181614c1b565b82525050565b6000608082019050614c4c6000830187614bf1565b614c596020830186614c28565b614c666040830185614bf1565b614c736060830184614bf1565b9594505050505056fea264697066735822122041ce75fef968f03d34590b888507e90da987983e852df89c8c20b5f33c73644164736f6c63430008180033",
  "linkReferences": {},
  "deployedLinkReferences": {}
}