{
  "_format": "hh-sol-artifact-1",
  "contractName": "OxHuman",
  "sourceName": "contracts/OxHuman.sol",
  "abi": [
    {
      "inputs": [],
      "stateMutability": "nonpayable",
      "type": "constructor"
    },
    {
      "anonymous": false,
      "inputs": [
        {
          "indexed": true,
          "internalType": "uint256",
          "name": "gameId",
          "type": "uint256"
        },
        {
          "indexed": false,
          "internalType": "address",
          "name": "player1",
          "type": "address"
        },
        {
          "indexed": false,
          "internalType": "uint256",
          "name": "stake",
          "type": "uint256"
        }
      ],
      "name": "GameCreated",
      "type": "event"
    },
    {
      "anonymous": false,
      "inputs": [
        {
          "indexed": true,
          "internalType": "uint256",
          "name": "gameId",
          "type": "uint256"
        },
        {
          "indexed": false,
          "internalType": "address",
          "name": "player2",
          "type": "address"
        }
      ],
      "name": "GameJoined",
      "type": "event"
    },
    {
      "anonymous": false,
      "inputs": [
        {
          "indexed": true,
          "internalType": "uint256",
          "name": "gameId",
          "type": "uint256"
        },
        {
          "indexed": false,
          "internalType": "address",
          "name": "winner",
          "type": "address"
        },
        {
          "indexed": false,
          "internalType": "uint256",
          "name": "payout",
          "type": "uint256"
        }
      ],
      "name": "GameResolved",
      "type": "event"
    },
    {
      "anonymous": false,
      "inputs": [
        {
          "indexed": true,
          "internalType": "address",
          "name": "player",
          "type": "address"
        },
        {
          "indexed": false,
          "internalType": "uint256",
          "name": "amount",
          "type": "uint256"
        }
      ],
      "name": "WinningsClaimed",
      "type": "event"
    },
    {
      "inputs": [],
      "name": "claimWinnings",
      "outputs": [],
      "stateMutability": "nonpayable",
      "type": "function"
    },
    {
      "inputs": [],
      "name": "createGame",
      "outputs": [],
      "stateMutability": "payable",
      "type": "function"
    },
    {
      "inputs": [],
      "name": "gameCount",
      "outputs": [
        {
          "internalType": "uint256",
          "name": "",
          "type": "uint256"
        }
      ],
      "stateMutability": "view",
      "type": "function"
    },
    {
      "inputs": [
        {
          "internalType": "uint256",
          "name": "",
          "type": "uint256"
        }
      ],
      "name": "games",
      "outputs": [
        {
          "internalType": "address",
          "name": "player1",
          "type": "address"
        },
        {
          "internalType": "address",
          "name": "player2",
          "type": "address"
        },
        {
          "internalType": "uint256",
          "name": "stake",
          "type": "uint256"
        },
        {
          "internalType": "enum OxHuman.GameStatus",
          "name": "status",
          "type": "uint8"
        },
        {
          "internalType": "address",
          "name": "winner",
          "type": "address"
        },
        {
          "internalType": "uint256",
          "name": "timestamp",
          "type": "uint256"
        },
        {
          "internalType": "bool",
          "name": "isPlayer2Bot",
          "type": "bool"
        },
        {
          "internalType": "bool",
          "name": "player1GuessedBot",
          "type": "bool"
        },
        {
          "internalType": "bool",
          "name": "player1Submitted",
          "type": "bool"
        }
      ],
      "stateMutability": "view",
      "type": "function"
    },
    {
      "inputs": [
        {
          "internalType": "uint256",
          "name": "_gameId",
          "type": "uint256"
        },
        {
          "internalType": "bool",
          "name": "_isBot",
          "type": "bool"
        }
      ],
      "name": "joinGame",
      "outputs": [],
      "stateMutability": "payable",
      "type": "function"
    },
    {
      "inputs": [],
      "name": "oracle",
      "outputs": [
        {
          "internalType": "address",
          "name": "",
          "type": "address"
        }
      ],
      "stateMutability": "view",
      "type": "function"
    },
    {
      "inputs": [
        {
          "internalType": "uint256",
          "name": "_gameId",
          "type": "uint256"
        }
      ],
      "name": "oracleJoinAsBot",
      "outputs": [],
      "stateMutability": "payable",
      "type": "function"
    },
    {
      "inputs": [
        {
          "internalType": "uint256",
          "name": "_gameId",
          "type": "uint256"
        },
        {
          "internalType": "bool",
          "name": "_guessedBot",
          "type": "bool"
        }
      ],
      "name": "submitVerdict",
      "outputs": [],
      "stateMutability": "nonpayable",
      "type": "function"
    },
    {
      "inputs": [
        {
          "internalType": "address",
          "name": "",
          "type": "address"
        }
      ],
      "name": "winnings",
      "outputs": [
        {
          "internalType": "uint256",
          "name": "",
          "type": "uint256"
        }
      ],
      "stateMutability": "view",
      "type": "function"
    }
  ],
  "bytecode": "0x608060405234801561001057600080fd5b5033600360006101000a81548173ffffffffffffffffffffffffffffffffffffffff021916908373ffffffffffffffffffffffffffffffffffffffff16021790555061192c806100616000396000f3fe6080604052600436106100865760003560e01c80637dc0d1d0116100595780637dc0d1d01461012157806394517b901461014c578063b401faf114610168578063c1f0c04b1461017f578063ea3a1499146101a857610086565b8063117a5b901461008b5780634c8f1688146100d05780634d1975b4146100ec5780637255d72914610117575b600080fd5b34801561009757600080fd5b506100b260048036038101906100ad91906110d8565b6101e5565b6040516100c7999897969594939291906111e7565b60405180910390f35b6100ea60048036038101906100e591906110d8565b6102c7565b005b3480156100f857600080fd5b506101016104f4565b60405161010e9190611274565b60405180910390f35b61011f6104fa565b005b34801561012d57600080fd5b506101366107c4565b604051610143919061128f565b60405180910390f35b610166600480360381019061016191906112d6565b6107ea565b005b34801561017457600080fd5b5061017d610a19565b005b34801561018b57600080fd5b506101a660048036038101906101a191906112d6565b610b7d565b005b3480156101b457600080fd5b506101cf60048036038101906101ca9190611342565b610d36565b6040516101dc9190611274565b60405180910390f35b60006020528060005260406000206000915090508060000160009054906101000a900473ffffffffffffffffffffffffffffffffffffffff16908060010160009054906101000a900473ffffffffffffffffffffffffffffffffffffffff16908060020154908060030160009054906101000a900460ff16908060030160019054906101000a900473ffffffffffffffffffffffffffffffffffffffff16908060040154908060050160009054906101000a900460ff16908060050160019054906101000a900460ff16908060050160029054906101000a900460ff16905089565b600360009054906101000a900473ffffffffffffffffffffffffffffffffffffffff1673ffffffffffffffffffffffffffffffffffffffff163373ffffffffffffffffffffffffffffffffffffffff1614610357576040517f08c379a000000000000000000000000000000000000000000000000000000000815260040161034e906113cc565b60405180910390fd5b600080600083815260200190815260200160002090506000600281111561038157610380611155565b5b8160030160009054906101000a900460ff1660028111156103a5576103a4611155565b5b146103e5576040517f08c379a00000000000000000000000000000000000000000000000000000000081526004016103dc90611438565b60405180910390fd5b8060020154341461042b576040517f08c379a0000000000000000000000000000000000000000000000000000000008152600401610422906114a4565b60405180910390fd5b338160010160006101000a81548173ffffffffffffffffffffffffffffffffffffffff021916908373ffffffffffffffffffffffffffffffffffffffff16021790555060018160050160006101000a81548160ff02191690831515021790555060018160030160006101000a81548160ff021916908360028111156104b3576104b2611155565b5b0217905550817f45c4f9cbafe186141862608c493f28b823fde4c2142bedc3f5169961a73fdd22336040516104e8919061128f565b60405180910390a25050565b60025481565b6000341161053d576040517f08c379a000000000000000000000000000000000000000000000000000000000815260040161053490611510565b60405180910390fd5b6040518061012001604052803373ffffffffffffffffffffffffffffffffffffffff168152602001600073ffffffffffffffffffffffffffffffffffffffff1681526020013481526020016000600281111561059c5761059b611155565b5b8152602001600073ffffffffffffffffffffffffffffffffffffffff16815260200142815260200160001515815260200160001515815260200160001515815250600080600254815260200190815260200160002060008201518160000160006101000a81548173ffffffffffffffffffffffffffffffffffffffff021916908373ffffffffffffffffffffffffffffffffffffffff16021790555060208201518160010160006101000a81548173ffffffffffffffffffffffffffffffffffffffff021916908373ffffffffffffffffffffffffffffffffffffffff1602179055506040820151816002015560608201518160030160006101000a81548160ff021916908360028111156106b4576106b3611155565b5b021790555060808201518160030160016101000a81548173ffffffffffffffffffffffffffffffffffffffff021916908373ffffffffffffffffffffffffffffffffffffffff16021790555060a0820151816004015560c08201518160050160006101000a81548160ff02191690831515021790555060e08201518160050160016101000a81548160ff0219169083151502179055506101008201518160050160026101000a81548160ff0219169083151502179055509050506002547f7dfb67e9ff596fca4da65c7eedb128cd1aac553af54b3c0cb733625a2480d8bd33346040516107a2929190611530565b60405180910390a2600260008154809291906107bd90611588565b9190505550565b600360009054906101000a900473ffffffffffffffffffffffffffffffffffffffff1681565b600080600084815260200190815260200160002090506000600281111561081457610813611155565b5b8160030160009054906101000a900460ff16600281111561083857610837611155565b5b14610878576040517f08c379a000000000000000000000000000000000000000000000000000000000815260040161086f90611438565b60405180910390fd5b806002015434146108be576040517f08c379a00000000000000000000000000000000000000000000000000000000081526004016108b5906114a4565b60405180910390fd5b8060000160009054906101000a900473ffffffffffffffffffffffffffffffffffffffff1673ffffffffffffffffffffffffffffffffffffffff163373ffffffffffffffffffffffffffffffffffffffff1603610950576040517f08c379a00000000000000000000000000000000000000000000000000000000081526004016109479061161c565b60405180910390fd5b338160010160006101000a81548173ffffffffffffffffffffffffffffffffffffffff021916908373ffffffffffffffffffffffffffffffffffffffff160217905550818160050160006101000a81548160ff02191690831515021790555060018160030160006101000a81548160ff021916908360028111156109d7576109d6611155565b5b0217905550827f45c4f9cbafe186141862608c493f28b823fde4c2142bedc3f5169961a73fdd2233604051610a0c919061128f565b60405180910390a2505050565b6000600160003373ffffffffffffffffffffffffffffffffffffffff1673ffffffffffffffffffffffffffffffffffffffff16815260200190815260200160002054905060008111610aa0576040517f08c379a0000000000000000000000000000000000000000000000000000000008152600401610a9790611688565b60405180910390fd5b6000600160003373ffffffffffffffffffffffffffffffffffffffff1673ffffffffffffffffffffffffffffffffffffffff168152602001908152602001600020819055503373ffffffffffffffffffffffffffffffffffffffff166108fc829081150290604051600060405180830381858888f19350505050158015610b2b573d6000803e3d6000fd5b503373ffffffffffffffffffffffffffffffffffffffff167f1a31e733a172afcf46074b3106c17f0c298e226442682a03c1e99ce256139ec282604051610b729190611274565b60405180910390a250565b6000806000848152602001908152602001600020905060016002811115610ba757610ba6611155565b5b8160030160009054906101000a900460ff166002811115610bcb57610bca611155565b5b14610c0b576040517f08c379a0000000000000000000000000000000000000000000000000000000008152600401610c02906116f4565b60405180910390fd5b8060000160009054906101000a900473ffffffffffffffffffffffffffffffffffffffff1673ffffffffffffffffffffffffffffffffffffffff163373ffffffffffffffffffffffffffffffffffffffff1614610c9d576040517f08c379a0000000000000000000000000000000000000000000000000000000008152600401610c9490611760565b60405180910390fd5b8060050160029054906101000a900460ff1615610cef576040517f08c379a0000000000000000000000000000000000000000000000000000000008152600401610ce6906117cc565b60405180910390fd5b818160050160016101000a81548160ff02191690831515021790555060018160050160026101000a81548160ff021916908315150217905550610d3183610d4e565b505050565b60016020528060005260406000206000915090505481565b6000806000838152602001908152602001600020905060008160050160009054906101000a900460ff1615158260050160019054906101000a900460ff161515149050600060028360020154610da491906117ec565b905060006064600583610db791906117ec565b610dc1919061185d565b905060008183610dd1919061188e565b90508315610ebf578460000160009054906101000a900473ffffffffffffffffffffffffffffffffffffffff168560030160016101000a81548173ffffffffffffffffffffffffffffffffffffffff021916908373ffffffffffffffffffffffffffffffffffffffff16021790555080600160008760000160009054906101000a900473ffffffffffffffffffffffffffffffffffffffff1673ffffffffffffffffffffffffffffffffffffffff1673ffffffffffffffffffffffffffffffffffffffff1681526020019081526020016000206000828254610eb391906118c2565b92505081905550610fa1565b8460010160009054906101000a900473ffffffffffffffffffffffffffffffffffffffff168560030160016101000a81548173ffffffffffffffffffffffffffffffffffffffff021916908373ffffffffffffffffffffffffffffffffffffffff16021790555080600160008760010160009054906101000a900473ffffffffffffffffffffffffffffffffffffffff1673ffffffffffffffffffffffffffffffffffffffff1673ffffffffffffffffffffffffffffffffffffffff1681526020019081526020016000206000828254610f9991906118c2565b925050819055505b600360009054906101000a900473ffffffffffffffffffffffffffffffffffffffff1673ffffffffffffffffffffffffffffffffffffffff166108fc839081150290604051600060405180830381858888f19350505050158015611009573d6000803e3d6000fd5b5060028560030160006101000a81548160ff0219169083600281111561103257611031611155565b5b0217905550857f36e33eea5df2e6c873949c5c856feb597f250ea8a329ed5ac38c39ab969053598660030160019054906101000a900473ffffffffffffffffffffffffffffffffffffffff168360405161108d929190611530565b60405180910390a2505050505050565b600080fd5b6000819050919050565b6110b5816110a2565b81146110c057600080fd5b50565b6000813590506110d2816110ac565b92915050565b6000602082840312156110ee576110ed61109d565b5b60006110fc848285016110c3565b91505092915050565b600073ffffffffffffffffffffffffffffffffffffffff82169050919050565b600061113082611105565b9050919050565b61114081611125565b82525050565b61114f816110a2565b82525050565b7f4e487b7100000000000000000000000000000000000000000000000000000000600052602160045260246000fd5b6003811061119557611194611155565b5b50565b60008190506111a682611184565b919050565b60006111b682611198565b9050919050565b6111c6816111ab565b82525050565b60008115159050919050565b6111e1816111cc565b82525050565b6000610120820190506111fd600083018c611137565b61120a602083018b611137565b611217604083018a611146565b61122460608301896111bd565b6112316080830188611137565b61123e60a0830187611146565b61124b60c08301866111d8565b61125860e08301856111d8565b6112666101008301846111d8565b9a9950505050505050505050565b60006020820190506112896000830184611146565b92915050565b60006020820190506112a46000830184611137565b92915050565b6112b3816111cc565b81146112be57600080fd5b50565b6000813590506112d0816112aa565b92915050565b600080604083850312156112ed576112ec61109d565b5b60006112fb858286016110c3565b925050602061130c858286016112c1565b9150509250929050565b61131f81611125565b811461132a57600080fd5b50565b60008135905061133c81611316565b92915050565b6000602082840312156113585761135761109d565b5b60006113668482850161132d565b91505092915050565b600082825260208201905092915050565b7f4f6e6c79204f7261636c65000000000000000000000000000000000000000000600082015250565b60006113b6600b8361136f565b91506113c182611380565b602082019050919050565b600060208201905081810360008301526113e5816113a9565b9050919050565b7f47616d65206e6f74206f70656e00000000000000000000000000000000000000600082015250565b6000611422600d8361136f565b915061142d826113ec565b602082019050919050565b6000602082019050818103600083015261145181611415565b9050919050565b7f496e636f7272656374207374616b650000000000000000000000000000000000600082015250565b600061148e600f8361136f565b915061149982611458565b602082019050919050565b600060208201905081810360008301526114bd81611481565b9050919050565b7f5374616b65207265717569726564000000000000000000000000000000000000600082015250565b60006114fa600e8361136f565b9150611505826114c4565b602082019050919050565b60006020820190508181036000830152611529816114ed565b9050919050565b60006040820190506115456000830185611137565b6115526020830184611146565b9392505050565b7f4e487b7100000000000000000000000000000000000000000000000000000000600052601160045260246000fd5b6000611593826110a2565b91507fffffffffffffffffffffffffffffffffffffffffffffffffffffffffffffffff82036115c5576115c4611559565b5b600182019050919050565b7f43616e6e6f7420706c617920616761696e73742073656c660000000000000000600082015250565b600061160660188361136f565b9150611611826115d0565b602082019050919050565b60006020820190508181036000830152611635816115f9565b9050919050565b7f4e6f2077696e6e696e677320746f20636c61696d000000000000000000000000600082015250565b600061167260148361136f565b915061167d8261163c565b602082019050919050565b600060208201905081810360008301526116a181611665565b9050919050565b7f47616d65206e6f74206163746976650000000000000000000000000000000000600082015250565b60006116de600f8361136f565b91506116e9826116a8565b602082019050919050565b6000602082019050818103600083015261170d816116d1565b9050919050565b7f4f6e6c7920506c6179657220312063616e206775657373000000000000000000600082015250565b600061174a60178361136f565b915061175582611714565b602082019050919050565b600060208201905081810360008301526117798161173d565b9050919050565b7f416c7265616479207375626d6974746564000000000000000000000000000000600082015250565b60006117b660118361136f565b91506117c182611780565b602082019050919050565b600060208201905081810360008301526117e5816117a9565b9050919050565b60006117f7826110a2565b9150611802836110a2565b9250828202611810816110a2565b9150828204841483151761182757611826611559565b5b5092915050565b7f4e487b7100000000000000000000000000000000000000000000000000000000600052601260045260246000fd5b6000611868826110a2565b9150611873836110a2565b9250826118835761188261182e565b5b828204905092915050565b6000611899826110a2565b91506118a4836110a2565b92508282039050818111156118bc576118bb611559565b5b92915050565b60006118cd826110a2565b91506118d8836110a2565b92508282019050808211156118f0576118ef611559565b5b9291505056fea264697066735822122092caa7bea118dfe51a5a3a103b37a4830d5be5b4e1bd7d5c6a7defab66c6111a64736f6c63430008180033",
  "linkReferences": {},
  "deployedLinkReferences": {}
}